:020000040000FA
:100000000C945D000C9485000C9485000C94850084
:100010000C9485000C9485000C9485000C9485004C
:100020000C9485000C9485000C9485000C9485003C
:100030000C9485000C9485000C9485000C9485002C
:100040000C94280B0C9485000C94980B0C94720B58
:100050000C9485000C9485000C9485000C9485000C
:100060000C94CA0B0C9485000000000800020100EB
:100070000003040700000000000000000000000072
:10008000250028002B0000000000240027002A0083
:10009000040404040404040402020202020203032E
:1000A0000303030301020408102040800102040836
:1000B0001020010204081020E90C11241FBECFEF0C
:1000C000D8E0DEBFCDBF11E0A0E0B1E0ECEFF9E297
:1000D00002C005900D92A037B107D9F723E0A0E741
:1000E000B1E001C01D92A533B207E1F710E0CDE504
:1000F000D0E004C02197FE010E94AF13CC35D10798
:10010000C9F70E941C0E0C94FC140C94000090E0A3
:10011000FC01EC55FF4F249180579F4FFC018491C7
:10012000882399F090E0880F991FFC01EA57FF4F50
:10013000A591B491FC01E458FF4F859194918FB73C
:10014000F894EC91E22BEC938FBF089590E0FC01C2
:10015000E859FF4F2491FC01EC55FF4F3491FC010D
:10016000E057FF4FE491EE23C9F0222339F023300A
:1001700001F1A8F4213019F1223029F1F0E0EE0F5D
:10018000FF1FE458FF4FA591B4918FB7F894EC91FD
:10019000611126C030953E233C938FBF08952730D0
:1001A000A9F02830C9F0243049F7809180008F7D74
:1001B00003C0809180008F7780938000DFCF84B56B
:1001C0008F7784BDDBCF84B58F7DFBCF8091B0006E
:1001D0008F778093B000D2CF8091B0008F7DF9CF20
:1001E0003E2BDACF3FB7F8948091C5019091C601BC
:1001F000A091C701B091C80126B5A89B05C02F3FAB
:1002000019F00196A11DB11D3FBFBA2FA92F982F3C
:100210008827BC01CD01620F711D811D911D42E037
:10022000660F771F881F991F4A95D1F708958F92FF
:100230009F92AF92BF92CF92DF92EF92FF924B01CB
:100240005C010E94F2006B017C010E94F2006C19BB
:100250007D098E099F09683E734081059105A8F3C9
:1002600021E0821A9108A108B10888EEC80E83E047
:10027000D81EE11CF11C81149104A104B10429F7DA
:10028000FF90EF90DF90CF90BF90AF909F908F90B6
:10029000089508950895AF92BF92CF92DF92EF92A2
:1002A000FF920F931F93CF93DF936C017B018B0120
:1002B000040F151FEB015E01AE18BF08C017D10770
:1002C00059F06991D601ED91FC910190F081E02DFA
:1002D000C6010995892B79F7C501DF91CF911F914F
:1002E0000F91FF90EF90DF90CF90BF90AF90089567
:1002F000FC01538D448D252F30E0842F90E0821B2C
:10030000930B541710F0CF96089501970895FC01B0
:10031000918D828D981761F0A28DAE0FBF2FB11D08
:100320005D968C91928D9F5F9F73928F90E0089560
:100330008FEF9FEF0895FC01918D828D981731F01A
:10034000828DE80FF11D858D90E008958FEF9FEF6E
:100350000895FC01918D228D892F90E0805C9F4F44
:10036000821B91098F73992708958BE392E00E9475
:10037000A90121E0892B09F420E0822F089580E073
:1003800090E0892B29F00E94B50181110C940000A6
:100390000895FC01A48DA80FB92FB11DA35ABF4F1A
:1003A0002C91848D90E001968F739927848FA68974
:1003B000B7892C93A089B1898C91837080648C93C8
:1003C000938D848D981306C00288F389E02D808177
:1003D0008F7D80830895EF92FF920F931F93CF93A9
:1003E000DF93EC0181E0888F9B8D8C8D98131AC070
:1003F000E889F989808185FF15C09FB7F894EE8957
:10040000FF896083E889F9898081837080648083B3
:100410009FBF81E090E0DF91CF911F910F91FF90FE
:10042000EF900895F62E0B8D10E00F5F1F4F0F73A6
:100430001127E02E8C8D8E110CC00FB607FCFACF61
:10044000E889F989808185FFF5CFCE010E94C90135
:10045000F1CFEB8DEC0FFD2FF11DE35AFF4FF08232
:100460009FB7F8940B8FEA89FB8980818062CFCF98
:10047000CF93DF93EC01888D8823B9F0AA89BB89DB
:10048000E889F9898C9185FD03C0808186FD0DC0C6
:100490000FB607FCF7CF8C9185FFF2CF808185FFE7
:1004A000EDCFCE010E94C901E9CFDF91CF91089530
:1004B000CF93DF93FC012781222329F1EC01808572
:1004C0000E94870089850E9487008F81843011F007
:1004D000883099F48A850E9487008B850E94870066
:1004E0008FA58F3F81F00E9487006EA581E068276D
:1004F0008FA5DF91CF910C94A600833011F0863048
:1005000079F78A85EBCFDF91CF910895CF93DF9371
:10051000FC0127812223A1F0EC010190F081E02D64
:100520000284F385E02D60E009958FA58F3F41F0AF
:100530000E9487006EA58FA5DF91CF910C94A60035
:10054000DF91CF910895DC01ED91FC9122853385F7
:10055000477055276627772741505109610971096E
:10056000473051056105710560F4FA01E654FD4F0D
:100570000C94AF13C402C602C802CA02CC02CE0257
:10058000D00261E0F901099465E0FCCF64E0FACFA4
:1005900066E0F8CF62E0F6CF6AE0F4CF68E0F2CF31
:1005A00069E0F0CFCF93DF93EC01CB01BA0126E0F5
:1005B00030E040E050E00E94901362307105810508
:1005C000910589F16CF46115710581059105D1F0F2
:1005D0006130710581059105F9F0DF91CF910895A2
:1005E000643071058105910561F124F16530710573
:1005F0008105910591F7E881F9810284F385E02D69
:1006000066E006C0E881F9810284F385E02D64E0AC
:10061000CE01DF91CF910994E881F9810284F385BD
:10062000E02D65E0F5CFE881F9810284F385E02DC6
:1006300061E0EECFE881F9810284F385E02D63E08B
:10064000E7CFE881F9810284F385E02D62E0E0CF15
:10065000DC01ED91FC910284F385E02D4370552778
:1006600066277727423051056105710571F04330E7
:1006700051056105710559F041305105610571055C
:1006800011F065E0099466E0FDCF6AE0FBCF69E018
:10069000F9CFCF93DF93EC01CB01BA0123E030E037
:1006A00040E050E00E949013613071058105910592
:1006B00099F06230710581059105A9F0672B682BCF
:1006C000692BC1F4E881F9810284F385E02D64E0AF
:1006D000CE01DF91CF910994E881F9810284F385FD
:1006E000E02D61E0F5CFE881F9810284F385E02D0A
:1006F00062E0EECFDF91CF910895DC01ED91FC91A6
:100700000284F385E02D4370552766277727423012
:1007100051056105710571F04330510561057105A1
:1007200059F0413051056105710511F062E00994FD
:1007300063E0FDCF61E0FBCF60E0F9CFCF93DF93C3
:10074000EC01E881F9810284F385E02D8A8160E083
:10075000811162E0CE010995E881F9810284F38577
:10076000E02D8A8161E0811163E0CE0109958CA5BD
:100770009DA58230910538F0880F991F880F991F29
:1007800005970197F1F7E881F9810284F385E02D5F
:100790008A8160E0811162E0CE01DF91CF910994FE
:1007A000CF93DF93EC0120E030E0A901688D798DD3
:1007B0008A8D9B8D0E94C31218162CF4E8A9F9A902
:1007C000DF91CF910994EAA9FBA9FACFCF92DF92EA
:1007D000EF92FF920F931F93CF93DF93DC01179655
:1007E000CC91C43039F0C83059F1C33019F0C6305B
:1007F00049F1C2E08C01085F1F4FF12CE12CC62E9D
:10080000D12CD1E0F8016481C6010E2C02C095956F
:1008100087950A94E2F780FD6D270F5F1F4F808157
:100820000E94A600BFEFEB1AFB0AEC1658F3DF910B
:10083000CF911F910F91FF90EF90DF90CF9008958F
:10084000C4E0D8CFC3E0D6CFDC011796EC91179760
:10085000E93008F038C0F0E0E05DFB4F0C94AF13D6
:1008600039043F0445044B045104630457046304F2
:100870005D04ED91FC910684F785E02D0994ED91DE
:10088000FC910088F189E02DF9CFED91FC9102886F
:10089000F389E02DF3CFED91FC910488F589E02DEB
:1008A000EDCFED91FC910688F789E02DE7CFED9132
:1008B000FC91008CF18DE02DE1CFED91FC91028C4B
:1008C000F38DE02DDBCF08954F925F926F927F9270
:1008D0008F929F92AF92BF92CF92DF92EF92FF9250
:1008E0000F931F93CF93DF93EC01CC88DD88EE88C4
:1008F000FF8888899989AA89BB89C81AD90AEA0A0E
:10090000FB0A688D798D8A8D9B8D9B01AC010E94BD
:10091000C8124B015C0168A179A18AA19BA19B012E
:10092000AC010E94F8109B01AC01C501B4010E940A
:1009300069110E94DB11C114D104E104F10409F032
:10094000B6C062307105810591050CF0D0C01B82E4
:100950001C821D821E82188E198E1A8E1B8E1CAA56
:100960001DAA1EAA1FAAC12CD12C7601C701B6014F
:10097000DF91CF911F910F91FF90EF90DF90CF907B
:10098000BF90AF909F908F907F906F905F904F90AF
:1009900008951016110612061306B4F46C157D05A1
:1009A0008E059F051CF42A812111A1C09B01AC0179
:1009B00088279927DC01821B930BA40BB50B8CAB0A
:1009C0009DABAEABBFAB93C0011511052105310541
:1009D00009F48DC06C157D058E059F050CF087C050
:1009E0008A81882309F483C030952095109501955C
:1009F0001F4F2F4F3F4F0CAB1DAB2EAB3FAB77C004
:100A0000011511052105310509F471C088249924C7
:100A100054018C189D08AE08BF08681579058A0531
:100A20009B050CF064C08A81811161C0DDCFCCAC24
:100A3000DDACEEACFFACA7019601C701B6010E9488
:100A4000F8102B013C01C501B4010E94131220E0F3
:100A500030E040E850E40E94C81220E030E040E876
:100A60005FE30E94F8109B01AC01C301B2010E9438
:100A700069119B01AC01C701B6010E94F7103B014F
:100A80006C01FE01E05CFF4FE080F1800281138188
:100A90009701A8010E94C312181614F4730186016D
:100AA000C701D8018CAF9DAFAEAFBFAF3AC00CA9A4
:100AB0001DA92EA93FA91C141D041E041F040CF41B
:100AC00068CF10161106120613060CF099CF0027F6
:100AD000112798010C191D092E093F09601771078C
:100AE000820793070CF062CF2A8121115FCF8CA877
:100AF0009DA8AEA8BFA881149104A104B10409F077
:100B000096CF88AD99ADAAADBBAD8CAF9DAFAEAF62
:100B1000BFAF81E01C141D041E041F040CF080E014
:100B20008A833FEF831A930AA30AB30A8CAA9DAA69
:100B3000AEAABFAA8CAC9DACAEACBFACC501B40133
:100B40000E94E2116B017C01CB82DC82ED82FE828D
:100B5000A501940160E074E284E799E40E946911C0
:100B6000688F798F8A8F9B8F2A812111FFCE9058B1
:100B7000688F798F8A8F9B8FF9CECF92DF92EF9219
:100B8000FF92CF93DF93CDEED2E0688D798D8A8D81
:100B90009B8D9B01AC010E94C8126B017C0168A176
:100BA00079A18AA19BA19B01AC010E94F8109B0135
:100BB000AC01C701B6010E9469110E94DB116CAB48
:100BC0007DAB8EAB9FABCE01DF91CF91FF90EF90CD
:100BD000DF90CF900C946404089520919101260F2A
:100BE0003327331F21323105ECF420911102FC012F
:100BF00090E080E0243069F082E00895A0919101B6
:100C00002191AC014F585E4FA40FB52FB11D2C930D
:100C10000196861798F380919101680F6093910176
:100C200080E0089581E008951092110281E08093A0
:100C300010021092EB0161E082E10E94A60061E0E7
:100C400083E10E94A600E9EBF0E080818E7F808343
:100C500080818D7F808388E48093B80085E48093D1
:100C6000BC000895CF93DF9391E0909370018823A7
:100C7000B9F0C091B800D091BA008091BC008A7BD5
:100C80008093BC0060E082E10E94A60060E083E106
:100C90000E94A6000E941406D093BA00C093B80028
:100CA000DF91CF9108958F929F92AF92BF92CF9292
:100CB000DF92EF92FF920F931F93CF93DF93D09128
:100CC0003A02D13208F0D7C0182FC09139020E94E1
:100CD000F2006B017C018091110281116BC082E0F6
:100CE00080931102109310028FEF80930F021092E5
:100CF0000E02D0930D02A9E1B2E0EDEEF1E080E04A
:100D0000D81391C01092EC018091EC01CC0FC82B4C
:100D1000C093EC018091EB01813009F088C0109202
:100D2000EB010E94F2006B017C018091EC01809349
:100D3000BB008091130290911402A0911502B09112
:100D40001602892B8A2B8B2BA1F00E94F2000091B6
:100D500013021091140220911502309116026C19A1
:100D60007D098E099F09061717072807390708F418
:100D700042C08091BC0083FDD8CF85EC8093BC003D
:100D80000E94F2006B017C0180911102823009F413
:100D900050C080910F028F3F09F46FC080910F0205
:100DA000803209F46CC080910F02803309F469C06D
:100DB00084E026C08091130290911402A091150244
:100DC000B0911602892B8A2B8B2B09F484CF0E94B9
:100DD000F2008090130290901402A0901502B0903F
:100DE00016026C197D098E099F0986169706A806BA
:100DF000B90608F070CF809112020E94320685E099
:100E00001092180210923A0210921702DF91CF91BD
:100E10001F910F91FF90EF90DF90CF90BF90AF9018
:100E20009F908F9008959D9191938F5F69CF85EEEC
:100E3000A5CF8091130290911402A0911502B09158
:100E40001602892B8A2B8B2B09F49ECF0E94F2006D
:100E50000091130210911402209115023091160294
:100E60006C197D098E099F0906171707280739078E
:100E700008F08ACFC0CF81E0C3CF80E0C1CF82E04D
:100E8000BFCF83E0BDCF1F93CF93DF93EA01122F33
:100E9000DC0111968D919C91DC01ED91FC91028019
:100EA000F381E02D0995C817D90729F4812F0E94F5
:100EB000530691E0811190E0892FDF91CF911F912E
:100EC0000895CF93DF93EC018B818823A1F0888173
:100ED00091E09093170280933902109218021092B9
:100EE0003A0281E00E94530691E0811190E0892F3F
:100EF000DF91CF9108951092CA011092C90110920A
:100F0000180210923A020E94140689E491E090932C
:100F1000B5018093B4018AE491E09093B701809386
:100F2000B60181E08B83CE010E946107982F811169
:100F3000CECFDDCF0895E091CA018091C901E817B5
:100F400030F4F0E0E553FE4F808190E008958FEF9C
:100F50009FEF08959091CA018091C9012FEF3FEF53
:100F6000981748F4E92FF0E0E553FE4F208130E078
:100F70009F5F9093CA01C90108958091C901909122
:100F8000CA01891B990B0895CF92DF92EF92FF92CD
:100F90000F931F93CF93DF937C01CB018A012091A4
:100FA0001702222389F0EB016B01C40ED51ECC156C
:100FB000DD0569F06991D701ED91FC910190F08117
:100FC000E02DC7010995F3CF642F0E94ED05C801FC
:100FD000DF91CF911F910F91FF90EF90DF90CF9015
:100FE0000895CF93DF931F92CDB7DEB76983209129
:100FF00017022223F9F020913A02203258F021E022
:1010000030E0FC013383228390E080E00F90DF9199
:10101000CF91089580911802E82FF0E0E75EFD4F30
:10102000998190838F5F8093180280933A0281E0C8
:1010300090E0ECCF61E0CE0101960E94ED05F7CF84
:1010400090E080E008954F925F926F927F928F922E
:101050009F92AF92BF92CF92DF92EF92FF926B017D
:101060007C0120E030E0A9010E94641187FF04C0E8
:10107000F7FAF094F7F8F09480900D0390900E0337
:10108000A0900F03B0901003A7019601C501B40111
:101090000E946411882309F458C060912103709163
:1010A000220380912303909124030E9413122B01A9
:1010B0003C01A7019601C501B4010E9469119B0181
:1010C000AC01C301B2010E94C8120E94DB116093FF
:1010D0002103709322038093230390932403A70199
:1010E000960160E070E080E090E40E9469110E9447
:1010F0003B1326E53EE04DE25FE30E94C81220E08C
:1011000034E244E759E40E94C812609325037093C7
:1011100026038093270390932803C0920D03D09257
:101120000E03E0920F03F09210038DEE92E0FF9019
:10113000EF90DF90CF90BF90AF909F908F907F9077
:101140006F905F904F900C946404FF90EF90DF904D
:10115000CF90BF90AF909F908F907F906F905F9057
:101160004F9008951F93CF93DF9300D000D01F922C
:10117000CDB7DEB7880F880F8A5F89831A821B82FA
:101180006C837D838091E7029091E802FC012481C9
:10119000358125303105E0F0208111E010931702F0
:1011A000209339021092180210923A0221E045E091
:1011B00050E0BE016F5F7F4F0E94430781270F9071
:1011C0000F900F900F900F90DF91CF911F91089586
:1011D00081E0F5CFCF93DF9300D0CDB7DEB7898321
:1011E0006A838091E7029091E802FC0124813581B5
:1011F0002230310590F0208131E0309317022093A6
:1012000039021092180210923A0221E042E050E0B6
:10121000BE016F5F7F4F0E9443070F900F90DF91D9
:10122000CF9108952F923F924F925F926F927F924B
:101230008F929F92AF92BF92CF92DF92EF92FF92E6
:101240000F931F93CF93DF931F92CDB7DEB76B0140
:101250007C0120E030E040E85FE30E94641187FDFC
:10126000ECC020E030EC4AE555E4C701B6010E942D
:10127000C31218160CF4E8C06091E9027091EA02FA
:101280008091EB029091EC020E9411124B015C01E3
:1012900020E030E040E855E4C701B6010E94C812E2
:1012A0009B01AC01C501B4010E94691120E030E04E
:1012B00040E05FE30E94F81020E030E040E85FE3A8
:1012C0000E94F7106B017C0120E030E040E450E424
:1012D0000E94641187FDC0C020E030E04FE753E476
:1012E000C701B6010E94C31218160CF4BBC0C70197
:1012F000B6010E94E211962E1982E090E702F0906A
:10130000E802D70114968D919C911597892B09F4C9
:101310001AC18C9191E09093170280933902109238
:10132000180210923A0220E041E050E0BE016F5FE7
:101330007F4FC7010E944307882309F404C1882412
:10134000839485EC382EF701C480D58001E0C11468
:10135000D10409F400E0A02EB12CD7012C900E94FA
:10136000F2002B013C0180911102811182C0102FEB
:101370008092110200931002BFEFB0930F021092FF
:101380000E028FEF800F80930D028092EC0180910E
:10139000EC01220C282A2092EC018091EB01813093
:1013A00009F0A8C01092EB010E94F2002B013C0151
:1013B0008091EC018093BB00809113029091140204
:1013C000A0911502B0911602892B8A2B8B2BA1F0CC
:1013D0000E94F200209113023091140240911502F4
:1013E000509116026419750986099709261737075F
:1013F0004807590708F45EC08091BC0083FDD8CF30
:101400003092BC000E94F2002B013C01809111023D
:10141000813009F473C080910E02801710F410918E
:101420000E02EDEEF1E0ABECB1E080E0811709F4E3
:1014300046C091919D938F5FF9CFC12CD12C40E88C
:10144000E42E4FE3F42E18CFC12C30ECD32E3AE526
:10145000E32E35E4F32E10CFC12CD12C20E4E22E64
:10146000FE2C45CFC12CD12C9FE7E92E93E4F92E19
:101470003ECF8091130290911402A0911502B09179
:101480001602892B8A2B8B2B09F46DCF0E94F20058
:1014900020911302309114024091150250911602CE
:1014A00064197509860997092617370748075907E8
:1014B00008F059CF809112020E94320610E010927B
:1014C000CA011093C9011A151B04E9F590E080E0E8
:1014D0008A159B05A8F5D70111968D919C91DC0189
:1014E000ED91FC910284F385E02D0995898381E0DB
:1014F00090E0EECFE5EEE093BC0084CF8091130244
:1015000090911402A0911502B0911602892B8A2B9A
:101510008B2B09F47BCF0E94F200209113023091B3
:10152000140240911502509116026419750986093A
:101530009709261737074807590708F067CFBACF2A
:10154000CD2809F400CF1981612F6F76606180E0AA
:101550000E94EA08692D8EEF0E94EA08612F80E060
:101560000E94EA0865E070E080E090E00E941701C8
:10157000612F606A80E00E94EA080F90DF91CF91AE
:101580001F910F91FF90EF90DF90CF90BF90AF90A1
:101590009F908F907F906F905F904F903F902F9093
:1015A0000895CF93DF93FC0101900020E9F7319774
:1015B000AF01481B590BBC018BE392E00E944B0129
:1015C000EC0142E050E060E571E08BE392E00E94C4
:1015D0004B018C0F9D1FDF91CF9108950C947314D4
:1015E00085ED8093BC008091130290911402A0912C
:1015F0001502B09116020796A11DB11D23E0B69504
:10160000A795979587952A95D1F72091BC0024FD41
:1016100003C01092110208954091130250911402D8
:101620006091150270911602452B462B472B69F3EA
:101630000097A105B10541F02AE22A95F1F700C013
:101640000197A109B109E1CF809112020C943206F1
:101650001F920F920FB60F9211242F933F938F93E7
:101660009F93AF93BF938091C1019091C201A091CC
:10167000C301B091C4013091C00123E0230F2D3785
:1016800058F50196A11DB11D2093C0018093C101A1
:101690009093C201A093C301B093C4018091C5018E
:1016A0009091C601A091C701B091C8010196A11DFA
:1016B000B11D8093C5019093C601A093C701B0935B
:1016C000C801BF91AF919F918F913F912F910F9042
:1016D0000FBE0F901F90189526E8230F0296A11DAC
:1016E000B11DD2CF1F920F920FB60F9211242F93DC
:1016F0003F934F935F936F937F938F939F93AF939A
:10170000BF93EF93FF938BE392E00E94C901FF9197
:10171000EF91BF91AF919F918F917F916F915F9169
:101720004F913F912F910F900FBE0F901F901895E2
:101730001F920F920FB60F9211242F938F939F93A6
:10174000EF93FF93E0914B02F0914C028081E09186
:101750005102F091520282FD1BC09081809154028F
:101760008F5F8F7320915502821741F0E0915402F0
:10177000F0E0E55CFD4F958F80935402FF91EF916F
:101780009F918F912F910F900FBE0F901F901895E2
:101790008081F4CF1F920F920FB60F9211242F93D6
:1017A0003F934F935F936F937F938F939F93AF93E9
:1017B000BF93EF93FF938091B900887F803609F43F
:1017C0004AC0F0F5883209F4A7C018F5803109F451
:1017D0009BC0B8F4882309F4F9C0883009F494C098
:1017E000FF91EF91BF91AF919F918F917F916F91F9
:1017F0005F914F913F912F910F900FBE0F901F90CF
:101800001895883109F488C0803251F780930F020F
:1018100014C0803409F49DC040F48033B9F3883398
:10182000F9F680930F0285ECB0C0803509F485C0CD
:10183000883509F496C0883499F60E94F00AD0CF12
:10184000883909F48CC038F5883729F050F4883687
:1018500011F0803729F683E0809311021092B301D2
:1018600057C0883809F47BC0803919F0803809F0F6
:10187000B7CF8091B301803208F071C0E091B3011D
:1018800081E08E0F8093B3018091BB00F0E0ED56B4
:10189000FE4F80833DC0803B39F0E0F4803A09F48C
:1018A00079C0883A09F09CCF84E0809311021092AD
:1018B000920110929101E091B401F091B501099566
:1018C0008091910181110FC081E08093910110926C
:1018D000710109C0803C09F4A6CF883C09F4A3CF6C
:1018E000883B09F07DCFE091920181E08E0F8093DB
:1018F0009201F0E0EF58FE4F80818093BB00909101
:1019000092018091910129C08091EC018093BB00EC
:1019100085EC8093BC0064CF90910E0280910D0203
:10192000981758F5E0910E0281E08E0F80930E0219
:10193000F0E0E351FE4F8081E9CFE0910E0281E0BB
:101940008E0F80930E028091BB00F0E0E351FE4FBA
:10195000808390910E0280910D029817C8F285E85D
:10196000D8CFE0910E0281E08E0F80930E0280911D
:10197000BB00F0E0E351FE4F8083809110028111A3
:101980005CCF81E08093EB0184EA8093BC001092ED
:10199000110226CF85EC8093BC0010921102809139
:1019A000B301803230F4E091B301F0E0ED56FE4F28
:1019B00010826091B30170E0E091B601F091B7013F
:1019C00083E991E009951092B3010ACF10920F02BA
:1019D00034CFCF92DF92EF92FF9210923E0210929C
:1019E0003D0288EE93E0A0E0B0E080933F02909348
:1019F0004002A0934102B093420220E131E03093D3
:101A00003C0220933B0225EC30E0309348022093C7
:101A1000470224EC30E030934A022093490220EC44
:101A200030E030934C0220934B0221EC30E03093B5
:101A30004E0220934D0222EC30E03093500220936E
:101A40004F0226EC30E03093520220935102109264
:101A500054021092550210925602109257021092A0
:101A6000DB021092DA028093DC029093DD02A093F5
:101A7000DE02B093DF0282E291E09093D90280937C
:101A8000D80284E391E09093EE028093ED0284E02B
:101A90008093F4021092FD021092FE021092FF0257
:101AA000109200031092010310920203109203039C
:101AB000109204031092050310920603109207037C
:101AC000109208031092090310920A0310920B035C
:101AD00010920C0310920D0310920E0310920F033C
:101AE00010921003C12CD12C80E8E82E8FE3F82E41
:101AF000C0921103D0921203E0921303F0921403E8
:101B00001092F0021092F1021092F2021092F3027F
:101B100081E090E090931A03809319038FEF8093F4
:101B20001C031092150310921603109217031092C3
:101B3000180385E08093F50288E08093F60286E042
:101B40008093F70287E08093F80210921B031092B3
:101B50002103109222031092230310922403109267
:101B60002503109226031092270310922803109247
:101B7000290310922A0310922B0310922C03C09277
:101B80002D03D0922E03E0922F03F0923003109297
:101B9000EF021092F9021092FA021092FB021092D8
:101BA000FC028DEE92E00E945802C701B6010E942D
:101BB0002308A70196016091090370910A0380919F
:101BC0000B0390910C030E946411882319F1C092B9
:101BD0000903D0920A03E0920B03F0920C0380E019
:101BE00094E2A4E7B9E480932D0390932E03A0938D
:101BF0002F03B09330038091210390912203A09191
:101C00002303B0912403181619061A061B0614F4B0
:101C10000E94BD0580E48093E40288ED92E09093F9
:101C2000E6028093E5021092E8021092E702FF902C
:101C3000EF90DF90CF900895789484B5826084BD52
:101C400084B5816084BD85B5826085BD85B58160C0
:101C500085BD80916E00816080936E00109281003E
:101C600080918100826080938100809181008160F9
:101C700080938100809180008160809380008091BA
:101C8000B10084608093B1008091B0008160809346
:101C9000B00080917A00846080937A0080917A000D
:101CA000826080937A0080917A00816080937A00CC
:101CB00080917A00806880937A001092C100E09150
:101CC0004B02F0914C0282E08083E0914702F09158
:101CD00048021082E0914902F0914A028FEC808321
:101CE00010925302E0914F02F091500286E08083FF
:101CF000E0914D02F0914E02808180618083E091FD
:101D00004D02F0914E02808188608083E0914D0207
:101D1000F0914E02808180688083E0914D02F091C5
:101D20004E0280818F7D808383E591E00E94D10AFD
:101D300068E27BE68EE69EE40E94230820E030E025
:101D400046E953E46091090370910A0380910B0303
:101D500090910C030E946411882339F180E090E097
:101D6000A6E9B3E48093090390930A03A0930B03BD
:101D7000B0930C0385E595E5A0E5B5E480932D03CC
:101D800090932E03A0932F03B093300380912103EF
:101D900090912203A0912303B091240318161906F1
:101DA0001A061B0614F40E94BD0520E030E046E947
:101DB00053E46091050370910603809107039091AD
:101DC00008030E9464118823D1F180900903909048
:101DD0000A03A0900B03B0900C0375016401F7FA9D
:101DE000F094F7F8F09420E030E046E953ECC501B8
:101DF000B4010E94641187FD0CC020E030E046E988
:101E000053E4C501B4010E94641187FFE5C1750167
:101E1000640120E030E0A901C701B6010E9464110D
:101E2000882369F0C1E020E030E0A901C701B601D4
:101E30000E94C31218160CF0C0E0C093EF0210927B
:101E4000FD021092FE021092FF0210920003109207
:101E500001031092020310920303109204031092E4
:101E60002103109222031092230310922403109254
:101E7000F0021092F1021092F2021092F30210920C
:101E80000503109206031092070310920803809135
:101E9000040190910501092E000CAA0BBB0B0097C1
:101EA000A105B10561F08093010390930203A09313
:101EB0000303B09304038DEE92E00E9464048091CA
:101EC000E7029091E802009711F00E94731486E0F7
:101ED00090E00E94D713EC018091E5029091E60218
:101EE0002091E40228839A8389831B8280E290E018
:101EF0009D838C83D093E802C093E7021092CA01BD
:101F00001092C9011092180210923A020E9414060F
:101F100089E491E09093B5018093B4018AE491E063
:101F20009093B7018093B60181E08B83CE010E942C
:101F300061078823E1F060E880E00E94EA086AE037
:101F400070E080E090E00E94170180E498E7ADE740
:101F5000B1E08093E9029093EA02A093EB02B09380
:101F6000EC0260E070E08AE794E40E94120960E00D
:101F700070E088E492E40E94120964EF71E080E06E
:101F800090E00E94170185E491E090930301809313
:101F90000201909301018093000167E771E084E002
:101FA0000E94B208609102017091030188E00E94D2
:101FB000B20860910001709101018CE00E94B208AA
:101FC00064EF71E080E090E00E9417012FB7F89471
:101FD0008091C1019091C201A091C301B091C4014F
:101FE0002FBF8093BC019093BD01A093BE01B0931D
:101FF000BF018EE591E00E94D10A00E014E0C0E04C
:10200000D0E08FB7F8944091C1015091C201609126
:10201000C3017091C4018FBF8091BC019091BD013B
:10202000A091BE01B091BF016A017B01C81AD90A13
:10203000EA0AFB0A24E6C216D104E104F10404F121
:102040008091B8019091B901A091BA01B091BB0102
:102050008C0D9D1DAE1DBF1D8093B8019093B901DD
:10206000A093BA01B093BB014093BC015093BD0152
:102070006093BE017093BF018CE691E00E94D10A8B
:102080008091F0029091F102A091F202B091F302DE
:10209000892B8A2B8B2B09F44FC00E94F2006B0115
:1020A0007C018091150390911603A0911703B091C4
:1020B0001803B701A601481B590B6A0B7B0B8091D3
:1020C000F0029091F102A091F202B091F302481750
:1020D00059076A077B0780F18091FD029091FE020B
:1020E000A091FF02B09100032091EF02222309F496
:1020F0007AC00196A11DB11D8093FD029093FE024E
:10210000A093FF02B09300034091FD025091FE02A4
:102110006091FF02709100038DEE92E00E94240412
:10212000C0921503D0921603E0921703F0921803A1
:102130008DEE92E00E94640420E030E0A9016091FD
:1021400005037091060380910703909108030E9494
:102150006411811136C040910103509102036091D6
:102160000303709104038091FD029091FE02A091FF
:10217000FF02B0910003481759076A077B0709F56A
:1021800080910401909105019801281B390BC90128
:102190003093050120930401092E000CAA0BBB0B00
:1021A000481759076A077B0761F0809301039093F2
:1021B0000203A0930303B09304038DEE92E00E9408
:1021C0006404209709F41DCF0E94B501882309F407
:1021D00018CF0E94000015CFC12CD12C86E9E82E23
:1021E00083E4F82E1FCE0197A109B10985CF50587D
:1021F000BB27AA270E940F110C9489120E947B1200
:1022000038F00E94821220F039F49F3F19F426F42E
:102210000C9478120EF4E095E7FB0C947212E92FFF
:102220000E949A1258F3BA1762077307840795073A
:1022300020F079F4A6F50C94BC120EF4E0950B2E68
:10224000BA2FA02D0B01B90190010C01CA01A00108
:102250001124FF27591B99F0593F50F4503E68F163
:102260001A16F040A22F232F342F4427585FF3CFA4
:10227000469537952795A795F0405395C9F77EF475
:102280001F16BA0B620B730B840BBAF09150A1F0BE
:10229000FF0FBB1F661F771F881FC2F70EC0BA0F44
:1022A000621F731F841F48F4879577956795B795CC
:1022B000F7959E3F08F0B0CF9395880F08F09927C7
:1022C000EE0F9795879508950E944E1208F481E0CD
:1022D00008950E947D110C9489120E94821258F078
:1022E0000E947B1240F029F45F3F29F00C94721297
:1022F00051110C94BD120C9478120E949A1268F33A
:102300009923B1F3552391F3951B550BBB27AA27AE
:1023100062177307840738F09F5F5F4F220F331FE8
:10232000441FAA1FA9F335D00E2E3AF0E0E832D0B0
:1023300091505040E695001CCAF72BD0FE2F29D0B3
:10234000660F771F881FBB1F261737074807AB0785
:10235000B0E809F0BB0B802DBF01FF2793585F4FFA
:102360003AF09E3F510578F00C9472120C94BD1215
:102370005F3FE4F3983ED4F3869577956795B795DC
:10238000F7959F5FC9F7880F911D9695879597F9E7
:102390000895E1E0660F771F881FBB1F6217730760
:1023A0008407BA0720F0621B730B840BBA0BEE1F75
:1023B00088F7E09508950E94E2116894B1110C9499
:1023C000BD1208950E94A21288F09F5798F0B92F6D
:1023D0009927B751B0F0E1F0660F771F881F991F5A
:1023E0001AF0BA95C9F714C0B13091F00E94BC122E
:1023F000B1E008950C94BC12672F782F8827B85F3E
:1024000039F0B93FCCF3869577956795B395D9F7B1
:102410003EF490958095709561957F4F8F4F9F4FBB
:102420000895E89409C097FB3EF4909580957095C7
:1024300061957F4F8F4F9F4F9923A9F0F92F96E910
:10244000BB279395F695879577956795B795F11185
:10245000F8CFFAF4BB0F11F460FF1BC06F5F7F4F22
:102460008F4F9F4F16C0882311F096E911C0772334
:1024700021F09EE8872F762F05C0662371F096E83D
:10248000862F70E060E02AF09A95660F771F881F0C
:10249000DAF7880F9695879597F90895990F0008B0
:1024A000550FAA0BE0E8FEEF16161706E807F90726
:1024B000C0F012161306E407F50798F0621B730BC1
:1024C000840B950B39F40A2661F0232B242B252B42
:1024D00021F408950A2609F4A140A6958FEF811DE5
:1024E000811D089597F99F6780E870E060E0089586
:1024F0009FEF80EC089500240A941616170618061C
:102500000906089500240A941216130614060506F7
:102510000895092E0394000C11F4882352F0BB0F88
:1025200040F4BF2B11F460FF04C06F5F7F4F8F4FEB
:102530009F4F089557FD9058440F551F59F05F3F26
:1025400071F04795880F97FB991F61F09F3F79F0D5
:1025500087950895121613061406551FF2CF469557
:10256000F1DF08C0161617061806991FF1CF8695D9
:102570007105610508940895E894BB2766277727BD
:10258000CB0197F908950E944E1208F48FEF089539
:102590000E94DB120C9489120E947B1238F00E9478
:1025A000821220F0952311F00C9472120C94781280
:1025B00011240C94BD120E949A1270F3959FC1F3DE
:1025C000950F50E0551F629FF001729FBB27F00DE1
:1025D000B11D639FAA27F00DB11DAA1F649F662736
:1025E000B00DA11D661F829F2227B00DA11D621F85
:1025F000739FB00DA11D621F839FA00D611D221F3F
:10260000749F3327A00D611D231F849F600D211D22
:10261000822F762F6A2F11249F5750409AF0F1F0A5
:1026200088234AF0EE0FFF1FBB1F661F771F881F0E
:1026300091505040A9F79E3F510580F00C947212C2
:102640000C94BD125F3FE4F3983ED4F386957795E2
:102650006795B795F795E7959F5FC1F7FE2B880FB4
:10266000911D9695879597F9089519F416F40C9491
:1026700078120C947B130E94A212B8F39923C9F329
:10268000B6F39F57550B87FF0E9489130024A0E6DD
:1026900040EA900180585695979528F4805C660F23
:1026A000771F881F20F026173707480730F4621B72
:1026B000730B840B202931294A2BA6951794079474
:1026C000202531254A2758F7660F771F881F20F0ED
:1026D00026173707480730F4620B730B840B200D65
:1026E000311D411DA09581F7B901842F9158880FA4
:1026F0009695879508959F3F31F0915020F48795E6
:1027000077956795B795880F911D9695879597F959
:10271000089591505040660F771F881FD2F7089593
:10272000052E97FB1EF400940E94A71357FD07D0B7
:102730000E94B51307FC03D04EF40C94A7135095D8
:102740004095309521953F4F4F4F5F4F089590959D
:102750008095709561957F4F8F4F9F4F0895EE0F35
:10276000FF1F0590F491E02D0994A1E21A2EAA1BF7
:10277000BB1BFD010DC0AA1FBB1FEE1FFF1FA21731
:10278000B307E407F50720F0A21BB30BE40BF50B2E
:10279000661F771F881F991F1A9469F760957095B7
:1027A000809590959B01AC01BD01CF0108950F93D9
:1027B0001F93CF93DF938230910510F482E090E075
:1027C000E0913303F091340330E020E0B0E0A0E08A
:1027D000309799F42115310509F44AC0281B390BAB
:1027E00024303105D8F58A819B816115710589F105
:1027F000FB0193838283FE0111C0408151810281DC
:10280000138148175907E0F04817590799F41097B2
:1028100061F012960C93129713961C933296CF0187
:10282000DF91CF911F910F9108950093330310937F
:102830003403F4CF2115310551F04217530738F016
:10284000A901DB019A01BD01DF01F801C1CFEF0150
:10285000F9CF9093340380933303CDCFFE01E20F81
:10286000F31F819391932250310939832883D7CF65
:102870002091310330913203232B41F42091080140
:1028800030910901309332032093310320910601E6
:10289000309107012115310541F42DB73EB7409124
:1028A0000A0150910B01241B350BE0913103F0918B
:1028B0003203E217F307A0F42E1B3F0B281739074A
:1028C00078F0AC014E5F5F4F2417350748F04E0F8C
:1028D0005F1F5093320340933103819391939FCFB5
:1028E000F0E0E0E09CCFCF93DF930097E9F0FC01AC
:1028F000329713821282A0913303B0913403ED0119
:1029000030E020E01097A1F420813181820F931FE5
:1029100020913103309132032817390709F061C043
:10292000F0933203E0933103DF91CF910895EA01F0
:10293000CE17DF07E8F54A815B819E0141155105FD
:10294000B1F7E901FB83EA8349915991C40FD51F7F
:10295000EC17FD0761F4808191810296840F951F29
:10296000E90199838883828193819B838A83F0E044
:10297000E0E012968D919C9113970097B9F52D91F7
:102980003C911197CD010296820F931F2091310344
:10299000309132032817390739F6309751F51092E4
:1029A000340310923303B0933203A0933103BCCFAE
:1029B000D383C28340815181840F951FC817D907E3
:1029C00061F44E5F5F4F88819981480F591F518391
:1029D00040838A819B81938382832115310509F08D
:1029E000B0CFF0933403E09333039ECFFD01DC01BD
:1029F000C0CF13821282D7CFF894FFCF4501450193
:102A0000000400003503800000000000EB014B01D2
:102A100078013802A90187019B0100000000F1073D
:102A2000C40720089A07BD07AA079B0700000000FB
:102A300086025802EC05EE0A6404E6032404D0037F
:102A40009E037D0349032803D202A3020D0A004915
:102A50004E495420535441525400494E4954204346
:0C2A60004F4D504C455445002E2E2E00CA
:107E0000112484B714BE81FFF0D085E080938100F7
:107E100082E08093C00088E18093C10086E0809377
:107E2000C20080E18093C4008EE0C9D0259A86E02C
:107E300020E33CEF91E0309385002093840096BBD3
:107E4000B09BFECF1D9AA8958150A9F7CC24DD24C4
:107E500088248394B5E0AB2EA1E19A2EF3E0BF2EE7
:107E6000A2D0813461F49FD0082FAFD0023811F036
:107E7000013811F484E001C083E08DD089C08234E0
:107E800011F484E103C0853419F485E0A6D080C0E4
:107E9000853579F488D0E82EFF2485D0082F10E0AE
:107EA000102F00270E291F29000F111F8ED06801E7
:107EB0006FC0863521F484E090D080E0DECF843638
:107EC00009F040C070D06FD0082F6DD080E0C81688
:107ED00080E7D80618F4F601B7BEE895C0E0D1E017
:107EE00062D089930C17E1F7F0E0CF16F0E7DF06D8
:107EF00018F0F601B7BEE89568D007B600FCFDCFD4
:107F0000A601A0E0B1E02C9130E011968C91119780
:107F100090E0982F8827822B932B1296FA010C0160
:107F200087BEE89511244E5F5F4FF1E0A038BF0790
:107F300051F7F601A7BEE89507B600FCFDCF97BE46
:107F4000E89526C08437B1F42ED02DD0F82E2BD052
:107F50003CD0F601EF2C8F010F5F1F4F84911BD097
:107F6000EA94F801C1F70894C11CD11CFA94CF0C13
:107F7000D11C0EC0853739F428D08EE10CD085E9AC
:107F80000AD08FE07ACF813511F488E018D01DD067
:107F900080E101D065CF982F8091C00085FFFCCF94
:107FA0009093C60008958091C00087FFFCCF809118
:107FB000C00084FD01C0A8958091C6000895E0E648
:107FC000F0E098E1908380830895EDDF803219F02E
:107FD00088E0F5DFFFCF84E1DECF1F93182FE3DFCA
:107FE0001150E9F7F2DF1F91089580E0E8DFEE27F6
:047FF000FF270994CA
:027FFE00040479
:00000001FF
