:100000000C9462000C948A000C948A000C948A0070
:100010000C948A000C948A000C948A000C948A0038
:100020000C948A000C948A000C948A000C948A0028
:100030000C948A000C948A000C948A000C948A0018
:100040000C94F00B0C948A000C94600C0C943A0CF9
:100050000C948A000C948A000C948A000C948A00F8
:100060000C94920C0C948A000000000024002700DD
:100070002A0000000000250028002B0000000000DE
:1000800023002600290004040404040404040202DA
:100090000202020203030303030301020408102007
:1000A0004080010204081020010204081020000012
:1000B0000008000201000003040700000000000027
:1000C0000000B10D11241FBECFEFD8E0DEBFCDBFC1
:1000D00011E0A0E0B1E0E6EEFEE202C005900D9274
:1000E000AC39B107D9F723E0ACE9B1E001C01D920A
:1000F000AA36B207E1F710E0C2E6D0E004C02197CB
:10010000FE010E943216C136D107C9F70E94040FC2
:100110000C9471170C940000833081F028F4813026
:1001200099F08230A9F008958730A9F08830C9F09D
:100130008430B1F4809180008F7D03C08091800075
:100140008F7780938000089584B58F7784BD08955C
:1001500084B58F7DFBCF8091B0008F778093B00006
:1001600008958091B0008F7DF9CFCF93DF93E1EBBD
:10017000F0E08491EDE9F0E0D491E9E8F0E0C49199
:10018000CC23A1F081110E948C00EC2FF0E0EE0F47
:10019000FF1FE458FF4FA591B491EC91ED2381E04E
:1001A00090E009F480E0DF91CF91089580E090E045
:1001B000FACF1F93CF93DF93282F30E0F901E25558
:1001C000FF4F8491F901E656FF4FD491F901EA57A8
:1001D000FF4FC491CC23A9F0162F81110E948C00EF
:1001E000EC2FF0E0EE0FFF1FEE58FF4FA591B491FA
:1001F0008FB7F894EC91111108C0D095DE23DC93F1
:100200008FBFDF91CF911F910895DE2BF8CFCF9351
:10021000DF9390E0FC01E656FF4F24918A579F4FF1
:10022000FC0184918823D1F090E0880F991FFC0194
:10023000E859FF4FA591B491FC01EE58FF4FC591CD
:10024000D491623071F49FB7F8943C91822F8095DD
:1002500083238C93E8812E2B28839FBFDF91CF913E
:1002600008958FB7F894EC912E2B2C938FBFF6CF77
:100270003FB7F8948091F0019091F101A091F201C3
:10028000B091F30126B5A89B05C02F3F19F0019648
:10029000A11DB11D3FBFBA2FA92F982F8827BC01E0
:1002A000CD01620F711D811D911D42E0660F771F08
:1002B000881F991F4A95D1F708958F929F92AF9208
:1002C000BF92CF92DF92EF92FF924B015C010E94AE
:1002D00038016B017C010E9438016C197D098E097F
:1002E0009F09683E734081059105A8F321E0821AB9
:1002F0009108A108B10888EEC80E83E0D81EE11C61
:10030000F11C81149104A104B10429F7FF90EF902E
:10031000DF90CF90BF90AF909F908F9008950895F9
:100320000895AF92BF92CF92DF92EF92FF920F9318
:100330001F93CF93DF936C017B018B01040F151F7B
:10034000EB015E01AE18BF08C017D10759F06991E3
:10035000D601ED91FC910190F081E02DC601099547
:10036000892B79F7C501DF91CF911F910F91FF90F4
:10037000EF90DF90CF90BF90AF900895FC01538D28
:10038000448D252F30E0842F90E0821B930B54176F
:1003900010F0CF96089501970895FC01918D828DFC
:1003A000981761F0A28DAE0FBF2FB11D5D968C9195
:1003B000928D9F5F9F73928F90E008958FEF9FEFD4
:1003C0000895FC01918D828D981731F0828DE80F90
:1003D000F11D858D90E008958FEF9FEF0895FC014A
:1003E000918D228D892F90E0805C9F4F821B910917
:1003F0008F739927089586E692E00E94EF0121E02D
:10040000892B09F420E0822F089580E090E0892B69
:1004100029F00E94FB0181110C9400000895FC0159
:10042000A48DA80FB92FB11DA35ABF4F2C91848D55
:1004300090E001968F739927848FA689B7892C93B2
:10044000A089B1898C91837080648C93938D848D05
:10045000981306C00288F389E02D80818F7D808308
:100460000895EF92FF920F931F93CF93DF93EC01C8
:1004700081E0888F9B8D8C8D98131AC0E889F9894B
:10048000808185FF15C09FB7F894EE89FF8960834E
:10049000E889F98980818370806480839FBF81E0CF
:1004A00090E0DF91CF911F910F91FF90EF90089511
:1004B000F62E0B8D10E00F5F1F4F0F731127E02EEC
:1004C0008C8D8E110CC00FB607FCFACFE889F98924
:1004D000808185FFF5CFCE010E940F02F1CFEB8D19
:1004E000EC0FFD2FF11DE35AFF4FF0829FB7F894F8
:1004F0000B8FEA89FB8980818062CFCFCF93DF9316
:10050000EC01888D8823B9F0AA89BB89E889F9892B
:100510008C9185FD03C0808186FD0DC00FB607FC60
:10052000F7CF8C9185FFF2CF808185FFEDCFCE0193
:100530000E940F02E9CFDF91CF910895CF93DF930F
:10054000FC012781222359F1EC0161E080850E94A2
:10055000070161E089850E9407018F81843011F0D5
:100560008830B1F461E08A850E94070161E08B85E3
:100570000E9407018FA58F3F91F061E00E94070163
:100580006EA581E068278FA5DF91CF910C94D900EB
:10059000833011F0863071F761E08A85E9CFDF9111
:1005A000CF910895CF93DF93FC0127812223A9F0F7
:1005B000EC010190F081E02D0284F385E02D60E0F4
:1005C00009958FA58F3F49F061E00E9407016EA554
:1005D0008FA5DF91CF910C94D900DF91CF91089531
:1005E000DC01ED91FC912285338547705527662704
:1005F000772741505109610971094730510561055B
:10060000710560F4FA01E95FFC4F0C943216110396
:1006100013031503170319031B031D0361E0F901FD
:10062000099465E0FCCF64E0FACF66E0F8CF62E0C1
:10063000F6CF6AE0F4CF68E0F2CF69E0F0CFCF9375
:10064000DF93EC01CB01BA0126E030E040E050E05E
:100650000E941316623071058105910589F16CF4D1
:100660006115710581059105D1F061307105810534
:100670009105F9F0DF91CF910895643071058105FE
:10068000910561F124F1653071058105910591F7BE
:10069000E881F9810284F385E02D66E006C0E881F7
:1006A000F9810284F385E02D64E0CE01DF91CF91E2
:1006B0000994E881F9810284F385E02D65E0F5CFA6
:1006C000E881F9810284F385E02D61E0EECFE881D5
:1006D000F9810284F385E02D63E0E7CFE881F981B9
:1006E0000284F385E02D62E0E0CFDC01ED91FC9126
:1006F0000284F385E02D4370552766277727423023
:1007000051056105710571F04330510561057105B1
:1007100059F0413051056105710511F065E009940A
:1007200066E0FDCF6AE0FBCF69E0F9CFCF93DF93BE
:10073000EC01CB01BA0123E030E040E050E00E9440
:100740001316613071058105910599F062307105CC
:1007500081059105A9F0672B682B692BC1F4E8810D
:10076000F9810284F385E02D64E0CE01DF91CF9121
:100770000994E881F9810284F385E02D61E0F5CFE9
:10078000E881F9810284F385E02D62E0EECFDF910C
:10079000CF910895DC01ED91FC910284F385E02D69
:1007A000437055276627772742305105610571054B
:1007B00071F0433051056105710559F04130510523
:1007C0006105710511F062E0099463E0FDCF61E01D
:1007D000FBCF60E0F9CFCF93DF93EC01E881F981A3
:1007E0000284F385E02D8A8160E0811162E0CE0110
:1007F0000995E881F9810284F385E02D8A8161E021
:10080000811163E0CE0109958CA59DA582309105EB
:1008100038F0880F991F880F991F05970197F1F7F6
:10082000E881F9810284F385E02D8A8160E08111FD
:1008300062E0CE01DF91CF910994CF93DF93EC0179
:1008400020E030E0A901688D798D8A8D9B8D0E9412
:10085000D11418162CF4E8A9F9A9DF91CF910994C5
:10086000EAA9FBA9FACFCF92DF92EF92FF920F9302
:100870001F93CF93DF93DC011796CC91C43039F0EE
:10088000C83059F1C33019F0C63049F1C2E08C01CB
:10089000085F1F4FF12CE12CC62ED12CD1E0F801BE
:1008A0006481C6010E2C02C0959587950A94E2F7E3
:1008B00080FD6D270F5F1F4F80810E94D900BFEF21
:1008C000EB1AFB0AEC1658F3DF91CF911F910F91B1
:1008D000FF90EF90DF90CF900895C4E0D8CFC3E0B1
:1008E000D6CFDC011796EC911797E93008F038C0A5
:1008F000F0E0E358FB4F0C94321686048C0492040B
:1009000098049E04B004A404B004AA04ED91FC91E0
:100910000684F785E02D0994ED91FC910088F1891A
:10092000E02DF9CFED91FC910288F389E02DF3CF12
:10093000ED91FC910488F589E02DEDCFED91FC91CE
:100940000688F789E02DE7CFED91FC91008CF18DC1
:10095000E02DE1CFED91FC91028CF38DE02DDBCF0A
:1009600008954F925F926F927F928F929F92AF9273
:10097000BF92CF92DF92EF92FF920F931F93CF938C
:10098000DF93EC01CC88DD88EE88FF88888999891F
:10099000AA89BB89C81AD90AEA0AFB0A688D798D27
:1009A0008A8D9B8D9B01AC010E94D6144B015C018A
:1009B00068A179A18AA19BA19B01AC010E940613A9
:1009C0009B01AC01C501B4010E9477130E94E91399
:1009D000C114D104E104F10409F0B6C0623071051C
:1009E000810591050CF0D0C01B821C821D821E82E5
:1009F000188E198E1A8E1B8E1CAA1DAA1EAA1FAA3B
:100A0000C12CD12C7601C701B601DF91CF911F9186
:100A10000F91FF90EF90DF90CF90BF90AF909F909D
:100A20008F907F906F905F904F90089510161106F1
:100A300012061306B4F46C157D058E059F051CF493
:100A40002A812111A1C09B01AC0188279927DC01D3
:100A5000821B930BA40BB50B8CAB9DABAEABBFABAA
:100A600093C0011511052105310509F48DC06C15E0
:100A70007D058E059F050CF087C08A81882309F4C7
:100A800083C030952095109501951F4F2F4F3F4FF4
:100A90000CAB1DAB2EAB3FAB77C00115110521058B
:100AA000310509F471C08824992454018C189D08DB
:100AB000AE08BF08681579058A059B050CF064C06F
:100AC0008A81811161C0DDCFCCACDDACEEACFFAC76
:100AD000A7019601C701B6010E9406132B013C0134
:100AE000C501B4010E94211420E030E040E850E448
:100AF0000E94D61420E030E040E85FE30E94061335
:100B00009B01AC01C301B2010E9477139B01AC01B0
:100B1000C701B6010E9405133B016C01FE01E05CB8
:100B2000FF4FE080F180028113819701A8010E94AC
:100B3000D114181614F473018601C701D8018CAFC3
:100B40009DAFAEAFBFAF3AC00CA91DA92EA93FA95A
:100B50001C141D041E041F040CF468CF101611068B
:100B6000120613060CF099CF0027112798010C19D3
:100B70001D092E093F0960177107820793070CF0C2
:100B800062CF2A8121115FCF8CA89DA8AEA8BFA8F3
:100B900081149104A104B10409F096CF88AD99ADF8
:100BA000AAADBBAD8CAF9DAFAEAFBFAF81E01C14A3
:100BB0001D041E041F040CF080E08A833FEF831A9B
:100BC000930AA30AB30A8CAA9DAAAEAABFAA8CACA8
:100BD0009DACAEACBFACC501B4010E94F0136B017B
:100BE0007C01CB82DC82ED82FE82A501940160E073
:100BF00074E284E799E40E947713688F798F8A8F73
:100C00009B8F2A812111FFCE9058688F798F8A8F10
:100C10009B8FF9CECF92DF92EF92FF92CF93DF932B
:100C2000C8E1D3E0688D798D8A8D9B8D9B01AC01E5
:100C30000E94D6146B017C0168A179A18AA19BA1B5
:100C40009B01AC010E9406139B01AC01C701B601D8
:100C50000E9477130E94E9136CAB7DAB8EAB9FAB08
:100C6000CE01DF91CF91FF90EF90DF90CF900C9469
:100C7000B10408952091BD01260F3327331F21327F
:100C80003105ECF420913C02FC0190E080E024303E
:100C900069F082E00895A091BD012191AC01435615
:100CA0005E4FA40FB52FB11D2C930196861798F3B4
:100CB0008091BD01680F6093BD0180E0089581E0DF
:100CC000089510923C0281E080933B02109216023C
:100CD00061E082E10E94D90061E083E10E94D900D5
:100CE000E9EBF0E080818E7F808380818D7F80833F
:100CF00088E48093B80085E48093BC000895CF9386
:100D0000DF9391E090939C018823B9F0C091B800E3
:100D1000D091BA008091BC008A7B8093BC0060E0D7
:100D200082E10E94D90060E083E10E94D9000E9424
:100D30006106D093BA00C093B800DF91CF910895B7
:100D40008F929F92AF92BF92CF92DF92EF92FF92DB
:100D50000F931F93CF93DF93D0916502D13208F0A8
:100D6000D7C0182FC09164020E9438016B017C012A
:100D700080913C0281116BC082E080933C02109311
:100D80003B028FEF80933A0210923902D0933802DF
:100D9000A4E4B2E0E8E1F2E080E0D81391C0109260
:100DA000170280911702CC0FC82BC09317028091B5
:100DB0001602813009F088C0109216020E94380194
:100DC0006B017C01809117028093BB0080913E02F1
:100DD00090913F02A0914002B0914102892B8A2B51
:100DE0008B2BA1F00E94380100913E0210913F022E
:100DF00020914002309141026C197D098E099F09B2
:100E0000061717072807390708F442C08091BC006D
:100E100083FDD8CF85EC8093BC000E9438016B0124
:100E20007C0180913C02823009F450C080913A02EA
:100E30008F3F09F46FC080913A02803209F46CC090
:100E400080913A02803309F469C084E026C0809121
:100E50003E0290913F02A0914002B0914102892B45
:100E60008A2B8B2B09F484CF0E94380180903E029C
:100E700090903F02A0904002B09041026C197D0911
:100E80008E099F0986169706A806B90608F070CF46
:100E900080913D020E947F0685E0109243021092ED
:100EA000650210924202DF91CF911F910F91FF9046
:100EB000EF90DF90CF90BF90AF909F908F9008956C
:100EC0009D9191938F5F69CF85EEA5CF80913E0272
:100ED00090913F02A0914002B0914102892B8A2B50
:100EE0008B2B09F49ECF0E94380100913E02109195
:100EF0003F0220914002309141026C197D098E0918
:100F00009F09061717072807390708F08ACFC0CFAF
:100F100081E0C3CF80E0C1CF82E0BFCF83E0BDCF0F
:100F20001F93CF93DF93EA01122FDC0111968D916D
:100F30009C91DC01ED91FC910280F381E02D0995FB
:100F4000C817D90729F4812F0E94A00691E08111CA
:100F500090E0892FDF91CF911F910895CF93DF9378
:100F6000EC018B818823A1F0888191E0909342026B
:100F700080936402109243021092650281E00E9405
:100F8000A00691E0811190E0892FDF91CF91089523
:100F90001092F5011092F401109243021092650232
:100FA0000E9461068FE891E09093E1018093E00157
:100FB00080E991E09093E3018093E20181E08B83EB
:100FC000CE010E94AE07982F8111CECFDDCF0895BC
:100FD000E091F5018091F401E81730F4F0E0EA5077
:100FE000FE4F808190E008958FEF9FEF08959091DC
:100FF000F5018091F4012FEF3FEF981748F4E92FA6
:10100000F0E0EA50FE4F208130E09F5F9093F501C1
:10101000C90108958091F4019091F501891B990B04
:101020000895CF92DF92EF92FF920F931F93CF9389
:10103000DF937C01CB018A0120914202222389F0B7
:10104000EB016B01C40ED51ECC15DD0569F069916D
:10105000D701ED91FC910190F081E02DC701099538
:10106000F3CF642F0E943A06C801DF91CF911F9100
:101070000F91FF90EF90DF90CF900895CF93DF9383
:101080001F92CDB7DEB76983209142022223F9F087
:1010900020916502203258F021E030E0FC013383DA
:1010A000228390E080E00F90DF91CF9108958091AE
:1010B0004302E82FF0E0EC5BFD4F998190838F5F56
:1010C000809343028093650281E090E0ECCF61E081
:1010D000CE0101960E943A06F7CF90E080E0089595
:1010E0004F925F926F927F928F929F92AF92BF9238
:1010F000CF92DF92EF92FF926B017C0120E030E013
:10110000A9010E94721387FF04C0F7FAF094F7F860
:10111000F0948090380390903903A0903A03B090F7
:101120003B03A7019601C501B4010E9472138823F5
:1011300009F458C060914C0370914D0380914E03A7
:1011400090914F030E9421142B013C01A7019601AD
:10115000C501B4010E9477139B01AC01C301B20128
:101160000E94D6140E94E91360934C0370934D03C0
:1011700080934E0390934F03A701960160E070E0C7
:1011800080E090E40E9477130E946D1526E53EE012
:101190004DE25FE30E94D61420E034E244E759E4D4
:1011A0000E94D614609350037093510380935203AE
:1011B00090935303C0923803D0923903E0923A03DC
:1011C000F0923B0388E193E0FF90EF90DF90CF90A7
:1011D000BF90AF909F908F907F906F905F904F9057
:1011E0000C94B104FF90EF90DF90CF90BF90AF9040
:1011F0009F908F907F906F905F904F9008951F9376
:10120000CF93DF9300D000D01F92CDB7DEB7880F09
:10121000880F8A5F89831A821B826C837D83809109
:10122000120390911303FC0124813581253031058F
:10123000E0F0208111E010934202209364021092AA
:1012400043021092650221E045E050E0BE016F5F6D
:101250007F4F0E94900781270F900F900F900F9063
:101260000F90DF91CF911F91089581E0F5CFCF933B
:10127000DF9300D0CDB7DEB789836A8380911203F4
:1012800090911303FC01248135812230310590F0C7
:10129000208131E030934202209364021092430295
:1012A0001092650221E042E050E0BE016F5F7F4F87
:1012B0000E9490070F900F90DF91CF9108952F9289
:1012C0003F924F925F926F927F928F929F92AF92D6
:1012D000BF92CF92DF92EF92FF920F931F93CF9323
:1012E000DF931F92CDB7DEB76B017C0120E030E0C9
:1012F00040E85FE30E94721387FDECC020E030EC11
:101300004AE555E4C701B6010E94D11418160CF441
:10131000E8C06091140370911503809116039091B9
:1013200017030E941F144B015C0120E030E040E8ED
:1013300055E4C701B6010E94D6149B01AC01C5015A
:10134000B4010E94771320E030E040E05FE30E94A8
:10135000061320E030E040E85FE30E9405136B01D4
:101360007C0120E030E040E450E40E94721387FDED
:10137000C0C020E030E04FE753E4C701B6010E944F
:10138000D11418160CF4BBC0C701B6010E94F013AB
:10139000962E1982E0901203F0901303D701149651
:1013A0008D919C911597892B09F41AC18C9191E02C
:1013B000909342028093640210924302109265025D
:1013C00020E041E050E0BE016F5F7F4FC7010E9407
:1013D0009007882309F404C18824839485EC382E6F
:1013E000F701C480D58001E0C114D10409F400E004
:1013F000A02EB12CD7012C900E9438012B013C016A
:1014000080913C02811182C0102F80923C02009397
:101410003B02BFEFB0933A02109239028FEF800F78
:10142000809338028092170280911702220C282A9A
:101430002092170280911602813009F0A8C0109204
:1014400016020E9438012B013C0180911702809303
:10145000BB0080913E0290913F02A0914002B0916A
:101460004102892B8A2B8B2BA1F00E9438012091FD
:101470003E0230913F024091400250914102641976
:10148000750986099709261737074807590708F489
:101490005EC08091BC0083FDD8CF3092BC000E941A
:1014A00038012B013C0180913C02813009F473C06A
:1014B00080913902801710F410913902E8E1F2E0CE
:1014C000A6EFB1E080E0811709F446C091919D93A9
:1014D0008F5FF9CFC12CD12C40E8E42E4FE3F42EDE
:1014E00018CFC12C30ECD32E3AE5E32E35E4F32EA1
:1014F00010CFC12CD12C20E4E22EFE2C45CFC12CE4
:10150000D12C9FE7E92E93E4F92E3ECF80913E0245
:1015100090913F02A0914002B0914102892B8A2B09
:101520008B2B09F46DCF0E94380120913E0230913F
:101530003F024091400250914102641975098609A9
:101540009709261737074807590708F059CF8091A0
:101550003D020E947F0610E01092F5011093F40105
:101560001A151B04E9F590E080E08A159B05A8F5A3
:10157000D70111968D919C91DC01ED91FC91028433
:10158000F385E02D0995898381E090E0EECFE5EECB
:10159000E093BC0084CF80913E0290913F02A091E5
:1015A0004002B0914102892B8A2B8B2B09F47BCF0F
:1015B0000E94380120913E0230913F02409140024A
:1015C0005091410264197509860997092617370752
:1015D0004807590708F067CFBACFCD2809F400CFE4
:1015E0001981612F6F76606180E00E943709692D53
:1015F0008EEF0E943709612F80E00E94370965E075
:1016000070E080E090E00E945D01612F606A80E000
:101610000E9437090F90DF91CF911F910F91FF909A
:10162000EF90DF90CF90BF90AF909F908F907F9082
:101630006F905F904F903F902F900895FC01019024
:101640000020E9F73197AF01481B590BBC0186E632
:1016500092E00C949101CF93DF930E941E0BEC015A
:1016600080E591E00E941E0B8C0F9D1FDF91CF91B2
:1016700008958F929F92AF92BF92CF92DF92EF9296
:10168000FF920F931F93CF93DF93CDB7DEB7A19750
:101690000FB6F894DEBF0FBECDBF6C01990FEE08F8
:1016A000FF08F7FE41C06DE286E692E00E9431023B
:1016B0008C0122273327A9012C193D094E095F0906
:1016C00019A2CE0181967C019AE0892E912CA12C41
:1016D000B12CCA01B901A50194010E94F115605D08
:1016E000F70162937F01211531054105510589F705
:1016F00090E080E0309719F0CF010E941E0B800F20
:10170000911FA1960FB6F894DEBF0FBECDBFDF913B
:10171000CF911F910F91FF90EF90DF90CF90BF90EE
:10172000AF909F908F900895A701960119A28E0106
:101730000F5D1F4F8AE0C82ED12CE12CF12CCA017D
:10174000B901A70196010E94F115605DF80162934D
:101750008F01211531054105510589F790E080E0A1
:10176000309779F2CF010E941E0BCBCF0C94E81674
:1017700085ED8093BC0080913E0290913F02A09144
:101780004002B09141020796A11DB11D23E0B6951C
:10179000A795979587952A95D1F72091BC0024FDB0
:1017A00003C010923C02089540913E0250913F02C6
:1017B0006091400270914102452B462B472B69F303
:1017C0000097A105B10541F02AE22A95F1F700C082
:1017D0000197A109B109E1CF80913D020C947F06E8
:1017E0001F920F920FB60F9211242F933F938F9356
:1017F0009F93AF93BF938091EC019091ED01A091E5
:10180000EE01B091EF013091EB0123E0230F2D3772
:1018100058F50196A11DB11D2093EB018093EC01B9
:101820009093ED01A093EE01B093EF018091F00150
:101830009091F101A091F201B091F3010196A11DE7
:10184000B11D8093F0019093F101A093F201B09348
:10185000F301BF91AF919F918F913F912F910F9085
:101860000FBE0F901F90189526E8230F0296A11D1A
:10187000B11DD2CF1F920F920FB60F9211242F934A
:101880003F934F935F936F937F938F939F93AF9308
:10189000BF93EF93FF9386E692E00E940F02FF91C1
:1018A000EF91BF91AF919F918F917F916F915F91D8
:1018B0004F913F912F910F900FBE0F901F90189551
:1018C0001F920F920FB60F9211242F938F939F9315
:1018D000EF93FF93E0917602F09177028081E0919F
:1018E0007C02F0917D0282FD1BC0908180917F027D
:1018F0008F5F8F7320918002821741F0E0917F0209
:10190000F0E0EA59FD4F958F80937F02FF91EF91B0
:101910009F918F912F910F900FBE0F901F90189550
:101920008081F4CF1F920F920FB60F9211242F9344
:101930003F934F935F936F937F938F939F93AF9357
:10194000BF93EF93FF938091B900887F803609F4AD
:101950004AC0F0F5883209F4A7C018F5803109F4BF
:101960009BC0B8F4882309F4F9C0883009F494C006
:10197000FF91EF91BF91AF919F918F917F916F9167
:101980005F914F913F912F910F900FBE0F901F903D
:101990001895883109F488C0803251F780933A0253
:1019A00014C0803409F49DC040F48033B9F3883307
:1019B000F9F680933A0285ECB0C0803509F485C011
:1019C000883509F496C0883499F60E94B80BD0CFB8
:1019D000883909F48CC038F5883729F050F48836F6
:1019E00011F0803729F683E080933C021092DF01EA
:1019F00057C0883809F47BC0803919F0803809F065
:101A0000B7CF8091DF01803208F071C0E091DF0133
:101A100081E08E0F8093DF018091BB00F0E0E15404
:101A2000FE4F80833DC0803B39F0E0F4803A09F4FA
:101A300079C0883A09F09CCF84E080933C021092F0
:101A4000BE011092BD01E091E001F091E101099524
:101A50008091BD0181110FC081E08093BD01109282
:101A60009D0109C0803C09F4A6CF883C09F4A3CFAE
:101A7000883B09F07DCFE091BE0181E08E0F80931D
:101A8000BE01F0E0E356FE4F80818093BB00909151
:101A9000BE018091BD0129C0809117028093BB00D7
:101AA00085EC8093BC0064CF90913902809138021C
:101AB000981758F5E091390281E08E0F8093390232
:101AC000F0E0E85EFD4F8081E9CFE091390281E0EE
:101AD0008E0F809339028091BB00F0E0E85EFD4FED
:101AE000808390913902809138029817C8F285E876
:101AF000D8CFE091390281E08E0F80933902809136
:101B0000BB00F0E0E85EFD4F808380913B028111D5
:101B10005CCF81E08093160284EA8093BC0010922F
:101B20003C0226CF85EC8093BC0010923C02809151
:101B3000DF01803230F4E091DF01F0E0E154FE4F4C
:101B400010826091DF0170E0E091E201F091E30129
:101B50008FEB91E009951092DF010ACF10923A02C3
:101B600034CFCF92DF92EF92FF92109269021092DF
:101B7000680288EE93E0A0E0B0E080936A02909360
:101B80006B02A0936C02B0936D0220E131E03093C0
:101B900067022093660225EC30E0309373022093B5
:101BA000720224EC30E0309375022093740220EC32
:101BB00030E0309377022093760221EC30E03093CE
:101BC00079022093780222EC30E030937B0220935C
:101BD0007A0226EC30E030937D0220937C02109252
:101BE0007F02109280021092810210928202109263
:101BF0000603109205038093070390930803A093B4
:101C00000903B0930A0382E291E090930403809366
:101C10000303809164039091650390936303809321
:101C20006203809104019091050190936103809378
:101C30006003809102019091030190935F03809370
:101C40005E03809100019091010190935D03809368
:101C50005C0384E391E0909319038093180384E07C
:101C600080931F03109228031092290310922A03D5
:101C700010922B0310922C0310922D0310922E031E
:101C800010922F03109230031092310310923203FE
:101C900010923303109234031092350310923603DE
:101CA00010923703109238031092390310923A03BE
:101CB00010923B03C12CD12C80E8E82E8FE3F82E44
:101CC000C0923C03D0923D03E0923E03F0923F036A
:101CD00010921B0310921C0310921D0310921E03FE
:101CE00081E090E090934503809344038FEF8093CD
:101CF0004703109240031092410310924203109246
:101D0000430385E08093200388E08093210386E0ED
:101D10008093220387E0809323031092460310925E
:101D20004C0310924D0310924E0310924F031092E9
:101D300050031092510310925203109253031092C9
:101D40005403109255031092560310925703C092F9
:101D50005803D0925903E0925A03F0925B03109219
:101D60001A03109224031092250310922603109256
:101D7000270388E193E00E949E02C701B6010E94FA
:101D80007008A7019601609134037091350380912A
:101D90003603909137030E947213882319F1C09281
:101DA0003403D0923503E0923603F092370380E09B
:101DB00094E2A4E7B9E48093580390935903A09365
:101DC0005A03B0935B0380914C0390914D03A09113
:101DD0004E03B0914F03181619061A061B0614F489
:101DE0000E940A0680E480930F0383E093E09093BF
:101DF0001103809310031092130310921203FF90AB
:101E0000EF90DF90CF900895CF93DF93CDB7DEB7FB
:101E100028970FB6F894DEBF0FBECDBF789484B577
:101E2000826084BD84B5816084BD85B5826085BDD6
:101E300085B5816085BD80916E00816080936E0064
:101E40001092810080918100826080938100809156
:101E50008100816080938100809180008160809307
:101E600080008091B10084608093B1008091B000C7
:101E700081608093B00080917A00846080937A00C2
:101E800080917A00826080937A0080917A008160EC
:101E900080937A0080917A00806880937A00109213
:101EA000C100E0917602F091770282E08083E091B8
:101EB0007202F09173021082E0917402F091750247
:101EC0008FEC808310927E02E0917A02F0917B0287
:101ED00086E08083E0917802F091790280818061D0
:101EE0008083E0917802F09179028081886080831C
:101EF000E0917802F0917902808180688083E0919E
:101F00007802F091790280818F7D808383E591E072
:101F10000E942B0B1092E6011092E5011092E40151
:101F200062E083E00E9407018FE591E00E941E0BB2
:101F30008091E4019091E5010E94390B80E591E0E8
:101F40000E941E0B8EE691E00E942B0B68E27BE65E
:101F50008EE69EE40E94700820E030E046E953E4FB
:101F6000609134037091350380913603909137036B
:101F70000E947213882339F180E090E0A6E9B3E46F
:101F80008093340390933503A0933603B0933703C3
:101F900085E595E5A0E5B5E4809358039093590352
:101FA000A0935A03B0935B0380914C0390914D032F
:101FB000A0914E03B0914F03181619061A061B067E
:101FC00014F40E940A0620E030E046E953E46091F0
:101FD00030037091310380913203909133030E945A
:101FE00072138823E1F18090340390903503A09020
:101FF0003603B090370375016401F7FAF094F7F8EF
:10200000F09420E030E046E953ECC501B4010E94B1
:10201000721387FD0CC020E030E046E953E4C501AF
:10202000B4010E94721387FF79C27501640120E038
:1020300030E0A901C701B6010E947213882379F02C
:1020400021E0298320E030E0A901C701B6010E9408
:10205000D11418160CF01982C980C0921A0310927C
:1020600028031092290310922A0310922B03109236
:102070002C0310922D0310922E0310922F03109216
:102080004C0310924D0310924E0310924F03109286
:102090001B0310921C0310921D0310921E0310923A
:1020A00030031092310310923203109233038BE706
:1020B00091E00E942B0B80911203909113030097E3
:1020C00011F00E94E81686E090E00E944C169A8378
:1020D0008983809110039091110320910F03E9816E
:1020E000FA81208392838183138280E290E095833A
:1020F0008483F0931303E09312031092F50110927E
:10210000F40110924302109265020E9461068FE86A
:1021100091E09093E1018093E00180E991E0909358
:10212000E3018093E20181E0E981FA818383CF01B9
:102130000E94AE078823E1F060E880E00E94370942
:102140006AE070E080E090E00E945D0180E498E742
:10215000ADE7B1E08093140390931503A0931603A9
:10216000B093170360E070E08AE794E40E945F098F
:1021700060E070E088E492E40E945F0964EF71E03F
:1021800080E090E00E945D0187E891E00E942B0BC7
:1021900064EF71E080E090E00E945D012FB7F89459
:1021A0008091EC019091ED01A091EE01B091EF01D1
:1021B0002FBF8093E7019093E801A093E901B093CA
:1021C000EA018FB7F8940091EC011091ED01209194
:1021D000EE013091EF018FBF8091E7019091E8010E
:1021E000A091E901B091EA0168017901C81AD90A00
:1021F000EA0AFB0AC701B601623371058105910540
:102200000CF421C10093E7011093E8012093E90148
:102210003093EA010E94211420E030E04AE754E4C0
:102220000E9477136B017C018091E6018111E5C169
:102230000E94B500892B71F581E08093E6018091C1
:10224000E4019091E501019666E070E00E94DD15E1
:102250009093E5018093E40181E991E00E941E0BD7
:102260008091E4019091E5010E94390B80E591E0B5
:102270000E941E0B8091E4019091E501823091054E
:1022800009F486C10CF051C1009709F463C10197AC
:1022900009F477C1E0916203F0916303F887EF835B
:1022A00020916003309161033A8329836091040196
:1022B00070910501621B730B072E000C880B990BA4
:1022C0000E942114A70196010E94D61420E030E05C
:1022D00040E450E40E94D6142B013C0120905E03A0
:1022E00030905F03609102017091030162197309DC
:1022F000072E000C880B990B0E942114A701960150
:102300000E94D61420E030E040E450E40E94D6144D
:102310004B015C0100915C0310915D036091000131
:1023200070910101601B710B072E000C880B990B3B
:102330000E942114A70196010E94D61420E030E0EB
:1023400040E450E40E94D6146B837C838D839E838B
:1023500060916403709165038F819885681B790B88
:10236000072E000C880B990B0E942114A7019601DF
:102370000E94D61420E030E040E450E40E94D614DD
:102380000E9443150E94E913CF80D884C60ED71E41
:10239000D0926303C0926203C301B2010E9443154D
:1023A0000E94E91369807A80660E771E709261033D
:1023B00060926003C501B4010E9443150E94E913B5
:1023C000620D731D70935F0360935E036B817C816C
:1023D0008D819E810E9443150E94E913600F711F39
:1023E00070935D0360935C03C601DD0CAA0BBB0B0D
:1023F00040912C0350912D0360912E0370912F0377
:1024000084179507A607B70761F080932C03909374
:102410002D03A0932E03B0932F0388E193E00E9435
:10242000B104B30184E00E94FF0860915E037091E3
:102430005F0388E00E94FF0860915C0370915D0378
:102440008CE00E94FF0880911B0390911C03A091D7
:102450001D03B0911E03892B8A2B8B2B09F44FC0CF
:102460000E9438016B017C018091400390914103EF
:10247000A0914203B0914303B701A601481B590B39
:102480006A0B7B0B80911B0390911C03A0911D0391
:10249000B0911E03481759076A077B0780F18091A6
:1024A000280390912903A0912A03B0912B03209136
:1024B0001A03222309F49DC00196A11DB11D80932A
:1024C000280390932903A0932A03B0932B034091F0
:1024D00028035091290360912A0370912B0388E10E
:1024E00093E00E947104C0924003D0924103E092B5
:1024F0004203F092430388E193E00E94B10480E03C
:10250000E82E80E0F82EEF2809F45BCE0E94FB0154
:10251000882309F456CE0E94000053CEC12CD12C42
:1025200096E9E92E93E4F92E8BCD8430910509F4D8
:1025300049C0ACF1059709F0ADCE10926503109239
:102540006403E4EFF1E0F0930501E093040122EC71
:1025500031E031C0109265031092640327E731E047
:10256000309305012093040185E491E090930301E9
:1025700080930201E9E5F1E0F0930101E0930001AD
:1025800089CE20E032E0309365032093640382CE4D
:1025900080E09EEF90936503809364037BCE10925E
:1025A000650310926403E7E7F1E0F0930501E0931F
:1025B000040125E431E0309303012093020186ED0C
:1025C00091E012C01092650310926403EAEFF0E00C
:1025D000F0930501E093040128EC30E0309303010F
:1025E000209302018CED90E0909301018093000113
:1025F00051CE0197A109B10962CF0E94B5000197A0
:1026000009F048CE1092E60145CE5058BB27AA27C4
:102610000E941D130C9497140E94891438F00E9494
:10262000901420F039F49F3F19F426F40C9486148A
:102630000EF4E095E7FB0C948014E92F0E94A81497
:1026400058F3BA17620773078407950720F079F4E7
:10265000A6F50C94CA140EF4E0950B2EBA2FA02DFB
:102660000B01B90190010C01CA01A0011124FF273F
:10267000591B99F0593F50F4503E68F11A16F0403A
:10268000A22F232F342F4427585FF3CF4695379539
:102690002795A795F0405395C9F77EF41F16BA0BFE
:1026A000620B730B840BBAF09150A1F0FF0FBB1FAC
:1026B000661F771F881FC2F70EC0BA0F621F731FF5
:1026C000841F48F4879577956795B795F7959E3F52
:1026D00008F0B0CF9395880F08F09927EE0F9795E3
:1026E000879508950E945C1408F481E008950E9483
:1026F0008B130C9497140E94901458F00E94891424
:1027000040F029F45F3F29F00C94801451110C948F
:10271000CB140C9486140E94A81468F39923B1F387
:10272000552391F3951B550BBB27AA2762177307F7
:10273000840738F09F5F5F4F220F331F441FAA1F8B
:10274000A9F335D00E2E3AF0E0E832D09150504047
:10275000E695001CCAF72BD0FE2F29D0660F771FF5
:10276000881FBB1F261737074807AB07B0E809F0DB
:10277000BB0B802DBF01FF2793585F4F3AF09E3F60
:10278000510578F00C9480140C94CB145F3FE4F363
:10279000983ED4F3869577956795B795F7959F5FA3
:1027A000C9F7880F911D9695879597F90895E1E0EF
:1027B000660F771F881FBB1F621773078407BA074E
:1027C00020F0621B730B840BBA0BEE1F88F7E095A9
:1027D00008950E94F0136894B1110C94CB140895DD
:1027E0000E94B01488F09F5798F0B92F9927B751DD
:1027F000B0F0E1F0660F771F881F991F1AF0BA95A5
:10280000C9F714C0B13091F00E94CA14B1E0089524
:102810000C94CA14672F782F8827B85F39F0B93F16
:10282000CCF3869577956795B395D9F73EF4909557
:102830008095709561957F4F8F4F9F4F0895E894D5
:1028400009C097FB3EF490958095709561957F4FF8
:102850008F4F9F4F9923A9F0F92F96E9BB279395A6
:10286000F695879577956795B795F111F8CFFAF4B6
:10287000BB0F11F460FF1BC06F5F7F4F8F4F9F4FE7
:1028800016C0882311F096E911C0772321F09EE845
:10289000872F762F05C0662371F096E8862F70E0AB
:1028A00060E02AF09A95660F771F881FDAF7880F85
:1028B0009695879597F90895990F0008550FAA0BDB
:1028C000E0E8FEEF16161706E807F907C0F0121643
:1028D0001306E407F50798F0621B730B840B950B46
:1028E00039F40A2661F0232B242B252B21F408959B
:1028F0000A2609F4A140A6958FEF811D811D089538
:1029000097F99F6780E870E060E008959FEF80ECA2
:10291000089500240A941616170618060906089545
:1029200000240A9412161306140605060895092EAB
:102930000394000C11F4882352F0BB0F40F4BF2B1A
:1029400011F460FF04C06F5F7F4F8F4F9F4F08955A
:1029500057FD9058440F551F59F05F3F71F0479550
:10296000880F97FB991F61F09F3F79F08795089535
:10297000121613061406551FF2CF4695F1DF08C054
:10298000161617061806991FF1CF86957105610571
:1029900008940895E894BB2766277727CB0197F919
:1029A00008950E945C1408F48FEF08950E94E914C2
:1029B0000C9497140E94891438F00E94901420F00F
:1029C000952311F00C9480140C94861411240C940B
:1029D000CB140E94A81470F3959FC1F3950F50E09B
:1029E000551F629FF001729FBB27F00DB11D639FC1
:1029F000AA27F00DB11DAA1F649F6627B00DA11D67
:102A0000661F829F2227B00DA11D621F739FB00D0C
:102A1000A11D621F839FA00D611D221F749F33277C
:102A2000A00D611D231F849F600D211D822F762F15
:102A30006A2F11249F5750409AF0F1F088234AF0F2
:102A4000EE0FFF1FBB1F661F771F881F915050405E
:102A5000A9F79E3F510580F00C9480140C94CB1480
:102A60005F3FE4F3983ED4F3869577956795B795E5
:102A7000F795E7959F5FC1F7FE2B880F911D9695FF
:102A8000879597F908950E94B014E8F09E37E8F012
:102A90009639B8F49E3848F4672F782F8827985FC6
:102AA000F9CF86957795679593959539D0F3B62F9D
:102AB000B1706B0F711D811D20F487957795679517
:102AC00093950C94AD150C94C8150C94CB1419F473
:102AD00016F40C9486140C94C8150E94B014B8F324
:102AE0009923C9F3B6F39F57550B87FF0E94D6155C
:102AF0000024A0E640EA900180585695979528F466
:102B0000805C660F771F881F20F02617370748075D
:102B100030F4621B730B840B202931294A2BA695B4
:102B200017940794202531254A2758F7660F771FF9
:102B3000881F20F026173707480730F4620B730B05
:102B4000840B200D311D411DA09581F7B901842F03
:102B50009158880F969587950895882371F4772367
:102B600021F09850872B762F07C0662311F4992700
:102B70000DC09051862B70E060E02AF09A95660FA8
:102B8000771F881FDAF7880F9695879597F908952C
:102B90009F3F31F0915020F4879577956795B795D1
:102BA000880F911D9695879597F9089591505040FB
:102BB000660F771F881FD2F7089597FB072E16F42C
:102BC000009407D077FD09D00E94381607FC05D085
:102BD0003EF4909581959F4F0895709561957F4F34
:102BE0000895A1E21A2EAA1BBB1BFD010DC0AA1F4E
:102BF000BB1FEE1FFF1FA217B307E407F50720F066
:102C0000A21BB30BE40BF50B661F771F881F991FE0
:102C10001A9469F760957095809590959B01AC0129
:102C2000BD01CF010895052E97FB1EF400940E946C
:102C30002A1657FD07D00E94F11507FC03D04EF469
:102C40000C942A1650954095309521953F4F4F4F43
:102C50005F4F089590958095709561957F4F8F4F48
:102C60009F4F0895EE0FFF1F0590F491E02D0994FA
:102C7000AA1BBB1B51E107C0AA1FBB1FA617B707A2
:102C800010F0A61BB70B881F991F5A95A9F78095BE
:102C90009095BC01CD0108950F931F93CF93DF93BF
:102CA0008230910510F482E090E0E0916803F091A9
:102CB000690330E020E0B0E0A0E0309799F42115FE
:102CC000310509F44AC0281B390B24303105D8F5E9
:102CD0008A819B816115710589F1FB019383828350
:102CE000FE0111C0408151810281138148175907AB
:102CF000E0F04817590799F4109761F012960C9379
:102D0000129713961C933296CF01DF91CF911F91AA
:102D10000F9108950093680310936903F4CF211570
:102D2000310551F04217530738F0A901DB019A0130
:102D3000BD01DF01F801C1CFEF01F9CF9093690325
:102D400080936803CDCFFE01E20FF31F819391932F
:102D50002250310939832883D7CF209166033091DF
:102D60006703232B41F4209108013091090130932E
:102D70006703209366032091060130910701211516
:102D8000310541F42DB73EB740910A0150910B0136
:102D9000241B350BE0916603F0916703E217F307FC
:102DA000A0F42E1B3F0B2817390778F0AC014E5FBB
:102DB0005F4F2417350748F04E0F5F1F509367038E
:102DC00040936603819391939FCFF0E0E0E09CCF26
:102DD000CF93DF930097E9F0FC01329713821282C0
:102DE000A0916803B0916903ED0130E020E01097F5
:102DF000A1F420813181820F931F209166033091CD
:102E000067032817390709F061C0F0936703E0935F
:102E10006603DF91CF910895EA01CE17DF07E8F549
:102E20004A815B819E0141155105B1F7E901FB83A0
:102E3000EA8349915991C40FD51FEC17FD0761F43E
:102E4000808191810296840F951FE901998388837F
:102E5000828193819B838A83F0E0E0E012968D91DA
:102E60009C9113970097B9F52D913C911197CD0145
:102E70000296820F931F20916603309167032817F3
:102E8000390739F6309751F51092690310926803AB
:102E9000B0936703A0936603BCCFD383C283408102
:102EA0005181840F951FC817D90761F44E5F5F4F9A
:102EB00088819981480F591F518340838A819B8162
:102EC000938382832115310509F0B0CFF093690314
:102ED000E09368039ECFFD01DC01C0CF1382128214
:062EE000D7CFF894FFCFEC
:102EE60059014501770100006A03800000000000D7
:102EF60031029101BE017E02EF01CD01E101000028
:102F060000003E0811086D08E7070A08F707E807FA
:102F160000000000D2029E023906B60BB10433044B
:102F260071041D04EB03CA03960375031F03F00225
:102F36000D0A00494E495420425554544F4E0049FB
:102F46004E495449414C204D4F44453A2000494E84
:102F56004954205354455050455200494E49542037
:102F6600534552564F5300494E495420504F5345EE
:0C2F7600004E4557204D4F44453A2000C6
:00000001FF
