:020000040000FA
:100000000C945D000C9485000C9485000C94850084
:100010000C9485000C9485000C9485000C9485004C
:100020000C9485000C9485000C9485000C9485003C
:100030000C9485000C9485000C9485000C9485002C
:100040000C940B0B0C9485000C947B0B0C94550BAF
:100050000C9485000C9485000C9485000C9485000C
:100060000C94AD0B0C948500000000080002010008
:100070000003040700000000000000000000000072
:10008000250028002B0000000000240027002A0083
:10009000040404040404040402020202020203032E
:1000A0000303030301020408102040800102040836
:1000B0001020010204081020CC0C11241FBECFEF29
:1000C000D8E0DEBFCDBF11E0A0E0B1E0E4E2F9E2AC
:1000D00002C005900D92A035B107D9F723E0A0E545
:1000E000B1E001C01D92AD30B207E1F710E0CDE5FF
:1000F000D0E004C02197FE010E944313CC35D10704
:10010000C9F70E94FF0D0C9490140C94000090E02D
:10011000FC01EC55FF4F249180579F4FFC018491C7
:10012000882399F090E0880F991FFC01EA57FF4F50
:10013000A591B491FC01E458FF4F859194918FB73C
:10014000F894EC91E22BEC938FBF089590E0FC01C2
:10015000E859FF4F2491FC01EC55FF4F3491FC010D
:10016000E057FF4FE491EE23C9F0222339F023300A
:1001700001F1A8F4213019F1223029F1F0E0EE0F5D
:10018000FF1FE458FF4FA591B4918FB7F894EC91FD
:10019000611126C030953E233C938FBF08952730D0
:1001A000A9F02830C9F0243049F7809180008F7D74
:1001B00003C0809180008F7780938000DFCF84B56B
:1001C0008F7784BDDBCF84B58F7DFBCF8091B0006E
:1001D0008F778093B000D2CF8091B0008F7DF9CF20
:1001E0003E2BDACF3FB7F89480919D0190919E010C
:1001F000A0919F01B091A00126B5A89B05C02F3FFB
:1002000019F00196A11DB11D3FBFBA2FA92F982F3C
:100210008827BC01CD01620F711D811D911D42E037
:10022000660F771F881F991F4A95D1F708958F92FF
:100230009F92AF92BF92CF92DF92EF92FF924B01CB
:100240005C010E94F2006B017C010E94F2006C19BB
:100250007D098E099F09683E734081059105A8F3C9
:1002600021E0821A9108A108B10888EEC80E83E047
:10027000D81EE11CF11C81149104A104B10429F7DA
:10028000FF90EF90DF90CF90BF90AF909F908F90B6
:10029000089508950895AF92BF92CF92DF92EF92A2
:1002A000FF920F931F93CF93DF936C017B018B0120
:1002B000040F151FEB015E01AE18BF08C017D10770
:1002C00059F06991D601ED91FC910190F081E02DFA
:1002D000C6010995892B79F7C501DF91CF911F914F
:1002E0000F91FF90EF90DF90CF90BF90AF90089567
:1002F000FC01538D448D252F30E0842F90E0821B2C
:10030000930B541710F0CF96089501970895FC01B0
:10031000918D828D981761F0A28DAE0FBF2FB11D08
:100320005D968C91928D9F5F9F73928F90E0089560
:100330008FEF9FEF0895FC01918D828D981731F01A
:10034000828DE80FF11D858D90E008958FEF9FEF6E
:100350000895FC01918D228D892F90E0805C9F4F44
:10036000821B91098F739927089583E192E00E947F
:10037000A90121E0892B09F420E0822F089580E073
:1003800090E0892B29F00E94B50181110C940000A6
:100390000895FC01A48DA80FB92FB11DA35ABF4F1A
:1003A0002C91848D90E001968F739927848FA68974
:1003B000B7892C93A089B1898C91837080648C93C8
:1003C000938D848D981306C00288F389E02D808177
:1003D0008F7D80830895EF92FF920F931F93CF93A9
:1003E000DF93EC0181E0888F9B8D8C8D98131AC070
:1003F000E889F989808185FF15C09FB7F894EE8957
:10040000FF896083E889F9898081837080648083B3
:100410009FBF81E090E0DF91CF911F910F91FF90FE
:10042000EF900895F62E0B8D10E00F5F1F4F0F73A6
:100430001127E02E8C8D8E110CC00FB607FCFACF61
:10044000E889F989808185FFF5CFCE010E94C90135
:10045000F1CFEB8DEC0FFD2FF11DE35AFF4FF08232
:100460009FB7F8940B8FEA89FB8980818062CFCF98
:10047000CF93DF93EC01888D8823B9F0AA89BB89DB
:10048000E889F9898C9185FD03C0808186FD0DC0C6
:100490000FB607FCF7CF8C9185FFF2CF808185FFE7
:1004A000EDCFCE010E94C901E9CFDF91CF91089530
:1004B000CF93DF93FC012781222329F1EC01808572
:1004C0000E94870089850E9487008F81843011F007
:1004D000883099F48A850E9487008B850E94870066
:1004E0008FA58F3F81F00E9487006EA581E068276D
:1004F0008FA5DF91CF910C94A600833011F0863048
:1005000079F78A85EBCFDF91CF910895CF93DF9371
:10051000FC0127812223A1F0EC010190F081E02D64
:100520000284F385E02D60E009958FA58F3F41F0AF
:100530000E9487006EA58FA5DF91CF910C94A60035
:10054000DF91CF910895DC01ED91FC9122853385F7
:10055000477055276627772741505109610971096E
:10056000473051056105710560F4FA01E654FD4F0D
:100570000C944313C402C602C802CA02CC02CE02C3
:10058000D00261E0F901099465E0FCCF64E0FACFA4
:1005900066E0F8CF62E0F6CF6AE0F4CF68E0F2CF31
:1005A00069E0F0CFCF93DF93EC01CB01BA0126E0F5
:1005B00030E040E050E00E94241362307105810574
:1005C000910589F16CF46115710581059105D1F0F2
:1005D0006130710581059105F9F0DF91CF910895A2
:1005E000643071058105910561F124F16530710573
:1005F0008105910591F7E881F9810284F385E02D69
:1006000066E006C0E881F9810284F385E02D64E0AC
:10061000CE01DF91CF910994E881F9810284F385BD
:10062000E02D65E0F5CFE881F9810284F385E02DC6
:1006300061E0EECFE881F9810284F385E02D63E08B
:10064000E7CFE881F9810284F385E02D62E0E0CF15
:10065000DC01ED91FC910284F385E02D4370552778
:1006600066277727423051056105710571F04330E7
:1006700051056105710559F041305105610571055C
:1006800011F065E0099466E0FDCF6AE0FBCF69E018
:10069000F9CFCF93DF93EC01CB01BA0123E030E037
:1006A00040E050E00E9424136130710581059105FE
:1006B00099F06230710581059105A9F0672B682BCF
:1006C000692BC1F4E881F9810284F385E02D64E0AF
:1006D000CE01DF91CF910994E881F9810284F385FD
:1006E000E02D61E0F5CFE881F9810284F385E02D0A
:1006F00062E0EECFDF91CF910895DC01ED91FC91A6
:100700000284F385E02D4370552766277727423012
:1007100051056105710571F04330510561057105A1
:1007200059F0413051056105710511F062E00994FD
:1007300063E0FDCF61E0FBCF60E0F9CFCF93DF93C3
:10074000EC01E881F9810284F385E02D8A8160E083
:10075000811162E0CE010995E881F9810284F38577
:10076000E02D8A8161E0811163E0CE0109958CA5BD
:100770009DA58230910538F0880F991F880F991F29
:1007800005970197F1F7E881F9810284F385E02D5F
:100790008A8160E0811162E0CE01DF91CF910994FE
:1007A000CF93DF93EC0120E030E0A901688D798DD3
:1007B0008A8D9B8D0E94571218162CF4E8A9F9A96E
:1007C000DF91CF910994EAA9FBA9FACFCF92DF92EA
:1007D000EF92FF920F931F93CF93DF93DC01179655
:1007E000CC91C43039F0C83059F1C33019F0C6305B
:1007F00049F1C2E08C01085F1F4FF12CE12CC62E9D
:10080000D12CD1E0F8016481C6010E2C02C095956F
:1008100087950A94E2F780FD6D270F5F1F4F808157
:100820000E94A600BFEFEB1AFB0AEC1658F3DF910B
:10083000CF911F910F91FF90EF90DF90CF9008958F
:10084000C4E0D8CFC3E0D6CFDC011796EC91179760
:10085000E93008F038C0F0E0E05DFB4F0C94431342
:1008600039043F0445044B045104630457046304F2
:100870005D04ED91FC910684F785E02D0994ED91DE
:10088000FC910088F189E02DF9CFED91FC9102886F
:10089000F389E02DF3CFED91FC910488F589E02DEB
:1008A000EDCFED91FC910688F789E02DE7CFED9132
:1008B000FC91008CF18DE02DE1CFED91FC91028C4B
:1008C000F38DE02DDBCF08954F925F926F927F9270
:1008D0008F929F92AF92BF92CF92DF92EF92FF9250
:1008E0000F931F93CF93DF93EC01CC88DD88EE88C4
:1008F000FF8888899989AA89BB89C81AD90AEA0A0E
:10090000FB0A688D798D8A8D9B8D9B01AC010E94BD
:100910005C124B015C0168A179A18AA19BA19B019A
:10092000AC010E948C109B01AC01C501B4010E9476
:10093000FD100E946F11C114D104E104F10409F00B
:10094000B6C062307105810591050CF0D0C01B82E4
:100950001C821D821E82188E198E1A8E1B8E1CAA56
:100960001DAA1EAA1FAAC12CD12C7601C701B6014F
:10097000DF91CF911F910F91FF90EF90DF90CF907B
:10098000BF90AF909F908F907F906F905F904F90AF
:1009900008951016110612061306B4F46C157D05A1
:1009A0008E059F051CF42A812111A1C09B01AC0179
:1009B00088279927DC01821B930BA40BB50B8CAB0A
:1009C0009DABAEABBFAB93C0011511052105310541
:1009D00009F48DC06C157D058E059F050CF087C050
:1009E0008A81882309F483C030952095109501955C
:1009F0001F4F2F4F3F4F0CAB1DAB2EAB3FAB77C004
:100A0000011511052105310509F471C088249924C7
:100A100054018C189D08AE08BF08681579058A0531
:100A20009B050CF064C08A81811161C0DDCFCCAC24
:100A3000DDACEEACFFACA7019601C701B6010E9488
:100A40008C102B013C01C501B4010E94A71120E0CC
:100A500030E040E850E40E945C1220E030E040E8E2
:100A60005FE30E948C109B01AC01C301B2010E94A4
:100A7000FD109B01AC01C701B6010E948B103B0128
:100A80006C01FE01E05CFF4FE080F1800281138188
:100A90009701A8010E945712181614F473018601D9
:100AA000C701D8018CAF9DAFAEAFBFAF3AC00CA9A4
:100AB0001DA92EA93FA91C141D041E041F040CF41B
:100AC00068CF10161106120613060CF099CF0027F6
:100AD000112798010C191D092E093F09601771078C
:100AE000820793070CF062CF2A8121115FCF8CA877
:100AF0009DA8AEA8BFA881149104A104B10409F077
:100B000096CF88AD99ADAAADBBAD8CAF9DAFAEAF62
:100B1000BFAF81E01C141D041E041F040CF080E014
:100B20008A833FEF831A930AA30AB30A8CAA9DAA69
:100B3000AEAABFAA8CAC9DACAEACBFACC501B40133
:100B40000E9476116B017C01CB82DC82ED82FE82F9
:100B5000A501940160E074E284E799E40E94FD102D
:100B6000688F798F8A8F9B8F2A812111FFCE9058B1
:100B7000688F798F8A8F9B8FF9CECF92DF92EF9219
:100B8000FF92CF93DF93C5ECD2E0688D798D8A8D8B
:100B90009B8D9B01AC010E945C126B017C0168A1E2
:100BA00079A18AA19BA19B01AC010E948C109B01A1
:100BB000AC01C701B6010E94FD100E946F116CAB21
:100BC0007DAB8EAB9FABCE01DF91CF91FF90EF90CD
:100BD000DF90CF900C946404089520917101260F4A
:100BE0003327331F21323105ECF42091E901FC0158
:100BF00090E080E0243069F082E00895A0917101D6
:100C00002191AC014F5A5E4FA40FB52FB11D2C930B
:100C10000196861798F380917101680F60937101B6
:100C200080E0089581E008951092E90181E08093C9
:100C3000E8011092C30161E082E10E94A60061E038
:100C400083E10E94A600E9EBF0E080818E7F808343
:100C500080818D7F808388E48093B80085E48093D1
:100C6000BC000895CF93DF9391E0909350018823C7
:100C7000B9F0C091B800D091BA008091BC008A7BD5
:100C80008093BC0060E082E10E94A60060E083E106
:100C90000E94A6000E941406D093BA00C093B80028
:100CA000DF91CF9108958F929F92AF92BF92CF9292
:100CB000DF92EF92FF920F931F93CF93DF93D09128
:100CC0001202D13208F0D7C0182FC09111020E9431
:100CD000F2006B017C018091E90181116BC082E01F
:100CE0008093E9011093E8018FEF8093E701109260
:100CF000E601D093E501A1EFB1E0E5ECF1E080E0A1
:100D0000D81391C01092C4018091C401CC0FC82B9C
:100D1000C093C4018091C301813009F088C0109252
:100D2000C3010E94F2006B017C018091C401809399
:100D3000BB008091EB019091EC01A091ED01B0918D
:100D4000EE01892B8A2B8B2BA1F00E94F2000091DF
:100D5000EB011091EC012091ED013091EE016C1945
:100D60007D098E099F09061717072807390708F418
:100D700042C08091BC0083FDD8CF85EC8093BC003D
:100D80000E94F2006B017C018091E901823009F43C
:100D900050C08091E7018F3F09F46FC08091E70157
:100DA000803209F46CC08091E701803309F469C096
:100DB00084E026C08091EB019091EC01A091ED01BF
:100DC000B091EE01892B8A2B8B2B09F484CF0E94E2
:100DD000F2008090EB019090EC01A090ED01B090BA
:100DE000EE016C197D098E099F0986169706A806E3
:100DF000B90608F070CF8091EA010E94320685E0C2
:100E00001092F001109212021092EF01DF91CF9137
:100E10001F910F91FF90EF90DF90CF90BF90AF9018
:100E20009F908F9008959D9191938F5F69CF85EEEC
:100E3000A5CF8091EB019091EC01A091ED01B091D3
:100E4000EE01892B8A2B8B2B09F49ECF0E94F20096
:100E50000091EB011091EC012091ED013091EE0138
:100E60006C197D098E099F0906171707280739078E
:100E700008F08ACFC0CF81E0C3CF80E0C1CF82E04D
:100E8000BFCF83E0BDCF1F93CF93DF93EA01122F33
:100E9000DC0111968D919C91DC01ED91FC91028019
:100EA000F381E02D0995C817D90729F4812F0E94F5
:100EB000530691E0811190E0892FDF91CF911F912E
:100EC0000895CF93DF93EC018B818823A1F0888173
:100ED00091E09093EF01809311021092F001109233
:100EE000120281E00E94530691E0811190E0892F67
:100EF000DF91CF9108951092A2011092A10110925A
:100F0000F001109212020E94140689E491E090937D
:100F10009501809394018AE491E0909397018093E6
:100F2000960181E08B83CE010E946107982F811189
:100F3000CECFDDCF0895E091A2018091A101E81705
:100F400030F4F0E0ED55FE4F808190E008958FEF92
:100F50009FEF08959091A2018091A1012FEF3FEFA3
:100F6000981748F4E92FF0E0ED55FE4F208130E06E
:100F70009F5F9093A201C90108958091A101909172
:100F8000A201891B990B0895CF92DF92EF92FF92F5
:100F90000F931F93CF93DF937C01CB018A012091A4
:100FA000EF01222389F0EB016B01C40ED51ECC1595
:100FB000DD0569F06991D701ED91FC910190F08117
:100FC000E02DC7010995F3CF642F0E94ED05C801FC
:100FD000DF91CF911F910F91FF90EF90DF90CF9015
:100FE0000895CF93DF931F92CDB7DEB76983209129
:100FF000EF012223F9F020911202203258F021E073
:1010000030E0FC013383228390E080E00F90DF9199
:10101000CF9108958091F001E82FF0E0EF50FE4F5E
:10102000998190838F5F8093F0018093120281E019
:1010300090E0ECCF61E0CE0101960E94ED05F7CF84
:1010400090E080E008954F925F926F927F928F922E
:101050009F92AF92BF92CF92DF92EF92FF926B017D
:101060007C0120E030E0A9010E94F81087FF04C055
:10107000F7FAF094F7F8F0948090E5029090E60289
:10108000A090E702B090E802A7019601C501B40163
:101090000E94F810882309F458C06091F9027091F9
:1010A000FA028091FB029091FC020E94A7112B0191
:1010B0003C01A7019601C501B4010E94FD109B01EE
:1010C000AC01C301B2010E945C120E946F116093D7
:1010D000F9027093FA028093FB029093FC02A7013D
:1010E000960160E070E080E090E40E94FD100E94B4
:1010F000CF1226E53EE04DE25FE30E945C1220E065
:1011000034E244E759E40E945C126093FD0270935C
:10111000FE028093FF0290930003C092E502D092FA
:10112000E602E092E702F092E80285EC92E0FF909E
:10113000EF90DF90CF90BF90AF909F908F907F9077
:101140006F905F904F900C946404FF90EF90DF904D
:10115000CF90BF90AF909F908F907F906F905F9057
:101160004F9008951F93CF93DF9300D000D01F922C
:10117000CDB7DEB7880F880F8A5F89831A821B82FA
:101180006C837D838091BF029091C002FC01248119
:10119000358125303105E0F0208111E01093EF0119
:1011A000209311021092F0011092120221E045E00A
:1011B00050E0BE016F5F7F4F0E94430781270F9071
:1011C0000F900F900F900F90DF91CF911F91089586
:1011D00081E0F5CFCF93DF9300D0CDB7DEB7898321
:1011E0006A838091BF029091C002FC012481358105
:1011F0002230310590F0208131E03093EF012093CF
:1012000011021092F0011092120221E042E050E02F
:10121000BE016F5F7F4F0E9443070F900F90DF91D9
:10122000CF9108952F923F924F925F926F927F924B
:101230008F929F92AF92BF92CF92DF92EF92FF92E6
:101240000F931F93CF93DF931F92CDB7DEB76B0140
:101250007C0120E030E040E85FE30E94F81087FD69
:10126000ECC020E030EC4AE555E4C701B6010E942D
:10127000571218160CF4E8C06091C1027091C202B6
:101280008091C3029091C4020E94A5114B015C01A0
:1012900020E030E040E855E4C701B6010E945C124E
:1012A0009B01AC01C501B4010E94FD1020E030E0BB
:1012B00040E05FE30E948C1020E030E040E85FE314
:1012C0000E948B106B017C0120E030E040E450E490
:1012D0000E94F81087FDC0C020E030E04FE753E4E3
:1012E000C701B6010E94571218160CF4BBC0C70103
:1012F000B6010E947611962E1982E090BF02F090FE
:10130000C002D70114968D919C911597892B09F4F1
:101310001AC18C9191E09093EF0180931102109289
:10132000F0011092120220E041E050E0BE016F5F38
:101330007F4FC7010E944307882309F404C1882412
:10134000839485EC382EF701C480D58001E0C11468
:10135000D10409F400E0A02EB12CD7012C900E94FA
:10136000F2002B013C018091E901811182C0102F14
:101370008092E9010093E801BFEFB093E70110927A
:10138000E6018FEF800F8093E5018092C401809188
:10139000C401220C282A2092C4018091C30181300B
:1013A00009F0A8C01092C3010E94F2002B013C0179
:1013B0008091C4018093BB008091EB019091EC017E
:1013C000A091ED01B091EE01892B8A2B8B2BA1F01E
:1013D0000E94F2002091EB013091EC014091ED016F
:1013E0005091EE0164197509860997092617370788
:1013F0004807590708F45EC08091BC0083FDD8CF30
:101400003092BC000E94F2002B013C018091E90166
:10141000813009F473C08091E601801710F41091B7
:10142000E601E5ECF1E0A3EAB1E080E0811709F420
:1014300046C091919D938F5FF9CFC12CD12C40E88C
:10144000E42E4FE3F42E18CFC12C30ECD32E3AE526
:10145000E32E35E4F32E10CFC12CD12C20E4E22E64
:10146000FE2C45CFC12CD12C9FE7E92E93E4F92E19
:101470003ECF8091EB019091EC01A091ED01B091F4
:10148000EE01892B8A2B8B2B09F46DCF0E94F20081
:101490002091EB013091EC014091ED015091EE0172
:1014A00064197509860997092617370748075907E8
:1014B00008F059CF8091EA010E94320610E01092A4
:1014C000A2011093A1011A151B04E9F590E080E038
:1014D0008A159B05A8F5D70111968D919C91DC0189
:1014E000ED91FC910284F385E02D0995898381E0DB
:1014F00090E0EECFE5EEE093BC0084CF8091EB016D
:101500009091EC01A091ED01B091EE01892B8A2B15
:101510008B2B09F47BCF0E94F2002091EB013091DC
:10152000EC014091ED015091EE01641975098609B5
:101530009709261737074807590708F067CFBACF2A
:10154000CD2809F400CF1981612F6F76606180E0AA
:101550000E94EA08692D8EEF0E94EA08612F80E060
:101560000E94EA0865E070E080E090E00E941701C8
:10157000612F606A80E00E94EA080F90DF91CF91AE
:101580001F910F91FF90EF90DF90CF90BF90AF90A1
:101590009F908F907F906F905F904F903F902F9093
:1015A00008950C94071485ED8093BC008091EB01A5
:1015B0009091EC01A091ED01B091EE010796A11D73
:1015C000B11D23E0B695A795979587952A95D1F7F4
:1015D0002091BC0024FD03C01092E90108954091C0
:1015E000EB015091EC016091ED017091EE01452B02
:1015F000462B472B69F30097A105B10541F02AE27C
:101600002A95F1F700C00197A109B109E1CF8091B6
:10161000EA010C9432061F920F920FB60F9211241A
:101620002F933F938F939F93AF93BF938091990193
:1016300090919A01A0919B01B0919C0130919801E9
:1016400023E0230F2D3758F50196A11DB11D2093DE
:1016500098018093990190939A01A0939B01B09374
:101660009C0180919D0190919E01A0919F01B0915C
:10167000A0010196A11DB11D80939D0190939E0133
:10168000A0939F01B093A001BF91AF919F918F91C3
:101690003F912F910F900FBE0F901F90189526E845
:1016A000230F0296A11DB11DD2CF1F920F920FB62C
:1016B0000F9211242F933F934F935F936F937F93D8
:1016C0008F939F93AF93BF93EF93FF9383E192E048
:1016D0000E94C901FF91EF91BF91AF919F918F91AE
:1016E0007F916F915F914F913F912F910F900FBE1E
:1016F0000F901F9018951F920F920FB60F92112402
:101700002F938F939F93EF93FF93E0912302F09198
:1017100024028081E0912902F0912A0282FD1BC0FF
:10172000908180912C028F5F8F7320912D02821700
:1017300041F0E0912C02F0E0ED5EFD4F958F80933B
:101740002C02FF91EF919F918F912F910F900FBEDF
:101750000F901F9018958081F4CF1F920F920FB6B3
:101760000F9211242F933F934F935F936F937F9327
:101770008F939F93AF93BF93EF93FF938091B900A3
:10178000887F803609F44AC0F0F5883209F4A7C092
:1017900018F5803109F49BC0B8F4882309F4F9C026
:1017A000883009F494C0FF91EF91BF91AF919F9160
:1017B0008F917F916F915F914F913F912F910F90FA
:1017C0000FBE0F901F901895883109F488C08032A1
:1017D00051F78093E70114C0803409F49DC040F4B0
:1017E0008033B9F38833F9F68093E70185ECB0C014
:1017F000803509F485C0883509F496C0883499F697
:101800000E94D30AD0CF883909F48CC038F58837C4
:1018100029F050F4883611F0803729F683E0809360
:10182000E9011092930157C0883809F47BC08039D0
:1018300019F0803809F0B7CF80919301803208F019
:1018400071C0E091930181E08E0F809393018091AC
:10185000BB00F0E0ED58FE4F80833DC0803B39F087
:10186000E0F4803A09F479C0883A09F09CCF84E02A
:101870008093E9011092720110927101E09194013C
:10188000F091950109958091710181110FC081E05E
:10189000809371011092510109C0803C09F4A6CFD8
:1018A000883C09F4A3CF883B09F07DCFE091720119
:1018B00081E08E0F80937201F0E0EF5AFE4F80813D
:1018C0008093BB00909172018091710129C0809139
:1018D000C4018093BB0085EC8093BC0064CF9091E1
:1018E000E6018091E501981758F5E091E60181E065
:1018F0008E0F8093E601F0E0EB53FE4F8081E9CF3D
:10190000E091E60181E08E0F8093E6018091BB00BB
:10191000F0E0EB53FE4F80839091E6018091E5016A
:101920009817C8F285E8D8CFE091E60181E08E0FE4
:101930008093E6018091BB00F0E0EB53FE4F808383
:101940008091E80181115CCF81E08093C30184EA3A
:101950008093BC001092E90126CF85EC8093BC00F7
:101960001092E90180919301803230F4E09193016B
:10197000F0E0ED58FE4F10826091930170E0E0912D
:101980009601F091970183E791E0099510929301F8
:101990000ACF1092E70134CFCF92DF92EF92FF92FD
:1019A000109216021092150288EE93E0A0E0B0E0CB
:1019B0008093170290931802A0931902B0931A0211
:1019C00020E131E0309314022093130225EC30E043
:1019D0003093200220931F0224EC30E03093220247
:1019E0002093210220EC30E0309324022093230244
:1019F00021EC30E0309326022093250222EC30E0E7
:101A0000309328022093270226EC30E030932A02FC
:101A10002093290210922C0210922D0210922E0275
:101A200010922F021092B3021092B2028093B4026D
:101A30009093B502A093B602B093B70282E291E010
:101A40009093B1028093B00284E391E09093C60238
:101A50008093C50284E08093CC021092D50210924C
:101A6000D6021092D7021092D8021092D902109288
:101A7000DA021092DB021092DC021092DD02109268
:101A8000DE021092DF021092E0021092E102109248
:101A9000E2021092E3021092E4021092E502109228
:101AA000E6021092E7021092E802C12CD12C80E8E5
:101AB000E82E8FE3F82EC092E902D092EA02E0927B
:101AC000EB02F092EC021092C8021092C90210923E
:101AD000CA021092CB0281E090E09093F2028093D0
:101AE000F1028FEF8093F4021092ED021092EE0259
:101AF0001092EF021092F00285E08093CD0288E010
:101B00008093CE0286E08093CF0287E08093D0025C
:101B10001092F3021092F9021092FA021092FB0254
:101B20001092FC021092FD021092FE021092FF022F
:101B3000109200031092010310920203109203030B
:101B400010920403C0920503D0920603E0920703AB
:101B5000F09208031092C7021092D1021092D202A2
:101B60001092D3021092D40285EC92E00E945802A7
:101B7000C701B6010E942308A70196016091E10206
:101B80007091E2028091E3029091E4020E94F810C9
:101B9000882319F1C092E102D092E202E092E302BE
:101BA000F092E40280E094E2A4E7B9E480930503B4
:101BB00090930603A0930703B09308038091F90262
:101BC0009091FA02A091FB02B091FC02181619063E
:101BD0001A061B0614F40E94BD0580E48093BC0223
:101BE00080EB92E09093BE028093BD021092C002FF
:101BF0001092BF02FF90EF90DF90CF9008957894FD
:101C000084B5826084BD84B5816084BD85B5826001
:101C100085BD85B5816085BD80916E0081608093B2
:101C20006E0010928100809181008260809381001B
:101C3000809181008160809381008091800081602B
:101C4000809380008091B10084608093B100809186
:101C5000B00081608093B00080917A0084608093AE
:101C60007A0080917A00826080937A0080917A0075
:101C7000816080937A0080917A00806880937A00F6
:101C80001092C100E0912302F091240282E080834F
:101C9000E0911F02F09120021082E0912102F09168
:101CA00022028FEC808310922B02E0912702F091A8
:101CB000280286E08083E0912502F091260280814F
:101CC00080618083E0912502F09126028081886006
:101CD0008083E0912502F0912602808180688083D4
:101CE000E0912502F091260280818F7D808368E259
:101CF0007BE68EE69EE40E94230820E030E046E981
:101D000053E46091E1027091E2028091E3029091CC
:101D1000E4020E94F810882339F180E090E0A6E9FF
:101D2000B3E48093E1029093E202A093E302B093C4
:101D3000E40285E595E5A0E5B5E48093050390937D
:101D40000603A0930703B09308038091F9029091D2
:101D5000FA02A091FB02B091FC02181619061A06AD
:101D60001B0614F40E94BD0520E030E046E953E470
:101D70006091DD027091DE028091DF029091E002BD
:101D80000E94F8108823D1F18090E1029090E20245
:101D9000A090E302B090E40275016401F7FAF094B8
:101DA000F7F8F09420E030E046E953ECC501B401C7
:101DB0000E94F81087FD0CC020E030E046E953E4B3
:101DC000C501B4010E94F81087FF9AC17501640132
:101DD00020E030E0A901C701B6010E94F810882375
:101DE00069F0C1E020E030E0A901C701B6010E941E
:101DF000571218160CF0C0E0C093C7021092D5021B
:101E00001092D6021092D7021092D8021092D902E4
:101E10001092DA021092DB021092DC021092F902A8
:101E20001092FA021092FB021092FC021092C80269
:101E30001092C9021092CA021092CB021092DD02D7
:101E40001092DE021092DF021092E00280910401F3
:101E500090910501092E000CAA0BBB0B0097A10560
:101E6000B10561F08093D9029093DA02A093DB026E
:101E7000B093DC0285EC92E00E9464048091BF0282
:101E80009091C002009711F00E94071486E090E044
:101E90000E946B13EC018091BD029091BE022091D3
:101EA000BC0228839A8389831B8280E290E09D8311
:101EB0008C83D093C002C093BF021092A2011092F3
:101EC000A1011092F001109212020E94140689E4FE
:101ED00091E090939501809394018AE491E090932E
:101EE00097018093960181E08B83CE010E94610768
:101EF0008823E1F060E880E00E94EA086AE070E090
:101F000080E090E00E94170180E498E7ADE7B1E03F
:101F10008093C1029093C202A093C302B093C40203
:101F200060E070E08AE794E40E94120960E070E0EB
:101F300088E492E40E94120964EF71E080E090E08E
:101F40000E94170185E491E09093030180930201C0
:101F5000909301018093000167E771E084E00E94A3
:101F6000B208609102017091030188E00E94B208FA
:101F700060910001709101018CE00E94B20864EF51
:101F800071E080E090E00E9417018FB7F8944091D3
:101F9000990150919A0160919B0170919C018FBFB2
:101FA00000E014E0C0E0D0E08091C8029091C90246
:101FB000A091CA02B091CB02892B8A2B8B2B09F4FA
:101FC0004FC00E94F2006B017C018091ED02909164
:101FD000EE02A091EF02B091F002B701A601481BFA
:101FE000590B6A0B7B0B8091C8029091C902A0919A
:101FF000CA02B091CB02481759076A077B0780F1E4
:102000008091D5029091D602A091D702B091D802CA
:102010002091C702222309F47AC00196A11DB11DA7
:102020008093D5029093D602A093D702B093D802A2
:102030004091D5025091D6026091D7027091D8029A
:1020400085EC92E00E942404C092ED02D092EE0250
:10205000E092EF02F092F00285EC92E00E946404BC
:1020600020E030E0A9016091DD027091DE028091F4
:10207000DF029091E0020E94F810811136C0409179
:10208000D9025091DA026091DB027091DC028091FA
:10209000D5029091D602A091D702B091D8024817EC
:1020A00059076A077B0709F58091040190910501A2
:1020B0009801281B390BC9013093050120930401B5
:1020C000092E000CAA0BBB0B481759076A077B07A0
:1020D00061F08093D9029093DA02A093DB02B0936F
:1020E000DC0285EC92E00E946404209709F45CCF46
:1020F0000E94B501882309F457CF0E94000054CFF5
:10210000C12CD12C86E9E82E83E4F82E6ACE019703
:10211000A109B10985CF5058BB27AA270E94A31057
:102120000C941D120E940F1238F00E94161220F01B
:1021300039F49F3F19F426F40C940C120EF4E09538
:10214000E7FB0C940612E92F0E942E1258F3BA17DF
:10215000620773078407950720F079F4A6F50C94BD
:1021600050120EF4E0950B2EBA2FA02D0B01B901E1
:1021700090010C01CA01A0011124FF27591B99F0FD
:10218000593F50F4503E68F11A16F040A22F232F09
:10219000342F4427585FF3CF469537952795A79559
:1021A000F0405395C9F77EF41F16BA0B620B730B00
:1021B000840BBAF09150A1F0FF0FBB1F661F771F71
:1021C000881FC2F70EC0BA0F621F731F841F48F426
:1021D000879577956795B795F7959E3F08F0B0CFAF
:1021E0009395880F08F09927EE0F97958795089596
:1021F0000E94E21108F481E008950E9411110C94EC
:102200001D120E94161258F00E940F1240F029F47D
:102210005F3F29F00C94061251110C9451120C944A
:102220000C120E942E1268F39923B1F3552391F3F7
:10223000951B550BBB27AA2762177307840738F035
:102240009F5F5F4F220F331F441FAA1FA9F335D092
:102250000E2E3AF0E0E832D091505040E695001C46
:10226000CAF72BD0FE2F29D0660F771F881FBB1F00
:10227000261737074807AB07B0E809F0BB0B802DDE
:10228000BF01FF2793585F4F3AF09E3F510578F00A
:102290000C9406120C9451125F3FE4F3983ED4F371
:1022A000869577956795B795F7959F5FC9F7880FDE
:1022B000911D9695879597F90895E1E0660F771F30
:1022C000881FBB1F621773078407BA0720F0621BC1
:1022D000730B840BBA0BEE1F88F7E09508950E94EC
:1022E00076116894B1110C94511208950E9436121F
:1022F00088F09F5798F0B92F9927B751B0F0E1F0C7
:10230000660F771F881F991F1AF0BA95C9F714C076
:10231000B13091F00E945012B1E008950C94501227
:10232000672F782F8827B85F39F0B93FCCF38695AF
:1023300077956795B395D9F73EF49095809570950C
:1023400061957F4F8F4F9F4F0895E89409C097FB89
:102350003EF490958095709561957F4F8F4F9F4F7C
:102360009923A9F0F92F96E9BB279395F6958795C0
:1023700077956795B795F111F8CFFAF4BB0F11F483
:1023800060FF1BC06F5F7F4F8F4F9F4F16C088232A
:1023900011F096E911C0772321F09EE8872F762F60
:1023A00005C0662371F096E8862F70E060E02AF0A1
:1023B0009A95660F771F881FDAF7880F969587958D
:1023C00097F90895990F0008550FAA0BE0E8FEEF62
:1023D00016161706E807F907C0F012161306E407E9
:1023E000F50798F0621B730B840B950B39F40A26E2
:1023F00061F0232B242B252B21F408950A2609F4C0
:10240000A140A6958FEF811D811D089597F99F67C3
:1024100080E870E060E008959FEF80EC089500246C
:102420000A941616170618060906089500240A9439
:1024300012161306140605060895092E0394000CBF
:1024400011F4882352F0BB0F40F4BF2B11F460FF4E
:1024500004C06F5F7F4F8F4F9F4F089557FD905877
:10246000440F551F59F05F3F71F04795880F97FB58
:10247000991F61F09F3F79F0879508951216130612
:102480001406551FF2CF4695F1DF08C01616170641
:102490001806991FF1CF8695710561050894089576
:1024A000E894BB2766277727CB0197F908950E9408
:1024B000E21108F48FEF08950E946F120C941D1220
:1024C0000E940F1238F00E94161220F0952311F08E
:1024D0000C9406120C940C1211240C9451120E94AC
:1024E0002E1270F3959FC1F3950F50E0551F629F18
:1024F000F001729FBB27F00DB11D639FAA27F00D5D
:10250000B11DAA1F649F6627B00DA11D661F829F83
:102510002227B00DA11D621F739FB00DA11D621F68
:10252000839FA00D611D221F749F3327A00D611D85
:10253000231F849F600D211D822F762F6A2F112467
:102540009F5750409AF0F1F088234AF0EE0FFF1F9A
:10255000BB1F661F771F881F91505040A9F79E3FF1
:10256000510580F00C9406120C9451125F3FE4F375
:10257000983ED4F3869577956795B795F795E79547
:102580009F5FC1F7FE2B880F911D9695879597F950
:10259000089519F416F40C940C120C940F130E9465
:1025A0003612B8F39923C9F3B6F39F57550B87FF3B
:1025B0000E941D130024A0E640EA90018058569521
:1025C000979528F4805C660F771F881F20F02617E8
:1025D0003707480730F4621B730B840B202931291D
:1025E0004A2BA69517940794202531254A2758F79A
:1025F000660F771F881F20F026173707480730F42B
:10260000620B730B840B200D311D411DA09581F7CA
:10261000B901842F9158880F9695879508959F3F0B
:1026200031F0915020F4879577956795B795880F8D
:10263000911D9695879597F9089591505040660F92
:10264000771F881FD2F70895052E97FB1EF400947C
:102650000E943B1357FD07D00E94491307FC03D08B
:102660004EF40C943B1350954095309521953F4F77
:102670004F4F5F4F089590958095709561957F4F6E
:102680008F4F9F4F0895EE0FFF1F0590F491E02D9F
:102690000994A1E21A2EAA1BBB1BFD010DC0AA1FA3
:1026A000BB1FEE1FFF1FA217B307E407F50720F0BB
:1026B000A21BB30BE40BF50B661F771F881F991F36
:1026C0001A9469F760957095809590959B01AC017F
:1026D000BD01CF0108950F931F93CF93DF938230F5
:1026E000910510F482E090E0E0910B03F0910C036F
:1026F00030E020E0B0E0A0E0309799F421153105FA
:1027000009F44AC0281B390B24303105D8F58A81D9
:102710009B816115710589F1FB0193838283FE0121
:1027200011C0408151810281138148175907E0F09F
:102730004817590799F4109761F012960C93129765
:1027400013961C933296CF01DF91CF911F910F9179
:10275000089500930B0310930C03F4CF211531055A
:1027600051F04217530738F0A901DB019A01BD016E
:10277000DF01F801C1CFEF01F9CF90930C038093F3
:102780000B03CDCFFE01E20FF31F819391932250F3
:10279000310939832883D7CF2091090330910A0367
:1027A000232B41F4209108013091090130930A0351
:1027B000209309032091060130910701211531056D
:1027C00041F42DB73EB740910A0150910B01241BF3
:1027D000350BE0910903F0910A03E217F307A0F427
:1027E0002E1B3F0B2817390778F0AC014E5F5F4F67
:1027F0002417350748F04E0F5F1F50930A0340938C
:102800000903819391939FCFF0E0E0E09CCFCF93B9
:10281000DF930097E9F0FC01329713821282A091B6
:102820000B03B0910C03ED0130E020E01097A1F410
:1028300020813181820F931F2091090330910A0377
:102840002817390709F061C0F0930A03E0930903E0
:10285000DF91CF910895EA01CE17DF07E8F54A81AD
:102860005B819E0141155105B1F7E901FB83EA83C4
:1028700049915991C40FD51FEC17FD0761F4808170
:1028800091810296840F951FE90199838883828143
:1028900093819B838A83F0E0E0E012968D919C9176
:1028A00013970097B9F52D913C911197CD010296A0
:1028B000820F931F2091090330910A0328173907CB
:1028C00039F6309751F510920C0310920B03B09328
:1028D0000A03A0930903BCCFD383C28340815181F3
:1028E000840F951FC817D90761F44E5F5F4F888129
:1028F0009981480F591F518340838A819B8193831B
:1029000082832115310509F0B0CFF0930C03E093D9
:102910000B039ECFFD01DC01C0CF13821282D7CF03
:10292000F894FFCF45014501000400000D0380002D
:1029300000000000EB014B0178013802A90187017A
:102940009B0100000000F107C40720089A07BD079B
:10295000AA079B070000000086025802EC05D10A76
:102960006404E6032404D0039E037D034903280383
:04297000D202A302EA
:107E0000112484B714BE81FFF0D085E080938100F7
:107E100082E08093C00088E18093C10086E0809377
:107E2000C20080E18093C4008EE0C9D0259A86E02C
:107E300020E33CEF91E0309385002093840096BBD3
:107E4000B09BFECF1D9AA8958150A9F7CC24DD24C4
:107E500088248394B5E0AB2EA1E19A2EF3E0BF2EE7
:107E6000A2D0813461F49FD0082FAFD0023811F036
:107E7000013811F484E001C083E08DD089C08234E0
:107E800011F484E103C0853419F485E0A6D080C0E4
:107E9000853579F488D0E82EFF2485D0082F10E0AE
:107EA000102F00270E291F29000F111F8ED06801E7
:107EB0006FC0863521F484E090D080E0DECF843638
:107EC00009F040C070D06FD0082F6DD080E0C81688
:107ED00080E7D80618F4F601B7BEE895C0E0D1E017
:107EE00062D089930C17E1F7F0E0CF16F0E7DF06D8
:107EF00018F0F601B7BEE89568D007B600FCFDCFD4
:107F0000A601A0E0B1E02C9130E011968C91119780
:107F100090E0982F8827822B932B1296FA010C0160
:107F200087BEE89511244E5F5F4FF1E0A038BF0790
:107F300051F7F601A7BEE89507B600FCFDCF97BE46
:107F4000E89526C08437B1F42ED02DD0F82E2BD052
:107F50003CD0F601EF2C8F010F5F1F4F84911BD097
:107F6000EA94F801C1F70894C11CD11CFA94CF0C13
:107F7000D11C0EC0853739F428D08EE10CD085E9AC
:107F80000AD08FE07ACF813511F488E018D01DD067
:107F900080E101D065CF982F8091C00085FFFCCF94
:107FA0009093C60008958091C00087FFFCCF809118
:107FB000C00084FD01C0A8958091C6000895E0E648
:107FC000F0E098E1908380830895EDDF803219F02E
:107FD00088E0F5DFFFCF84E1DECF1F93182FE3DFCA
:107FE0001150E9F7F2DF1F91089580E0E8DFEE27F6
:047FF000FF270994CA
:027FFE00040479
:00000001FF
