:020000040000FA
:100000000C9462000C948A000C948A000C948A0070
:100010000C948A000C948A000C948A000C948A0038
:100020000C948A000C948A000C948A000C948A0028
:100030000C94200C0C948A000C948A000C948A0076
:100040000C94550B0C94F70B0C94C50B0C949F0B54
:100050000C948A000C948A000C948A000C948A00F8
:100060000C948A000C948A000000000023002600F3
:10007000290000000000240027002A0000000000E2
:10008000250028002B0004040404040404040202D4
:100090000202020203030303030301020408102007
:1000A0004080010204081020010204081020000012
:1000B0000008000201000003040700000000000027
:1000C0000000A00C11241FBECFEFD8E0DEBFCDBFD3
:1000D00011E0A0E0B1E0E8E3F0E202C005900D928B
:1000E000AE38B107D9F723E0AEE8B1E001C01D9208
:1000F000A936B207E1F710E0C2E6D0E004C02197CC
:10010000FE010E941410C136D107C9F70E94F00CFD
:100110000C941A100C940000833081F028F4813084
:1001200099F08230A9F008958730A9F08830C9F09D
:100130008430B1F4809180008F7D03C08091800075
:100140008F7780938000089584B58F7784BD08955C
:1001500084B58F7DFBCF8091B0008F778093B00006
:1001600008958091B0008F7DF9CF1F93CF93DF93D7
:10017000282F30E0F901E255FF4F8491F901E6564E
:10018000FF4FD491F901EA57FF4FC491CC23A9F056
:10019000162F81110E948C00EC2FF0E0EE0FFF1F54
:1001A000E458FF4FA591B4918FB7F894EC911111D9
:1001B00008C0D095DE23DC938FBFDF91CF911F91D4
:1001C0000895DE2BF8CFCF93DF9390E0FC01E65645
:1001D000FF4F24918A579F4FFC0184918823D1F0CF
:1001E00090E0880F991FFC01EE58FF4FA591B49144
:1001F000FC01E458FF4FC591D491623071F49FB770
:10020000F8943C91822F809583238C93E8812E2B48
:1002100028839FBFDF91CF9108958FB7F894EC9119
:100220002E2B2C938FBFF6CF3FB7F8948091A4016B
:100230009091A501A091A601B091A70126B5A89B18
:1002400005C02F3F19F00196A11DB11D3FBFBA2F68
:10025000A92F982F8827BC01CD01620F711D811D28
:10026000911D42E0660F771F881F991F4A95D1F7AD
:1002700008958F929F92AF92BF92CF92DF92EF92AA
:10028000FF924B015C010E9414016B017C010E94F2
:1002900014016C197D098E099F09683E7340810520
:1002A0009105A8F321E0821A9108A108B10888EE0F
:1002B000C80E83E0D81EE11CF11C81149104A10436
:1002C000B10429F7FF90EF90DF90CF90BF90AF90EF
:1002D0009F908F900895AF92BF92CF92DF92EF924E
:1002E000FF920F931F93CF93DF936C017B018B01E0
:1002F000040F151FEB015E01AE18BF08C017D10730
:1003000059F06991D601ED91FC910190F081E02DB9
:10031000C6010995892B79F7C501DF91CF911F910E
:100320000F91FF90EF90DF90CF90BF90AF90089526
:10033000FC01538D448D252F30E0842F90E0821BEB
:10034000930B541710F0CF96089501970895FC0170
:10035000918D828D981761F0A28DAE0FBF2FB11DC8
:100360005D968C91928D9F5F9F73928F90E0089520
:100370008FEF9FEF0895FC01918D828D981731F0DA
:10038000828DE80FF11D858D90E008958FEF9FEF2E
:100390000895FC01918D228D892F90E0805C9F4F04
:1003A000821B91098F739927089588EA91E00E9432
:1003B000C90121E0892B09F420E0822F089580E013
:1003C00090E0892B29F00E94D50181110C94000046
:1003D0000895FC01A48DA80FB92FB11DA35ABF4FDA
:1003E0002C91848D90E001968F739927848FA68934
:1003F000B7892C93A089B1898C91837080648C9388
:10040000938D848D981306C00288F389E02D808136
:100410008F7D80830895EF92FF920F931F93CF9368
:10042000DF93EC0181E0888F9B8D8C8D98131AC02F
:10043000E889F989808185FF15C09FB7F894EE8916
:10044000FF896083E889F989808183708064808373
:100450009FBF81E090E0DF91CF911F910F91FF90BE
:10046000EF900895F62E0B8D10E00F5F1F4F0F7366
:100470001127E02E8C8D8E110CC00FB607FCFACF21
:10048000E889F989808185FFF5CFCE010E94E901D5
:10049000F1CFEB8DEC0FFD2FF11DE35AFF4FF082F2
:1004A0009FB7F8940B8FEA89FB8980818062CFCF58
:1004B000CF93DF93EC01888D8823B9F0AA89BB899B
:1004C000E889F9898C9185FD03C0808186FD0DC086
:1004D0000FB607FCF7CF8C9185FFF2CF808185FFA7
:1004E000EDCFCE010E94E901E9CFDF91CF910895D0
:1004F0008F929F92AF92BF92CF92DF92EF92FF9234
:10050000FC0185A18F7109F47BC080916F008B7F06
:1005100080936F00809191018F5F80939101789417
:10052000C280D380E480F58086819781A085B185E3
:10053000C80ED91EEA1EFB1E80919101882319F076
:1005400081508093910180919101811105C080912A
:100550006F00846080936F001C141D041E041F0430
:10056000D4F5E05CFF4F80809180A280B380B7FE1D
:1005700008C0B094A09490948094811C911CA11CFC
:10058000B11C8FEF881A980AA80AB80A84E1C81625
:100590008EEAD80687E4E80681E0F80634F5A4E69A
:1005A000B0E0A70196010E94E70FA50194010E9407
:1005B000B90F69017A018FEFC81AD80AE80AF80A58
:1005C0008FEFC816D104E104F10429F024F0C12C06
:1005D000D12C7601CA948C2DFF90EF90DF90CF90B4
:1005E000BF90AF909F908F900895C501B40124E60D
:1005F00030E040E050E00E94B90FC701B601D7CF0C
:1006000080E0EACFFC0190916F009B7F90936F0098
:10061000909191019F5F90939101789481E090A1D6
:10062000953008F480E090919101992319F0915050
:100630009093910190919101911105C090916F005B
:10064000946090936F0008958F929F92AF92BF92A3
:10065000CF92DF92EF92FF920F931F93CF93DF938E
:10066000EC016A017B018DA18F7109F407C1F89437
:1006700089A19AA1ABA1BCA18E010B5B1F4FF80110
:1006800080839183A283B383789431972081F8018A
:100690006081718182819381233009F082C09B0146
:1006A000AC018DA18F7109F4E9C0C21AD30AE40A22
:1006B000F50AFE01E05CFF4FC082D182E282F38244
:1006C0008A8D9B8D892B21F488A1893009F051C135
:1006D00046015701F7FE07C08824992454018C185D
:1006E0009D08AE08BF08CE010E940203882309F4CA
:1006F00009C18B8518160CF05AC01C141D041E0469
:100700001F040CF459C080916F008B7F80936F00A1
:10071000809191018F5F80939101789449A15AA1B2
:100720006BA17CA1F80180819181A281B381481BDA
:10073000590B6A0B7B0B14161506160617060CF0E0
:10074000D2C049A15AA16BA17CA18A019B01081BBF
:10075000190B2A0B3B0BD901C801880E991EAA1E42
:10076000BB1E8C8D9D8D28A1293009F0C5C02A8D16
:100770003B8D821B930B6E8D7F8D0E94A50F620FA8
:10078000731FCB01B0E0A0E08A839B83AC83BD8361
:100790008A819B81AC81BD81880D991DAA1DBB1DDD
:1007A00059C030E050E040E00E94B90F7ACF882372
:1007B00009F4A9CFF7FEA7CF80916F008B7F8093BC
:1007C0006F00809191018F5F80939101789449A18E
:1007D0005AA16BA17CA1F80180819181A281B38192
:1007E000481B590B6A0B7B0B1416150616061706C9
:1007F0000CF051C049A15AA16BA17CA18A019B01B7
:10080000081B190B2A0B3B0BD901C801881A990A3E
:10081000AA0ABB0A8C8D9D8D28A1293009F044C0FD
:100820002A8D3B8D821B930B6E8D7F8D0E94A50FB1
:10083000620F731FCB01B0E0A0E088169906AA06EC
:10084000BB0664F48A839B83AC83BD8388199909B2
:10085000AA09BB098E839F83A887B98780919101DC
:10086000882319F081508093910180919101811129
:1008700005C080916F00846080936F00DF91CF91FD
:100880001F910F91FF90EF90DF90CF90BF90AF90AE
:100890009F908F90089549A15AA16BA17CA1841BC0
:1008A000950BA60BB70BB2CFAC0170E060E048151A
:1008B00059056A057B050CF455C00196B0E0A0E02F
:1008C0008A839B83AC83BD838A819B81AC81BD81FC
:1008D00088199909AA09BB098E839F83A887B987BC
:1008E00088E088A3BBCF49A15AA16BA17CA1841B3E
:1008F000950BA60BB70B31CFBC016F5F7F4F88E024
:1009000088A33FCFC114D104E104F10409F4B6CFA8
:100910008B85082E000C990B97FF03C0919581954C
:1009200091091C141D041E041F040CF08195909164
:100930006F009B7F90936F00909191019F5F9093C8
:10094000910178941F8A1E8A24E130E03F872E8728
:100950001B8A1A8A9DA197FF0AC094E098A38B87EF
:100960001D8E1C8E8A829B82AC82BD8277CF97E0DF
:10097000F5CF8B85082E000C990B97FF03C091953E
:10098000819591091C141D041E041F040CF081950F
:1009900090916F009B7F90936F00909191019F5F6A
:1009A000909391017894F801408151816281738123
:1009B0004C0D5D1D6E1D7F1D09A11AA12BA13CA12F
:1009C0004A015B01801A910AA20AB30A95018401C7
:1009D000101611061206130624F509A11AA12BA15F
:1009E0003CA1401B510B620B730B8B874A835B83CB
:1009F0006C837D8381E0CD28CE28CF2809F471CF88
:100A000088A1853008F02ACF1F8A1E8A84E190E0F1
:100A10009F878E871B8A1A8A8DA187FF0FC084E06B
:100A200060CF09A11AA12BA13CA148015901841A48
:100A3000950AA60AB70AB501A401D7CF85E051CF20
:100A4000CF93DF93FC019091900195AB46AB57ABF0
:100A500060AF71AF8EEF820F823008F021E0EF01BE
:100A6000CC5BDF4F28831282138214821582128698
:100A7000238720E23EE4378726872685378535871A
:100A80002487118A108A11A212A213A214A210A202
:100A9000138E128E85A12FEF26A3807C8F7785A3DE
:100AA00011821082A0918E01B0918F012EE831E069
:100AB000109729F09D010D90BC91A02DF9CFD9017F
:100AC000ED93FC9381E0890F80939001963008F0BC
:100AD0001882DF91CF9108952F923F924F925F92AB
:100AE0006F927F928F929F92AF92BF92CF92DF923E
:100AF000EF92FF920F931F93CF93DF93CDB7DEB7A3
:100B00002E970FB6F894DEBF0FBECDBF9A838983B0
:100B1000FC0195A19F7109F4EEC11A0157FF04C0B1
:100B200022243324241A350A57FF03C0F1E02F1A78
:100B3000310881E828168EE3380620F030E8232EAD
:100B40003EE3332E8A014B01E981FA81FE87ED876E
:100B500080916F008B7F80936F00809191018F5FF8
:100B6000809391017894672B09F097C187A188231E
:100B700009F472C124E1A22EB12C1092910180914E
:100B80006F00846080936F00950150E040E060E862
:100B900076E988E990E00E94B90F69017A0188EC52
:100BA000482E512C612C712CCA01B901A30192016C
:100BB0000E94B90F2D833E834F83588769877A87B8
:100BC0008B879C87D1015096A70196010E94E70F61
:100BD000A30192010E94B90F293EFDEF3F07410595
:100BE0005105ECF060E47DE586EC90E0A70196010C
:100BF0000E94B90F190180E1281A3108213131050D
:100C000010F4312C212CD1015096A70196010E949D
:100C1000E70F28EC30E040E050E00E94B90F3901C6
:100C200017FD06C0ED85FE85B7AEA6AE35AE24AE87
:100C300080916F008B7F80936F00809191018F5F17
:100C4000809391017894ED85FE85828D938D820D40
:100C5000931D892B09F4C8C0CF010E940203882389
:100C600009F4C2C0ED85FE858489958986159705AE
:100C700009F4BAC0F5E0FB8341E050E05A834983B0
:100C8000ED85FE85F0A1FC83ED85FE85C280D380D5
:100C9000E480F580FB81F150FB83FF2339F0109253
:100CA000910180916F00846080936F00ED85FE85D7
:100CB000048D158D9801205F3F4FD3010E94D80FFE
:100CC0002489358950E040E00E94B90F2901F0E104
:100CD0004F1A51082131310510F4512C412CED856A
:100CE000FE8582AD93ADA816B90629F1241435040A
:100CF00008F0F7C09201AAE0B0E00E94D80F0115F9
:100D0000110509F0E6C06B5F7F4F8F4F9F4F2AE0C0
:100D100030E040E050E00E94B90FC90129839A8376
:100D200049815A811416150624F081E090E09A83D7
:100D3000898399E09C83ED85FE8506811781208556
:100D40003185C20169817A810E94A50FCB01B0E093
:100D5000A0E0B701A601401B510B620B730B4817B3
:100D600059076A077B0708F0BFC0C201B0E0A0E0E6
:100D70000C191D092E093F09080F191F2A1F3B1FB7
:100D8000F8E0FC834B81442359F040916F004B7F86
:100D900040936F00409191014F5F4093910178948F
:100DA000ED85FE854281538164817581C416D50627
:100DB000E606F70619F0FB81F11162CF4C81ED8553
:100DC000FE8540A3558E448E49815A81578F468FA8
:100DD0000097A105B10541F082839383A483B58375
:100DE00006831783208731874D815E81ED85FE85DF
:100DF0005587448789859A85918B808B758A648A0B
:100E0000338E228E1092910180916F0084608093C6
:100E10006F00892811F4B12CA12CED85FE85B3AEAD
:100E2000A2AE828D938D2E960FB6F894DEBF0FBEC4
:100E3000CDBFDF91CF911F910F91FF90EF90DF9089
:100E4000CF90BF90AF909F908F907F906F905F906A
:100E50004F903F902F9008958D859E850E940203AC
:100E60008823B9F0ED85FE85828D938D892B19F04D
:100E700081E087A37FCE82E0ED85FE8587A385A1F3
:100E800087FF78CE808D918D9787868783E080A3BA
:100E900071CE82E0ED85FE85ECCFED85FE8585A1E6
:100EA00087FF09C087A1823031F4808D918D9787AB
:100EB000868784E080A35401F9EA8F16F1E69F0645
:100EC00020F098EAA92E91E6B92EED85FE8517A2AD
:100ED00054CE980150E040E00E94B90FCA01B90118
:100EE00012CFE7E0EC8327CF00E010E0980180E02C
:100EF00090E0DC0147CF90E080E095CFCF93DF9387
:100F0000DC0195969C9195979F71953009F44AC0A4
:100F100030F49330A9F19430E9F180E038C0963094
:100F200009F447C09730C9F7ED0150E040E070E0A8
:100F300088A599A59A01220F331FFB01042E02C038
:100F4000F595E7950A94E2F7240F351FE0FF0FC0EF
:100F5000FD01E20FF31F22A5FC013081232B20832A
:100F60004F5F5F4F23964430510511F7D6CFFD01F7
:100F7000E20FF31F22A5FC01308120952323EFCF40
:100F800080919301807F682B6093930181E0DF91D2
:100F9000CF910895809193018F70F0E16F9FB00120
:100FA0001124F1CF80919401807F682B609394018C
:100FB000EDCF809194018F7090E1699FB001112471
:100FC000F4CF2F923F924F925F926F927F928F92C7
:100FD0009F92AF92BF92CF92DF92EF92FF920F93C8
:100FE0001F93CF93DF937894C0918E01D0918F019E
:100FF000209709F40DC1B12C082F10E0AA24A39466
:1010000065E0862E77E0972EE8E07E2EF0EFCF2E7B
:10101000DD24DA94A2E05A2EB3E06B2E88E8E82EA5
:1010200083E1F82E8DA18F71883049F4F8948AA558
:10103000E8A5F9A59081809589238083789488A17B
:10104000853008F4F8C08FA1823009F4C6C08E85BF
:101050009F85892B31F08E899F89800F911F9F8BEF
:101060008E8B2E893F898E859F852817390708F436
:10107000A0C01F8A1E8A49A15AA16BA17CA12B8501
:10108000822F022E000C990BAA0BBB0B840F951F0D
:10109000A61FB71F89A39AA3ABA3BCA3EA85E20F3F
:1010A000E8300CF453C1E0E0EA87F8948DA18F7129
:1010B000853009F455C1863008F48EC1873009F4B3
:1010C0003EC208F477C2883091F4EBA5FCA58B856D
:1010D00018160CF0B0C29DA58081892B8083A09248
:1010E00092019AA5E8A5F9A58081892B808378943F
:1010F0008A819B81AC81BD810197A109B1098A8355
:101100009B83AC83BD838A819B81AC81BD81892B0C
:101110008A2B8B2B09F032C18E819F81A885B985DE
:101120000097A105B10509F486C12B8521952B8770
:101130008A839B83AC83BD831E821F821886198697
:1011400098A22C8D3D8D8A8D9B8D2817390708F02C
:10115000E1C18C899D89F9017096BF010E94A50F9C
:101160007F876E874A895B89840F951F9B8B8A8B4B
:10117000E817F90768F44E855F854F5F5F4F5F871B
:101180004E87A601421B530B840F951F9B8B8A8BA6
:101190008A819B81AC81BD812F5F3F4FA90170E0A7
:1011A00060E0481759076A077B0708F013C13D8FB5
:1011B0002C8F80919201482F50E02E853F856E89BB
:1011C0007F89261B370B4217530728F08E859F8592
:1011D0002E893F89821B809392010990D881C02D6E
:1011E000209709F01FCF80919A01882389F0BB20B6
:1011F00079F0E0919801F0919901908180919701A7
:1012000080958923808310929501809194018EBDF1
:10121000DF91CF911F910F91FF90EF90DF90CF90D2
:10122000BF90AF909F908F907F906F905F904F9006
:101230003F902F900895843009F446C0833069F6BA
:101240008E899F89800F911F9F8B8E8B2E893F895E
:101250008E859F852817390750F11F8A1E8A2EA177
:101260002E3F09F414C130E0F901E255FF4F84919B
:10127000F901E656FF4F4490F901EA57FF4F2490D9
:101280002220A1F03DA08111C3C1E22DF0E0EE0FBC
:10129000FF1FE458FF4FA591B4918FB7F89436FE25
:1012A0009DC19C91409449224C928FBFA8A28091ED
:1012B00092012E853F854E895F89241B350B82174D
:1012C000130608F488CF82CF8FA1823009F485CF2E
:1012D0002EA12E3F09F49BC030E0F901E255FF4FEB
:1012E0008491F901E656FF4F4490F901EA57FF4F08
:1012F00024902220B9F03DA036FA332430F8811131
:101300006AC1E22DF0E0EE0FFF1FE458FF4FA591F8
:10131000B4918FB7F894332009F4C0C0EC914E2AF1
:101320004C928FBF888D998D9F878E878A8D9B8DDC
:10133000892B11F588A2809192012E853F85821715
:10134000130608F448CF8E859F8545CFE7FFACCEC6
:10135000E85FEA87F8948DA18F71853009F0ABCEF4
:1013600080919401807FEE0FFF0BE75EFE4F90812E
:10137000892B8093940148C098A2DDCF88A1873043
:1013800009F4DFCE08F060C0853009F012CF8C85FB
:101390009D859F878E878A899B8928893989820FB5
:1013A000931F893C910508F07DC09B8B8A8B4A81F5
:1013B0005B816C817D812A8D3B8DC9010196B0E0F6
:1013C000A0E084179507A607B70708F4F2CE232BF1
:1013D00009F4EFCE78A2EDCE833009F4E1C0843079
:1013E00009F085CE809193018F70EE0FFF0BE75EC1
:1013F000FE4F2081318122953295307F3227207F28
:101400003227822B80939301BB24B39470CEEA855C
:10141000EE0FFF0BE75EFE4F6081CE010E947E075C
:10142000B82E888D998D9F878E878A8D9B8D892B6D
:1014300009F480CFA1CF1D8E1C8E8DA187FD76C0B3
:10144000FF86EE86A8A2B5CE8A3008F0B2CE2C8DEB
:101450003D8D8A8D9B8D8217930770F14A815B8148
:101460006C817D81C901B0E0A0E084179507A607D3
:10147000B70708F498A22115310521F02150310950
:101480003D8F2C8F8C899D89F901709626C060E074
:10149000CE010E947E07B82EA8A209CF9C9140944D
:1014A00049223ECF885C91099B8B8A8B8E859F85D4
:1014B00001969F878E877BCF4E8D5F8DB901681B0C
:1014C000790B4617570708F08CC0241B350B3D8F4E
:1014D0002C8FF90170968C899D89BF010E94A50F00
:1014E0007F876E874A895B89840F951F9B8B8A8BC8
:1014F000E817F90708F05DCE4E855F854F5F5F4FB7
:101500005F874E87A601421B530B840F951F9B8B51
:101510008A8B4FCE2C853D853F872E872889398938
:101520003B8B2A8B9D8F8C8F88A243CE888D998D83
:101530009F878E8768A241E050E081E03ECEEE0FAB
:10154000FF0BE75EFE4F90818CA9892780FF08C0C2
:10155000E8A5F9A52AA5308190FF69C0232B208337
:1015600081FF08C0EBA5FCA52DA5308191FF5BC0D4
:10157000232B208382FF08C0EEA5FFA528A9308178
:1015800092FF4DC0232B208383FF08C0E9A9FAA94D
:101590008BA9208193FF3FC0822B80839CABA7CD7A
:1015A00080919301807FEE0FFF0BE75EFE4F9081ED
:1015B000892B28CF809194018F70EE0FFF0BE75E8F
:1015C000FE4F2081318122953295307F3227207F56
:1015D0003227822BCECE0E948C0093CEEC914E2AE5
:1015E00063CE88A29D8F8C8F8C859D859F878E87EB
:1015F0001B8A1A8A8FA1813009F0DBCD5FA28DA1F1
:1016000087FFD7CD888D998D9F878E8768A2D1CD92
:101610000E948C003ACE809582238083BFCF209594
:1016200023232083B1CF209523232083A3CF20958C
:101630002323208395CF8DA59081809589234ECD3E
:10164000FC0101900020E9F73197AF01481B590BCD
:10165000BC0188EA91E00C946B01CF93DF930E9468
:10166000200BEC018BE491E00E94200B8C0F9D1F5E
:10167000DF91CF910895CF93DF93CDB7DEB7A197D8
:101680000FB6F894DEBF0FBECDBF19A2805D88A350
:10169000CE0180960E94200BA1960FB6F894DEBF73
:1016A0000FBECDBFDF91CF9108951F920F920FB65D
:1016B0000F9211242F933F938F939F93AF93BF93D8
:1016C0008091A0019091A101A091A201B091A301EC
:1016D00030919F0123E0230F2D3758F50196A11D6E
:1016E000B11D20939F018093A0019093A101A0932D
:1016F000A201B093A3018091A4019091A501A091B2
:10170000A601B091A7010196A11DB11D8093A4016E
:101710009093A501A093A601B093A701BF91AF91AB
:101720009F918F913F912F910F900FBE0F901F901F
:10173000189526E8230F0296A11DB11DD2CF1F9246
:101740000F920FB60F9211242F933F934F935F93F5
:101750006F937F938F939F93AF93BF93EF93FF9379
:1017600088EA91E00E94E901FF91EF91BF91AF916A
:101770009F918F917F916F915F914F913F912F91A9
:101780000F900FBE0F901F9018951F920F920FB6DB
:101790000F9211242F938F939F93EF93FF93E091D8
:1017A000B801F091B9018081E091BE01F091BF01D3
:1017B00082FD1BC090818091C1018F5F8F7320914A
:1017C000C201821741F0E091C101F0E0E855FE4FFF
:1017D000958F8093C101FF91EF919F918F912F91F0
:1017E0000F900FBE0F901F9018958081F4CF1F921D
:1017F0000F920FB60F9211248F939F93EF93FF9345
:101800008091950191E0980F9093950181110CC002
:10181000809193018EBDFF91EF919F918F910F90D9
:101820000FBE0F901F901895E0919801F0919901CB
:10183000808190919701892B808310929501EBCF45
:101840001F920F920FB60F9211242F933F934F9335
:101850005F936F937F938F939F93AF93BF93CF9338
:10186000EF93FF9389E180939201C09100018C2F47
:101870000E94E10780E090E0892B19F08C2F0E94F4
:101880000000F89420919201213009F040C080912D
:1018900084009091850020918A0030918B00821BFA
:1018A000930B893E23E0920710F0805C93468738C3
:1018B000914030F180918400909185000A968134A6
:1018C0002CE9920710F080549C4990938B008093F0
:1018D0008A0078948091920180930001FF91EF91AA
:1018E000CF91BF91AF919F918F917F916F915F91B8
:1018F0004F913F912F910F900FBE0F901F90189511
:1019000080918A0090918B0080579E4FD8CF809114
:101910008A0090918B00B0E0A0E0B595A7959795CF
:10192000879548EC249F90011124820F931F8132E8
:101930002EE4920710F080529E44880F991FC5CF65
:10194000E8EAF1E01382128288EE93E0A0E0B0E0D2
:1019500084839583A683B7838DE391E0918380830D
:1019600085EC90E09587848784EC90E09787868764
:1019700080EC90E0918B808B81EC90E0938B828B5C
:1019800082EC90E0958B848B86EC90E0978B868B35
:10199000118E128E138E148E23E040E85CE060E01E
:1019A00070E080E293E00E94200523E040E85CE0E4
:1019B00060E070E087ED92E00E94200523E040E8BF
:1019C0005CE060E070E08EE892E00E94200523E099
:1019D00040E85CE060E070E085E492E00C94200573
:1019E000CF93DF93CDB7DEB7CB54D1090FB6F894C0
:1019F000DEBF0FBECDBF789484B5826084BD84B550
:101A0000816084BD85B5826085BD85B5816085BDF9
:101A100080916E00816080936E00109281008091B1
:101A20008100826080938100809181008160809339
:101A30008100809180008160809380008091B1005E
:101A400084608093B1008091B00081608093B00089
:101A500080917A00846080937A0080917A0082601D
:101A600080937A0080917A00816080937A008091DF
:101A70007A00806880937A001092C100E091B801EA
:101A8000F091B90182E08083E091B401F091B50159
:101A90001082E091B601F091B70180E1808310924D
:101AA000C001E091BC01F091BD0186E08083E0912E
:101AB000BA01F091BB01808180618083E091BA011D
:101AC000F091BB01808188608083E091BA01F09140
:101AD000BB01808180688083E091BA01F091BB01F5
:101AE00080818F7D808368EE73E080E090E00E94CB
:101AF000390188EA91E00E9458028EE491E00E9448
:101B00002D0B62E089E00E94E30062E08AE00E941F
:101B1000E30062E08BE00E94E30062E081E10E946A
:101B2000E300E9E2EE2EE1E0FE2EFCE02F2EA0E93C
:101B30008A2E99249394BCE34B2E512C612C712C4A
:101B4000F701419151917F01052E000C660B770B37
:101B500021E0CE0101960E94200526968FAD2697A2
:101B6000833009F075C02B962FAE2B978DE02C9605
:101B70008FAF2C979E01265B3F4F5901AE014F5FFF
:101B80005F4F6A0110E000E0F50131905F01832DA5
:101B900090E0FC01EA57FF4FE491F0E0EE0FFF1FE9
:101BA000E458FF4F25913491F60131A720A7FC019D
:101BB000E656FF4FE491D801AA0FBB1FA00FB11F3B
:101BC00021E030E02C0F3D1FA20FB31F9A96EC933B
:101BD00061E00E94E30060E0832D0E94B50033E0E5
:101BE000C30ED11C0130110509F02FC111E01C8773
:101BF0008EA1807E88608EA319A350E040E068EB40
:101C00007BE0CE0101960E946C05809196018111C6
:101C10001AC08FB7F894109280009AE190938100D7
:101C200040E45CE95093870040938600E4E6F0E0EE
:101C3000F0938900E093880090928B0080928A0054
:101C40008FBF1093960180916F00846080936F0026
:101C50006BAD7CAD48EC50E0CE0101960E946C0566
:101C60008EA18F7199F12FA938AD49AD5AADA0E27F
:101C7000B3E00E94E70F6C39F3EE7F07F6E18F07C0
:101C800091050CF0E5C0A30192010E94B90F922FBB
:101C9000832F092F182F093A21E6120710F008EABE
:101CA00011E6ADADBEAD98010E94D80F21962EADC4
:101CB0003FAD219750E040E00E94B90FA901409547
:101CC0005095B801CE0101960E946C0531E3E316F0
:101CD00031E0F30609F034CF61E088E00E94E300D0
:101CE00061E088E00E94B5008BE591E00E942D0B39
:101CF00044244A94542C32018FB7F8948090A00168
:101D00009090A101A090A201B090A3018FBF31E3F8
:101D1000C32E31E0D32E4BE9E42E41E0F42E10E047
:101D200000E0F601219131916F013327F901E2556D
:101D3000FF4F8491F901E656FF4F2490F901EA57CD
:101D4000FF4F3490332009F486C081110E948C002B
:101D5000E32DF0E0EE0FFF1FE859FF4FA591B4917E
:101D6000EC912E2231E020E009F430E0832F922F15
:101D7000F7012081211172C0892BC1F421E0208359
:101D8000F801EE0FFF1FEE0FFF1FEF5FFE4F808287
:101D90009182A282B38289E691E00E94200BC80161
:101DA0000E943B0B8FE691E00E942D0B0F5F1F4FAF
:101DB000FFEFEF1AFF0A0430110509F0B2CF80E2FD
:101DC00093E00E947802C0901501D0901601E09037
:101DD0001701F0901801811168C087ED92E00E9410
:101DE0007802811162C08EE892E00E94780281112F
:101DF0005CC085E492E00E947802811156C02FEF0A
:101E0000C216D206E206F20609F056C0809215010B
:101E100090921601A0921701B092180182E891E009
:101E20000E942D0B61E070E080E090E00E9439019B
:101E300080E090E0892B09F45FCF0E94D5018823D0
:101E400009F45ACF0E94000057CF01E010E09CCE69
:101E500098EA81E61ECF90E080E08ACF019709F0F2
:101E6000A5CFF801EE0FFF1FEE0FFF1FEF5FFE4F34
:101E700080819181A281B381A5019401281B390B36
:101E80004A0B5B0BDA01C9010A97A105B1050CF4F5
:101E90008DCFF701108289E691E00E94200BC801E6
:101EA0000E943B0B88E791E07FCF3FEFC316D3063C
:101EB000E306F30609F4B6CF8C189D08AE08BF08F8
:101EC00040ED841647E09406A104B1040CF4AACFB7
:101ED00040921501509216016092170170921801FC
:101EE00088E891E00E942D0BC0901101D090120162
:101EF000E0901301F0901401F094E094D094C09419
:101F0000C11CD11CE11CF11CC0921101D092120124
:101F1000E0921301F0921401B701A60180E293E070
:101F20000E942403B701A60187ED92E00E942403DA
:101F3000B701A6018EE892E00E942403B701A60132
:101F400085E492E00E9424036DCFAA1BBB1B51E1E4
:101F500007C0AA1FBB1FA617B70710F0A61BB70B19
:101F6000881F991F5A95A9F780959095BC01CD01BE
:101F70000895052E97FB1EF400940E94D00F57FD84
:101F800007D00E94F20F07FC03D04EF40C94D00F40
:101F900050954095309521953F4F4F4F5F4F089595
:101FA00090958095709561957F4F8F4F9F4F0895C5
:101FB000A29FB001B39FC001A39F700D811D11248A
:101FC000911DB29F700D811D1124911D08950E94D5
:101FD000D80FA59F900DB49F900DA49F800D911DCB
:101FE00011240895A1E21A2EAA1BBB1BFD010DC0EE
:101FF000AA1FBB1FEE1FFF1FA217B307E407F507B9
:1020000020F0A21BB30BE40BF50B661F771F881F94
:10201000991F1A9469F760957095809590959B012A
:10202000AC01BD01CF010895EE0FFF1F0590F491A3
:10203000E02D0994F894FFCF01FFFFFFFFFFFFFFA2
:10204000FFFFFFFFFFFFFFFFFF12FDFFFFFFFFFF8F
:10205000FF03000200060004000C00080009000154
:10206000002003D7028E02450209000A000B00116E
:1020700000000000000B026B0198015802C901A783
:1020800001BB010D0A003D3D3D20494E4954203D14
:102090003D3D003D3D3D205354415254203D3D3D8A
:1020A0000050494E3A2000205052455353454400B9
:1020B0002052454C45415345440053544F502E0047
:0620C0005455524E2100B0
:107E0000112484B714BE81FFF0D085E080938100F7
:107E100082E08093C00088E18093C10086E0809377
:107E2000C20080E18093C4008EE0C9D0259A86E02C
:107E300020E33CEF91E0309385002093840096BBD3
:107E4000B09BFECF1D9AA8958150A9F7CC24DD24C4
:107E500088248394B5E0AB2EA1E19A2EF3E0BF2EE7
:107E6000A2D0813461F49FD0082FAFD0023811F036
:107E7000013811F484E001C083E08DD089C08234E0
:107E800011F484E103C0853419F485E0A6D080C0E4
:107E9000853579F488D0E82EFF2485D0082F10E0AE
:107EA000102F00270E291F29000F111F8ED06801E7
:107EB0006FC0863521F484E090D080E0DECF843638
:107EC00009F040C070D06FD0082F6DD080E0C81688
:107ED00080E7D80618F4F601B7BEE895C0E0D1E017
:107EE00062D089930C17E1F7F0E0CF16F0E7DF06D8
:107EF00018F0F601B7BEE89568D007B600FCFDCFD4
:107F0000A601A0E0B1E02C9130E011968C91119780
:107F100090E0982F8827822B932B1296FA010C0160
:107F200087BEE89511244E5F5F4FF1E0A038BF0790
:107F300051F7F601A7BEE89507B600FCFDCF97BE46
:107F4000E89526C08437B1F42ED02DD0F82E2BD052
:107F50003CD0F601EF2C8F010F5F1F4F84911BD097
:107F6000EA94F801C1F70894C11CD11CFA94CF0C13
:107F7000D11C0EC0853739F428D08EE10CD085E9AC
:107F80000AD08FE07ACF813511F488E018D01DD067
:107F900080E101D065CF982F8091C00085FFFCCF94
:107FA0009093C60008958091C00087FFFCCF809118
:107FB000C00084FD01C0A8958091C6000895E0E648
:107FC000F0E098E1908380830895EDDF803219F02E
:107FD00088E0F5DFFFCF84E1DECF1F93182FE3DFCA
:107FE0001150E9F7F2DF1F91089580E0E8DFEE27F6
:047FF000FF270994CA
:027FFE00040479
:00000001FF
