:020000040000FA
:100000000C9462000C948A000C948A000C948A0070
:100010000C948A000C948A000C948A000C948A0038
:100020000C948A000C948A000C948A000C948A0028
:100030000C94D80F0C948A000C948A000C948A00BB
:100040000C940D0F0C94AF0F0C947D0F0C94570F64
:100050000C948A000C948A000C948A000C948A00F8
:100060000C948A000C948A000000000023002600F3
:10007000290000000000240027002A0000000000E2
:10008000250028002B0004040404040404040202D4
:100090000202020203030303030301020408102007
:1000A0004080010204081020010204081020000012
:1000B0000008000201000003040700000000000027
:1000C0000000581011241FBECFEFD8E0DEBFCDBF17
:1000D00012E0A0E0B1E0E8EEF3E302C005900D927B
:1000E000AA30B107D9F724E0AAE0B2E001C01D921E
:1000F000A73CB207E1F710E0C2E6D0E004C02197C8
:10010000FE010E94CA19C136D107C9F70E94941096
:100110000C94F2190C940000CF93DF93FC019091A2
:10012000050395AB40E85CE060E070E046AB57ABA0
:1001300060AF71AFEF01CC5BDF4F83E08883128249
:100140001382148215821286838720E23EE4378769
:1001500026872685378535872487118A108A11A23C
:1001600012A213A214A210A2138E128E85A12FEF39
:1001700026A3807C8F7785A311821082A091030330
:10018000B091040323E033E0109729F09D010D9016
:10019000BC91A02DF9CFD901ED93FC9381E0890F9B
:1001A00080930503963008F01882DF91CF9108956F
:1001B0002091020330E0C90101966AE070E00E94DC
:1001C0007519909101039817B1F08093020381E1B2
:1001D000829FF001839FF00D1124E95AFD4F81E0C9
:1001E000808384EF91E0A0E0B0E081839283A383D9
:1001F000B48381E0089580E00895833081F028F48D
:10020000813099F08230A9F008958730A9F08830C4
:10021000C9F08430B1F4809180008F7D03C080915B
:1002200080008F7780938000089584B58F7784BD98
:10023000089584B58F7DFBCF8091B0008F77809338
:10024000B00008958091B0008F7DF9CF1F93CF93B8
:10025000DF93282F30E0F901E255FF4F8491F90137
:10026000E656FF4FD491F901EA57FF4FC491CC23D2
:10027000A9F0162F81110E94FD00EC2FF0E0EE0F87
:10028000FF1FE458FF4FA591B4918FB7F894EC91FC
:10029000111108C0D095DE23DC938FBFDF91CF9181
:1002A0001F910895DE2BF8CFCF93DF9390E0FC01F0
:1002B000E656FF4F24918A579F4FFC018491882373
:1002C000D1F090E0880F991FFC01EE58FF4FA591E7
:1002D000B491FC01E458FF4FC591D491623071F4A0
:1002E0009FB7F8943C91822F809583238C93E8816B
:1002F0002E2B28839FBFDF91CF9108958FB7F8945D
:10030000EC912E2B2C938FBFF6CF3FB7F8948091B2
:10031000370290913802A0913902B0913A0226B585
:10032000A89B05C02F3F19F00196A11DB11D3FBF2D
:10033000BA2FA92F982F8827BC01CD01620F711DFC
:10034000811D911D42E0660F771F881F991F4A95F6
:10035000D1F708958F929F92AF92BF92CF92DF9282
:10036000EF92FF924B015C010E9485016B017C01C1
:100370000E9485016C197D098E099F09683E7340B2
:1003800081059105A8F321E0821A9108A108B1081E
:1003900088EEC80E83E0D81EE11CF11C8114910484
:1003A000A104B10429F7FF90EF90DF90CF90BF90A8
:1003B000AF909F908F900895AF92BF92CF92DF92AF
:1003C000EF92FF920F931F93CF93DF936C017B010A
:1003D0008B01040F151FEB015E01AE18BF08C0179B
:1003E000D10759F06991D601ED91FC910190F0810E
:1003F000E02DC6010995892B79F7C501DF91CF91D1
:100400001F910F91FF90EF90DF90CF90BF90AF9032
:100410000895FC01538D448D252F30E0842F90E00A
:10042000821B930B541710F0CF96089501970895EF
:10043000FC01918D828D981761F0A28DAE0FBF2FB8
:10044000B11D5D968C91928D9F5F9F73928F90E00E
:1004500008958FEF9FEF0895FC01918D828D98177D
:1004600031F0828DE80FF11D858D90E008958FEFBA
:100470009FEF0895FC01918D228D892F90E0805C83
:100480009F4F821B91098F739927089586E093E00F
:100490000E943A0221E0892B09F420E0822F08957E
:1004A00080E090E0892B29F00E94460281110C9493
:1004B00000000895FC01A48DA80FB92FB11DA35A07
:1004C000BF4F2C91848D90E001968F739927848F74
:1004D000A689B7892C93A089B1898C918370806497
:1004E0008C93938D848D981306C00288F389E02D38
:1004F00080818F7D80830895EF92FF920F931F93E9
:10050000CF93DF93EC0181E0888F9B8D8C8D9813C6
:100510001AC0E889F989808185FF15C09FB7F894D2
:10052000EE89FF896083E889F9898081837080641E
:1005300080839FBF81E090E0DF91CF911F910F9169
:10054000FF90EF900895F62E0B8D10E00F5F1F4F78
:100550000F731127E02E8C8D8E110CC00FB607FC87
:10056000FACFE889F989808185FFF5CFCE010E9415
:100570005A02F1CFEB8DEC0FFD2FF11DE35AFF4F27
:10058000F0829FB7F8940B8FEA89FB8980818062A3
:10059000CFCFCF93DF93EC01888D8823B9F0AA8960
:1005A000BB89E889F9898C9185FD03C0808186FD2E
:1005B0000DC00FB607FCF7CF8C9185FFF2CF80817D
:1005C00085FFEDCFCE010E945A02E9CFDF91CF9196
:1005D0000895FC0185A18F7171F180916F008B7F6F
:1005E00080936F0080910C028F5F80930C0278944F
:1005F00080A1843080F0DF01A05CBF4F1D921D926E
:100600001D921C92139781E090E0A0E0B0E08283FD
:100610009383A483B58380910C02882319F08150C1
:1006200080930C0280910C02811105C080916F00B3
:10063000846080936F0008950F931F93FC01909145
:100640006F009B7F90936F0090910C029F5F90933F
:100650000C027894428153816481758186819781EF
:10066000A085B1858A019B01080F191F2A1F3B1F16
:10067000C901B80120910C02222319F021502093C6
:100680000C0220910C02211105C020916F00246002
:1006900020936F001F910F910895DC0195962C9186
:1006A0002F71F9F0F894FC0141A152A163A174A14A
:1006B000EB5BFF4F408351836283738378948C5B41
:1006C0009F4FDC012C916081718182819381233065
:1006D00061F030E050E040E00E94AB19B901CA017E
:1006E000089560E070E080E090E00895FC0195A13D
:1006F0009F7131F0F89411A212A213A214A278945F
:100700000895FC0190916F009B7F90936F009091F2
:100710000C029F5F90930C02789481E090A1953039
:1007200008F480E090910C02992319F09150909375
:100730000C0290910C02911105C090916F00946091
:1007400090936F0008954F925F926F927F928F9275
:100750009F92AF92BF92CF92DF92EF92FF920F9350
:100760001F93CF93DF93EC01FC01E05CFF4F4083CC
:100770005183628373832A013B0177FF07C04424BE
:1007800055243201441A550A660A770A7301620138
:100790008A8D9B8D892B21F488A1893009F054C161
:1007A000122F4A015B01CE010E948103882309F4C4
:1007B00015C18B8518160CF056C0181419041A04AC
:1007C0001B040CF455C080916F008B7F80936F00E9
:1007D00080910C028F5F80930C027894112319F1A1
:1007E00089A19AA1ABA1BCA1FE01EB5BFF4FC08028
:1007F000D180E280F3808C199D09AE09BF091816DB
:1008000019061A061B060CF0D6C089A19AA1ABA145
:10081000BCA18C199D09AE09BF0973016201C80E04
:10082000D91EEA1EFB1E8C8D9D8D28A1293009F052
:10083000CFC02A8D3B8D821B930B6E8D7F8D0E94C6
:100840006119620F731FCB01B0E0A0E08A839B8324
:10085000AC83BD838A819B81AC81BD818C0D9D1D44
:10086000AE1DBF1D57C0882309F4ADCFB7FEABCF77
:1008700080916F008B7F80936F0080910C028F5F5F
:1008800080930C027894112331F149A15AA16BA1F4
:100890007CA1FE01EB5BFF4F80819181A281B3813E
:1008A000481B590B6A0B7B0B141615061606170608
:1008B000B4F549A15AA16BA17CA18A019B01081B37
:1008C000190B2A0B3B0BD901C80173016201C81A2D
:1008D000D90AEA0AFB0A8C8D9D8D28A1293041F5A1
:1008E0002A8D3B8D821B930B6E8D7F8D0E9461192B
:1008F000620F731FCB01B0E0A0E0C816D906EA066C
:10090000FB06C4F58A839B83AC83BD838C199D0948
:10091000AE09BF098E839F83A887B9872BC049A1E1
:100920005AA16BA17CA1841B950BA60BB70BCDCF55
:10093000AC0170E060E04C155D056E057F05B4F01C
:100940000196B0E0A0E08A839B83AC83BD838A815B
:100950009B81AC81BD818C199D09AE09BF098E8335
:100960009F83A887B98788E088A304C0CA82DB82F6
:10097000EC82FD8280910C02882319F081508093D3
:100980000C0280910C02811105C080916F0084607F
:1009900080936F00DF91CF911F910F91FF90EF90A7
:1009A000DF90CF90BF90AF909F908F907F906F908F
:1009B0005F904F90089589A19AA1ABA1BCA1A70116
:1009C0009601281B390B4A0B5B0BDA01C90125CFB5
:1009D000BC016F5F7F4F88E088A335CF81149104FD
:1009E000A104B104B9F28B85082E000C990B97FF76
:1009F00003C0919581959109181419041A041B04D8
:100A00000CF0819590916F009B7F90936F00909177
:100A10000C029F5F90930C0278941F8A1E8A24E137
:100A200030E03F872E871B8A1A8A9DA197FF0AC054
:100A300094E098A38B871D8E1C8E4A825B826C8209
:100A40007D8298CF97E0F5CF8B85082E000C990B0F
:100A500097FF03C091958195910914161506160606
:100A600017060CF0819590916F009B7F90936F001B
:100A700090910C029F5F90930C027894222321F1B5
:100A8000FE01EB5BFF4FC080D180E280F380C40E9B
:100A9000D51EE61EF71E89A09AA0ABA0BCA09701A8
:100AA0008601081919092A093B0948015901181436
:100AB00019041A041B0424F589A09AA0ABA0BCA0B9
:100AC000C818D908EA08FB088B87CA82DB82EC8247
:100AD000FD8281E0452B462B472B09F445CF88A1A9
:100AE000853008F047CF1F8A1E8A84E190E09F87F7
:100AF0008E871B8A1A8A8DA187FF0FC084E034CFAE
:100B000089A09AA0ABA0BCA0950184010C191D0975
:100B10002E093F0968017901D7CF85E025CFCF9213
:100B2000DF92EF92FF92CF93DF93EC016A017B019A
:100B30008DA18F71A1F1F89489A19AA1ABA1BCA15B
:100B4000FE01EB5BFF4F80839183A283B383789494
:100B5000DE01AC5BBF4F2C916081718182819381FA
:100B60002330B9F49B01AC018DA18F71C1F0D70185
:100B7000C601821B930BA40BB50BAC01BD0121E098
:100B8000CE01DF91CF91FF90EF90DF90CF900C944A
:100B9000A30330E050E040E00E94AB19E5CFDF91C5
:100BA000CF91FF90EF90DF90CF900895FC0195A139
:100BB0009F7121F020E0CF010C94A30308952F92A0
:100BC0003F924F925F926F927F928F929F92AF92DD
:100BD000BF92CF92DF92EF92FF920F931F93CF932A
:100BE000DF93CDB7DEB72E970FB6F894DEBF0FBEFA
:100BF000CDBF9A838983FC0195A19F7109F4EEC151
:100C00001A0157FF04C022243324241A350A57FF3F
:100C100003C0F1E02F1A310881E828168EE3380668
:100C200020F030E8232E3EE3332E8A014B01E98188
:100C3000FA81FE87ED8780916F008B7F80936F0034
:100C400080910C028F5F80930C027894672B09F0DF
:100C500097C187A1882309F472C124E1A22EB12C87
:100C600010920C0280916F00846080936F00950158
:100C700050E040E060E876E988E990E00E94AB1936
:100C800069017A0188EC482E512C612C712CCA0123
:100C9000B901A30192010E94AB192D833E834F83BA
:100CA000588769877A878B879C87D1015096A701DF
:100CB00096010E94DF19A30192010E94AB19293EFF
:100CC000FDEF3F0741055105ECF060E47DE586EC62
:100CD00090E0A70196010E94AB19190180E1281A42
:100CE00031082131310510F4312C212CD1015096DD
:100CF000A70196010E94DF1928EC30E040E050E0A7
:100D00000E94AB19390117FD06C0ED85FE85B7AE0F
:100D1000A6AE35AE24AE80916F008B7F80936F00BE
:100D200080910C028F5F80930C027894ED85FE8594
:100D3000828D938D820D931D892B09F4C8C0CF013C
:100D40000E948103882309F4C2C0ED85FE85848951
:100D500095898615970509F4BAC0F5E0FB8341E053
:100D600050E05A834983ED85FE85F0A1FC83ED8533
:100D7000FE85C280D380E480F580FB81F150FB8347
:100D8000FF2339F010920C0280916F0084608093F1
:100D90006F00ED85FE85048D158D9801205F3F4F16
:100DA000D3010E94D0192489358950E040E00E9487
:100DB000AB192901F0E14F1A51082131310510F426
:100DC000512C412CED85FE8582AD93ADA816B90658
:100DD00029F12414350408F0F7C09201AAE0B0E02C
:100DE0000E94D0190115110509F0E6C06B5F7F4F15
:100DF0008F4F9F4F2AE030E040E050E00E94AB1957
:100E0000C90129839A8349815A811416150624F051
:100E100081E090E09A83898399E09C83ED85FE854B
:100E20000681178120853185C20169817A810E94FE
:100E30006119CB01B0E0A0E0B701A601401B510B46
:100E4000620B730B481759076A077B0708F0BFC08E
:100E5000C201B0E0A0E00C191D092E093F09080FDE
:100E6000191F2A1F3B1FF8E0FC834B81442359F0D4
:100E700040916F004B7F40936F0040910C024F5F99
:100E800040930C027894ED85FE8542815381648104
:100E90007581C416D506E606F70619F0FB81F11137
:100EA00062CF4C81ED85FE8540A3558E448E4981ED
:100EB0005A81578F468F0097A105B10541F0828373
:100EC0009383A483B58306831783208731874D815D
:100ED0005E81ED85FE855587448789859A85918B4E
:100EE000808B758A648A338E228E10920C028091D8
:100EF0006F00846080936F00892811F4B12CA12CBD
:100F0000ED85FE85B3AEA2AE828D938D2E960FB683
:100F1000F894DEBF0FBECDBFDF91CF911F910F912F
:100F2000FF90EF90DF90CF90BF90AF909F908F9009
:100F30007F906F905F904F903F902F9008958D8598
:100F40009E850E9481038823B9F0ED85FE85828D00
:100F5000938D892B19F081E087A37FCE82E0ED8508
:100F6000FE8587A385A187FF78CE808D918D978799
:100F7000868783E080A371CE82E0ED85FE85ECCF8D
:100F8000ED85FE8585A187FF09C087A1823031F4F8
:100F9000808D918D9787868784E080A35401F9EA3C
:100FA0008F16F1E69F0620F098EAA92E91E6B92E59
:100FB000ED85FE8517A254CE980150E040E00E94D6
:100FC000AB19CA01B90112CFE7E0EC8327CF00E0EB
:100FD00010E0980180E090E0DC0147CF90E080E0F5
:100FE00095CFCF93DF93DC0195969C9195979F7158
:100FF000953009F44AC030F49330A9F19430E9F106
:1010000080E038C0963009F447C09730C9F7ED0149
:1010100050E040E070E088A599A59A01220F331FA7
:10102000FB01042E02C0F595E7950A94E2F7240F20
:10103000351FE0FF0FC0FD01E20FF31F22A5FC01E9
:101040003081232B20834F5F5F4F2396443051051F
:1010500011F7D6CFFD01E20FF31F22A5FC0130816D
:1010600020952323EFCF80911102807F682B60931E
:10107000110281E0DF91CF910895809111028F706C
:10108000F0E16F9FB0011124F1CF80911202807FB7
:10109000682B60931202EDCF809112028F7090E165
:1010A000699FB0011124F4CF2F923F924F925F922B
:1010B0006F927F928F929F92AF92BF92CF92DF9268
:1010C000EF92FF920F931F93CF93DF937894C09189
:1010D0000303D0910403209709F40DC1B12C082F0C
:1010E00010E0AA24A39465E0862E77E0972EE8E02E
:1010F0007E2EF0EFCF2EDD24DA94A2E05A2EB3E05C
:101100006B2E88E8E82E83E1F82E8DA18F71883050
:1011100049F4F8948AA5E8A5F9A5908180958923DA
:101120008083789488A1853008F4F8C08FA182303C
:1011300009F4C6C08E859F85892B31F08E899F89E1
:10114000800F911F9F8B8E8B2E893F898E859F8567
:101150002817390708F4A0C01F8A1E8A49A15AA17E
:101160006BA17CA12B85822F022E000C990BAA0B60
:10117000BB0B840F951FA61FB71F89A39AA3ABA310
:10118000BCA3EA85E20FE8300CF453C1E0E0EA8743
:10119000F8948DA18F71853009F455C1863008F41B
:1011A0008EC1873009F43EC208F477C2883091F4CA
:1011B000EBA5FCA58B8518160CF0B0C29DA580810F
:1011C000892B8083A0920D029AA5E8A5F9A58081BC
:1011D000892B808378948A819B81AC81BD81019722
:1011E000A109B1098A839B83AC83BD838A819B81DA
:1011F000AC81BD81892B8A2B8B2B09F032C18E816A
:101200009F81A885B9850097A105B10509F486C11C
:101210002B8521952B878A839B83AC83BD831E827C
:101220001F821886198698A22C8D3D8D8A8D9B8DE4
:101230002817390708F0E1C18C899D89F90170965A
:10124000BF010E9461197F876E874A895B89840F7D
:10125000951F9B8B8A8BE817F90768F44E855F858D
:101260004F5F5F4F5F874E87A601421B530B840F72
:10127000951F9B8B8A8B8A819B81AC81BD812F5F5F
:101280003F4FA90170E060E0481759076A077B07E4
:1012900008F013C13D8F2C8F80910D02482F50E034
:1012A0002E853F856E897F89261B370B4217530792
:1012B00028F08E859F852E893F89821B80930D02A1
:1012C0000990D881C02D209709F01FCF80910B0283
:1012D000882389F0BB2079F0E0910F02F091100291
:1012E000908180910E028095892380831092130251
:1012F000809112028EBDDF91CF911F910F91FF90CF
:10130000EF90DF90CF90BF90AF909F908F907F90A5
:101310006F905F904F903F902F900895843009F424
:1013200046C0833069F68E899F89800F911F9F8BFD
:101330008E8B2E893F898E859F852817390750F11E
:101340001F8A1E8A2EA12E3F09F414C130E0F90134
:10135000E255FF4F8491F901E656FF4F4490F901A1
:10136000EA57FF4F24902220A1F03DA08111C3C174
:10137000E22DF0E0EE0FFF1FE458FF4FA591B4916E
:101380008FB7F89436FE9DC19C91409449224C92AF
:101390008FBFA8A280910D022E853F854E895F895F
:1013A000241B350B8217130608F488CF82CF8FA138
:1013B000823009F485CF2EA12E3F09F49BC030E086
:1013C000F901E255FF4F8491F901E656FF4F449031
:1013D000F901EA57FF4F24902220B9F03DA036FAD8
:1013E000332430F881116AC1E22DF0E0EE0FFF1FC7
:1013F000E458FF4FA591B4918FB7F894332009F4C6
:10140000C0C0EC914E2A4C928FBF888D998D9F87DA
:101410008E878A8D9B8D892B11F588A280910D0274
:101420002E853F858217130608F448CF8E859F8549
:1014300045CFE7FFACCEE85FEA87F8948DA18F71C6
:10144000853009F0ABCE80911202807FEE0FFF0B4A
:10145000EF5BFE4F9081892B8093120248C098A2C7
:10146000DDCF88A1873009F4DFCE08F060C0853079
:1014700009F012CF8C859D859F878E878A899B89ED
:1014800028893989820F931F893C910508F07DC016
:101490009B8B8A8B4A815B816C817D812A8D3B8D00
:1014A000C9010196B0E0A0E084179507A607B70729
:1014B00008F4F2CE232B09F4EFCE78A2EDCE8330E0
:1014C00009F4E1C0843009F085CE809111028F705B
:1014D000EE0FFF0BEF5BFE4F20813181229532959D
:1014E000307F3227207F3227822B80931102BB244A
:1014F000B39470CEEA85EE0FFF0BEF5BFE4F608179
:10150000CE010E94F107B82E888D998D9F878E8716
:101510008A8D9B8D892B09F480CFA1CF1D8E1C8EC7
:101520008DA187FD76C0FF86EE86A8A2B5CE8A3053
:1015300008F0B2CE2C8D3D8D8A8D9B8D821793073E
:1015400070F14A815B816C817D81C901B0E0A0E0CE
:1015500084179507A607B70708F498A22115310547
:1015600021F0215031093D8F2C8F8C899D89F90103
:10157000709626C060E0CE010E94F107B82EA8A2A6
:1015800009CF9C91409449223ECF885C91099B8B66
:101590008A8B8E859F8501969F878E877BCF4E8D08
:1015A0005F8DB901681B790B4617570708F08CC08F
:1015B000241B350B3D8F2C8FF90170968C899D89EA
:1015C000BF010E9461197F876E874A895B89840FFA
:1015D000951F9B8B8A8BE817F90708F05DCE4E8527
:1015E0005F854F5F5F4F5F874E87A601421B530B9E
:1015F000840F951F9B8B8A8B4FCE2C853D853F8713
:101600002E87288939893B8B2A8B9D8F8C8F88A2C6
:1016100043CE888D998D9F878E8768A241E050E0E8
:1016200081E03ECEEE0FFF0BEF5BFE4F90818CA969
:10163000892780FF08C0E8A5F9A52AA5308190FF79
:1016400069C0232B208381FF08C0EBA5FCA52DA535
:10165000308191FF5BC0232B208382FF08C0EEA561
:10166000FFA528A9308192FF4DC0232B208383FF43
:1016700008C0E9A9FAA98BA9208193FF3FC0822B5A
:1016800080839CABA7CD80911102807FEE0FFF0B72
:10169000EF5BFE4F9081892B28CF809112028F70D3
:1016A000EE0FFF0BEF5BFE4F2081318122953295CB
:1016B000307F3227207F3227822BCECE0E94FD0042
:1016C00093CEEC914E2A63CE88A29D8F8C8F8C8511
:1016D0009D859F878E871B8A1A8A8FA1813009F08A
:1016E000DBCD5FA28DA187FFD7CD888D998D9F8798
:1016F0008E8768A2D1CD0E94FD003ACE80958223CC
:101700008083BFCF209523232083B1CF209523232F
:101710002083A3CF20952323208395CF8DA590816F
:10172000809589234ECDE4E1F2E08191882321F078
:1017300092E0E831F907C9F708954F925F926F92EE
:101740007F92AF92BF92CF92DF92EF92FF920F9370
:101750001F93CF93DF9300D000D0CDB7DEB72B011E
:101760003C0129833A834B835C832091020330E060
:10177000C90101966AE070E00E9475199091010319
:10178000981799F18093020381E1829FF001839F72
:10179000F00D1124E95AFD4F10824182528263827A
:1017A000748289819A81AB81BC8185839683A7836A
:1017B000B087E186F28603871487A586B686C7863A
:1017C000D08A81E00F900F900F900F90DF91CF9112
:1017D0001F910F91FF90EF90DF90CF90BF90AF904F
:1017E0007F906F905F904F90089580E0EBCFFC0169
:1017F00001900020E9F73197AF01481B590BBC015C
:1018000086E093E00C94DC018F929F92AF92BF929E
:101810000F931F93CF93DF93CDB7DEB7A1970FB68A
:10182000F894DEBF0FBECDBF19A2423008F44AE0E3
:101830008E010F5D1F4F842E912CB12CA12CA50180
:1018400094010E948919E62FB901CA01EA30F4F423
:10185000E05DD801EE938D01232B242B252B79F706
:1018600090E080E0109719F0CD010E94F70BA1964F
:101870000FB6F894DEBF0FBECDBFDF91CF911F91A1
:101880000F91BF90AF909F908F900895E95CE1CF4A
:10189000CF93DF930E94F70BEC0183E791E00E9466
:1018A000F70B8C0F9D1FDF91CF910895EF92FF9260
:1018B0001F93CF93DF93EC017B01142F0E944D0304
:1018C0001616170618061906F4F4CE010E944D03E9
:1018D000643F714081059105F4F40E94930B8111DE
:1018E0002AC0CE010E941C03672B682B692B19F5B7
:1018F0004FEF5FEFBA01CE01DF91CF911F91FF90C3
:10190000EF900C94D605CE010E944D036D307E4FB2
:101910008F4F9F4F14F7CE010E94E90281E0809320
:101920003102F0921B02E0921A02DF91CF911F91D7
:10193000FF90EF9008950E94930B8823B1F3CE019E
:101940000E94E902CE010E94760386E791E00E94A0
:10195000480C10931802E9CFEF92FF921F93CF9398
:10196000DF93EC017B01142F0E944D03161617061E
:1019700018061906FCF4CE010E944D03643F714025
:1019800081059105FCF40E94930B882359F1CE0147
:101990000E941C03672B682B692B21F541E050E066
:1019A00060E070E0CE01DF91CF911F91FF90EF904A
:1019B0000C94D605CE010E944D036D307E4F8F4FA3
:1019C0009F4F0CF7CE010E94E90281E08093310223
:1019D000F0921B02E0921A02DF91CF911F91FF90CB
:1019E000EF9008950E94930B8111F6CFCE010E94D3
:1019F000E902CE010E9476038FE791E00E94480C35
:101A000010931802E9CFCF92DF92EF92FF92CF931B
:101A1000DF9397FF1BC06B017C016DE286E093E0D2
:101A20000E947C02EC0166277727CB016C197D09A7
:101A30008E099F094AE00E94040C8C0F9D1FDF91C4
:101A4000CF91FF90EF90DF90CF9008954AE0DF9123
:101A5000CF91FF90EF90DF90CF900C94040C9F9269
:101A6000AF92BF92CF92DF92EF92FF920F931F93AC
:101A7000CF93DF9300D0CDB7DEB78C01FC01EC5BD8
:101A8000FF4F8081833009F06BC069834A83CE01A8
:101A900001965C016801F12CE12CF50191905F0148
:101AA000892D90E0FC01EA57FF4FE491F0E0EE0F42
:101AB000FF1FE458FF4F25913491F60131A720A76D
:101AC000FC01E656FF4FE491D701AA0FBB1FAE0DF4
:101AD000BF1DA00FB11F9A96EC9361E00E945401C4
:101AE00060E0892D0E942601F3E0CF0ED11CEA941C
:101AF000EF2809F084C0FF24F394F801F38685A150
:101B0000807E886085A3F0A250E040E068EB7BE037
:101B1000C8010E94DF0580910A0281111CC08FB7A5
:101B2000F894109280009AE19093810020E43CE9BF
:101B3000309387002093860024E630E030938900BC
:101B40002093880020E931E030938B0020938A00B5
:101B50008FBFF0920A0280916F00846080936F00C3
:101B6000F80162AD73AD48EC50E0C8010E94DF059A
:101B7000F80185A18F7109F449C026A937A940ADA4
:101B800051ADA0E2B3E00E94DF196C39F3EE7F079C
:101B9000F6E18F079105BCF52CE330E040E050E022
:101BA0000E94AB19922F832FE92EF82E29EAE21614
:101BB00021E6F20620F088EAE82E81E6F82EF80108
:101BC000A4ADB5AD97010E94D01926AD37AD50E058
:101BD00040E00E94AB19A90140955095B701C8019A
:101BE0000F900F90DF91CF911F910F91FF90EF9089
:101BF000DF90CF90BF90AF909F900C94DF05EE24C4
:101C0000E394F12C4ACF98EA81E6CECF0F900F9063
:101C1000DF91CF911F910F91FF90EF90DF90CF90C8
:101C2000BF90AF909F9008952F923F924F925F92F6
:101C30006F927F928F929F92AF92BF92CF92DF92DC
:101C4000EF92FF920F931F93CF93DF938C01C1E12B
:101C5000D1E01B01F80120813181428153816881EB
:101C600079818A819B810E94A8172B013C01F80190
:101C700024813581468157816C817D818E819F8150
:101C80000E94A8174B015C01F8012085318542852F
:101C90005385688579858A859B850E94A8176B0185
:101CA0007C01A3019201C301B2010E9499182B018A
:101CB0003C01A5019401C501B4010E9499189B0142
:101CC000AC01C301B2010E94A9174B015C01A7013D
:101CD0009601C701B6010E9499189B01AC01C5018C
:101CE000B4010E94A9170E940C19F101619371932C
:101CF000819391931F012C9681E491E08C179D07AD
:101D000009F0A8CFDF91CF911F910F91FF90EF9035
:101D1000DF90CF90BF90AF909F908F907F906F900B
:101D20005F904F903F902F9008958F929F92AF9227
:101D3000BF92CF92DF92EF92FF920F931F93CF93B8
:101D4000DF93CDB7DEB7AC970FB6F894DEBF0FBE0A
:101D5000CDBF19A21AA21BA21CA21DA21EA21FA2C5
:101D600018A619A61AA61BA61CA6BE016F5E7F4F59
:101D7000CE0181960E94140EBE016F5F7F4F8BE4EF
:101D800092E00E94140E8E010F5F1F4FCE0141960C
:101D90007C0189E5A82E81E0B82E9BE3C92E92E054
:101DA000D92E4701F80161917191819191918F0133
:101DB000F70121913191419151917F010E94A81722
:101DC000905824EE37EB4BE453E40E9499180E949C
:101DD00066189B01AC01F501A191B1915F010E94D0
:101DE000EA19F60161937193819391936F0108153C
:101DF0001905C1F6AC960FB6F894DEBF0FBECDBF85
:101E0000DF91CF911F910F91FF90EF90DF90CF90D6
:101E1000BF90AF909F908F9008951F920F920FB632
:101E20000F9211242F933F938F939F93AF93BF9360
:101E30008091330290913402A0913502B091360224
:101E40003091320223E0230F2D3758F50196A11D62
:101E5000B11D209332028093330290933402A093F9
:101E60003502B09336028091370290913802A091EA
:101E70003902B0913A020196A11DB11D809337023B
:101E800090933802A0933902B0933A02BF91AF9178
:101E90009F918F913F912F910F900FBE0F901F90A8
:101EA000189526E8230F0296A11DB11DD2CF1F92CF
:101EB0000F920FB60F9211242F933F934F935F937E
:101EC0006F937F938F939F93AF93BF93EF93FF9302
:101ED00086E093E00E945A02FF91EF91BF91AF918B
:101EE0009F918F917F916F915F914F913F912F9132
:101EF0000F900FBE0F901F9018951F920F920FB664
:101F00000F9211242F938F939F93EF93FF93E09160
:101F10001603F09117038081E0911C03F0911D03DB
:101F200082FD1BC0908180911F038F5F8F73209172
:101F30002003821741F0E0911F03F0E0EA5FFC4FBD
:101F4000958F80931F03FF91EF919F918F912F9118
:101F50000F900FBE0F901F9018958081F4CF1F92A5
:101F60000F920FB60F9211248F939F93EF93FF93CD
:101F70008091130291E0980F9093130281110CC08D
:101F8000809111028EBDFF91EF919F918F910F90E3
:101F90000FBE0F901F901895E0910F02F091100264
:101FA000808190910E02892B808310921302EBCFD7
:101FB0001F920F920FB60F9211242F933F934F93BE
:101FC0005F936F937F938F939F93AF93BF93CF93C1
:101FD000EF93FF9389E180930D02C09100018C2F54
:101FE0000E94540880E090E0892B19F08C2F0E9409
:101FF0000000F89420910D02213009F040C080913A
:1020000084009091850020918A0030918B00821B82
:10201000930B893E23E0920710F0805C934687384B
:10202000914030F180918400909185000A9681342E
:102030002CE9920710F080549C4990938B00809378
:102040008A00789480910D0280930001FF91EF91B6
:10205000CF91BF91AF919F918F917F916F915F9140
:102060004F913F912F910F900FBE0F901F90189599
:1020700080918A0090918B0080579E4FD8CF80919D
:102080008A0090918B00B0E0A0E0B595A795979558
:10209000879548EC249F90011124820F931F813271
:1020A0002EE4920710F080529E44880F991FC5CFEE
:1020B000E6E0F3E01382128288EE93E0A0E0B0E065
:1020C00084839583A683B78385E691E0918380839B
:1020D00085EC90E09587848784EC90E097878687ED
:1020E00080EC90E0918B808B81EC90E0938B828BE5
:1020F00082EC90E0958B848B86EC90E0978B868BBE
:10210000118E128E138E148E8EE794E00E948C0036
:1021100085E394E00E948C008CEE93E00E948C009A
:1021200083EA93E00C948C00CF93DF9300D000D02F
:1021300000D0CDB7DEB7789484B5826084BD84B515
:10214000816084BD85B5826085BD85B5816085BDB2
:1021500080916E00816080936E001092810080916A
:1021600081008260809381008091810081608093F2
:102170008100809180008160809380008091B10017
:1021800084608093B1008091B00081608093B00042
:1021900080917A00846080937A0080917A008260D6
:1021A00080937A0080917A00816080937A00809198
:1021B0007A00806880937A001092C100E091160343
:1021C000F091170382E08083E0911203F0911303F2
:1021D0001082E0911403F091150380E18083109246
:1021E0001E03E0911A03F0911B0386E08083E091C7
:1021F0001803F0911903808180618083E0911803B6
:10220000F0911903808188608083E0911803F09138
:102210001903808180688083E0911803F09119038D
:1022200080818F7D808368EE73E080E090E00E9483
:10223000AA0186E093E00E94C90289E891E00E9429
:10224000480C62E089E00E94540162E08AE00E944A
:10225000540162E08BE00E94540162E081E10E943F
:10226000540145E050E062E070E08EE794E00E94A7
:102270002F0D46E050E063E070E085E394E00E94BB
:102280002F0D47E050E064E070E08CEE93E00E9498
:102290002F0D4DE050E06CE070E083EA93E00E9487
:1022A0002F0D61E088E00E94540161E088E00E9407
:1022B000260186E991E00E94480C412C512C20EF28
:1022C000622E21E4722E8FB7F894809033029090A2
:1022D0003402A0903502B09036028FBF21E531E084
:1022E0003C832B8344E152E05A83498391E0292EB9
:1022F00091E0392E5E834D83C12CD12C7601AB81C8
:10230000BC812D913D91BC83AB833327F901E2550C
:10231000FF4F8491F901E656FF4F1491F901EA57F6
:10232000FF4F0491002309F453C081110E94FD0066
:10233000E02FF0E0EE0FFF1FE859FF4FA591B49199
:10234000EC911E2331E020E009F430E0832F922F3E
:10235000ED81FE81208121113EC0892BA1F421E075
:102360002083D1018D929D92AD92BC92139784EA05
:1023700091E00E94F70BC701B6010E94030D8AEAA3
:1023800091E00E94480CED81FE813196FE83ED8341
:10239000F4E02F0E311C2FEFC21AD20AE20AF20A21
:1023A00034E0C316D104E104F10409F0A8CFE091B0
:1023B0003102E73008F079C0F0E0EF51FE4E0C94A6
:1023C000CA190D12A116CB16B115E6155C17D81552
:1023D00090E080E0BDCF0197B1F6F101808191815D
:1023E000A281B381A5019401281B390B4A0B5B0B19
:1023F000DA01C9010A97A105B1050CF4C4CFAD817A
:10240000BE811C9284EA91E00E94F70BC701B601DD
:102410000E94030D83EB91E0B4CFE0911802EB3002
:1024200008F043C0F0E0E95EFD4E0C94CA19221298
:102430008A129212A612AC12B21255129A12A0125D
:10244000B8127F134EEC5FEF6FEF7FEF8EE794E0F3
:102450000E94D6054EEC5FEF6FEF7FEF85E394E0CF
:102460000E94D6054EEC5FEF6FEF7FEF8CEE93E0AE
:102470000E94D6054EEC5FEF6FEF7FEF83EA93E0AB
:102480000E94D60564EF71E080E090E00E94AA010E
:102490000E94930B811116C041E04093310281E00C
:1024A00090E090931B0280931A02A0E0B0E0AB2B67
:1024B00009F409CF0E944602882309F404CF0E9440
:1024C000000001CF8EE794E00E94E90285E394E0EA
:1024D0000E94E9028CEE93E00E94E90283EA93E015
:1024E0000E94E9028EE794E00E94760385E394E07F
:1024F0000E9476038CEE93E00E94760383EA93E0D9
:102500000E9476038DEB91E00E94480C91E090933D
:102510001802CBCF42E062E070E08EE794E00E94C8
:10252000AC0CC3CF47E063E070E08EE794E00E941C
:10253000560CBBCF48E068E070E083EA93E0EFCF51
:1025400043E069E070E083EA93E0F1CF44E064E0C7
:1025500070E085E394E0E3CF45E065E070E085E37B
:1025600094E0E5CF49E066E070E08CEE93E0D7CFF1
:102570008EE794E00E944D031616170618061906FA
:10258000E4F48EE794E00E944D03643F71408105BE
:102590009105E4F485E394E00E944D0316161706B6
:1025A000180619066CF185E394E00E944D036D3026
:1025B0007E4F8F4F9F4F6CF509C08EE794E00E94CD
:1025C0004D036D307E4F8F4F9F4F24F78EE794E081
:1025D0000E94E90285E394E00E94E9028CEE93E018
:1025E0000E94E90283EA93E00E94E902B1E0B0931D
:1025F0003102EAE0F0E0F0931B02E0931A0255CFBB
:1026000085E394E00E944D03643F7140810591058C
:10261000ECF68CEE93E00E944D0316161706180692
:10262000190654F08CEE93E00E944D036D307E4FFE
:102630008F4F9F4F54F4CACF8CEE93E00E944D030E
:10264000643F7140810591050CF683EA93E00E9496
:102650004D03161617061806190654F083EA93E080
:102660000E944D036D307E4F8F4F9F4F5CF4AECF75
:1026700083EA93E00E944D03643F71408105910518
:102680000CF0A4CFE4E1F2E0819181111CC422E0BE
:10269000E831F207C9F7A981BA818D91BA83A9837C
:1026A000811103CFE8E1F2E0EA17FB07A1F78EE71B
:1026B00094E00E94E90285E394E00E94E9028CEE36
:1026C00093E00E94E90283EA93E00E94E9028EE728
:1026D00094E00E94760385E394E00E9476038CEEFA
:1026E00093E00E94760383EA93E00E94760383E0FE
:1026F00092E00E94480C8AE080931802D6CE8EE7C2
:1027000094E00E94E90285E394E00E94E9028CEEE5
:1027100093E00E94E90283EA93E00E94E9028EE7D7
:1027200094E00E94760385E394E00E9476038CEEA9
:1027300093E00E94760383EA93E00E94760384ECA0
:1027400091E00E94480C84E08093310210924B0289
:1027500010924C0210924D0210924E0210924F02B3
:102760001092500210925102109252024092530263
:102770005092540260925502709256020E94950E39
:10278000A0903B02B0903C02C0903D02D0903E022F
:10279000E0904702F09048020091490210914A02ED
:1027A00020913F02309140024091410250914202FB
:1027B00060914302709144028091450290914602DB
:1027C0000E949D0B0E94D80020E030E040E251ECD6
:1027D00020934B0230934C0240934D0250934E0293
:1027E00020934F0230935002409351025093520273
:1027F00040925302509254026092550270925602D7
:102800000E94950EA0903B02B0903C02C0903D0209
:10281000D0903E02E0904702F090480200914902B9
:1028200010914A0220913F023091400240914102B2
:10283000509142026091430270914402809145029E
:10284000909146020E949D0B0E94D80080E090E08B
:10285000A0E2B1E480934B0290934C02A0934D020E
:10286000B0934E0220E030E040E251EC20934F0262
:1028700030935002409351025093520240925302BF
:102880005092540260925502709256020E94950E28
:10289000A0903B02B0903C02C0903D02D0903E021E
:1028A000E0904702F09048020091490210914A02DC
:1028B00020913F02309140024091410250914202EA
:1028C00060914302709144028091450290914602CA
:1028D0000E949D0B0E94D80080E090E0A0E2B1E44D
:1028E00080934B0290934C02A0934D02B0934E0202
:1028F00080934F0290935002A0935102B0935202E2
:1029000040925302509254026092550270925602C5
:102910000E94950EA0903B02B0903C02C0903D02F8
:10292000D0903E02E0904702F090480200914902A8
:1029300010914A0220913F023091400240914102A1
:10294000509142026091430270914402809145028D
:10295000909146020E949D0B0E94D80020E030E03A
:1029600040E251EC20934B0230934C0240934D02D5
:1029700050934E0280E090E0A0E2B1E480934F02D9
:1029800090935002A0935102B0935202409253028E
:102990005092540260925502709256020E94950E17
:1029A000A0903B02B0903C02C0903D02D0903E020D
:1029B000E0904702F09048020091490210914A02CB
:1029C00020913F02309140024091410250914202D9
:1029D00060914302709144028091450290914602B9
:1029E0000E949D0B0E94D80020E030E040E251ECB4
:1029F00020934B0230934C0240934D0250934E0271
:102A000020934F0230935002409351025093520250
:102A100040925302509254026092550270925602B4
:102A20000E94950EA0903B02B0903C02C0903D02E7
:102A3000D0903E02E0904702F09048020091490297
:102A400010914A0220913F02309140024091410290
:102A5000509142026091430270914402809145027C
:102A6000909146020E949D0B0E94D80010924B024A
:102A700010924C0210924D0210924E0210924F0290
:102A80001092500210925102109252024092530240
:102A90005092540260925502709256020E94950E16
:102AA000A0903B02B0903C02C0903D02D0903E020C
:102AB000E0904702F09048020091490210914A02CA
:102AC00020913F02309140024091410250914202D8
:102AD00060914302709144028091450290914602B8
:102AE0000E949D0B0E94D80010924B0210924C0243
:102AF00010924D0210924E0210924F02109250020C
:102B000010925102109252021092530210925402EB
:102B100010925502109256020E94950EA0903B0210
:102B2000B0903C02C0903D02D0903E02E09047023F
:102B3000F09048020091490210914A0220913F0210
:102B40003091400240914102509142026091430213
:102B50007091440280914502909146020E949D0B23
:102B6000A4CC8EE794E00E941C036B017C0185E3FA
:102B700094E00E941C03C60ED71EE81EF91E8CEEC0
:102B800093E00E941C03C60ED71EE81EF91E83EABE
:102B900093E00E941C03C60ED71EE81EF91ECD2826
:102BA000CE28CF2809F081CC84E0809331027DCCFF
:102BB00080912D0290912E02A0912F02B0913002AF
:102BC00088159905AA05BB0578F76FCC809101039C
:102BD00090910203891709F468CC90E021E1289FC5
:102BE000F001299FF00D1124E95AFD4FACE1B2E04C
:102BF00001900D922A95E1F701966AE070E00E943B
:102C000075198093010380911C02882361F1813042
:102C100009F04BCC88EC91E00E94F70B60911D020B
:102C200070911E0280911F02909120024AE00E9442
:102C3000040C8FEC91E00E94480C80911D02909151
:102C40001E02A0911F02B0912002880D991DAA1D9D
:102C5000BB1D80932D0290932E02A0932F02B09360
:102C6000300286E0A2CF82ED91E00E94F70B6091E6
:102C70001D0270911E0280911F02909120020E94FD
:102C8000030D89ED91E00E94F70B60912102709194
:102C9000220280912302909124020E94030D89ED6B
:102CA00091E00E94F70B60912502709126028091BD
:102CB0002702909128020E94030D89ED91E00E9465
:102CC000F70B6091290270912A0280912B0290915A
:102CD0002C020E94030D8CED91E00E94480C409163
:102CE0001D0250911E0260911F02709120028EE71A
:102CF00094E00E948F054091210250912202609140
:102D000023027091240285E394E00E948F05409194
:102D100025025091260260912702709128028CEEC4
:102D200093E00E948F054091290250912A02609100
:102D30002B0270912C0283EA93E00E948F0583E0BE
:102D400034CF8EE794E00E94E90285E394E00E948C
:102D5000E9028CEE93E00E94E90283EA93E00E948C
:102D6000E90260E088E00E9426018EED91E00E9479
:102D7000F70B60911A0270911B02072E000C880B52
:102D8000990B0E94030D86EE91E00E94480C32E000
:102D9000309331028ACB80911902813009F446C008
:102DA000E8F0823009F081CB8EE794E00E94E902DE
:102DB00085E394E00E94E9028CEE93E00E94E90230
:102DC00083EA93E00E94E90260E088E00E94260125
:102DD0008BEF91E00E94480C85E0E7CE48EB5BE08A
:102DE00060E070E08EE794E00E948F0548EB5BE0C6
:102DF00060E070E085E394E00E948F0548EB5BE0C3
:102E000060E070E08CEE93E00E948F0548EB5BE0A1
:102E100060E070E083EA93E00E948F0541E0409318
:102E2000190288EE91E00E94480C3FCB8EE794E0B7
:102E30000E941C03672B682B692B09F036CB85E3B6
:102E400094E00E941C03672B682B692B09F02DCBA3
:102E50008CEE93E00E941C03672B682B692B09F012
:102E600024CB83EA93E00E941C03672B682B692B19
:102E700009F01BCB40E050E0BA018EE794E00E94DD
:102E80008F0540E050E0BA0185E394E00E948F0591
:102E900040E050E0BA018CEE93E00E948F0540E0E4
:102EA00050E0BA0183EA93E00E948F0552E050930C
:102EB000190282EF91E0B7CF6AE070E080E090E025
:102EC0000E94AA01F2CA8EE794E00E941C03672BBD
:102ED000682B692B09F0DFCB85E394E00E941C038B
:102EE000672B682B692B09F0D6CB8CEE93E00E9400
:102EF0001C03672B682B692B09F0CDCB83EA93E089
:102F00000E941C03672B682B692B09F0C4CB41E09E
:102F100050E060E070E08EE794E00E94D60541E06A
:102F200050E060E070E085E394E00E94D60541E067
:102F300050E060E070E08CEE93E00E94D60541E046
:102F400050E060E070E083EA93E00E94D605ADCAED
:102F50005058BB27AA270E94C0170C942C180E9417
:102F60001E1838F00E94251820F039F49F3F19F4FC
:102F700026F40C941B180EF4E095E7FB0C9415183E
:102F8000E92F0E943D1858F3BA17620773078407A8
:102F9000950720F079F4A6F50C945F180EF4E095EF
:102FA0000B2EBA2FA02D0B01B90190010C01CA0103
:102FB000A0011124FF27591B99F0593F50F4503EAE
:102FC00068F11A16F040A22F232F342F4427585FA0
:102FD000F3CF469537952795A795F0405395C9F7B8
:102FE0007EF41F16BA0B620B730B840BBAF0915070
:102FF000A1F0FF0FBB1F661F771F881FC2F70EC00F
:10300000BA0F621F731F841F48F4879577956795E1
:10301000B795F7959E3F08F0B0CF9395880F08F0CD
:103020009927EE0F97958795089597F99F6780E800
:1030300070E060E008959FEF80EC089500240A940A
:103040001616170618060906089500240A94121683
:103050001306140605060895092E0394000C11F4B6
:10306000882352F0BB0F40F4BF2B11F460FF04C063
:103070006F5F7F4F8F4F9F4F089557FD9058440FBC
:10308000551F59F05F3F71F04795880F97FB991FC7
:1030900061F09F3F79F08795089512161306140684
:1030A000551FF2CF4695F1DF08C016161706180611
:1030B000991FF1CF86957105610508940895E894EC
:1030C000BB2766277727CB0197F908950E944518FB
:1030D00058F19E5760F19851A0F0E9F0983020F532
:1030E000092E9927660F771F881F991F0A94D1F719
:1030F00012C0062E672F782F8827985F11F4000CD6
:1031000007C0993FB4F38695779567959395D9F75E
:10311000611D711D811D3EF490958095709561959E
:103120007F4F8F4F9F4F089568940C9460180C94B4
:103130005F180E94AC180C942C180E941E1838F0CE
:103140000E94251820F0952311F00C9415180C946A
:103150001B1811240C9460180E943D1870F3959F61
:10316000C1F3950F50E0551F629FF001729FBB277E
:10317000F00DB11D639FAA27F00DB11DAA1F649F1A
:103180006627B00DA11D661F829F2227B00DA11DCD
:10319000621F739FB00DA11D621F839FA00D611D53
:1031A000221F749F3327A00D611D231F849F600D74
:1031B000211D822F762F6A2F11249F5750409AF09D
:1031C000F1F088234AF0EE0FFF1FBB1F661F771F29
:1031D000881F91505040A9F79E3F510580F00C94F4
:1031E00015180C9460185F3FE4F3983ED4F386956D
:1031F00077956795B795F795E7959F5FC1F7FE2B94
:10320000880F911D9695879597F9089519F416F4EE
:103210000C941B180C944C190E944518B8F3992370
:10322000C9F3B6F39F57550B87FF0E945A19002424
:10323000A0E640EA900180585695979528F4805C66
:10324000660F771F881F20F026173707480730F4CE
:10325000621B730B840B202931294A2BA6951794E6
:103260000794202531254A2758F7660F771F881FB6
:1032700020F026173707480730F4620B730B840BD6
:10328000200D311D411DA09581F7B901842F915862
:10329000880F9695879508959F3F31F0915020F4BF
:1032A000879577956795B795880F911D9695879522
:1032B00097F9089591505040660F771F881FD2F7F5
:1032C0000895AA1BBB1B51E107C0AA1FBB1FA6176D
:1032D000B70710F0A61BB70B881F991F5A95A9F7BF
:1032E00080959095BC01CD01089597FB072E16F4AB
:1032F000009407D077FD09D00E94611907FC05D022
:103300003EF4909581959F4F0895709561957F4FFC
:103310000895A1E21A2EAA1BBB1BFD010DC0AA1F16
:10332000BB1FEE1FFF1FA217B307E407F50720F02E
:10333000A21BB30BE40BF50B661F771F881F991FA9
:103340001A9469F760957095809590959B01AC01F2
:10335000BD01CF010895052E97FB1EF400940E9435
:10336000C21957FD07D00E94891907FC03D04EF4FB
:103370000C94C21950954095309521953F4F4F4F71
:103380005F4F089590958095709561957F4F8F4F11
:103390009F4F0895EE0FFF1F0590F491E02D0994C3
:1033A000A29FB001B39FC001A39F700D811D112486
:1033B000911DB29F700D811D1124911D08950E94D1
:1033C000D019A59F900DB49F900DA49F800D911DC5
:1033D00011240895B7FF0C94DF190E94DF19821B96
:1033E000930B0895F894FFCF01FFFFFFFFFFFFFF4E
:1033F000FFFFFFFFFFFFFFFFFF0000A0C10000A0D5
:10340000C133331B420000A0410000A0C133331B75
:10341000420000A0410000A04133331B420000A045
:10342000C10000A04133331B420300020006000428
:10343000000C0008000900010009000A000B00113F
:10344000000100010001000100000000007C02DC1E
:10345000010902C9023A0218022C020D0A004C4F5F
:103460004F53454E4544005449474854454E454402
:10347000003D3D3D20494E4954203D3D3D003D3DF0
:103480003D205354415254203D3D3D0050494E3A59
:1034900020002050524553534544002052454C458E
:1034A000415345440050524F424544005345540057
:1034B000574149543A20006D73004D4F56453A200C
:1034C000003B20003B004552524F523A20002E0054
:1034D00043454E544552494E47004C4F574552497B
:1034E0004E470053544F50504544004C49465445B4
:0234F000440096
:107E0000112484B714BE81FFF0D085E080938100F7
:107E100082E08093C00088E18093C10086E0809377
:107E2000C20080E18093C4008EE0C9D0259A86E02C
:107E300020E33CEF91E0309385002093840096BBD3
:107E4000B09BFECF1D9AA8958150A9F7CC24DD24C4
:107E500088248394B5E0AB2EA1E19A2EF3E0BF2EE7
:107E6000A2D0813461F49FD0082FAFD0023811F036
:107E7000013811F484E001C083E08DD089C08234E0
:107E800011F484E103C0853419F485E0A6D080C0E4
:107E9000853579F488D0E82EFF2485D0082F10E0AE
:107EA000102F00270E291F29000F111F8ED06801E7
:107EB0006FC0863521F484E090D080E0DECF843638
:107EC00009F040C070D06FD0082F6DD080E0C81688
:107ED00080E7D80618F4F601B7BEE895C0E0D1E017
:107EE00062D089930C17E1F7F0E0CF16F0E7DF06D8
:107EF00018F0F601B7BEE89568D007B600FCFDCFD4
:107F0000A601A0E0B1E02C9130E011968C91119780
:107F100090E0982F8827822B932B1296FA010C0160
:107F200087BEE89511244E5F5F4FF1E0A038BF0790
:107F300051F7F601A7BEE89507B600FCFDCF97BE46
:107F4000E89526C08437B1F42ED02DD0F82E2BD052
:107F50003CD0F601EF2C8F010F5F1F4F84911BD097
:107F6000EA94F801C1F70894C11CD11CFA94CF0C13
:107F7000D11C0EC0853739F428D08EE10CD085E9AC
:107F80000AD08FE07ACF813511F488E018D01DD067
:107F900080E101D065CF982F8091C00085FFFCCF94
:107FA0009093C60008958091C00087FFFCCF809118
:107FB000C00084FD01C0A8958091C6000895E0E648
:107FC000F0E098E1908380830895EDDF803219F02E
:107FD00088E0F5DFFFCF84E1DECF1F93182FE3DFCA
:107FE0001150E9F7F2DF1F91089580E0E8DFEE27F6
:047FF000FF270994CA
:027FFE00040479
:00000001FF
