:100000000DC0BFC1BEC1BDC1BCC1BBC1BAC1B9C1B8
:10001000B8C1B7C10060006200038C0011241FBE8C
:10002000CFE9CDBFE4E1F0E040E017C0B591A59184
:1000300035912591059107FD0CC095918591EF01B2
:10004000F92FE82F05900D92A217B307D9F7FE01FB
:1000500004C01D92A217B307E1F7EB31F40731F7A3
:0800600055D188C1F894FFCFCF
:10006800CF92DF92EF92FF92FC0180916000909115
:1000780061008E279F276F01E12CF12C7601DD248A
:10008800CC24A0E0B0E0C82AD92AEA2AFB2A87B300
:100098008B7F87BB87B38E7F87BB8BED95E00197FE
:1000A800F1F700C0000087B3846087BB88B38B7FFB
:1000B80088BBA3E8B3E01197F1F700C0000087B34D
:1000C800816087BB88B38E7F88BB87E592E0019704
:1000D800F1F700C0000090E024E829C0222324F4AE
:1000E80087B38B7F87BB06C087B3846087BB88B321
:1000F8008B7F88BBABE2B1E01197F1F700C000003D
:1001080087B38E7F87BBA7E5B2E01197F1F700C0F0
:10011800000087B3816087BB88B38E7F88BBA7E563
:10012800B2E01197F1F700C00000220F9F5F9830EE
:10013800A8F287B38B7F87BB8BE291E00197F1F739
:1001480000C0000087B38E7F87BBA7E5B2E0119798
:10015800F1F700C0000087B3816087BB88B38E7F4A
:1001680088BB87E592E00197F1F700C00000A7E59A
:10017800B2E01197F1F700C0000033E065C0832FAB
:10018800032E000C990B880F991F880F991F880F51
:10019800991FB701A60104C07695679557954795AD
:1001A8008A95D2F720E029C0442324F487B38B7FB3
:1001B80087BB06C087B3846087BB98B39B7F98BB17
:1001C8008BE291E00197F1F700C0000097B39E7FA2
:1001D80097BBA7E5B2E01197F1F700C0000097B30D
:1001E800916097BB98B39E7F98BB87E592E0019793
:1001F800F1F700C00000440F2F5F2830A8F287B342
:100208008B7F87BBABE2B1E01197F1F700C000002C
:1002180087B38E7F87BB87E592E00197F1F700C02F
:10022800000087B3816087BB88B38E7F88BBA7E552
:10023800B2E01197F1F700C0000087E592E001975E
:10024800F1F700C00000315033230CF098CF87B38A
:10025800846087BB88B38B7F88BB87B3816087BB8B
:1002680088B38E7F88BBA7E5B2E01197F1F700C08D
:10027800000087B38E7F87BB87E592E00197F1F78F
:1002880000C0000087B38B7F87BBA3E8B3E011975A
:10029800F1F700C000008FE697E10197F1F700C081
:1002A8000000F0936100E0936000FF90EF90DF9012
:0402B800CF90089546
:1002BC0088B38F7E88BB88E08A95F1F788B380611C
:1002CC0088BB88E08A95F1F788B38D7F88BB20E0E6
:1002DC0040E050E011C0440F551FB399416098B3F2
:1002EC00926098BB82E08A95F1F798B39D7F98BB9A
:1002FC0082E08A95F1F72F5F203168F3CA010895E7
:10030C0087B3877F87BB87B3826187BB88B38860DD
:10031C0088BB88B3806188BB88B38D7F88BB87B36B
:10032C008B7F87BB87B38E7F87BB0BD097DE2FEB82
:10033C0084ED91E0215080409040E1F700C0000036
:02034C00F4CFEC
:10034E00CF93DF93B4DFEC0101C0EC0187EB9BE0B0
:10035E000197F1F700C00000AADFC817D907A9F767
:06036E00DF91CF9108951C
:0E037400EC0107D005D0CE0105D0CE0104D09B
:020382003ECE6D
:020384000895DA
:020386000895D8
:020388000895D6
:02038A006CDE27
:02038C00FFFF71
:00000001FF
