:100000000C9481000C94A9000C94A9000C94A900F4
:100010000C94A9000C94A9000C94A9000C94A900BC
:100020000C94A9000C94A9000C94A9000C94A900AC
:100030000C94A9110C94A9000C94A9000C94A9008B
:100040000C94DE100C9480110C944E110C94281119
:100050000C94A9000C94A9000C94A9000C94A9007C
:100060000C94A9000C94A9004E414E494E49545994
:10007000494E46CDCCCC3D0AD7233C17B7D1387773
:10008000CC2B329595E6241FB14F0A000020410089
:1000900000C84200401C4620BCBE4CCA1B0E5AAED3
:1000A000C59D746364696E6F70737578585B0000EA
:1000B000000000240027002A0000000008000201C0
:1000C000000003040700000000000000000102041B
:1000D00008102040800102040810200102040810CA
:1000E0002000000000250028002B00040404040464
:1000F00004040402020202020203030303030300D6
:10010000291211241FBECFEFD8E0DEBFCDBF24E0FF
:10011000AAEEB1E001C01D92A632B207E1F711E0EC
:10012000A0E0B1E0E0E9F1E402C005900D92AA3E42
:10013000B107D9F710E0C1E8D0E004C02197FE0173
:100140000E94A51BC038D107C9F70E9404130C9464
:10015000C6200C940000CF93DF93FC019091F60130
:1001600095AB40E85CE060E070E046AB57AB60AF59
:1001700071AFEF01CC5BDF4F83E088831282138283
:10018000148215821286838720E23EE43787268711
:100190002685378535872487118A108A11A212A2F5
:1001A00013A214A210A2138E128E85A12FEF26A3E4
:1001B000807C8F7785A311821082A091F401B09189
:1001C000F50124EF31E0109729F09D010D90BC91CD
:1001D000A02DF9CFD901ED93FC9381E0890F809395
:1001E000F601963008F01882DF91CF91089590E0E3
:1001F000FC01E754FF4F2491FC01E353FF4F34917E
:10020000FC01E551FF4FE491EE23C9F0222339F0C0
:10021000233001F1A8F4213019F1223029F1F0E066
:10022000EE0FFF1FEF51FF4FA591B4918FB7F894D8
:10023000EC91611126C030953E233C938FBF089509
:100240002730A9F02830C9F0243049F78091800088
:100250008F7D03C0809180008F7780938000DFCFF7
:1002600084B58F7784BDDBCF84B58F7DFBCF809144
:10027000B0008F778093B000D2CF8091B0008F7D97
:10028000F9CF3E2BDACFCF93DF9390E0FC01E3531D
:10029000FF4F249185519F4FFC0184918823D1F019
:1002A00090E0880F991FFC01E155FF4FA591B49193
:1002B000FC01EF51FF4FC591D491623071F49FB7AB
:1002C000F8943C91822F809583238C93E8812E2B88
:1002D00028839FBFDF91CF9108958FB7F894EC9159
:1002E0002E2B2C938FBFF6CF3FB7F8948091F0015F
:1002F0009091F101A091F201B091F30126B5A89B74
:1003000005C02F3F19F00196A11DB11D3FBFBA2FA7
:10031000A92F982F8827BC01CD01620F711D811D67
:10032000911D42E0660F771F881F991F4A95D1F7EC
:100330000895AF92BF92CF92DF92EF92FF920F9308
:100340001F93CF93DF936C017B018B01040F151F6B
:10035000EB015E01AE18BF08C017D10759F06991D3
:10036000D601ED91FC910190F081E02DC601099537
:10037000892B79F7C501DF91CF911F910F91FF90E4
:10038000EF90DF90CF90BF90AF900895FC01538D18
:10039000448D252F30E0842F90E0821B930B54175F
:1003A00010F0CF96089501970895FC01918D828DEC
:1003B000981761F0A28DAE0FBF2FB11D5D968C9185
:1003C000928D9F5F9F73928F90E008958FEF9FEFC4
:1003D00008952FB7F8948091F7019091F801A091BA
:1003E000F901B091FA012FBF80930802909309029E
:1003F000A0930A02B0930B0280E092E00E94D50124
:1004000097FF26C02FB7F8948091F7019091F801DB
:10041000A091F901B091FA012FBF409108025091CB
:10042000090260910A0270910B02841B950BA60BC6
:10043000B70B409104025091050260910602709141
:10044000070284179507A607B707B0F28FEF9FEF53
:100450000895FC01918D828D981731F0828DE80FFF
:10046000F11D858D90E008958FEF9FEF0895FC01B9
:10047000918D228D892F90E0805C9F4F821B910986
:100480008F739927089580E092E00E94370221E05F
:10049000892B09F420E0822F089580E090E0892BD9
:1004A00029F00E94430281110C9400000895FC0180
:1004B000A48DA80FB92FB11DA35ABF4F2C91848DC5
:1004C00090E001968F739927848FA689B7892C9322
:1004D000A089B1898C91837080648C93938D848D75
:1004E000981306C00288F389E02D80818F7D808378
:1004F0000895EF92FF920F931F93CF93DF93EC0138
:1005000081E0888F9B8D8C8D98131AC0E889F989BA
:10051000808185FF15C09FB7F894EE89FF896083BD
:10052000E889F98980818370806480839FBF81E03E
:1005300090E0DF91CF911F910F91FF90EF90089580
:10054000F62E0B8D10E00F5F1F4F0F731127E02E5B
:100550008C8D8E110CC00FB607FCFACFE889F98993
:10056000808185FFF5CFCE010E945702F1CFEB8D40
:10057000EC0FFD2FF11DE35AFF4FF0829FB7F89467
:100580000B8FEA89FB8980818062CFCFCF93DF9385
:10059000EC01888D8823B9F0AA89BB89E889F9899B
:1005A0008C9185FD03C0808186FD0DC00FB607FCD0
:1005B000F7CF8C9185FFF2CF808185FFEDCFCE0103
:1005C0000E945702E9CFDF91CF910895FC0195A1D8
:1005D0009F7131F0F89411A212A213A214A2789480
:1005E0000895FC0190916F009B7F90936F00909114
:1005F000EA019F5F9093EA01789481E090A19530A1
:1006000008F480E09091EA01992319F091509093B9
:10061000EA019091EA01911105C090916F009460F8
:1006200090936F0008954F925F926F927F928F9296
:100630009F92AF92BF92CF92DF92EF92FF920F9371
:100640001F93CF93DF93EC018DA18F7109F416C135
:10065000FE01E05CFF4F40835183628373832A0174
:100660003B0177FF07C0442455243201441A550A40
:10067000660A770A730162018A8D9B8D892B21F4AA
:1006800088A1893009F054C1122F4A015B01CE01C3
:100690000E94F102882309F415C18B8518160CF00D
:1006A00056C0181419041A041B040CF455C0809188
:1006B0006F008B7F80936F008091EA018F5F809342
:1006C000EA017894112319F189A19AA1ABA1BCA1E7
:1006D000FE01EB5BFF4FC080D180E280F3808C197C
:1006E0009D09AE09BF09181619061A061B060CF05B
:1006F000D6C089A19AA1ABA1BCA18C199D09AE0954
:10070000BF0973016201C80ED91EEA1EFB1E8C8D43
:100710009D8D28A1293009F0CFC02A8D3B8D821BE9
:10072000930B6E8D7F8D0E94501B620F731FCB0148
:10073000B0E0A0E08A839B83AC83BD838A819B81E8
:10074000AC81BD818C0D9D1DAE1DBF1D57C0882382
:1007500009F4ADCFB7FEABCF80916F008B7F809354
:100760006F008091EA018F5F8093EA0178941123F2
:1007700031F149A15AA16BA17CA1FE01EB5BFF4FB6
:1007800080819181A281B381481B590B6A0B7B0B3D
:100790001416150616061706B4F549A15AA16BA141
:1007A0007CA18A019B01081B190B2A0B3B0BD90169
:1007B000C80173016201C81AD90AEA0AFB0A8C8DC2
:1007C0009D8D28A1293041F52A8D3B8D821B930BED
:1007D0006E8D7F8D0E94501B620F731FCB01B0E0A6
:1007E000A0E0C816D906EA06FB06C4F58A839B83F7
:1007F000AC83BD838C199D09AE09BF098E839F838D
:10080000A887B9872BC049A15AA16BA17CA1841BE1
:10081000950BA60BB70BCDCFAC0170E060E04C158B
:100820005D056E057F05B4F00196B0E0A0E08A8317
:100830009B83AC83BD838A819B81AC81BD818C19F4
:100840009D09AE09BF098E839F83A887B98788E079
:1008500088A304C0CA82DB82EC82FD828091EA0117
:10086000882319F081508093EA018091EA01811177
:1008700005C080916F00846080936F00DF91CF91FD
:100880001F910F91FF90EF90DF90CF90BF90AF90AE
:100890009F908F907F906F905F904F90089589A167
:1008A0009AA1ABA1BCA1A7019601281B390B4A0B49
:1008B0005B0BDA01C90125CFBC016F5F7F4F88E078
:1008C00088A335CF81149104A104B104B9F28B85BA
:1008D000082E000C990B97FF03C091958195910903
:1008E000181419041A041B040CF0819590916F00E0
:1008F0009B7F90936F009091EA019F5F9093EA0134
:1009000078941F8A1E8A24E130E03F872E871B8A55
:100910001A8A9DA197FF0AC094E098A38B871D8E29
:100920001C8E4A825B826C827D8298CF97E0F5CFE5
:100930008B85082E000C990B97FF03C0919581952C
:10094000910914161506160617060CF0819590915C
:100950006F009B7F90936F009091EA019F5F90934F
:10096000EA017894222321F1FE01EB5BFF4FC08066
:10097000D180E280F380C40ED51EE61EF71E89A04A
:100980009AA0ABA0BCA097018601081919092A09F1
:100990003B0948015901181419041A041B0424F5D1
:1009A00089A09AA0ABA0BCA0C818D908EA08FB0887
:1009B0008B87CA82DB82EC82FD8281E0452B462B4D
:1009C000472B09F445CF88A1853008F047CF1F8A0F
:1009D0001E8A84E190E09F878E871B8A1A8A8DA1E8
:1009E00087FF0FC084E034CF89A09AA0ABA0BCA041
:1009F000950184010C191D092E093F09680179012F
:100A0000D7CF85E025CFCF92DF92EF92FF92CF93A1
:100A1000DF93EC016A017B018DA18F7189F1F8945C
:100A200089A19AA1ABA1BCA1FE01EB5BFF4F808322
:100A30009183A283B3837894DE01AC5BBF4F2C918A
:100A400060817181828193812330A1F49B01AC018B
:100A5000D701C601821B930BA40BB50BAC01BD01E2
:100A600021E0CE01DF91CF91FF90EF90DF90CF900A
:100A70000C94130330E050E040E00E94861BE8CF66
:100A8000DF91CF91FF90EF90DF90CF9008952F925C
:100A90003F924F925F926F927F928F929F92AF920E
:100AA000BF92CF92DF92EF92FF920F931F93CF935B
:100AB000DF93CDB7DEB72E970FB6F894DEBF0FBE2B
:100AC000CDBF9A838983FC0195A19F7109F4EEC182
:100AD0001A0157FF04C022243324241A350A57FF71
:100AE00003C0F1E02F1A310881E828168EE338069A
:100AF00020F030E8232E3EE3332E8A014B01E981BA
:100B0000FA81FE87ED8780916F008B7F80936F0065
:100B10008091EA018F5F8093EA017894672B09F056
:100B200097C187A1882309F472C124E1A22EB12CB8
:100B30001092EA0180916F00846080936F009501AC
:100B400050E040E060E876E988E990E00E94861B8A
:100B500069017A0188EC482E512C612C712CCA0154
:100B6000B901A30192010E94861B2D833E834F830E
:100B7000588769877A878B879C87D1015096A70110
:100B800096010E948519A30192010E94861B293EAD
:100B9000FDEF3F0741055105ECF060E47DE586EC93
:100BA00090E0A70196010E94861B190180E1281A96
:100BB00031082131310510F4312C212CD10150960E
:100BC000A70196010E94851928EC30E040E050E032
:100BD0000E94861B390117FD06C0ED85FE85B7AE64
:100BE000A6AE35AE24AE80916F008B7F80936F00F0
:100BF0008091EA018F5F8093EA017894ED85FE850C
:100C0000828D938D820D931D892B09F4C8C0CF016D
:100C10000E94F102882309F4C2C0ED85FE85848913
:100C200095898615970509F4BAC0F5E0FB8341E084
:100C300050E05A834983ED85FE85F0A1FC83ED8564
:100C4000FE85C280D380E480F580FB81F150FB8378
:100C5000FF2339F01092EA0180916F008460809345
:100C60006F00ED85FE85048D158D9801205F3F4F47
:100C7000D3010E94C7192489358950E040E00E94C1
:100C8000861B2901F0E14F1A51082131310510F47A
:100C9000512C412CED85FE8582AD93ADA816B90689
:100CA00029F12414350408F0F7C09201AAE0B0E05D
:100CB0000E94C7190115110509F0E6C06B5F7F4F4F
:100CC0008F4F9F4F2AE030E040E050E00E94861BAB
:100CD000C90129839A8349815A811416150624F083
:100CE00081E090E09A83898399E09C83ED85FE857D
:100CF0000681178120853185C20169817A810E9430
:100D0000501BCB01B0E0A0E0B701A601401B510B86
:100D1000620B730B481759076A077B0708F0BFC0BF
:100D2000C201B0E0A0E00C191D092E093F09080F0F
:100D3000191F2A1F3B1FF8E0FC834B81442359F005
:100D400040916F004B7F40936F004091EA014F5FED
:100D50004093EA017894ED85FE8542815381648158
:100D60007581C416D506E606F70619F0FB81F11168
:100D700062CF4C81ED85FE8540A3558E448E49811E
:100D80005A81578F468F0097A105B10541F08283A4
:100D90009383A483B58306831783208731874D818E
:100DA0005E81ED85FE855587448789859A85918B7F
:100DB000808B758A648A338E228E1092EA0180912C
:100DC0006F00846080936F00892811F4B12CA12CEE
:100DD000ED85FE85B3AEA2AE828D938D2E960FB6B5
:100DE000F894DEBF0FBECDBFDF91CF911F910F9161
:100DF000FF90EF90DF90CF90BF90AF909F908F903B
:100E00007F906F905F904F903F902F9008958D85C9
:100E10009E850E94F1028823B9F0ED85FE85828DC2
:100E2000938D892B19F081E087A37FCE82E0ED8539
:100E3000FE8587A385A187FF78CE808D918D9787CA
:100E4000868783E080A371CE82E0ED85FE85ECCFBE
:100E5000ED85FE8585A187FF09C087A1823031F429
:100E6000808D918D9787868784E080A35401F9EA6D
:100E70008F16F1E69F0620F098EAA92E91E6B92E8A
:100E8000ED85FE8517A254CE980150E040E00E9407
:100E9000861BCA01B90112CFE7E0EC8327CF00E03F
:100EA00010E0980180E090E0DC0147CF90E080E026
:100EB00095CFCF93DF93DC0195969C9195979F7189
:100EC000953009F44AC030F49330A9F19430E9F137
:100ED00080E038C0963009F447C09730C9F7ED017B
:100EE00050E040E070E088A599A59A01220F331FD9
:100EF000FB01042E02C0F595E7950A94E2F7240F52
:100F0000351FE0FF0FC0FD01E20FF31F22A5FC011A
:100F10003081232B20834F5F5F4F23964430510550
:100F200011F7D6CFFD01E20FF31F22A5FC0130819E
:100F300020952323EFCF8091EC01807F682B609375
:100F4000EC0181E0DF91CF9108958091EC018F70E9
:100F5000F0E16F9FB0011124F1CF8091ED01807F0E
:100F6000682B6093ED01EDCF8091ED018F7090E1E2
:100F7000699FB0011124F4CF5F926F927F928F929C
:100F80009F92AF92BF92CF92DF92EF92FF920F9318
:100F90001F93CF93DF937894C091F401D091F50122
:100FA000209709F40DC1B12C082F10E0AA24A394B6
:100FB00055E0852E67E0962E78E0772EE0EFCE2E76
:100FC000DD24DA94F2E05F2EA3E06A2EB8E8EB2E7F
:100FD000B3E1FB2E8DA18F71883049F4F8948AA576
:100FE000E8A5F9A59081809589238083789488A1CC
:100FF000853008F4F5C08FA1823009F4C6C08E8513
:101000009F85892B31F08E899F89800F911F9F8B3F
:101010008E8B2E893F898E859F852817390708F486
:10102000A0C01F8A1E8A49A15AA16BA17CA12B8551
:10103000822F022E000C990BAA0BBB0B840F951F5D
:10104000A61FB71F89A39AA3ABA3BCA3EA85E20F8F
:10105000E8300CF413C1E0E0EA87F8948DA18F71B9
:10106000853009F415C1863008F44EC1873009F483
:10107000F1C108F42AC2883091F4EBA5FCA58B8558
:1010800018160CF05AC29DA58081892B8083A092EE
:10109000EB019AA5E8A5F9A58081892B8083789436
:1010A0008A819B81AC81BD810197A109B1098A83A5
:1010B0009B83AC83BD838A819B81AC81BD81892B5D
:1010C0008A2B8B2B09F0F2C08E819F81A885B98570
:1010D0000097A105B10509F43DC12B8521952B870A
:1010E0008A839B83AC83BD831E821F8218861986E8
:1010F00098A22C8D3D8D8A8D9B8D2817390708F07D
:1011000094C18C899D89F9017096BF010E94501B82
:101110007F876E874A895B89840F951F9B8B8A8B9B
:10112000E817F90768F44E855F854F5F5F4F5F876B
:101130004E87A601421B530B840F951F9B8B8A8BF6
:101140008A819B81AC81BD812F5F3F4FA90170E0F7
:1011500060E0481759076A077B0708F0D3C03D8F46
:101160002C8F8091EB01482F50E02E853F856E89B2
:101170007F89261B370B4217530728F08E859F85E2
:101180002E893F89821B8093EB010990D881C02D65
:10119000209709F01FCF8091FF01882389F0BB20A1
:1011A00079F0E091FD01F091FE0190818091FC01C8
:1011B0008095892380831092EE018091ED018EBD90
:1011C000DF91CF911F910F91FF90EF90DF90CF9023
:1011D000BF90AF909F908F907F906F905F90089599
:1011E000843051F1833089F68E899F89800F911F59
:1011F0009F8B8E8B2E893F898E859F852817390777
:1012000070F01F8A1E8A8EA18E3F09F4CFC06DA197
:1012100066FB662760F96A250E94F700A8A2809104
:10122000EB012E853F854E895F89241B350B821784
:10123000130608F4A8CFA2CF8FA1823009F4A5CF5E
:101240008EA18E3F09F47BC06DA166FB662760F915
:101250000E94F700888D998D9F878E878A8D9B8D40
:10126000892B11F588A28091EB012E853F8582178D
:10127000130608F488CF8E859F8585CFE7FFECCED7
:10128000E85FEA87F8948DA18F71853009F0EBCE85
:101290008091ED01807FEE0FFF0BE95FFE4F9081A3
:1012A000892B8093ED0148C098A2DDCF88A18730BB
:1012B00009F41FCF08F057C0853009F052CF8C8554
:1012C0009D859F878E878A899B8928893989820F86
:1012D000931F893C910508F070C09B8B8A8B4A81D3
:1012E0005B816C817D812A8D3B8DC9010196B0E0C7
:1012F000A0E084179507A607B70708F432CF232B81
:1013000009F42FCF78A22DCF833009F4D4C08430D4
:1013100009F0C5CE8091EC018F70EE0FFF0BE95FF5
:10132000FE4F2081318122953295307F3227207FF8
:101330003227822B8093EC01BB24B394B0CEEA8594
:10134000EE0FFF0BE95FFE4F6081CE010E9459074F
:10135000B82E80CF1D8E1C8E8DA187FD72C0FF869A
:10136000EE86A8A2FECE8A3008F0FBCE2C8D3D8DF5
:101370008A8D9B8D8217930750F14A815B816C8126
:101380007D81C901B0E0A0E084179507A607B707E3
:1013900008F498A22115310521F0215031093D8F23
:1013A0002C8F8C899D89F901709622C060E0CE0156
:1013B0000E945907B82EA8A232CF885C91099B8B56
:1013C0008A8B8E859F8501969F878E8788CF4E8DCD
:1013D0005F8DB901681B790B4617570708F086C067
:1013E000241B350B3D8F2C8FF90170968C899D89BC
:1013F000BF010E94501B7F876E874A895B89840FDB
:10140000951F9B8B8A8BE817F90708F0AACE4E85AB
:101410005F854F5F5F4F5F874E87A601421B530B6F
:10142000840F951F9B8B8A8B9CCE2C853D853F8797
:101430002E87288939893B8B2A8B9D8F8C8F88A298
:1014400090CE888D998D9F878E8768A241E050E06D
:1014500081E08BCEEE0FFF0BE95FFE4F90818CA9F0
:10146000892780FF08C0E8A5F9A52AA5308190FF4B
:1014700060C0232B208381FF08C0EBA5FCA52DA510
:10148000308191FF52C0232B208382FF08C0EEA53C
:10149000FFA528A9308192FF44C0232B208383FF1E
:1014A00008C0E9A9FAA98BA9208193FF36C0822B35
:1014B00080839CABF4CD8091EC01807FEE0FFF0B1D
:1014C000E95FFE4F9081892B35CF8091ED018F70C0
:1014D000EE0FFF0BE95FFE4F20813181229532959F
:1014E000307F3227207F3227822BDBCE88A29D8F50
:1014F0008C8F8C859D859F878E871B8A1A8A8FA1EA
:10150000813009F02ECE5FA28DA187FF2ACE888D73
:10151000998D9F878E8768A224CE809582238083B1
:10152000C8CF209523232083BACF2095232320835F
:10153000ACCF2095232320839ECF8DA590818095CD
:101540008923A4CDCF92DF92EF92FF920F931F9346
:10155000CF93DF93EC016A017901AB01770F660B42
:10156000770B01960E940305A601DD0C660B770B35
:10157000CE01865B9F4F0E940305A701FF0C660BFF
:10158000770BCE018D569F4F0E940305A801110FC6
:10159000660B770BCE0184529F4FDF91CF911F9145
:1015A0000F91FF90EF90DF90CF900C9403059F92E6
:1015B000AF92BF92CF92DF92EF92FF920F931F9361
:1015C000CF93DF9300D0CDB7DEB78C01FC01EC5B8D
:1015D000FF4F8081833009F06BC069834A83CE015D
:1015E00001965C016801F12CE12CF50191905F01FD
:1015F000892D90E0FC01E551FF4FE491F0E0EE0F02
:10160000FF1FEF51FF4F25913491F60131A720A71D
:10161000FC01E353FF4FE491D701AA0FBB1FAE0DAE
:10162000BF1DA00FB11F9A96EC9361E00E94430189
:1016300060E0892D0E94F700F3E0CF0ED11CEA9400
:10164000EF2809F086C0FF24F394F801F38685A102
:10165000807E886085A3F0A250E040E068EB7BE0EC
:10166000C8010E9447058091FB0181111CC08FB702
:10167000F894109280009AE19093810020E43CE974
:10168000309387002093860024E630E03093890071
:101690002093880020E931E030938B0020938A006A
:1016A0008FBFF092FB0180916F00846080936F0088
:1016B000F80162AD73AD48EC50E0C8010E944705E7
:1016C000F80185A18F71A9F126A937A940AD51ADC7
:1016D000A0E2B3E00E9485196C39F3EE7F07F6E1D2
:1016E0008F079105D4F52CE330E040E050E00E94F4
:1016F000861B922F832FE92EF82E29EAE21621E687
:10170000F20620F088EAE82E81E6F82EF801A4AD72
:10171000B5AD97010E94C71926AD37AD50E040E046
:101720000E94861BA90140955095B701C8010E94EF
:101730004705C8010F900F90DF91CF911F910F9136
:10174000FF90EF90DF90CF90BF90AF909F900C9460
:10175000E602EE24E394F12C48CF98EA81E6CBCF61
:10176000FC0101900020E9F73197AF01481B590BAC
:10177000BC0180E092E00C9499018F929F92AF920D
:10178000BF920F931F93CF93DF93CDB7DEB7A1978F
:101790000FB6F894DEBF0FBECDBF19A2423008F4D9
:1017A0004AE08E010F5D1F4F842E912CB12CA12C8D
:1017B000A50194010E94641BE62FB901CA01EA3019
:1017C000F4F4E05DD801EE938D01232B242B252B1F
:1017D00079F790E080E0109719F0CD010E94B00BEE
:1017E000A1960FB6F894DEBF0FBECDBFDF91CF91AB
:1017F0001F910F91BF90AF909F908F900895E95CDB
:10180000E1CFCF92DF92EF92FF92CF93DF936C0103
:10181000990FEE08FF08F7FE19C06DE280E092E034
:101820000E947902EC0166277727CB016C197D09AC
:101830008E099F094AE00E94BD0B8C0F9D1FDF910E
:10184000CF91FF90EF90DF90CF9008954AE0C701CD
:10185000B601DF91CF91FF90EF90DF90CF900C9485
:10186000BD0B0C94B00BCF93DF930E94B00BEC0137
:1018700089E291E00E94B00B8C0F9D1FDF91CF9108
:1018800008954F925F926F927F928F929F92AF9244
:10189000BF92CF92DF92EF92FF920F931F93CF935D
:1018A0006B017C01742EAC019B010E94361B8823C6
:1018B00099F08CE291E0CF911F910F91FF90EF9002
:1018C000DF90CF90BF90AF909F908F907F906F9060
:1018D0005F904F900C94B00B46015701E894B7F815
:1018E0002FEF3FEF4FE75FE7C501B4010E94361BC2
:1018F00081110DC02FEF3FEF4FE75FE7C501B40146
:101900000E945E1818161CF480E391E0D4CF2FEFEC
:101910003FEF4FE75FE4C701B6010E94EB1A1816CC
:101920001CF484E391E0C7CF2FEF3FEF4FE75FEC6C
:10193000C701B6010E945E1887FDF3CF20E030E0BA
:10194000A901C701B6010E945E1810E000E087FF00
:101950000AC06DE280E092E00E9479028C01F7FA01
:10196000F094F7F8F094C0E060E070E080E09FE36E
:101970007C1641F020E030E040E251E40E94431A3E
:10198000CF5FF6CFA70196010E94D7192B013C012A
:101990000E94BC1A4B015C014AE00E94BD0B7C0115
:1019A000E00EF11ECC23C1F1C501B4010E94631801
:1019B0009B01AC01C301B2010E94D6194B015C012D
:1019C0006EE280E092E00E947902E80EF91EC150BA
:1019D00018F120E030E040E251E4C501B4010E947A
:1019E000C4182B013C010E94BC1A4B01B12CA12C44
:1019F0004AE0C501B4010E94BD0BE80EF91EC50105
:101A0000B4010E9463189B01AC01C301B2010E94A2
:101A1000D6194B015C01DBCFC701CF911F910F910C
:101A2000FF90EF90DF90CF90BF90AF909F908F90FE
:101A30007F906F905F904F900895FB01DC018D9136
:101A40009C91009761F0608171816115710539F099
:101A5000448155810E94B01D21E0892B09F020E0CE
:101A6000822F08954F925F926F927F928F929F92F2
:101A7000AF92BF92CF92DF92EF92FF92CF93DF931C
:101A8000CDB7DEB7A8970FB6F894DEBF0FBECDBFB7
:101A900080909D0290909E02A0909F02B090A00224
:101AA00020E030E040E850E4C501B4010E94D619BE
:101AB00069837A838B839C83C090A102D090A20219
:101AC000E090A302F090A40220E030E040E850E46F
:101AD000C701B6010E94D6192B013C0120E030E07D
:101AE00040E850E4C501B4010E94D7194B015C01E4
:101AF00020E030E040E850E4C701B6010E94D71969
:101B00006D837E838F83988729813A814B815C81A5
:101B10006091B9027091BA028091BB029091BC02AF
:101B20000E94D61969877A878B879C87A3019201C7
:101B30006091BD027091BE028091BF029091C0027F
:101B40000E94D6196D877E878F87988BC090A502DB
:101B5000D090A602E090A702F090A802A7019601FB
:101B60006091C1027091C2028091C3029091C4023F
:101B70000E94D619698B7A8B8B8B9C8BA501940163
:101B80006091C9027091CA028091CB029091CC02FF
:101B90000E94D6196D8B7E8B8F8B988FA30192013B
:101BA0006091CD027091CE028091CF029091D002CF
:101BB0000E94D6192B013C01A70196016091D10228
:101BC0007091D2028091D3029091D4020E94D619D2
:101BD000698F7A8F8B8F9C8FA50194016091D902B8
:101BE0007091DA028091DB029091DC020E94D6199A
:101BF0004B015C012D813E814F8158856091DD0252
:101C00007091DE028091DF029091E0020E94D6196D
:101C10006D8F7E8F8F8F98A3A70196016091E1024F
:101C20007091E2028091E3029091E4020E94D61941
:101C300069A37AA38BA39CA329813A814B815C8100
:101C40006091E9027091EA028091EB029091EC02BE
:101C50000E94D61969837A838B839C832D813E8170
:101C60004F8158856091ED027091EE028091EF02F4
:101C70009091F0020E94D6196D837E838F8398879E
:101C8000A70196016091F1027091F2028091F30236
:101C90009091F4020E94D6196DA37EA38FA398A7FA
:101CA00029853A854B855C85CA01B9010E94C41813
:101CB0006B017C012D853E854F855889CA01B9018C
:101CC0000E94C4189B01AC01C701B6010E94D7193C
:101CD0006B017C0129893A894B895C89CA01B90168
:101CE0000E94C4189B01AC01C701B6010E94D7191C
:101CF0000E94F61A69877A878B879C872D893E898F
:101D00004F89588DCA01B9010E94C4186B017C012A
:101D1000A3019201C301B2010E94C4189B01AC014E
:101D2000C701B6010E94D7196B017C01298D3A8D3C
:101D30004B8D5C8DCA01B9010E94C4189B01AC0196
:101D4000C701B6010E94D7190E94F61A2B013C0167
:101D5000A5019401C501B4010E94C4186B017C0166
:101D60002D8D3E8D4F8D58A1CA01B9010E94C41816
:101D70009B01AC01C701B6010E94D7196B017C0120
:101D800029A13AA14BA15CA1CA01B9010E94C418C2
:101D90009B01AC01C701B6010E94D7190E94F61A37
:101DA0004B015C0129813A814B815C81CA01B901F7
:101DB0000E94C4186B017C012D813E814F815885A2
:101DC000CA01B9010E94C4189B01AC01C701B60148
:101DD0000E94D7196B017C012DA13EA14FA158A5EE
:101DE000CA01B9010E94C4189B01AC01C701B60128
:101DF0000E94D7190E94F61A6B017C01A30192017F
:101E00006091D5027091D6028091D7029091D8024C
:101E10000E94D6192B013C01A50194016091E502B5
:101E20007091E6028091E7029091E8020E94D61933
:101E30004B015C01A70196016091F5027091F602D9
:101E40008091F7029091F8020E94D61969837A83F3
:101E50008B839C8329853A854B855C856091C5027F
:101E60007091C6028091C7029091C8020E94D61953
:101E70002CE739ED40EA5BE30E94431A6B017C01D9
:101E800020E030E0A9010E94EB1A20E030E040E0C1
:101E90005FE387FD8EC0C701B6010E94D7190E947B
:101EA000B51A6093A9027093AA028093AB02909333
:101EB000AC022CE739ED40EA5BE3C301B2010E94BA
:101EC000431A6B017C0120E030E0A9010E94EB1A6B
:101ED00020E030E040E05FE387FD70C0C701B6015D
:101EE0000E94D7190E94B51A6093AD027093AE029A
:101EF0008093AF029093B0022CE739ED40EA5BE3A8
:101F0000C501B4010E94431A6B017C0120E030E05E
:101F1000A9010E94EB1A20E030E040E05FE387FD7A
:101F200052C0C701B6010E94D7190E94B51A60932A
:101F3000B1027093B2028093B3029093B4022CE783
:101F400039ED40EA5BE369817A818B819C810E9453
:101F5000431A6B017C0120E030E0A9010E94EB1ADA
:101F600020E030E040E05FE387FD32C0C701B6010A
:101F70000E94D7190E94B51A6093B5027093B602F9
:101F80008093B7029093B802A8960FB6F894DEBF7C
:101F90000FBECDBFDF91CF91FF90EF90DF90CF903C
:101FA000BF90AF909F908F907F906F905F904F9079
:101FB0000895C701B6010E94D61971CFC701B601B5
:101FC0000E94D6198FCFC701B6010E94D619ADCF96
:101FD000C701B6010E94D619CDCFCF93DF93FC0184
:101FE000248135816217730788F49B01C081D181F8
:101FF00060E270E0CE01820F931F0E949E1D009749
:1020000029F08C1B9D0BDF91CF9108958FEF9FEFEF
:10201000FACF0F931F93CF93DF93EC0188819981BF
:10202000009759F02A813B812617370730F081E06D
:10203000DF91CF911F910F9108958B016F5F7F4FBB
:102040000E94D01C009759F0998388831B830A83D0
:102050002C813D81232B59F7FC011082E8CF80E0D1
:10206000E7CFCF93DF93EC0188819981009711F03E
:102070000E94471C198218821D821C821B821A82B0
:10208000DF91CF910895EF92FF920F931F93CF931B
:10209000DF93EC017B01198218821B821A821D8258
:1020A0001C82FB0101900020E9F731978F01061B8C
:1020B000170BB8010E940910811109C0CE01DF91F0
:1020C000CF911F910F91FF90EF900C9431101D83D1
:1020D0000C83B70188819981DF91CF911F910F9176
:1020E000FF90EF900C94A91D9F92AF92BF92CF9258
:1020F000DF92EF92FF920F931F93CF93DF937C01B8
:102100006B015A0189012417350720F48B2D5901E1
:10211000042F182F6BE271E0C7010E944310D60113
:102120001496CD91DC91AC16BD0650F50C171D0729
:1021300008F4E801D601ED91FC911197EC0FFD1F19
:10214000908010820D911C910A0D1B1D0115110527
:1021500071F0F80101900020E9F731975F01A01AB2
:10216000B10AB501C7010E940910811116C0C7014B
:102170000E943110D6018D919C91C80FD91F988271
:10218000C701DF91CF911F910F91FF90EF90DF90EA
:10219000CF90BF90AF909F900895F701B582A48231
:1021A000B801808191810E94A91DE4CFFC0180814A
:1021B0009181009711F00C94471C08951F920F9283
:1021C0000FB60F9211242F933F938F939F93AF934A
:1021D000BF938091F7019091F801A091F901B0911E
:1021E000FA013091EF0123E0230F2D3758F50196C6
:1021F000A11DB11D2093EF018093F7019093F80189
:10220000A093F901B093FA018091F0019091F1014E
:10221000A091F201B091F3010196A11DB11D80932F
:10222000F0019093F101A093F201B093F301BF91FB
:10223000AF919F918F913F912F910F900FBE0F9073
:102240001F90189526E8230F0296A11DB11DD2CF2D
:102250001F920F920FB60F9211242F933F934F931B
:102260005F936F937F938F939F93AF93BF93EF93FE
:10227000FF9380E092E00E945702FF91EF91BF919F
:10228000AF919F918F917F916F915F914F913F910E
:102290002F910F900FBE0F901F9018951F920F92C5
:1022A0000FB60F9211242F938F939F93EF93FF9369
:1022B000E0911002F09111028081E0911602F091FC
:1022C000170282FD1BC09081809119028F5F8F736E
:1022D00020911A02821741F0E0911902F0E0E050DB
:1022E000FE4F958F80931902FF91EF919F918F91EF
:1022F0002F910F900FBE0F901F9018958081F4CFF3
:102300001F920F920FB60F9211248F939F93EF930A
:10231000FF938091EE0191E0980F9093EE0181116F
:102320000CC08091EC018EBDFF91EF919F918F9138
:102330000F900FBE0F901F901895E091FD01F09146
:10234000FE0180819091FC01892B80831092EE0127
:10235000EBCF1F920F920FB60F9211242F933F9342
:102360004F935F936F937F938F939F93AF93BF939D
:10237000CF93EF93FF9389E18093EB01C09100012C
:102380008C2F0E94BC0780E090E0892B19F08C2FE5
:102390000E940000F8942091EB01213009F040C028
:1023A000809184009091850020918A0030918B006B
:1023B000821B930B893E23E0920710F0805C9346CA
:1023C0008738914030F180918400909185000A9681
:1023D00081342CE9920710F080549C4990938B0033
:1023E00080938A0078948091EB0180930001FF91A3
:1023F000EF91CF91BF91AF919F918F917F916F910D
:102400005F914F913F912F910F900FBE0F901F90B2
:10241000189580918A0090918B0080579E4FD8CF5D
:1024200080918A0090918B00B0E0A0E0B595A795CF
:102430009795879548EC249F90011124820F931F54
:1024400081322EE4920710F080529E44880F991F2B
:10245000C5CF8F929F92AF92BF92CF92DF92EF92B1
:10246000FF920F931F93CF93DF93E0E0F2E013828C
:10247000128288EE93E0A0E0B0E084839583A68387
:10248000B7838BE191E09183808385EC90E0958721
:10249000848784EC90E09787868780EC90E0918B2E
:1024A000808B81EC90E0938B828B82EC90E0958B1B
:1024B000848B86EC90E0978B868B118E128E138E18
:1024C000148ECBEFD2E081E088838CEF92E00E9403
:1024D000AB0085E493E00E94AB008EE893E00E949D
:1024E000AB0087ED93E00E94AB00EDE9F2E0C12C78
:1024F000D12C80ECE82E81ECF82EC48ED58EE68EA1
:10250000F78E812C912C94ECA92E91ECB92E80A2FF
:1025100091A2A2A2B3A280E090E0A6E1B2E484A3DB
:1025200095A3A6A3B7A300E010E022E432E400A73D
:1025300011A722A733A740E050E06CEC71E444A758
:1025400055A766A777A780AA91AAA2AAB3AA84AB27
:1025500095ABA6ABB7AB00AF11AF22AF33AF44AF73
:1025600055AF66AF77AF00E010E02CEB31E400939D
:10257000DD021093DE022093DF023093E0028093AD
:10258000E1029093E202A093E302B093E40240E000
:1025900050E060E472E44093E5025093E6026093F9
:1025A000E7027093E802C092E902D092EA02E09258
:1025B000EB02F092EC020093ED021093EE022093F6
:1025C000EF023093F0028093F1029093F202A09315
:1025D000F302B093F4024093F5025093F602609335
:1025E000F7027093F802D093FA02C093F902DF91D8
:1025F000CF911F910F91FF90EF90DF90CF90BF9000
:10260000AF909F908F900895CF93DF93CDB7DEB7B3
:102610006A970FB6F894DEBF0FBECDBF789484B52D
:10262000826084BD84B5816084BD85B5826085BDCE
:1026300085B5816085BD80916E00816080936E005C
:10264000109281008091810082608093810080914E
:1026500081008160809381008091800081608093FF
:1026600080008091B10084608093B1008091B000BF
:1026700081608093B00080917A00846080937A00BA
:1026800080917A00826080937A0080917A008160E4
:1026900080937A0080917A00806880937A0010920B
:1026A000C100E0911002F091110282E08083E0917C
:1026B0000C02F0910D021082E0910E02F0910F02D7
:1026C00080E1808310921802E0911402F0911502CB
:1026D00086E08083E0911202F09113028081806194
:1026E0008083E0911202F0911302808188608083E0
:1026F000E0911202F0911302808180688083E09162
:102700001202F091130280818F7D80830E947401F8
:102710004B015C0184E6C82ED12CE12CF12C0E94E7
:102720007401681979098A099B09683E734081051B
:102730009105A8F321E0C21AD108E108F10838EEAA
:10274000830E33E0931EA11CB11CC114D104E1041B
:10275000F10429F788E391E00E94330C87E491E0CB
:102760000E94310C61E088E00E94430162E081E157
:102770000E94430162E08AE00E94430162E089E036
:102780000E94430162E08BE00E9443014DE050E073
:102790006CE070E08CEF92E00E94D70A46E050E0D7
:1027A00063E070E085E493E00E94D70A45E050E0E2
:1027B00062E070E08EE893E00E94D70A47E050E0C4
:1027C00064E070E087ED93E00E94D70A81E0809397
:1027D000FB0261E088E00E94F700FE0131967F0174
:1027E0009E01235F3F4F3C8B2B8BCE010F969E8B20
:1027F0008D8B1E0191E1290E311C80E092E00E9438
:102800003702181619060CF0A9C06BE271E0CE0170
:1028100007960E9443100E94E90197FD1CC08A3070
:102820009105C9F089831A820B851C850F5F1F4FA4
:10283000B801CE0107960E940910882361F32F8109
:1028400038858B859C85B701820F931F0E94A91D37
:102850001C870B87E0CFAF80B884A114B10431F09E
:102860000B851C85650101151105B1F40F811885D3
:102870000115110509F446C0F80181918F018823E3
:1028800009F440C0082E000C990B0E948D1DF80120
:1028900031978083F1CF64014601AFEF8A1A9A0A1B
:1028A000F6018081082E000C990B0E943D18892B9F
:1028B00091F7015011090A0D1B1DD8018C91082EAA
:1028C000000C990B0E943D18892B31F00C151D0549
:1028D00018F001501109F1CFA8014F5F5F4F4C195B
:1028E0005D095C874B87AC14BD0420F4B601C501BB
:1028F0000E94951DEF81F8858B859C85E80FF91F57
:102900001082B4CF6BE471E0C7010E944310B7019D
:10291000CE0107960E941D0D182FC7010E94D610E8
:102920001123A9F1E091F902F091FA028081882344
:1029300011F182E591E00E94330CE091F902F091EF
:10294000FA02108260E088E00E94F70088E491E0DB
:102950000E94310CCE0107960E94D61020E030E094
:10296000232B09F44ACF0E944302882309F445CF60
:102970000E9400003ECF8AE591E00E94330CE09176
:10298000F902F091FA0221E0208361E0DCCF61E6F8
:1029900071E0C7010E944310B701CE0107960E9463
:1029A0001D0D182FC7010E94D6101123E1F085E6F6
:1029B00091E00E94330C0091F9021091FA02C801D3
:1029C00001960E94E602C801865B9F4F0E94E602C4
:1029D000C8018D569F4F0E94E602C80184529F4F46
:1029E0000E94E602B3CF61E771E0C7010E94431085
:1029F000B701CE0107960E941D0D182FC7010E9436
:102A0000D610112399F188E791E00E94330C1092BF
:102A10009D0210929E0210929F021092A0021092AC
:102A2000A1021092A2021092A3021092A40280E0CE
:102A300090E0A0E2B1E48093A5029093A602A09357
:102A4000A702B093A8020E94320D0091B502109126
:102A5000B6022091B1023091B2024091AD02509184
:102A6000AE026091A9027091AA021CC062E871E0F6
:102A7000C7010E944310B701CE0107960E941D0DA9
:102A8000182FC7010E94D610112399F087E891E012
:102A90000E94330C10E000E030E020E050E040E025
:102AA00070E060E08091F9029091FA020E94A20A1F
:102AB0004DCF6EE871E0C7010E944310B701CE010F
:102AC00007960E941D0D182FC7010E94D6101123D2
:102AD00009F498C070E060E0CE0107960E94ED0F07
:102AE00001965C01BC01CE0107960E94ED0F4C01DE
:102AF0006C019FEFC91AD90AB601CE0107960E9450
:102B0000ED0F8C019401A501BE01695F7F4FC701E4
:102B10000E94741089819A81412C512C32010097B6
:102B200021F00E94E9162B013C01C7010E94D6103A
:102B30009801A601BE01695F7F4FC7010E94741012
:102B400089819A81812C912C5401009721F00E9457
:102B5000E9164B015C01C7010E94D6102B853C850C
:102B6000A8014F5F5F4FBE01695F7F4FC7010E94A1
:102B7000741089819A81009709F43FC00E94E91678
:102B80006F8B788F898F9A8FC7010E94D61082E948
:102B900091E00E94310C42E0C301B2010E94410C5D
:102BA0008DE991E00E94310C42E0C501B4010E9420
:102BB000410C8DE991E00E94310C42E06F89788DE3
:102BC000898D9A8D0E94410C89E291E00E94B00BA0
:102BD00040929D0250929E0260929F027092A002CB
:102BE0008092A1029092A202A092A302B092A402AB
:102BF0008F89988DA98DBA8D1ECF1F8A188E198E38
:102C00001A8EC2CF6FE971E0C7010E944310B7016D
:102C1000CE0107960E941D0D182FC7010E94D610E5
:102C2000112309F44FC0FF92EF929C899F93AB89C7
:102C3000AF93BE89BF93ED89EF933F922F9223EA22
:102C400031E03F932F9388858F938F818F930E94DC
:102C5000BE1D0FB6F894DEBF0FBECDBF049729F09E
:102C600083EB91E00E94330C71CE84EC91E00E94E2
:102C7000310C89899A890E94010C8DE991E00E94AA
:102C8000310C8F8598890E94010C8DE991E00E949A
:102C9000310C8D859E850E94010C8DE991E00E948A
:102CA000310C89819A810E94010C89E291E00E9495
:102CB000B00B09811A812D853E854F855889698918
:102CC0007A89F0CE6DEC71E0C7010E944310B70124
:102CD000CE0107960E941D0D182FC7010E94D61025
:102CE000112309F433CEFF92EF92BC89BF93EB8995
:102CF000EF93FE89FF932D892F933F922F9281EDC1
:102D000091E09F938F9388858F938F818F930E94FB
:102D1000BE1D0FB6F894DEBF0FBECDBF049709F0FD
:102D20009FCF81EE91E00E94310C89899A890E949F
:102D3000010C8DE991E00E94310C8F8598890E94E9
:102D4000010C8DE991E00E94310C8D859E850E94D9
:102D5000010C8DE991E00E94310C89819A810E94D9
:102D6000010C89E291E00E94B00B0091F9021091F0
:102D7000FA02C980DA80AD84BE848F84988849893C
:102D80005A89052E000C660B770B20E0C8010196CE
:102D90000E941303A401990C660B770B20E0C80175
:102DA000865B9F4F0E941303A501BB0C660B770B3C
:102DB00020E0C8018D569F4F0E941303A601DD0C31
:102DC000660B770B20E0C80184529F4F0E941303CB
:102DD000BDCD662777270C94ED16B0E0A0E0E3EFB9
:102DE000F6E10C9496195C017B016115710519F0EF
:102DF000DB018D939C9385010F5F1F4FF501D081FF
:102E00008D2F90E00E943D186C01892BB9F5DD32C1
:102E1000B9F50F5F1F4FD5011196DC91C1E0580144
:102E2000F1E0AF1AB10843E050E060E770E0C5019F
:102E30000E944618892B69F5680182E0C80ED11CF2
:102E400045E050E06BE670E0C6010E944618892B11
:102E500021F4680197E0C90ED11CE114F10419F0C6
:102E6000D701CD92DC9260E070E080E89FEFC11165
:102E7000FFC060E070E080E89FE7FAC05801BBCF78
:102E8000DB3229F485010E5F1F4FF501D181C0E0CF
:102E9000C6CF43E050E068E670E0C5010E944618E6
:102EA000892BE9F0F80110E000E020E030E0A90112
:102EB0005F01B0ED8B2E8D0E89E08815C8F19C2E38
:102EC000689491F88C2F8870C2FF16C0811102C0DF
:102ED0000F5F1F4F3196D501DC91C92DE9CFE11469
:102EE000F10429F00E5F1F4FF7011183008360E0AA
:102EF00070E080EC9FE7BCC0882311F001501109FD
:102F0000A5E0B0E00E9485199B01AC01220F331FA0
:102F1000441F551F280D311D411D511D283999E9A8
:102F20003907490799E15907A8F2C6609C2ED2CF0C
:102F3000AEEF8A1206C0C3FD3CC09C2E689493F885
:102F4000C9CFDF7DD534A9F580818D3239F4C061D8
:102F5000DF011296818162E070E006C0DF018B32F2
:102F6000C1F3119661E070E080535D01A61AB70AC3
:102F70008A30F8F4E0E8CE16ECE0DE065CF4B60148
:102F8000660F771F660F771FC60ED71ECC0CDD1C91
:102F9000C80ED11C5D01FFEFAF1ABF0A8C918053A0
:102FA0008A30A8F1C4FF03C0D194C194D1080C0D9C
:102FB0001D1DC1FF09C0E114F10431F081E0A81A20
:102FC000B108D701AD92BC92CA01B9010E94631841
:102FD000C370C33009F490584B015C0120E030E02D
:102FE000A9010E945E18882309F440C0CFE9D0E00F
:102FF00017FF05C0119501951109C7E8D0E06E01D2
:10300000B8E1CB1AD10880E2E82EF12C0FC0D5012F
:10301000B1CFFE0125913591459154910E191F09AB
:10302000C501B4010E94C4184B015C01D501C40163
:103030000E151F0574F72497F594E794CC16DD065A
:10304000A9F78A2F880F8B2F881F8F3F49F020E028
:1030500030E0A901C501B4010E945E18811106C0CB
:1030600082E290E09093210480932004C501B40192
:10307000CDB7DEB7ECE00C94B21991110C94311974
:10308000803219F089508550C8F70895FB01DC01A2
:103090004150504088F08D9181341CF08B350CF4F8
:1030A000805E659161341CF06B350CF4605E861BAC
:1030B000611171F3990B0895881BFCCF0E94A01831
:1030C00008F481E00895E89409C097FB3EF49095D8
:1030D0008095709561957F4F8F4F9F4F9923A9F0F1
:1030E000F92F96E9BB279395F69587957795679580
:1030F000B795F111F8CFFAF4BB0F11F460FF1BC0C4
:103100006F5F7F4F8F4F9F4F16C0882311F096E956
:1031100011C0772321F09EE8872F762F05C0662304
:1031200071F096E8862F70E060E02AF09A95660FBD
:10313000771F881FDAF7880F9695879597F9089576
:10314000990F0008550FAA0BE0E8FEEF16161706B8
:10315000E807F907C0F012161306E407F50798F020
:10316000621B730B840B950B39F40A2661F0232B39
:10317000242B252B21F408950A2609F4A140A695B5
:103180008FEF811D811D08950E94D7180C944B1953
:103190000E943D1938F00E94441920F0952311F047
:1031A0000C9434190C943A1911240C947F190E9430
:1031B0005C1970F3959FC1F3950F50E0551F629F06
:1031C000F001729FBB27F00DB11D639FAA27F00D80
:1031D000B11DAA1F649F6627B00DA11D661F829FA7
:1031E0002227B00DA11D621F739FB00DA11D621F8C
:1031F000839FA00D611D221F749F3327A00D611DA9
:10320000231F849F600D211D822F762F6A2F11248A
:103210009F5750409AF0F1F088234AF0EE0FFF1FBD
:10322000BB1F661F771F881F91505040A9F79E3F14
:10323000510580F00C9434190C947F195F3FE4F32E
:10324000983ED4F3869577956795B795F795E7956A
:103250009F5FC1F7FE2B880F911D9695879597F973
:10326000089599278827089597F99F6780E870E067
:1032700060E008959FEF80EC089500240A941616EC
:10328000170618060906089500240A941216130654
:10329000140605060895092E0394000C11F48823E2
:1032A00052F0BB0F40F4BF2B11F460FF04C06F5FFE
:1032B0007F4F8F4F9F4F089557FD9058440F551FD4
:1032C00059F05F3F71F04795880F97FB991F61F0A8
:1032D0009F3F79F087950895121613061406551F1F
:1032E000F2CF4695F1DF08C0161617061806991F8B
:1032F000F1CF86957105610508940895E894BB2780
:1033000066277727CB0197F908950E94C719A59FD3
:10331000900DB49F900DA49F800D911D11240895D0
:103320002F923F924F925F926F927F928F929F92D5
:10333000AF92BF92CF92DF92EF92FF920F931F93C3
:10334000CF93DF93CDB7DEB7CA1BDB0B0FB6F89474
:10335000DEBF0FBECDBF09942A88398848885F84B4
:103360006E847D848C849B84AA84B984C884DF8025
:10337000EE80FD800C811B81AA81B981CE0FD11D09
:103380000FB6F894DEBF0FBECDBFED010895A29F2A
:10339000B001B39FC001A39F700D811D1124911D29
:1033A000B29F700D811D1124911D08955058BB27A7
:1033B000AA270E94EE190C944B190E943D1938F06F
:1033C0000E94441920F039F49F3F19F426F40C941C
:1033D0003A190EF4E095E7FB0C943419E92F0E949A
:1033E0005C1958F3BA17620773078407950720F032
:1033F00079F4A6F50C947E190EF4E0950B2EBA2FF5
:10340000A02D0B01B90190010C01CA01A0011124EA
:10341000FF27591B99F0593F50F4503E68F11A1696
:10342000F040A22F232F342F4427585FF3CF469527
:1034300037952795A795F0405395C9F77EF41F1649
:10344000BA0B620B730B840BBAF09150A1F0FF0F13
:10345000BB1F661F771F881FC2F70EC0BA0F621FFF
:10346000731F841F48F4879577956795B795F795EF
:103470009E3F08F0B0CF9395880F08F09927EE0F84
:103480009795879508950E94571A0C944B190E949E
:10349000441958F00E943D1940F029F45F3F29F08B
:1034A0000C94341951110C947F190C943A190E9400
:1034B0005C1968F39923B1F3552391F3951B550BD0
:1034C000BB27AA2762177307840738F09F5F5F4FF7
:1034D000220F331F441FAA1FA9F335D00E2E3AF036
:1034E000E0E832D091505040E695001CCAF72BD04E
:1034F000FE2F29D0660F771F881FBB1F261737079F
:103500004807AB07B0E809F0BB0B802DBF01FF27D0
:1035100093585F4F3AF09E3F510578F00C94341960
:103520000C947F195F3FE4F3983ED4F3869577952A
:103530006795B795F7959F5FC9F7880F911D969589
:10354000879597F90895E1E0660F771F881FBB1FE5
:10355000621773078407BA0720F0621B730B840B92
:10356000BA0BEE1F88F7E09508950E94BC1A689484
:10357000B1110C947F1908950E94641988F09F5727
:1035800098F0B92F9927B751B0F0E1F0660F771F87
:10359000881F991F1AF0BA95C9F714C0B13091F07D
:1035A0000E947E19B1E008950C947E19672F782F40
:1035B0008827B85F39F0B93FCCF386957795679542
:1035C000B395D9F73EF490958095709561957F4FAE
:1035D0008F4F9F4F08950E94A01808F48FEF089511
:1035E00019F416F40C943A190C943B1B0E946419BC
:1035F000B8F39923C9F3B6F39F57550B87FF0E9481
:10360000491B0024A0E640EA900180585695979502
:1036100028F4805C660F771F881F20F02617370775
:10362000480730F4621B730B840B202931294A2B85
:10363000A69517940794202531254A2758F7660F39
:10364000771F881F20F026173707480730F4620BD2
:10365000730B840B200D311D411DA09581F7B9011D
:10366000842F9158880F9695879508950E94A018E9
:10367000880B990B08959F3F31F0915020F4879566
:1036800077956795B795880F911D9695879597F9CA
:10369000089591505040660F771F881FD2F7089504
:1036A000AA1BBB1B51E107C0AA1FBB1FA617B70768
:1036B00010F0A61BB70B881F991F5A95A9F7809584
:1036C0009095BC01CD010895A1E21A2EAA1BBB1B47
:1036D000FD010DC0AA1FBB1FEE1FFF1FA217B307DE
:1036E000E407F50720F0A21BB30BE40BF50B661FF4
:1036F000771F881F991F1A9469F7609570958095B8
:1037000090959B01AC01BD01CF010895052E97FB5B
:103710001EF400940E949D1B57FD07D00E94641B5D
:1037200007FC03D04EF40C949D1B509540953095AA
:1037300021953F4F4F4F5F4F08959095809570951D
:1037400061957F4F8F4F9F4F0895EE0FFF1F05909C
:10375000F491E02D09940F931F93CF93DF93823060
:10376000910510F482E090E0E0912404F0912504AA
:1037700030E020E0B0E0A0E0309799F42115310569
:1037800009F44AC0281B390B24303105D8F58A8149
:103790009B816115710589F1FB0193838283FE0191
:1037A00011C0408151810281138148175907E0F00F
:1037B0004817590799F4109761F012960C931297D5
:1037C00013961C933296CF01DF91CF911F910F91E9
:1037D00008950093240410932504F4CF2115310596
:1037E00051F04217530738F0A901DB019A01BD01DE
:1037F000DF01F801C1CFEF01F9CF90932504809349
:103800002404CDCFFE01E20FF31F81939193225048
:10381000310939832883D7CF2091220430912304A2
:10382000232B41F4209103013091040130932304B0
:1038300020932204209101013091020121153105CC
:1038400041F42DB73EB74091050150910601241B6C
:10385000350BE0912204F0912304E217F307A0F462
:103860002E1B3F0B2817390778F0AC014E5F5F4FD6
:103870002417350748F04E0F5F1F509323044093E1
:103880002204819391939FCFF0E0E0E09CCFCF930F
:10389000DF930097E9F0FC01329713821282A09126
:1038A0002404B0912504ED0130E020E01097A1F44C
:1038B00020813181820F931F2091220430912304B3
:1038C0002817390709F061C0F0932304E09322041C
:1038D000DF91CF910895EA01CE17DF07E8F54A811D
:1038E0005B819E0141155105B1F7E901FB83EA8334
:1038F00049915991C40FD51FEC17FD0761F48081E0
:1039000091810296840F951FE901998388838281B2
:1039100093819B838A83F0E0E0E012968D919C91E5
:1039200013970097B9F52D913C911197CD0102960F
:10393000820F931F20912204309123042817390706
:1039400039F6309751F51092250410922404B09363
:103950002304A0932204BCCFD383C283408151812E
:10396000840F951FC817D90761F44E5F5F4F888198
:103970009981480F591F518340838A819B8193838A
:1039800082832115310509F0B0CFF0932504E0932F
:1039900024049ECFFD01DC01C0CF13821282D7CF59
:1039A000B0E0A0E0E6EDFCE10C9492198C010097E8
:1039B00051F4CB010E94AB1B8C01C801CDB7DEB71F
:1039C000E0E10C94AE19FC01E60FF71F9C012250B8
:1039D0003109E217F30708F49DC0D901CD91DC91BC
:1039E0001197C617D70798F0C530D10530F3CE012F
:1039F00004978617970708F3C61BD70B2297C19326
:103A0000D1936D937C93CF010E94471CD6CF5B016D
:103A1000AC1ABD0A4C018C0E9D1EA0912404B091DD
:103A20002504512C412CF12CE12C109731F580917B
:103A30002204909123048815990509F05CC046166C
:103A4000570608F058C0809101019091020100973B
:103A500041F48DB79EB74091050150910601841B3A
:103A6000950BE817F90708F055C0F0932304E0938D
:103A70002204F90171836083A0CF8D919C911197ED
:103A800012966C90129713967C901397A815B9050F
:103A900059F56C0142E0C40ED11CCA14DB0420F1BC
:103AA000AC014A195B09DA011296159780F062821F
:103AB000738251834083D9016D937C93E114F104A7
:103AC00071F0D7011396FC93EE93129776CF22965E
:103AD0008C0F9D1FF90191838083F301EFCFF09349
:103AE0002504E093240469CF4816590608F42C01F4
:103AF0007D01D3019ACFCB010E94AB1B7C010097C3
:103B000049F0AE01B8010E94951DC8010E94471CF2
:103B1000870153CF10E000E050CF911108958154F8
:103B20008A5108F4805E855A0895FB01DC0102C0C9
:103B300001900D9241505040D8F70895FC018191B9
:103B4000861721F08823D9F7992708953197CF0157
:103B50000895FB01DC0101900D920020E1F708952A
:103B6000FB01DC014150504030F08D9101908019F3
:103B700019F40020B9F7881B990B0895AEE0B0E066
:103B8000E4ECFDE10C94A01985E08C838B899C8981
:103B90009A838983AE01495E5F4F6D897E89CE012C
:103BA00001960E94621F2E96E2E00C94BC1920FD43
:103BB00009C0FC0123FD05C022FF02C0738362839C
:103BC00051834083089544FD17C046FD1DC0DB01AD
:103BD000FC01AA0FBB1FEE1FFF1F1094D1F76A0F45
:103BE0007B1F8E1F9F1F660F771F881F991F620FF5
:103BF000711D811D911D089533E0660F771F881F89
:103C0000991F3150D1F7F3CF34E0F7CF0F931F93C3
:103C1000CF93DF938C01C8010E947220EC0197FDC5
:103C200008C00E943D18892BB1F7B801CE010E944F
:103C3000AE20CE01DF91CF911F910F9108958F9209
:103C40009F92AF92BF92EF92FF920F931F93CF93E9
:103C5000DF938C01D62F7A01B22E0E9472209C0134
:103C600033272B32310529F02D323105A9F4689420
:103C7000B7F8D15061F480E0DF91CF911F910F919F
:103C8000FF90EF90BF90AF909F908F900895C801E4
:103C90000E94722097FDEFCFCB2DCD7F2B2D20736F
:103CA000F9F48033E9F4AA24AA94AD0E89F0C8018E
:103CB0000E94722097FD0CC0282F2F7D283561F4BB
:103CC000C264D25029F0C8010E94722097FF08C038
:103CD000812C912C54011BC0B6FE2BC0C260DA2D82
:103CE000812C912C540120ED280F283028F1C4FD9F
:103CF00009C02A3008F1C6FF05C02F7D3FEE320F04
:103D00003630C8F0B8010E94AE20C1FFB4CFC7FF63
:103D100008C0B094A09490948094811C911CA11C24
:103D2000B11C2C2FB501A401C7010E94D71D81E051
:103D3000A3CFC261D4CF27504C2FC501B4010E943C
:103D4000E31D4B015C01C260D15009F3C8010E9420
:103D5000722097FFC8CFD9CFA0E2B0E0E2EBFEE13E
:103D60000C9495195C01962E7A01CE0101966C0196
:103D700080E2F60111928A95E9F7F501B381890194
:103D800030E020E0712C812CA0E041E050E0F8010F
:103D9000B3FD8591B3FF8191982F8F01811107C0E9
:103DA00010E000E0C801A096EDE00C94B1198E354A
:103DB00019F42115310541F1A21713064CF48D3584
:103DC00049F18D3229F4811006C0882483941DC0E6
:103DD000882009F464C0E92FE695E695E695EC0D98
:103DE000FD2DF11D892F8770BA0101C0660F8A95DC
:103DF000EAF78081682B6083791651F0971510F4EB
:103E00009F5FE9CF9150E7CFA1E02F5F3F4FBFCF3A
:103E1000812CFBCF882019F08E8180628E83AA23AB
:103E200059F0F6019E012F5D3F4F80818095808380
:103E30003196E217F307C9F788248394C5010E94DD
:103E4000722097FD16C0E82FE695E695E695EC0DF5
:103E5000FD2DF11D208130E0AC014770552702C0D7
:103E6000359527954A95E2F720FD06C0B5010E94D9
:103E7000AE20882069F094CFE114F10429F0F70115
:103E80008083C70101967C019A94812C9110D6CF32
:103E9000E114F10409F486CFF701108283CFE82FF3
:103EA000E695E695E695EC0DFD2DF11D982F9770A2
:103EB000BA0101C0660F9A95EAF79081692B608379
:103EC000782EA3CFB0E0A0E0E8E6FFE10C949319D0
:103ED0006C01EB015A01FC0117821682512CF6018C
:103EE000E380FE01E3FC8591E3FE8191182FEF0151
:103EF0008823E9F090E00E943D18892B21F0C6014B
:103F00000E94061EECCF153241F4FE01E3FC159130
:103F1000E3FE1191EF01153269F4C6010E9472208F
:103F200097FD8EC01817D9F2B6010E94AE20852DDC
:103F300090E08AC000E01A3231F4E3FC1591E3FE10
:103F40001191EF0101E0F12C20ED210F2A3048F111
:103F500001FF37C0FF2059F31836B1F11C3609F4C0
:103F60003DC0112321F3612F70E083EA90E00E94AD
:103F70006720892BE1F2912C812C00FD06C0F50110
:103F800080809180C50102965C011E3679F5F601AC
:103F90004681578170E060E0202FC4010E94D71D48
:103FA0009ECF02606F2D70E090E080E040E20E94C2
:103FB000E31DF62EFE01E3FC1591E3FE1191EF01E6
:103FC000C3CFFF24FA94C8CFFE01E3FC1591E3FEB2
:103FD0001191EF01183609F0C4CF08600460FE01AA
:103FE000E3FC1591E3FE1191EF01BBCF1336C1F451
:103FF00001FD02C0FF24F394C6010E94722097FDC8
:104000001FC08114910429F0F4018083C40101963A
:104010004C01FA94F110F0CF00FD61CF53945FCFC3
:104020001B35B9F49E01A4016F2DC6010E94AC1E80
:10403000EC01892B89F7F6018381807309F477CF2E
:104040008FEF9FEF511073CFCDB7DEB7EFE00C9439
:10405000AF19C6010E94061E97FDF2CF1F36A9F1C7
:1040600030F4143641F0193639F0006405C01337C6
:10407000B9F01537D1F70062202FA4016F2DC601CA
:104080000E941F1E8111C8CFD6CF8114910429F040
:10409000F4016082C40101964C01FA94FF2071F092
:1040A000C6010E9472203C0197FD08C00E943D1885
:1040B000892B59F3B601C3010E94AE2081149104EB
:1040C00009F4AACFF4011082A7CF0061D5CFFC017B
:1040D0000590061621F00020D9F7C0010895319708
:1040E000CF010895CF93DF93EC012B8120FF1AC0FD
:1040F00026FF0CC02F7B2B838E819F8101969F838F
:104100008E838A8190E0DF91CF91089522FF18C0BD
:10411000E881F9818081082E000C990B009729F421
:1041200020622B838FEF9FEFEECF3196F983E883E8
:104130002E813F812F5F3F4F3F832E839927E3CF0F
:10414000EA85FB85099597FFF3CF2B81019621F036
:1041500080E2822B8B83E6CF80E1FBCFFB012381C2
:1041600020FF11C026FD0FC08F3F980771F082839A
:104170002F7D2064238326813781215031093783A5
:104180002683992708958FEF9FEF0895F894FFCF26
:104190000100002604800003000200060004000C59
:1041A000000800090001000000000079029901C622
:1041B00001C6023702D50129020D0A006E616E00A8
:1041C000696E66006F7666004341424C4520434F5E
:1041D0004E534F4C453A003E3E3E00656E61626C68
:1041E000650044495341424C4500454E41424C45CF
:1041F0000063616C0043414C4942524154494F4E67
:104200000063656E7465720043454E544552494ED5
:104210004700686F6D6500484F4D494E47006A6F13
:1042200067004A4F4747494E4720544F3A20007293
:104230006177007261772025692025692025692032
:104240002569004552523A20726177206120622030
:104250006320640052415720544F3A200072656C2D
:104260000072656C20256920256920256920256953
:0A4270000052454C20544F3A200044
:00000001FF
