:020000040000FA
:100000000C947B000C94A3000C94A3000C94A3000C
:100010000C94A3000C94A3000C94A3000C94A300D4
:100020000C94A3000C94A3000C94A3000C94A300C4
:100030000C94BA0F0C94A3000C94A3000C94A3008E
:100040000C94EF0E0C94910F0C945F0F0C94390FDD
:100050000C94A3000C94A3000C94A3000C94A30094
:100060000C94A3000C94A3004E414E494E495459A0
:10007000494E46CDCCCC3D0AD7233C17B7D1387773
:10008000CC2B329595E6241FB14F0A000020410089
:1000900000C84200401C4620BCBE4CCA1B0E5AAED3
:1000A000C59D7400000000240027002A0000000005
:1000B0000800020100000304070000000000000027
:1000C00000010204081020408001020408102001F1
:1000D000020408102000000000250028002B000466
:1000E00004040404040404020202020202030303DF
:1000F000030303003A1011241FBECFEFD8E0DEBF88
:10010000CDBF24E0A8E1B2E001C01D92A034B20747
:10011000E1F712E0A0E0B1E0ECEAFCE302C00590F8
:100120000D92A831B107D9F710E0CBE7D0E004C0B9
:100130002197FE010E94461CCA37D107C9F70E94C9
:1001400001110C94541E0C940000CF93DF93FC011A
:100150009091240295AB40E85CE060E070E046AB33
:1001600057AB60AF71AFEF01CC5BDF4F83E08883AB
:1001700012821382148215821286838720E23EE463
:10018000378726872685378535872487118A108A01
:1001900011A212A213A214A210A2138E128E85A174
:1001A0002FEF26A3807C8F7785A311821082A091E8
:1001B0002202B091230222E232E0109729F09D0141
:1001C0000D90BC91A02DF9CFD901ED93FC9381E066
:1001D000890F80932402963008F01882DF91CF9126
:1001E000089590E0FC01E355FF4F2491FC01EF538B
:1001F000FF4F3491FC01E152FF4FE491EE23C9F02F
:10020000222339F0233001F1A8F4213019F12230F2
:1002100029F1F0E0EE0FFF1FEB52FF4FA591B491D3
:100220008FB7F894EC91611126C030953E233C9332
:100230008FBF08952730A9F02830C9F0243049F73E
:10024000809180008F7D03C0809180008F778093A4
:100250008000DFCF84B58F7784BDDBCF84B58F7D01
:10026000FBCF8091B0008F778093B000D2CF809188
:10027000B0008F7DF9CF3E2BDACFCF93DF9390E0A4
:10028000FC01EF53FF4F249181529F4FFC01849159
:100290008823D1F090E0880F991FFC01ED55FF4FA6
:1002A000A591B491FC01EB52FF4FC591D4916230FE
:1002B00071F49FB7F8943C91822F809583238C939F
:1002C000E8812E2B28839FBFDF91CF9108958FB7B0
:1002D000F894EC912E2B2C938FBFF6CF3FB7F89468
:1002E00080911E0290911F02A0912002B0912102E4
:1002F00026B5A89B05C02F3F19F00196A11DB11D81
:100300003FBFBA2FA92F982F8827BC01CD01620FBC
:10031000711D811D911D42E0660F771F881F991F77
:100320004A95D1F708958F929F92AF92BF92CF9244
:10033000DF92EF92FF924B015C010E946E016B0114
:100340007C010E946E016C197D098E099F09683E2F
:10035000734081059105A8F321E0821A9108A10854
:10036000B10888EEC80E83E0D81EE11CF11C811490
:100370009104A104B10429F7FF90EF90DF90CF9092
:10038000BF90AF909F908F9008950895AF92BF92C5
:10039000CF92DF92EF92FF920F931F93CF93DF9351
:1003A0006C017B018B01040F151FEB015E01AE1880
:1003B000BF08C017D10759F06991D601ED91FC91A2
:1003C0000190F081E02DC6010995892B79F7C501CF
:1003D000DF91CF911F910F91FF90EF90DF90CF9021
:1003E000BF90AF900895FC01538D448D252F30E0D0
:1003F000842F90E0821B930B541710F0CF96089532
:1004000001970895FC01918D828D981761F0A28D5E
:10041000AE0FBF2FB11D5D968C91928D9F5F9F7324
:10042000928F90E008958FEF9FEF08952FB7F89483
:100430008091250290912602A0912702B091280276
:100440002FBF8093360290933702A0933802B09367
:1004500039028EE292E00E94020297FF26C02FB777
:10046000F8948091250290912602A0912702B091E4
:1004700028022FBF40913602509137026091380216
:1004800070913902841B950BA60BB70B4091320279
:1004900050913302609134027091350284179507B0
:1004A000A607B707B0F28FEF9FEF0895FC01918D7B
:1004B000828D981731F0828DE80FF11D858D90E0C7
:1004C00008958FEF9FEF0895FC01918D228D892F64
:1004D00090E0805C9F4F821B91098F73992708954C
:1004E0008EE292E00E94640221E0892B09F420E070
:1004F000822F089580E090E0892B29F00E947002FD
:1005000081110C9400000895FC01A48DA80FB92F4F
:10051000B11DA35ABF4F2C91848D90E001968F732B
:100520009927848FA689B7892C93A089B1898C914A
:10053000837080648C93938D848D981306C0028899
:10054000F389E02D80818F7D80830895EF92FF9263
:100550000F931F93CF93DF93EC0181E0888F9B8DE6
:100560008C8D98131AC0E889F989808185FF15C0A0
:100570009FB7F894EE89FF896083E889F9898081C3
:100580008370806480839FBF81E090E0DF91CF9192
:100590001F910F91FF90EF900895F62E0B8D10E0B4
:1005A0000F5F1F4F0F731127E02E8C8D8E110CC023
:1005B0000FB607FCFACFE889F989808185FFF5CF6E
:1005C000CE010E948402F1CFEB8DEC0FFD2FF11DC7
:1005D000E35AFF4FF0829FB7F8940B8FEA89FB89AB
:1005E00080818062CFCFCF93DF93EC01888D882309
:1005F000B9F0AA89BB89E889F9898C9185FD03C086
:10060000808186FD0DC00FB607FCF7CF8C9185FF6A
:10061000F2CF808185FFEDCFCE010E948402E9CF29
:10062000DF91CF910895FC0195A19F7131F0F8946D
:1006300011A212A213A214A278940895FC01909121
:100640006F009B7F90936F00909118029F5F909333
:100650001802789481E090A1953008F480E09091A0
:100660001802992319F09150909318029091180252
:10067000911105C090916F00946090936F00089560
:100680004F925F926F927F928F929F92AF92BF92A2
:10069000CF92DF92EF92FF920F931F93CF93DF934E
:1006A000EC018DA18F7109F416C1FE01E05CFF4FD2
:1006B00040835183628373832A013B0177FF07C024
:1006C000442455243201441A550A660A770A7301F4
:1006D00062018A8D9B8D892B21F488A1893009F0D4
:1006E00054C1122F4A015B01CE010E941E038823D0
:1006F00009F415C18B8518160CF056C0181419048E
:100700001A041B040CF455C080916F008B7F8093FA
:100710006F00809118028F5F8093180278941123E4
:1007200019F189A19AA1ABA1BCA1FE01EB5BFF4F1E
:10073000C080D180E280F3808C199D09AE09BF0989
:10074000181619061A061B060CF0D6C089A19AA124
:10075000ABA1BCA18C199D09AE09BF09730162014F
:10076000C80ED91EEA1EFB1E8C8D9D8D28A1293036
:1007700009F0CFC02A8D3B8D821B930B6E8D7F8D30
:100780000E94F11B620F731FCB01B0E0A0E08A83CF
:100790009B83AC83BD838A819B81AC81BD818C0DA1
:1007A0009D1DAE1DBF1D57C0882309F4ADCFB7FEF8
:1007B000ABCF80916F008B7F80936F008091180288
:1007C0008F5F809318027894112331F149A15AA1C7
:1007D0006BA17CA1FE01EB5BFF4F80819181A28127
:1007E000B381481B590B6A0B7B0B141615061606B2
:1007F0001706B4F549A15AA16BA17CA18A019B01FE
:10080000081B190B2A0B3B0BD901C80173016201AC
:10081000C81AD90AEA0AFB0A8C8D9D8D28A12930B5
:1008200041F52A8D3B8D821B930B6E8D7F8D0E942F
:10083000F11B620F731FCB01B0E0A0E0C816D90610
:10084000EA06FB06C4F58A839B83AC83BD838C19BF
:100850009D09AE09BF098E839F83A887B9872BC0E6
:1008600049A15AA16BA17CA1841B950BA60BB70BC8
:10087000CDCFAC0170E060E04C155D056E057F05E5
:10088000B4F00196B0E0A0E08A839B83AC83BD8383
:100890008A819B81AC81BD818C199D09AE09BF09FC
:1008A0008E839F83A887B98788E088A304C0CA8203
:1008B000DB82EC82FD8280911802882319F081503E
:1008C0008093180280911802811105C080916F00F9
:1008D000846080936F00DF91CF911F910F91FF9003
:1008E000EF90DF90CF90BF90AF909F908F907F90D0
:1008F0006F905F904F90089589A19AA1ABA1BCA180
:10090000A7019601281B390B4A0B5B0BDA01C901C1
:1009100025CFBC016F5F7F4F88E088A335CF81145E
:100920009104A104B104B9F28B85082E000C990B37
:1009300097FF03C0919581959109181419041A0421
:100940001B040CF0819590916F009B7F90936F003A
:10095000909118029F5F9093180278941F8A1E8AC4
:1009600024E130E03F872E871B8A1A8A9DA197FFDA
:100970000AC094E098A38B871D8E1C8E4A825B82EE
:100980006C827D8298CF97E0F5CF8B85082E000C86
:10099000990B97FF03C0919581959109141615063F
:1009A000160617060CF0819590916F009B7F90932F
:1009B0006F00909118029F5F909318027894222301
:1009C00021F1FE01EB5BFF4FC080D180E280F3801C
:1009D000C40ED51EE61EF71E89A09AA0ABA0BCA02F
:1009E00097018601081919092A093B09480159018B
:1009F000181419041A041B0424F589A09AA0ABA0AA
:100A0000BCA0C818D908EA08FB088B87CA82DB8219
:100A1000EC82FD8281E0452B462B472B09F445CF24
:100A200088A1853008F047CF1F8A1E8A84E190E0B4
:100A30009F878E871B8A1A8A8DA187FF0FC084E04B
:100A400034CF89A09AA0ABA0BCA0950184010C1959
:100A50001D092E093F0968017901D7CF85E025CF0F
:100A6000CF92DF92EF92FF92CF93DF93EC016A0176
:100A70007B018DA18F7189F1F89489A19AA1ABA115
:100A8000BCA1FE01EB5BFF4F80839183A283B38304
:100A90007894DE01AC5BBF4F2C91608171818281C3
:100AA00093812330A1F49B01AC01D701C601821BC5
:100AB000930BA40BB50BAC01BD0121E0CE01DF917E
:100AC000CF91FF90EF90DF90CF900C94400330E0F7
:100AD00050E040E00E94271CE8CFDF91CF91FF90CB
:100AE000EF90DF90CF9008952F923F924F925F92B8
:100AF0006F927F928F929F92AF92BF92CF92DF922E
:100B0000EF92FF920F931F93CF93DF93CDB7DEB792
:100B10002E970FB6F894DEBF0FBECDBF9A838983A0
:100B2000FC0195A19F7109F4EEC11A0157FF04C0A1
:100B300022243324241A350A57FF03C0F1E02F1A68
:100B4000310881E828168EE3380620F030E8232E9D
:100B50003EE3332E8A014B01E981FA81FE87ED875E
:100B600080916F008B7F80936F00809118028F5F60
:100B7000809318027894672B09F097C187A1882386
:100B800009F472C124E1A22EB12C109218028091B6
:100B90006F00846080936F00950150E040E060E852
:100BA00076E988E990E00E94271C69017A0188ECC7
:100BB000482E512C612C712CCA01B901A30192015C
:100BC0000E94271C2D833E834F83588769877A872D
:100BD0008B879C87D1015096A70196010E94261A07
:100BE000A30192010E94271C293EFDEF3F0741050A
:100BF0005105ECF060E47DE586EC90E0A7019601FC
:100C00000E94271C190180E1281A31082131310581
:100C100010F4312C212CD1015096A70196010E948D
:100C2000261A28EC30E040E050E00E94271C3901F1
:100C300017FD06C0ED85FE85B7AEA6AE35AE24AE77
:100C400080916F008B7F80936F00809118028F5F7F
:100C5000809318027894ED85FE85828D938D820DA8
:100C6000931D892B09F4C8C0CF010E941E0388235D
:100C700009F4C2C0ED85FE8584899589861597059E
:100C800009F4BAC0F5E0FB8341E050E05A834983A0
:100C9000ED85FE85F0A1FC83ED85FE85C280D380C5
:100CA000E480F580FB81F150FB83FF2339F0109243
:100CB000180280916F00846080936F00ED85FE853F
:100CC000048D158D9801205F3F4FD3010E94681A53
:100CD0002489358950E040E00E94271C2901F0E179
:100CE0004F1A51082131310510F4512C412CED855A
:100CF000FE8582AD93ADA816B90629F124143504FA
:100D000008F0F7C09201AAE0B0E00E94681A01154D
:100D1000110509F0E6C06B5F7F4F8F4F9F4F2AE0B0
:100D200030E040E050E00E94271CC90129839A83EB
:100D300049815A811416150624F081E090E09A83C7
:100D4000898399E09C83ED85FE8506811781208546
:100D50003185C20169817A810E94F11BCB01B0E02B
:100D6000A0E0B701A601401B510B620B730B4817A3
:100D700059076A077B0708F0BFC0C201B0E0A0E0D6
:100D80000C191D092E093F09080F191F2A1F3B1FA7
:100D9000F8E0FC834B81442359F040916F004B7F76
:100DA00040936F00409118024F5F4093180278946F
:100DB000ED85FE854281538164817581C416D50617
:100DC000E606F70619F0FB81F11162CF4C81ED8543
:100DD000FE8540A3558E448E49815A81578F468F98
:100DE0000097A105B10541F082839383A483B58365
:100DF00006831783208731874D815E81ED85FE85CF
:100E00005587448789859A85918B808B758A648AFA
:100E1000338E228E1092180280916F00846080932E
:100E20006F00892811F4B12CA12CED85FE85B3AE9D
:100E3000A2AE828D938D2E960FB6F894DEBF0FBEB4
:100E4000CDBFDF91CF911F910F91FF90EF90DF9079
:100E5000CF90BF90AF909F908F907F906F905F905A
:100E60004F903F902F9008958D859E850E941E0380
:100E70008823B9F0ED85FE85828D938D892B19F03D
:100E800081E087A37FCE82E0ED85FE8587A385A1E3
:100E900087FF78CE808D918D9787868783E080A3AA
:100EA00071CE82E0ED85FE85ECCFED85FE8585A1D6
:100EB00087FF09C087A1823031F4808D918D97879B
:100EC000868784E080A35401F9EA8F16F1E69F0635
:100ED00020F098EAA92E91E6B92EED85FE8517A29D
:100EE00054CE980150E040E00E94271CCA01B9018D
:100EF00012CFE7E0EC8327CF00E010E0980180E01C
:100F000090E0DC0147CF90E080E095CFCF93DF9376
:100F1000DC0195969C9195979F71953009F44AC094
:100F200030F49330A9F19430E9F180E038C0963084
:100F300009F447C09730C9F7ED0150E040E070E098
:100F400088A599A59A01220F331FFB01042E02C028
:100F5000F595E7950A94E2F7240F351FE0FF0FC0DF
:100F6000FD01E20FF31F22A5FC013081232B20831A
:100F70004F5F5F4F23964430510511F7D6CFFD01E7
:100F8000E20FF31F22A5FC01308120952323EFCF30
:100F900080911A02807F682B60931A0281E0DF91B2
:100FA000CF91089580911A028F70F0E16F9FB00188
:100FB0001124F1CF80911B02807F682B60931B026C
:100FC000EDCF80911B028F7090E1699FB0011124D9
:100FD000F4CF5F926F927F928F929F92AF92BF9267
:100FE000CF92DF92EF92FF920F931F93CF93DF93F5
:100FF0007894C0912202D0912302209709F40DC168
:10100000B12C082F10E0AA24A39455E0852E67E0A8
:10101000962E78E0772EE0EFCE2EDD24DA94F2E003
:101020005F2EA3E06A2EB8E8EB2EB3E1FB2E8DA174
:101030008F71883049F4F8948AA5E8A5F9A59081C4
:10104000809589238083789488A1853008F4F5C041
:101050008FA1823009F4C6C08E859F85892B31F01F
:101060008E899F89800F911F9F8B8E8B2E893F8940
:101070008E859F852817390708F4A0C01F8A1E8A0D
:1010800049A15AA16BA17CA12B85822F022E000CB5
:10109000990BAA0BBB0B840F951FA61FB71F89A323
:1010A0009AA3ABA3BCA3EA85E20FE8300CF413C10A
:1010B000E0E0EA87F8948DA18F71853009F415C1BD
:1010C000863008F44EC1873009F4F1C108F42AC211
:1010D000883091F4EBA5FCA58B8518160CF05AC24C
:1010E0009DA58081892B8083A09219029AA5E8A5ED
:1010F000F9A58081892B808378948A819B81AC813A
:10110000BD810197A109B1098A839B83AC83BD830B
:101110008A819B81AC81BD81892B8A2B8B2B09F025
:10112000F2C08E819F81A885B9850097A105B10580
:1011300009F43DC12B8521952B878A839B83AC8342
:10114000BD831E821F821886198698A22C8D3D8D24
:101150008A8D9B8D2817390708F094C18C899D8949
:10116000F9017096BF010E94F11B7F876E874A8943
:101170005B89840F951F9B8B8A8BE817F90768F4AE
:101180004E855F854F5F5F4F5F874E87A601421B8D
:10119000530B840F951F9B8B8A8B8A819B81AC811B
:1011A000BD812F5F3F4FA90170E060E048175907EC
:1011B0006A077B0708F0D3C03D8F2C8F80911902FE
:1011C000482F50E02E853F856E897F89261B370B7F
:1011D0004217530728F08E859F852E893F89821BF1
:1011E000809319020990D881C02D209709F01FCF54
:1011F00080912D02882389F0BB2079F0E0912B02A9
:10120000F0912C02908180912A028095892380831D
:1012100010921C0280911B028EBDDF91CF911F9115
:101220000F91FF90EF90DF90CF90BF90AF909F9085
:101230008F907F906F905F900895843051F183304C
:1012400089F68E899F89800F911F9F8B8E8B2E89A7
:101250003F898E859F852817390770F01F8A1E8A5F
:101260008EA18E3F09F4CFC06DA166FB662760F9A1
:101270006A250E94F100A8A2809119022E853F855F
:101280004E895F89241B350B8217130608F4A8CFFB
:10129000A2CF8FA1823009F4A5CF8EA18E3F09F491
:1012A0007BC06DA166FB662760F90E94F100888D06
:1012B000998D9F878E878A8D9B8D892B11F588A2AA
:1012C000809119022E853F858217130608F488CF76
:1012D0008E859F8585CFE7FFECCEE85FEA87F8949F
:1012E0008DA18F71853009F0EBCE80911B02807F3C
:1012F000EE0FFF0BE95FFE4F9081892B80931B025D
:1013000048C098A2DDCF88A1873009F41FCF08F02C
:1013100057C0853009F052CF8C859D859F878E8779
:101320008A899B8928893989820F931F893C910575
:1013300008F070C09B8B8A8B4A815B816C817D81B8
:101340002A8D3B8DC9010196B0E0A0E08417950776
:10135000A607B70708F432CF232B09F42FCF78A2C2
:101360002DCF833009F4D4C0843009F0C5CE8091EC
:101370001A028F70EE0FFF0BE95FFE4F2081318163
:1013800022953295307F3227207F3227822B80931F
:101390001A02BB24B394B0CEEA85EE0FFF0BE95FCF
:1013A000FE4F6081CE010E948607B82E80CF1D8E31
:1013B0001C8E8DA187FD72C0FF86EE86A8A2FECE90
:1013C0008A3008F0FBCE2C8D3D8D8A8D9B8D821747
:1013D000930750F14A815B816C817D81C901B0E046
:1013E000A0E084179507A607B70708F498A221156F
:1013F000310521F0215031093D8F2C8F8C899D8939
:10140000F901709622C060E0CE010E948607B82ED6
:10141000A8A232CF885C91099B8B8A8B8E859F8591
:1014200001969F878E8788CF4E8D5F8DB901681B8F
:10143000790B4617570708F086C0241B350B3D8FE4
:101440002C8FF90170968C899D89BF010E94F11B38
:101450007F876E874A895B89840F951F9B8B8A8B58
:10146000E817F90708F0AACE4E855F854F5F5F4FFA
:101470005F874E87A601421B530B840F951F9B8BE2
:101480008A8B9CCE2C853D853F872E87288939897C
:101490003B8B2A8B9D8F8C8F88A290CE888D998DC7
:1014A0009F878E8768A241E050E081E08BCEEE0FEF
:1014B000FF0BE95FFE4F90818CA9892780FF08C050
:1014C000E8A5F9A52AA5308190FF60C0232B2083D1
:1014D00081FF08C0EBA5FCA52DA5308191FF52C06E
:1014E000232B208382FF08C0EEA5FFA528A9308109
:1014F00092FF44C0232B208383FF08C0E9A9FAA9E7
:101500008BA9208193FF36C0822B80839CABF4CDC6
:1015100080911A02807FEE0FFF0BE95FFE4F9081F2
:10152000892B35CF80911B028F70EE0FFF0BE95F87
:10153000FE4F2081318122953295307F3227207FE6
:101540003227822BDBCE88A29D8F8C8F8C859D8548
:101550009F878E871B8A1A8A8FA1813009F02ECE31
:101560005FA28DA187FF2ACE888D998D9F878E8758
:1015700068A224CE809582238083C8CF2095232320
:101580002083BACF209523232083ACCF209523231B
:1015900020839ECF8DA5908180958923A4CDCF9265
:1015A000DF92EF92FF920F931F93CF93DF93EC01A3
:1015B0006A017901AB01770F660B770B01960E94E8
:1015C0003005A601DD0C660B770BCE01865B9F4FC5
:1015D0000E943005A701FF0C660B770BCE018D56DC
:1015E0009F4F0E943005A801110F660B770BCE01AB
:1015F00084529F4FDF91CF911F910F91FF90EF90F9
:10160000DF90CF900C9430059F92AF92BF92CF9213
:10161000DF92EF92FF920F931F93CF93DF9300D04F
:10162000CDB7DEB78C01FC01EC5BFF4F80818330CE
:1016300009F06BC069834A83CE0101965C016801A1
:10164000F12CE12CF50191905F01892D90E0FC01D6
:10165000E152FF4FE491F0E0EE0FFF1FEB52FF4F1E
:1016600025913491F60131A720A7FC01EF53FF4FDC
:10167000E491D701AA0FBB1FAE0DBF1DA00FB11F74
:101680009A96EC9361E00E943D0160E0892D0E94F2
:10169000F100F3E0CF0ED11CEA94EF2809F086C0E8
:1016A000FF24F394F801F38685A1807E886085A3EA
:1016B000F0A250E040E068EB7BE0C8010E947405B6
:1016C0008091290281111CC08FB7F894109280007C
:1016D0009AE19093810020E43CE9309387002093C5
:1016E000860024E630E0309389002093880020E9CA
:1016F00031E030938B0020938A008FBFF092290253
:1017000080916F00846080936F00F80162AD73ADCB
:1017100048EC50E0C8010E947405F80185A18F7162
:10172000A9F126A937A940AD51ADA0E2B3E00E94CE
:10173000261A6C39F3EE7F07F6E18F079105D4F591
:101740002CE330E040E050E00E94271C922F832FD2
:10175000E92EF82E29EAE21621E6F20620F088EAC0
:10176000E82E81E6F82EF801A4ADB5AD97010E94F0
:10177000681A26AD37AD50E040E00E94271CA90151
:1017800040955095B701C8010E947405C8010F909B
:101790000F90DF91CF911F910F91FF90EF90DF900D
:1017A000CF90BF90AF909F900C941303EE24E394DE
:1017B000F12C48CF98EA81E6CBCFFC0101900020C4
:1017C000E9F73197AF01481B590BBC018EE292E05B
:1017D0000C94C6018F929F92AF92BF920F931F936A
:1017E000CF93DF93CDB7DEB7A1970FB6F894DEBFE6
:1017F0000FBECDBF19A2423008F44AE08E010F5D42
:101800001F4F842E912CB12CA12CA50194010E9474
:10181000051CE62FB901CA01EA30F4F4E05DD801F5
:10182000EE938D01232B242B252B79F790E080E07C
:10183000109719F0CD010E94DD0BA1960FB6F89418
:10184000DEBF0FBECDBFDF91CF911F910F91BF9033
:10185000AF909F908F900895E95CE1CFBC0190E03C
:1018600080E04AE00C94EA0BCF92DF92EF92FF9275
:10187000CF93DF936C01990FEE08FF08F7FE19C0B4
:101880006DE28EE292E00E94A602EC0166277727C5
:10189000CB016C197D098E099F094AE00E94EA0B71
:1018A0008C0F9D1FDF91CF91FF90EF90DF90CF9035
:1018B00008954AE0C701B601DF91CF91FF90EF9004
:1018C000DF90CF900C94EA0B0C94DD0B89E291E051
:1018D0000C94DD0BCF93DF930E94DD0BEC010E9493
:1018E000660C8C0F9D1FDF91CF9108954F925F92F0
:1018F0006F927F928F929F92AF92BF92CF92DF9220
:10190000EF92FF920F931F93CF936B017C01742E84
:10191000AC019B010E94D71B882399F08CE291E0D7
:10192000CF911F910F91FF90EF90DF90CF90BF90DC
:10193000AF909F908F907F906F905F904F900C949E
:10194000DD0B46015701E894B7F82FEF3FEF4FE763
:101950005FE7C501B4010E94D71B81110DC02FEFB5
:101960003FEF4FE75FE7C501B4010E94FF1818166B
:101970001CF480E391E0D4CF2FEF3FEF4FE75FE41B
:10198000C701B6010E948C1B18161CF484E391E079
:10199000C7CF2FEF3FEF4FE75FECC701B6010E94C3
:1019A000FF1887FDF3CF20E030E0A901C701B601A1
:1019B0000E94FF1810E000E087FF0AC06DE28EE28F
:1019C00092E00E94A6028C01F7FAF094F7F8F094E6
:1019D000C0E060E070E080E09FE37C1641F020E032
:1019E00030E040E251E40E94E41ACF5FF6CFA70155
:1019F00096010E94781A2B013C010E945D1B4B014D
:101A00005C014AE00E94EA0B7C01E00EF11ECC234F
:101A1000A9F1C501B4010E9404199B01AC01C301E5
:101A2000B2010E94771A4B015C016EE28EE292E0F5
:101A30000E94A602E80EF91EC15000F120E030E03D
:101A400040E251E4C501B4010E9465192B013C013B
:101A50000E945D1B4B01CB010E942E0CE80EF91E6B
:101A6000B40190E080E00E9404199B01AC01C30125
:101A7000B2010E94771A4B015C01DECFC701CF9102
:101A80001F910F91FF90EF90DF90CF90BF90AF909C
:101A90009F908F907F906F905F904F900895FB0183
:101AA000DC018D919C91009761F0608171816115DD
:101AB000710539F0448155810E94461E21E0892B31
:101AC00009F020E0822F0895FC0180819181009728
:101AD00011F00C94521760E070E0CB010895AF92C2
:101AE000BF92CF92DF92EF92FF920F931F93CF930B
:101AF000DF93DC01CD90DC901197C114D10439F053
:101B00001496CD91DC918C017601209761F4DF91E0
:101B1000CF911F910F91FF90EF90DF90CF90BF90EA
:101B2000AF90089575015701BFEFAB1ABB0AF701DB
:101B30008081082E000C990B0E94DE18892B91F7EA
:101B40002197CC0DDD1D8881082E000C990B0E9479
:101B5000DE18892B29F0CE15DF0510F02197F3CF81
:101B6000AE014F5F5F4F4E195F09D80115965C9328
:101B70004E931497CE14DF0420F4B701C6010E94DF
:101B8000361ED801ED91FC91119714968D919C9180
:101B9000E80FF91F1082BBCFCF93DF93FC01C08108
:101BA000D181209761F08991882349F0082E000C9B
:101BB000990B0E942E1EFE0131978083F4CFDF9196
:101BC000CF9108950F931F93CF93DF93EC018881FA
:101BD0009981009759F02A813B812617370730F009
:101BE00081E0DF91CF911F910F9108958B016F5F7D
:101BF0007F4F0E94711D009759F0998388831B8342
:101C00000A832C813D81232B59F7FC011082E8CFF8
:101C100080E0E7CFFC0180819181009711F00C9466
:101C2000E81C0895EF92FF920F931F93CF93DF93D9
:101C3000EC017B01198218821B821A821D821C8290
:101C4000FB0101900020E9F731978F01061B170B6C
:101C5000B8010E94E20D28813981811113C021153C
:101C6000310519F0C9010E94E81C198218821D82F1
:101C70001C821B821A82DF91CF911F910F91FF90DE
:101C8000EF9008951D830C83B701C901DF91CF91B7
:101C90001F910F91FF90EF900C943F1EEF92FF92D7
:101CA0000F931F93CF93DF9300D0CDB7DEB78C0196
:101CB0006BE271E00E94120E0E94160297FD21C095
:101CC0008A309105F1F089831A82F801E480F58069
:101CD000FFEFEF1AFF0AB701C8010E94E20D882347
:101CE00059F3F8012081318184819581BE016F5FB4
:101CF0007F4F820F931F0E943F1EF801F582E482FE
:101D0000DBCFC8010F900F90DF91CF911F910F9102
:101D1000FF90EF9008950F931F93CF93DF9300D020
:101D200000D000D0CDB7DEB78B010E94640C89E4EF
:101D300091E00E94640C8EE292E00E946402892B82
:101D400039F46AE070E080E090E00E949301F3CF04
:101D5000CE0101960E944E0EF8018081918100977C
:101D600061F169817A816115710529F1428153819F
:101D70002D813E8142175307F0F00E943F1E8D8156
:101D80009E81F801958384831E821D82CE01019677
:101D90000E940A0EC8010E946F0DC8010E94CC0D5E
:101DA00026960FB6F894DEBF0FBECDBFDF91CF9160
:101DB0001F910F9108950E94E81C89819A81F80172
:101DC000918380838B819C81938382838D819E818B
:101DD000958384831A8219821C821B82D5CF1F921D
:101DE0000F920FB60F9211242F933F938F939F93CF
:101DF000AF93BF938091250290912602A091270274
:101E0000B091280230911D0223E0230F2D3758F5A1
:101E10000196A11DB11D20931D0280932502909370
:101E20002602A0932702B093280280911E0290916F
:101E30001F02A0912002B09121020196A11DB11DA7
:101E400080931E0290931F02A0932002B093210260
:101E5000BF91AF919F918F913F912F910F900FBEA6
:101E60000F901F90189526E8230F0296A11DB11D13
:101E7000D2CF1F920F920FB60F9211242F933F9340
:101E80004F935F936F937F938F939F93AF93BF9382
:101E9000EF93FF938EE292E00E948402FF91EF9114
:101EA000BF91AF919F918F917F916F915F914F9172
:101EB0003F912F910F900FBE0F901F9018951F927A
:101EC0000F920FB60F9211242F938F939F93EF933E
:101ED000FF93E0913E02F0913F028081E091440245
:101EE000F091450282FD1BC09081809147028F5F77
:101EF0008F7320914802821741F0E0914702F0E091
:101F0000E25DFD4F958F80934702FF91EF919F9186
:101F10008F912F910F900FBE0F901F901895808179
:101F2000F4CF1F920F920FB60F9211248F939F93AD
:101F3000EF93FF9380911C0291E0980F90931C0205
:101F400081110CC080911A028EBDFF91EF919F917B
:101F50008F910F900FBE0F901F901895E0912B025C
:101F6000F0912C02808190912A02892B808310921B
:101F70001C02EBCF1F920F920FB60F9211242F93DA
:101F80003F934F935F936F937F938F939F93AF9301
:101F9000BF93CF93EF93FF9389E180931902C09190
:101FA00000018C2F0E94E90780E090E0892B19F056
:101FB0008C2F0E940000F89420911902213009F022
:101FC00040C0809184009091850020918A003091DA
:101FD0008B00821B930B893E23E0920710F0805CFC
:101FE00093468738914030F180918400909185002C
:101FF0000A9681342CE9920710F080549C49909302
:102000008B0080938A00789480911902809300015C
:10201000FF91EF91CF91BF91AF919F918F917F9160
:102020006F915F914F913F912F910F900FBE0F9045
:102030001F90189580918A0090918B0080579E4F39
:10204000D8CF80918A0090918B00B0E0A0E0B59548
:10205000A7959795879548EC249F90011124820FAE
:10206000931F81322EE4920710F080529E44880F15
:10207000991FC5CF8F929F92AF92BF92CF92DF925E
:10208000EF92FF920F931F93CF93DF93EEE2F2E074
:102090001382128288EE93E0A0E0B0E084839583FF
:1020A000A683B7838BE191E09183808385EC90E0F8
:1020B0009587848784EC90E09787868780EC90E012
:1020C000918B808B81EC90E0938B828B82EC90E003
:1020D000958B848B86EC90E0978B868B118E128E7D
:1020E000138E148EC5E1D3E081E0888386E193E00E
:1020F0000E94A5008FE593E00E94A50088EA93E086
:102100000E94A50081EF93E00E94A500EBECF2E0B5
:10211000C12CD12C80ECE82E81ECF82EC086D18623
:10212000E286F386812C912C94ECA92E91ECB92EA9
:1021300084869586A686B78680E090E0A6E1B2E424
:10214000808B918BA28BB38B00E010E022E432E411
:10215000048B158B268B378B40E050E06CEC71E4E0
:10216000408F518F628F738F848E958EA68EB78E1F
:1021700080A391A3A2A3B3A304A315A326A337A36B
:1021800040A751A762A773A700E010E02CEB31E451
:1021900004A715A726A737A780AB91ABA2ABB3AB1B
:1021A00040E050E060E472E444AB55AB66AB77AB23
:1021B000C0AED1AEE2AEF3AE04AF15AF26AF37AFCF
:1021C00080930B0390930C03A0930D03B0930E0325
:1021D00040930F0350931003609311037093120305
:1021E000D0931403C0931303DF91CF911F910F91EC
:1021F000FF90EF90DF90CF90BF90AF909F908F9027
:102200000895CF93DF93CDB7DEB7CA54D1090FB687
:10221000F894DEBF0FBECDBF789484B5826084BDD4
:1022200084B5816084BD85B5826085BD85B58160DA
:1022300085BD80916E00816080936E001092810058
:102240008091810082608093810080918100816013
:1022500080938100809180008160809380008091D4
:10226000B10084608093B1008091B0008160809360
:10227000B00080917A00846080937A0080917A0027
:10228000826080937A0080917A00816080937A00E6
:1022900080917A00806880937A001092C100E0916A
:1022A0003E02F0913F0282E08083E0913A02F09199
:1022B0003B021082E0913C02F0913D0280E180837C
:1022C00010924602E0914202F091430286E0808340
:1022D000E0914002F0914102808180618083E09131
:1022E0004002F0914102808188608083E091400249
:1022F000F0914102808180688083E0914002F091FA
:10230000410280818F7D808364E670E080E090E010
:102310000E94930188E391E00E946A0C87E491E0B7
:102320000E94640C61E088E00E943D0162E081E16E
:102330000E943D0162E08AE00E943D0162E089E086
:102340000E943D0162E08BE00E943D014DE050E0C3
:102350006CE070E086E193E00E94040B46E050E000
:1023600063E070E08FE593E00E94040B45E050E0ED
:1023700062E070E088EA93E00E94040B47E050E0DE
:1023800064E070E081EF93E00E94040B81E08093B1
:10239000150361E088E00E94F10080E0282E80E0D3
:1023A000382E8EE292E00E94640218161906E4F5B7
:1023B000CE0149960E944E0ECE0149960E946F0DA5
:1023C000CE0149960E94CC0D6BE471E0CE010196DE
:1023D0000E94120EBE016F5F7F4FCE0149960E9490
:1023E0004F0D182FCE0101960E940A0E1123A1F164
:1023F000E0911303F09114038081882309F182E5B1
:1024000091E00E946A0CE0911303F0911403108292
:1024100060E088E00E94F10087E491E00E94640C93
:10242000CE0149960E940A0E2114310409F4B9CF55
:102430000E947002882309F4B4CF0E940000ADCF3F
:102440008BE491E00E946A0CE0911303F091140375
:1024500081E0808361E0DDCF6AE571E0CE01019625
:102460000E94120EBE016F5F7F4FCE0149960E94FF
:102470004F0D182FCE0101960E940A0E1123E1F094
:1024800084E691E00E946A0C0091130310911403FA
:10249000C80101960E941303C801865B9F4F0E94EA
:1024A0001303C8018D569F4F0E941303C801845225
:1024B0009F4F0E941303B0CF60E771E0CE010196F9
:1024C0000E94120EBE016F5F7F4FCE0149960E949F
:1024D0004F0D182FCE0101960E940A0E112399F07C
:1024E00085E791E00E946A0C10E000E030E020E017
:1024F00050E040E070E060E080911303909114039D
:102500000E94CF0A89CF6CE771E0CE0101960E944C
:10251000120EBE016F5F7F4FCE0149960E944F0D94
:10252000182FCE0101960E940A0E112309F468C3E8
:1025300080E891E00E946A0C6BE271E0CE010D969A
:102540000E94120EBE01635F7F4F88E891E00E94F7
:102550008B0E6BE271E0CE0107960E94120EBE0157
:10256000695F7F4F81E991E00E948B0E6BE271E021
:10257000CE0101960E94120EBE016F5F7F4F8AE965
:1025800091E00E948B0E8D859E85812C912C5401AB
:10259000009721F00E944E174B015C018F819885B6
:1025A000C12CD12C7601009721F00E944E176B01AF
:1025B0007C0189819A81412C512C3201009721F0B4
:1025C0000E944E172B013C0183EA91E00E94640CAB
:1025D00042E0C501B4010E94760C80EB91E00E94BC
:1025E000640C42E0C701B6010E94760C80EB91E0DA
:1025F0000E94640C42E0C301B2010E94760C0E946A
:10260000660C20E030E040E850E4C501B4010E94CF
:10261000771A6F8F78A389A39AA320E030E040E86F
:1026200050E4C701B6010E94771A6BA37CA38DA367
:102630009EA320E030E040E850E4C501B4010E94D0
:10264000781A4B015C0120E030E040E850E4C7011B
:10265000B6010E94781A6FA378A789A79AA72F8D31
:1026600038A149A15AA16091D3027091D4028091FE
:10267000D5029091D6020E94771A6B017C012BA1A2
:102680003CA14DA15EA16091D7027091D8028091CA
:10269000D9029091DA020E94771A6BA77CA78DA7C6
:1026A0009EA7A30192016091DB027091DC028091F0
:1026B000DD029091DE020E94771A6FA778AB89AB9A
:1026C0009AABA50194016091E3027091E4028091BC
:1026D000E5029091E6020E94771A6BAB7CAB8DAB62
:1026E0009EAB2BA13CA14DA15EA16091E702709130
:1026F000E8028091E9029091EA020E94771A6BA3A6
:102700007CA38DA39EA3A30192016091EB02709123
:10271000EC028091ED029091EE020E94771A6FAB6D
:1027200078AF89AF9AAFA50194016091F3027091DF
:10273000F4028091F5029091F6020E94771A4B0103
:102740005C012FA138A549A55AA56091F7027091A7
:10275000F8028091F9029091FA020E94771A6BAF09
:102760007CAF8DAF9EAFA30192016091FB0270918F
:10277000FC028091FD029091FE020E94771A23963E
:102780006CAF7DAF8EAF9FAF23972F8D38A149A13E
:102790005AA1609103037091040380910503909105
:1027A00006030E94771A27966CAF7DAF8EAF9FAF5E
:1027B00027972FA138A549A55AA5609107037091C5
:1027C00008038091090390910A030E94771A6FA36E
:1027D00078A789A79AA7A301920160910B03709132
:1027E0000C0380910D0390910E030E94771A2B9693
:1027F0006CAF7DAF8EAF9FAF2B97A7019601C7013E
:10280000B6010E9465196B017C012BA53CA54DA565
:102810005EA5CA01B9010E9465199B01AC01C701FF
:10282000B6010E94781A6B017C012FA538A949A92D
:102830005AA9CA01B9010E9465199B01AC01C701DF
:10284000B6010E94781A0E94971B6F8F78A389A304
:102850009AA32BA93CA94DA95EA9CA01B9010E945E
:1028600065196B017C012BA13CA14DA15EA1CA01A0
:10287000B9010E9465199B01AC01C701B6010E9414
:10288000781A6B017C012FA938AD49AD5AADCA0148
:10289000B9010E9465199B01AC01C701B6010E94F4
:1028A000781A0E94971B2B013C01A5019401C501D8
:1028B000B4010E9465196B017C012BAD3CAD4DAD9F
:1028C0005EADCA01B9010E9465199B01AC01C70147
:1028D000B6010E94781A6B017C0123962CAD3DADA8
:1028E0004EAD5FAD2397CA01B9010E9465199B01E6
:1028F000AC01C701B6010E94781A0E94971B4B01D8
:102900005C0127962CAD3DAD4EAD5FAD2797CA015A
:10291000B9010E9465196B017C012FA138A549A559
:102920005AA5CA01B9010E9465199B01AC01C701F2
:10293000B6010E94781A6B017C012B962CAD3DAD3F
:102940004EAD5FAD2B97CA01B9010E9465199B017D
:10295000AC01C701B6010E94781A0E94971B6B0157
:102960007C012F8D38A149A15AA16091DF0270919D
:10297000E0028091E1029091E2020E94771A6FA733
:1029800078AB89AB9AABA30192016091EF02709191
:10299000F0028091F1029091F2020E94771A6BA3EB
:1029A0007CA38DA39EA3A50194016091FF02709169
:1029B000000380910103909102030E94771A6FA394
:1029C00078A789A79AA7A701960160910F03709134
:1029D000100380911103909112030E94771A6BA744
:1029E0007CA78DA79EA784EB91E00E94640C42E037
:1029F0006F8D78A189A19AA10E94760C80EB91E05D
:102A00000E94640C42E0C301B2010E94760C80EB8C
:102A100091E00E94640C42E0C501B4010E94760C72
:102A200080EB91E00E94640C42E0C701B6010E9475
:102A3000760C0E94660C2CE739ED40EA5BE36FA54B
:102A400078A989A99AA90E94E41A6B017C0120E067
:102A500030E0A9010E948C1B20E030E040E05FE301
:102A600087FDBAC0C701B6010E94781A0E94561BA2
:102A70007093CC026093CB022CE739ED40EA5BE324
:102A80006BA17CA18DA19EA10E94E41A6B017C0127
:102A900020E030E0A9010E948C1B20E030E040E003
:102AA0005FE387FD9EC0C701B6010E94781A0E94AD
:102AB000561B7093CE026093CD022CE739ED40EAAD
:102AC0005BE36FA178A589A59AA50E94E41A6B0122
:102AD0007C0120E030E0A9010E948C1B20E030E066
:102AE00040E05FE387FD82C0C701B6010E94781A0B
:102AF0000E94561B7093D0026093CF022CE739EDF1
:102B000040EA5BE36BA57CA58DA59EA50E94E41A17
:102B10006B017C0120E030E0A9010E948C1B20E0C9
:102B200030E040E05FE387FD66C0C701B6010E9468
:102B3000781A0E94561B7093D2026093D10289E0EA
:102B400092E00E94640C8091CB029091CC020E9492
:102B50002E0C80EB91E00E94640C8091CD0290914C
:102B6000CE020E942E0C80EB91E00E94640C8091BA
:102B7000CF029091D0020E942E0C80EB91E00E9437
:102B8000640C8091D1029091D2020E942E0C0E947E
:102B9000660C0091D1021091D2022091CF023091A7
:102BA000D0024091CD025091CE026091CB02709143
:102BB000CC0280911303909114030E94CF0ACE019E
:102BC00001960E940A0ECE0107960E940A0ECE01BF
:102BD0000D960E940A0E20CCC701B6010E94771AFA
:102BE00045CFC701B6010E94771A61CFC701B60170
:102BF0000E94771A7DCFC701B6010E94771A99CF3C
:102C00006AEE71E0CE0101960E94120EBE016F5F66
:102C10007F4FCE0149960E944F0D182FCE0101968D
:102C20000E940A0E112309F488C087EF91E00E94E8
:102C30006A0C6BE271E0CE0143960E94120EBE0157
:102C40006D5E7F4F83EC91E00E948B0E6BE271E032
:102C5000CE010D960E94120EBE01635F7F4F8CEC79
:102C600091E00E948B0E6BE271E0CE0107960E940C
:102C7000120EBE01695F7F4F85ED91E00E948B0EC1
:102C80006BE271E0CE0101960E94120EBE016F5FF1
:102C90007F4F8EED91E00E948B0ECE0143960E94F5
:102CA000640D6B01CE010D960E94640D6F8F78A3A9
:102CB00089A39AA3CE0107960E94640D4B01CE0111
:102CC00001960E94640D2B0189E092E00E94640C41
:102CD000C6010E942E0C80EB91E00E94640C8F8D47
:102CE00098A10E942E0C80EB91E00E94640CC4011C
:102CF0000E942E0C80EB91E00E94640CC2010E94A5
:102D00002E0C0E94660C820194014F8D58A1B601D1
:102D100080911303909114030E94CF0ACE01019673
:102D20000E940A0ECE0107960E940A0ECE010D9651
:102D30000E940A0ECE0143964CCF67EE71E0CE01A1
:102D400001960E94120EBE016F5F7F4FCE01499621
:102D50000E944F0D182FCE0101960E940A0E1123DA
:102D600009F45ACB8EEE91E00E946A0C6BE271E09E
:102D7000CE0143960E94120EBE016D5E7F4F83EC22
:102D800091E00E948B0E6BE271E0CE010D960E94E5
:102D9000120EBE01635F7F4F8CEC91E00E948B0EA0
:102DA0006BE271E0CE0107960E94120EBE01695FD0
:102DB0007F4F85ED91E00E948B0E6BE271E0CE01BA
:102DC00001960E94120EBE016F5F7F4F8EED91E063
:102DD0000E948B0ECE0143960E94640D2B01CE0102
:102DE0000D960E94640D4B01CE0107960E94640D62
:102DF0006B01CE0101960E94640D6F8F78A389A3A9
:102E00009AA380E092E00E94640CC2010E94340CFC
:102E100080EB91E00E94640CC4010E94340C80EBB2
:102E200091E00E94640CC6010E94340C80EB91E09A
:102E30000E94640C8F8D98A10E94340C0E94660C35
:102E40000091130310911403A201550C660B770B2C
:102E500020E0C80101960E944003A401990C660B72
:102E6000770B20E0C801865B9F4F0E944003A601BC
:102E7000DD0C660B770B20E0C8018D569F4F0E943A
:102E800040038F8D98A1AC01990F660B770B20E062
:102E9000C80184529F4F0E94400340CF6627772786
:102EA0000C948E171F93FC0199278827BC01E89486
:102EB00011911032E9F3193010F01E30C8F31B32B3
:102EC00051F01D3249F4689406C00E947917610FD1
:102ED000711D811D911D119110531A30B0F33EF4F4
:102EE00090958095709561957F4F8F4F9F4F1F9163
:102EF0000895592F482F372F262F660F771F881FC9
:102F0000991F660F771F881F991F620F731F841FF9
:102F1000951F660F771F881F991F0895B0E0A0E0E6
:102F2000E4E9F7E10C94371A5C017B016115710546
:102F300019F0DB018D939C9385010F5F1F4FF50105
:102F4000D0818D2F90E00E94DE186C01892BB9F59D
:102F5000DD32B9F50F5F1F4FD5011196DC91C1E04D
:102F60005801F1E0AF1AB10843E050E060E770E0CB
:102F7000C5010E94E718892B69F5680182E0C80E37
:102F8000D11C45E050E06BE670E0C6010E94E718F6
:102F9000892B21F4680197E0C90ED11CE114F104DA
:102FA00019F0D701CD92DC9260E070E080E89FEFED
:102FB000C111FFC060E070E080E89FE7FAC05801EF
:102FC000BBCFDB3229F485010E5F1F4FF501D181A4
:102FD000C0E0C6CF43E050E068E670E0C5010E9463
:102FE000E718892BE9F0F80110E000E020E030E07C
:102FF000A9015F01B0ED8B2E8D0E89E08815C8F117
:103000009C2E689491F88C2F8870C2FF16C0811195
:1030100002C00F5F1F4F3196D501DC91C92DE9CF5A
:10302000E114F10429F00E5F1F4FF70111830083B3
:1030300060E070E080EC9FE7BCC0882311F0015095
:103040001109A5E0B0E00E94261A9B01AC01220FF5
:10305000331F441F551F280D311D411D511D283997
:1030600099E93907490799E15907A8F2C6609C2EEA
:10307000D2CFAEEF8A1206C0C3FD3CC09C2E68942E
:1030800093F8C9CFDF7DD534A9F580818D3239F42D
:10309000C061DF011296818162E070E006C0DF014D
:1030A0008B32C1F3119661E070E080535D01A61A86
:1030B000B70A8A30F8F4E0E8CE16ECE0DE065CF4FD
:1030C000B601660F771F660F771FC60ED71ECC0C92
:1030D000DD1CC80ED11C5D01FFEFAF1ABF0A8C9139
:1030E00080538A30A8F1C4FF03C0D194C194D108A1
:1030F0000C0D1D1DC1FF09C0E114F10431F081E088
:10310000A81AB108D701AD92BC92CA01B9010E94B8
:103110000419C370C33009F490584B015C0120E0DE
:1031200030E0A9010E94FF18882309F440C0CFE9CC
:10313000D0E017FF05C0119501951109C7E8D0E04F
:103140006E01B8E1CB1AD10880E2E82EF12C0FC055
:10315000D501B1CFFE0125913591459154910E19BC
:103160001F09C501B4010E9465194B015C01D5011D
:10317000C4010E151F0574F72497F594E794CC1637
:10318000DD06A9F78A2F880F8B2F881F8F3F49F004
:1031900020E030E0A901C501B4010E94FF188111AF
:1031A00006C082E290E090933B0480933A04C5010C
:1031B000B401CDB7DEB7ECE00C94531A91110C9426
:1031C000D219803219F089508550C8F70895FB0153
:1031D000DC014150504088F08D9181341CF08B35DA
:1031E0000CF4805E659161341CF06B350CF4605E0C
:1031F000861B611171F3990B0895881BFCCF0E9407
:10320000411908F481E00895E89409C097FB3EF461
:1032100090958095709561957F4F8F4F9F4F992323
:10322000A9F0F92F96E9BB279395F69587957795A1
:103230006795B795F111F8CFFAF4BB0F11F460FF61
:103240001BC06F5F7F4F8F4F9F4F16C0882311F0B9
:1032500096E911C0772321F09EE8872F762F05C0CD
:10326000662371F096E8862F70E060E02AF09A9568
:10327000660F771F881FDAF7880F9695879597F95D
:103280000895990F0008550FAA0BE0E8FEEF1616F7
:103290001706E807F907C0F012161306E407F5074A
:1032A00098F0621B730B840B950B39F40A2661F0BE
:1032B000232B242B252B21F408950A2609F4A14061
:1032C000A6958FEF811D811D08950E9478190C9499
:1032D000EC190E94DE1938F00E94E51920F09523C0
:1032E00011F00C94D5190C94DB1911240C94201AAC
:1032F0000E94FD1970F3959FC1F3950F50E0551F83
:10330000629FF001729FBB27F00DB11D639FAA273A
:10331000F00DB11DAA1F649F6627B00DA11D661F89
:10332000829F2227B00DA11D621F739FB00DA11DAA
:10333000621F839FA00D611D221F749F3327A00D64
:10334000611D231F849F600D211D822F762F6A2F00
:1033500011249F5750409AF0F1F088234AF0EE0F65
:10336000FF1FBB1F661F771F881F91505040A9F792
:103370009E3F510580F00C94D5190C94201A5F3FA4
:10338000E4F3983ED4F3869577956795B795F795CE
:10339000E7959F5FC1F7FE2B880F911D9695879546
:1033A00097F9089599278827089597F99F6780E8E6
:1033B00070E060E008959FEF80EC089500240A9487
:1033C0001616170618060906089500240A94121600
:1033D0001306140605060895092E0394000C11F433
:1033E000882352F0BB0F40F4BF2B11F460FF04C0E0
:1033F0006F5F7F4F8F4F9F4F089557FD9058440F39
:10340000551F59F05F3F71F04795880F97FB991F43
:1034100061F09F3F79F08795089512161306140600
:10342000551FF2CF4695F1DF08C01616170618068D
:10343000991FF1CF86957105610508940895E89468
:10344000BB2766277727CB0197F908950E94681A52
:10345000A59F900DB49F900DA49F800D911D1124E8
:1034600008952F923F924F925F926F927F928F9228
:103470009F92AF92BF92CF92DF92EF92FF920F9303
:103480001F93CF93DF93CDB7DEB7CA1BDB0B0FB60D
:10349000F894DEBF0FBECDBF09942A8839884888CA
:1034A0005F846E847D848C849B84AA84B984C88460
:1034B000DF80EE80FD800C811B81AA81B981CE0F57
:1034C000D11D0FB6F894DEBF0FBECDBFED0108953C
:1034D000A29FB001B39FC001A39F700D811D112455
:1034E000911DB29F700D811D1124911D089550589A
:1034F000BB27AA270E948F1A0C94EC190E94DE1990
:1035000038F00E94E51920F039F49F3F19F426F4B1
:103510000C94DB190EF4E095E7FB0C94D519E92F18
:103520000E94FD1958F3BA176207730784079507BD
:1035300020F079F4A6F50C941F1A0EF4E0950B2EEA
:10354000BA2FA02D0B01B90190010C01CA01A001F5
:103550001124FF27591B99F0593F50F4503E68F150
:103560001A16F040A22F232F342F4427585FF3CF91
:10357000469537952795A795F0405395C9F77EF462
:103580001F16BA0B620B730B840BBAF09150A1F0AB
:10359000FF0FBB1F661F771F881FC2F70EC0BA0F31
:1035A000621F731F841F48F4879577956795B795B9
:1035B000F7959E3F08F0B0CF9395880F08F09927B4
:1035C000EE0F9795879508950E94F81A0C94EC19C0
:1035D0000E94E51958F00E94DE1940F029F45F3F7F
:1035E00029F00C94D51951110C94201A0C94DB1964
:1035F0000E94FD1968F39923B1F3552391F3951BAC
:10360000550BBB27AA2762177307840738F09F5F03
:103610005F4F220F331F441FAA1FA9F335D00E2E70
:103620003AF0E0E832D091505040E695001CCAF7DD
:103630002BD0FE2F29D0660F771F881FBB1F2617A0
:1036400037074807AB07B0E809F0BB0B802DBF0177
:10365000FF2793585F4F3AF09E3F510578F00C9446
:10366000D5190C94201A5F3FE4F3983ED4F3869565
:1036700077956795B795F7959F5FC9F7880F911D67
:103680009695879597F90895E1E0660F771F881F53
:10369000BB1F621773078407BA0720F0621B730B06
:1036A000840BBA0BEE1F88F7E09508950E945D1B0E
:1036B0006894B1110C94201A08950E94051A88F09C
:1036C0009F5798F0B92F9927B751B0F0E1F0660FE6
:1036D000771F881F991F1AF0BA95C9F714C0B13027
:1036E00091F00E941F1AB1E008950C941F1A672FE1
:1036F000782F8827B85F39F0B93FCCF38695779556
:103700006795B395D9F73EF490958095709561953E
:103710007F4F8F4F9F4F08950E94411908F48FEFFC
:10372000089519F416F40C94DB190C94DC1B0E9418
:10373000051AB8F39923C9F3B6F39F57550B87FFC2
:103740000E94EA1B0024A0E640EA900180585695AA
:10375000979528F4805C660F771F881F20F0261746
:103760003707480730F4621B730B840B202931297B
:103770004A2BA69517940794202531254A2758F7F8
:10378000660F771F881F20F026173707480730F489
:10379000620B730B840B200D311D411DA09581F729
:1037A000B901842F9158880F9695879508950E94A6
:1037B0004119880B990B08959F3F31F0915020F4E7
:1037C000879577956795B795880F911D96958795FD
:1037D00097F9089591505040660F771F881FD2F7D0
:1037E0000895AA1BBB1B51E107C0AA1FBB1FA61748
:1037F000B70710F0A61BB70B881F991F5A95A9F79A
:1038000080959095BC01CD010895A1E21A2EAA1BC6
:10381000BB1BFD010DC0AA1FBB1FEE1FFF1FA21780
:10382000B307E407F50720F0A21BB30BE40BF50B7D
:10383000661F771F881F991F1A9469F76095709506
:10384000809590959B01AC01BD01CF010895052E97
:1038500097FB1EF400940E943E1C57FD07D00E9467
:10386000051C07FC03D04EF40C943E1C509540956B
:10387000309521953F4F4F4F5F4F0895909580951C
:10388000709561957F4F8F4F9F4F0895EE0FFF1FEB
:103890000590F491E02D09940F931F93CF93DF933C
:1038A0008230910510F482E090E0E0913E04F091C6
:1038B0003F0430E020E0B0E0A0E0309799F421151B
:1038C000310509F44AC0281B390B24303105D8F5DD
:1038D0008A819B816115710589F1FB019383828344
:1038E000FE0111C04081518102811381481759079F
:1038F000E0F04817590799F4109761F012960C936D
:10390000129713961C933296CF01DF91CF911F919E
:103910000F91089500933E0410933F04F4CF2115B6
:10392000310551F04217530738F0A901DB019A0124
:10393000BD01DF01F801C1CFEF01F9CF90933F0442
:1039400080933E04CDCFFE01E20FF31F819391934C
:103950002250310939832883D7CF20913C043091FC
:103960003D04232B41F42091030130910401309355
:103970003D0420933C042091010130910201211566
:10398000310541F42DB73EB7409105015091060134
:10399000241B350BE0913C04F0913D04E217F30742
:1039A000A0F42E1B3F0B2817390778F0AC014E5FAF
:1039B0005F4F2417350748F04E0F5F1F50933D04AB
:1039C00040933C04819391939FCFF0E0E0E09CCF43
:1039D000CF93DF930097E9F0FC01329713821282B4
:1039E000A0913E04B0913F04ED0130E020E010973B
:1039F000A1F420813181820F931F20913C043091EA
:103A00003D042817390709F061C0F0933D04E093A5
:103A10003C04DF91CF910895EA01CE17DF07E8F566
:103A20004A815B819E0141155105B1F7E901FB8394
:103A3000EA8349915991C40FD51FEC17FD0761F432
:103A4000808191810296840F951FE9019983888373
:103A5000828193819B838A83F0E0E0E012968D91CE
:103A60009C9113970097B9F52D913C911197CD0139
:103A70000296820F931F20913C0430913D04281739
:103A8000390739F6309751F510923F0410923E04F1
:103A9000B0933D04A0933C04BCCFD383C283408148
:103AA0005181840F951FC817D90761F44E5F5F4F8E
:103AB00088819981480F591F518340838A819B8156
:103AC000938382832115310509F0B0CFF0933F0431
:103AD000E0933E049ECFFD01DC01C0CF1382128231
:103AE000D7CFB0E0A0E0E7E7FDE10C94331A8C01FA
:103AF000009751F4CB010E944C1C8C01C801CDB73A
:103B0000DEB7E0E10C944F1AFC01E60FF71F9C01B1
:103B100022503109E217F30708F49DC0D901CD9175
:103B2000DC911197C617D70798F0C530D10530F34F
:103B3000CE0104978617970708F3C61BD70B229769
:103B4000C193D1936D937C93CF010E94E81CD6CF93
:103B50005B01AC1ABD0A4C018C0E9D1EA0913E0467
:103B6000B0913F04512C412CF12CE12C109731F5F0
:103B700080913C0490913D048815990509F05CC042
:103B80004616570608F058C0809101019091020135
:103B9000009741F48DB79EB7409105015091060101
:103BA000841B950BE817F90708F055C0F0933D0406
:103BB000E0933C04F90171836083A0CF8D919C91C7
:103BC000119712966C90129713967C901397A815E4
:103BD000B90559F56C0142E0C40ED11CCA14DB04CE
:103BE00020F1AC014A195B09DA011296159780F0B1
:103BF0006282738251834083D9016D937C93E11477
:103C0000F10471F0D7011396FC93EE93129776CFDF
:103C100022968C0F9D1FF90191838083F301EFCFD2
:103C2000F0933F04E0933E0469CF4816590608F428
:103C30002C017D01D3019ACFCB010E944C1C7C0149
:103C4000009749F0AE01B8010E94361EC8010E94DB
:103C5000E81C870153CF10E000E050CF9111089588
:103C600081568A5108F4805285580895FB01DC0181
:103C700002C001900D9241505040D8F70895FB01C9
:103C8000DC0101900D920020E1F70895FB01DC01B9
:103C90004150504030F08D910190801919F400206E
:103CA000B9F7881B990B0895F894FFCF01000040E5
:103CB00004800003000200060004000C0008000954
:103CC00000010000000000A602C601F301F3026437
:103CD00002020256020D0A006E616E00696E6600F5
:103CE0006F7666004341424C4520434F4E534F4C44
:103CF000453A003E3E3E00454E41424C4500444957
:103D00005341424C450043414C49425241544500C5
:103D100043414C4942524154494F4E00484F4D4552
:103D200000484F4D494E47004A4F47004A4F4747CA
:103D3000494E47005820434F4F52443A00592043C0
:103D40004F4F52443A005A20434F4F52443A004A90
:103D50004F4747494E4720544F3A2000207C2000CF
:103D6000434F5244204C454E475448533A2000415B
:103D70002053544550533A00422053544550533A2F
:103D800000432053544550533A0044205354455067
:103D9000533A0052454C5241570052454C41544908
:103DA000564520524157204D4F44450052454C4105
:103DB0005449564520524157204D4F564520544FA7
:043DC0003A200000A5
:107E0000112484B714BE81FFF0D085E080938100F7
:107E100082E08093C00088E18093C10086E0809377
:107E2000C20080E18093C4008EE0C9D0259A86E02C
:107E300020E33CEF91E0309385002093840096BBD3
:107E4000B09BFECF1D9AA8958150A9F7CC24DD24C4
:107E500088248394B5E0AB2EA1E19A2EF3E0BF2EE7
:107E6000A2D0813461F49FD0082FAFD0023811F036
:107E7000013811F484E001C083E08DD089C08234E0
:107E800011F484E103C0853419F485E0A6D080C0E4
:107E9000853579F488D0E82EFF2485D0082F10E0AE
:107EA000102F00270E291F29000F111F8ED06801E7
:107EB0006FC0863521F484E090D080E0DECF843638
:107EC00009F040C070D06FD0082F6DD080E0C81688
:107ED00080E7D80618F4F601B7BEE895C0E0D1E017
:107EE00062D089930C17E1F7F0E0CF16F0E7DF06D8
:107EF00018F0F601B7BEE89568D007B600FCFDCFD4
:107F0000A601A0E0B1E02C9130E011968C91119780
:107F100090E0982F8827822B932B1296FA010C0160
:107F200087BEE89511244E5F5F4FF1E0A038BF0790
:107F300051F7F601A7BEE89507B600FCFDCF97BE46
:107F4000E89526C08437B1F42ED02DD0F82E2BD052
:107F50003CD0F601EF2C8F010F5F1F4F84911BD097
:107F6000EA94F801C1F70894C11CD11CFA94CF0C13
:107F7000D11C0EC0853739F428D08EE10CD085E9AC
:107F80000AD08FE07ACF813511F488E018D01DD067
:107F900080E101D065CF982F8091C00085FFFCCF94
:107FA0009093C60008958091C00087FFFCCF809118
:107FB000C00084FD01C0A8958091C6000895E0E648
:107FC000F0E098E1908380830895EDDF803219F02E
:107FD00088E0F5DFFFCF84E1DECF1F93182FE3DFCA
:107FE0001150E9F7F2DF1F91089580E0E8DFEE27F6
:047FF000FF270994CA
:027FFE00040479
:00000001FF
