:020000040000FA
:100000000C947B000C94A3000C94A3000C94A3000C
:100010000C94A3000C94A3000C94A3000C94A300D4
:100020000C94A3000C94A3000C94A3000C94A300C4
:100030000C94D50E0C94A3000C94A3000C94A30074
:100040000C940A0E0C94AC0E0C947A0E0C94540E74
:100050000C94A3000C94A3000C94A3000C94A30094
:100060000C94A3000C94A3004E414E494E495459A0
:10007000494E46CDCCCC3D0AD7233C17B7D1387773
:10008000CC2B329595E6241FB14F0A000020410089
:1000900000C84200401C4620BCBE4CCA1B0E5AAED3
:1000A000C59D7400000000240027002A0000000005
:1000B0000800020100000304070000000000000027
:1000C00000010204081020408001020408102001F1
:1000D000020408102000000000250028002B000466
:1000E00004040404040404020202020202030303DF
:1000F00003030300550F11241FBECFEFD8E0DEBF6E
:10010000CDBF24E0AAEFB1E001C01D92A232B20738
:10011000E1F711E0A0E0B1E0E8E7F9E302C0059003
:100120000D92AA3FB107D9F710E0CBE7D0E004C0A9
:100130002197FE010E94AC1ACA37D107C9F70E9465
:100140001C100C94BA1C0C940000CF93DF93FC019C
:100150009091060295AB40E85CE060E070E046AB51
:1001600057AB60AF71AFEF01CC5BDF4F83E08883AB
:1001700012821382148215821286838720E23EE463
:10018000378726872685378535872487118A108A01
:1001900011A212A213A214A210A2138E128E85A174
:1001A0002FEF26A3807C8F7785A311821082A091E8
:1001B0000402B091050224E032E0109729F09D017D
:1001C0000D90BC91A02DF9CFD901ED93FC9381E066
:1001D000890F80930602963008F01882DF91CF9144
:1001E000089590E0FC01E355FF4F2491FC01EF538B
:1001F000FF4F3491FC01E152FF4FE491EE23C9F02F
:10020000222339F0233001F1A8F4213019F12230F2
:1002100029F1F0E0EE0FFF1FEB52FF4FA591B491D3
:100220008FB7F894EC91611126C030953E233C9332
:100230008FBF08952730A9F02830C9F0243049F73E
:10024000809180008F7D03C0809180008F778093A4
:100250008000DFCF84B58F7784BDDBCF84B58F7D01
:10026000FBCF8091B0008F778093B000D2CF809188
:10027000B0008F7DF9CF3E2BDACFCF93DF9390E0A4
:10028000FC01EF53FF4F249181529F4FFC01849159
:100290008823D1F090E0880F991FFC01ED55FF4FA6
:1002A000A591B491FC01EB52FF4FC591D4916230FE
:1002B00071F49FB7F8943C91822F809583238C939F
:1002C000E8812E2B28839FBFDF91CF9108958FB7B0
:1002D000F894EC912E2B2C938FBFF6CF3FB7F89468
:1002E0008091000290910102A0910202B09103025C
:1002F00026B5A89B05C02F3F19F00196A11DB11D81
:100300003FBFBA2FA92F982F8827BC01CD01620FBC
:10031000711D811D911D42E0660F771F881F991F77
:100320004A95D1F708958F929F92AF92BF92CF9244
:10033000DF92EF92FF924B015C010E946E016B0114
:100340007C010E946E016C197D098E099F09683E2F
:10035000734081059105A8F321E0821A9108A10854
:10036000B10888EEC80E83E0D81EE11CF11C811490
:100370009104A104B10429F7FF90EF90DF90CF9092
:10038000BF90AF909F908F900895AF92BF92CF9201
:10039000DF92EF92FF920F931F93CF93DF936C0145
:1003A0007B018B01040F151FEB015E01AE18BF0826
:1003B000C017D10759F06991D601ED91FC910190D8
:1003C000F081E02DC6010995892B79F7C501DF91F0
:1003D000CF911F910F91FF90EF90DF90CF90BF9042
:1003E000AF900895FC01538D448D252F30E0842F6C
:1003F00090E0821B930B541710F0CF96089501974D
:100400000895FC01918D828D981761F0A28DAE0F39
:10041000BF2FB11D5D968C91928D9F5F9F73928FC0
:1004200090E008958FEF9FEF08952FB7F894809193
:10043000070290910802A0910902B0910A022FBF11
:100440008093180290931902A0931A02B0931B0292
:1004500080E192E00E94010297FF26C02FB7F89436
:100460008091070290910802A0910902B0910A02BE
:100470002FBF409118025091190260911A02709199
:100480001B02841B950BA60BB70B409114025091D5
:100490001502609116027091170284179507A6073E
:1004A000B707B0F28FEF9FEF0895FC01918D828D19
:1004B000981731F0828DE80FF11D858D90E0089539
:1004C0008FEF9FEF0895FC01918D228D892F90E091
:1004D000805C9F4F821B91098F739927089580E15B
:1004E00092E00E94630221E0892B09F420E0822F30
:1004F000089580E090E0892B29F00E946F0281111D
:100500000C9400000895FC01A48DA80FB92FB11D13
:10051000A35ABF4F2C91848D90E001968F73992739
:10052000848FA689B7892C93A089B1898C91837017
:1005300080648C93938D848D981306C00288F38910
:10054000E02D80818F7D80830895EF92FF920F933D
:100550001F93CF93DF93EC0181E0888F9B8D8C8D6F
:1005600098131AC0E889F989808185FF15C09FB763
:10057000F894EE89FF896083E889F9898081837026
:10058000806480839FBF81E090E0DF91CF911F91D5
:100590000F91FF90EF900895F62E0B8D10E00F5FF6
:1005A0001F4F0F731127E02E8C8D8E110CC00FB6CC
:1005B00007FCFACFE889F989808185FFF5CFCE0164
:1005C0000E948302F1CFEB8DEC0FFD2FF11DE35A5A
:1005D000FF4FF0829FB7F8940B8FEA89FB898081E7
:1005E0008062CFCFCF93DF93EC01888D8823B9F061
:1005F000AA89BB89E889F9898C9185FD03C080812E
:1006000086FD0DC00FB607FCF7CF8C9185FFF2CFAA
:10061000808185FFEDCFCE010E948302E9CFDF917B
:10062000CF910895FC0195A19F7131F0F89411A22A
:1006300012A213A214A278940895FC0190916F0065
:100640009B7F90936F009091FA019F5F9093FA01C6
:10065000789481E090A1953008F480E09091FA01BF
:10066000992319F091509093FA019091FA01911108
:1006700005C090916F00946090936F0008958F92E1
:100680009F92AF92BF92CF92DF92EF92FF920F9321
:100690001F93CF93DF93EC016A017B018DA18F71D2
:1006A00009F407C1F89489A19AA1ABA1BCA18E015C
:1006B0000B5B1F4FF80180839183A283B3837894EF
:1006C00031972081F801608171818281938123308B
:1006D00009F082C09B01AC018DA18F7109F4E9C0C2
:1006E000C21AD30AE40AF50AFE01E05CFF4FC08299
:1006F000D182E282F3828A8D9B8D892B21F488A19D
:10070000893009F051C146015701F7FE07C088241E
:10071000992454018C189D08AE08BF08CE010E9490
:100720001D03882309F409C18B8518160CF05AC0E3
:100730001C141D041E041F040CF459C080916F008A
:100740008B7F80936F008091FA018F5F8093FA0115
:10075000789449A15AA16BA17CA1F8018081918173
:10076000A281B381481B590B6A0B7B0B141615062B
:10077000160617060CF0D2C049A15AA16BA17CA1A4
:100780008A019B01081B190B2A0B3B0BD901C801DD
:10079000880E991EAA1EBB1E8C8D9D8D28A1293006
:1007A00009F0C5C02A8D3B8D821B930B6E8D7F8D0A
:1007B0000E94571A620F731FCB01B0E0A0E08A833A
:1007C0009B83AC83BD838A819B81AC81BD81880D75
:1007D000991DAA1DBB1D59C030E050E040E00E94A9
:1007E0008D1A7ACF882309F4A9CFF7FEA7CF80917D
:1007F0006F008B7F80936F008091FA018F5F8093F1
:10080000FA01789449A15AA16BA17CA1F8018081D9
:100810009181A281B381481B590B6A0B7B0B141683
:100820001506160617060CF051C049A15AA16BA176
:100830007CA18A019B01081B190B2A0B3B0BD901D8
:10084000C801881A990AAA0ABB0A8C8D9D8D28A115
:10085000293009F044C02A8D3B8D821B930B6E8D8D
:100860007F8D0E94571A620F731FCB01B0E0A0E08A
:1008700088169906AA06BB0664F48A839B83AC8318
:10088000BD8388199909AA09BB098E839F83A8870C
:10089000B9878091FA01882319F081508093FA0179
:1008A0008091FA01811105C080916F00846080936E
:1008B0006F00DF91CF911F910F91FF90EF90DF902C
:1008C000CF90BF90AF909F908F90089549A15AA16B
:1008D0006BA17CA1841B950BA60BB70BB2CFAC010F
:1008E00070E060E0481559056A057B050CF455C0B9
:1008F0000196B0E0A0E08A839B83AC83BD838A81AC
:100900009B81AC81BD8188199909AA09BB098E8395
:100910009F83A887B98788E088A3BBCF49A15AA144
:100920006BA17CA1841B950BA60BB70B31CFBC012F
:100930006F5F7F4F88E088A33FCFC114D104E104EB
:10094000F10409F4B6CF8B85082E000C990B97FFA4
:1009500003C09195819591091C141D041E041F0468
:100960000CF0819590916F009B7F90936F00909118
:10097000FA019F5F9093FA0178941F8A1E8A24E1FE
:1009800030E03F872E871B8A1A8A9DA197FF0AC0F5
:1009900094E098A38B871D8E1C8E8A829B82AC82EA
:1009A000BD8277CF97E0F5CF8B85082E000C990B91
:1009B00097FF03C09195819591091C141D041E0495
:1009C0001F040CF0819590916F009B7F90936F00B6
:1009D0009091FA019F5F9093FA017894F801408119
:1009E0005181628173814C0D5D1D6E1D7F1D09A1BA
:1009F0001AA12BA13CA14A015B01801A910AA20A0B
:100A0000B30A95018401101611061206130624F587
:100A100009A11AA12BA13CA1401B510B620B730B26
:100A20008B874A835B836C837D8381E0CD28CE28CE
:100A3000CF2809F471CF88A1853008F02ACF1F8A0A
:100A40001E8A84E190E09F878E871B8A1A8A8DA177
:100A500087FF0FC084E060CF09A11AA12BA13CA1A0
:100A600048015901841A950AA60AB70AB501A401DA
:100A7000D7CF85E051CF2F923F924F925F926F92E6
:100A80007F928F929F92AF92BF92CF92DF92EF921E
:100A9000FF920F931F93CF93DF93CDB7DEB72E97BF
:100AA0000FB6F894DEBF0FBECDBF9A838983FC01D9
:100AB00095A19F7109F4EEC11A0157FF04C02224C9
:100AC0003324241A350A57FF03C0F1E02F1A3108E6
:100AD00081E828168EE3380620F030E8232E3EE326
:100AE000332E8A014B01E981FA81FE87ED878091DF
:100AF0006F008B7F80936F008091FA018F5F8093EE
:100B0000FA017894672B09F097C187A1882309F42B
:100B100072C124E1A22EB12C1092FA0180916F00D3
:100B2000846080936F00950150E040E060E876E9D2
:100B300088E990E00E948D1A69017A0188EC482EBC
:100B4000512C612C712CCA01B901A30192010E94A0
:100B50008D1A2D833E834F83588769877A878B87C9
:100B60009C87D1015096A70196010E945418A301B9
:100B700092010E948D1A293EFDEF3F074105510564
:100B8000ECF060E47DE586EC90E0A70196010E9420
:100B90008D1A190180E1281A31082131310510F42C
:100BA000312C212CD1015096A70196010E94541896
:100BB00028EC30E040E050E00E948D1A390117FD2A
:100BC00006C0ED85FE85B7AEA6AE35AE24AE8091EB
:100BD0006F008B7F80936F008091FA018F5F80930D
:100BE000FA017894ED85FE85828D938D820D931D9B
:100BF000892B09F4C8C0CF010E941D03882309F482
:100C0000C2C0ED85FE85848995898615970509F40E
:100C1000BAC0F5E0FB8341E050E05A834983ED859B
:100C2000FE85F0A1FC83ED85FE85C280D380E48043
:100C3000F580FB81F150FB83FF2339F01092FA011C
:100C400080916F00846080936F00ED85FE85048D38
:100C5000158D9801205F3F4FD3010E94961824897B
:100C6000358950E040E00E948D1A2901F0E14F1AC9
:100C700051082131310510F4512C412CED85FE85B0
:100C800082AD93ADA816B90629F12414350408F0F5
:100C9000F7C09201AAE0B0E00E9496180115110574
:100CA00009F0E6C06B5F7F4F8F4F9F4F2AE030E027
:100CB00040E050E00E948D1AC90129839A8349813E
:100CC0005A811416150624F081E090E09A838983F6
:100CD00099E09C83ED85FE8506811781208531850D
:100CE000C20169817A810E94571ACB01B0E0A0E06D
:100CF000B701A601401B510B620B730B4817590734
:100D00006A077B0708F0BFC0C201B0E0A0E00C1981
:100D10001D092E093F09080F191F2A1F3B1FF8E064
:100D2000FC834B81442359F040916F004B7F4093EB
:100D30006F004091FA014F5F4093FA017894ED857E
:100D4000FE854281538164817581C416D506E6060D
:100D5000F70619F0FB81F11162CF4C81ED85FE851C
:100D600040A3558E448E49815A81578F468F0097F4
:100D7000A105B10541F082839383A483B5830683E3
:100D80001783208731874D815E81ED85FE855587EC
:100D9000448789859A85918B808B758A648A338E86
:100DA000228E1092FA0180916F00846080936F0010
:100DB000892811F4B12CA12CED85FE85B3AEA2AE2D
:100DC000828D938D2E960FB6F894DEBF0FBECDBFE9
:100DD000DF91CF911F910F91FF90EF90DF90CF9017
:100DE000BF90AF909F908F907F906F905F904F904B
:100DF0003F902F9008958D859E850E941D03882326
:100E0000B9F0ED85FE85828D938D892B19F081E0F7
:100E100087A37FCE82E0ED85FE8587A385A187FF2E
:100E200078CE808D918D9787868783E080A371CE61
:100E300082E0ED85FE85ECCFED85FE8585A187FFFF
:100E400009C087A1823031F4808D918D9787868784
:100E500084E080A35401F9EA8F16F1E69F0620F0A2
:100E600098EAA92E91E6B92EED85FE8517A254CEFB
:100E7000980150E040E00E948D1ACA01B90112CFDA
:100E8000E7E0EC8327CF00E010E0980180E090E0FD
:100E9000DC0147CF90E080E095CFCF93DF93DC017A
:100EA00095969C9195979F71953009F44AC030F4BE
:100EB0009330A9F19430E9F180E038C0963009F41C
:100EC00047C09730C9F7ED0150E040E070E088A5D9
:100ED00099A59A01220F331FFB01042E02C0F5953C
:100EE000E7950A94E2F7240F351FE0FF0FC0FD01DC
:100EF000E20FF31F22A5FC013081232B20834F5FDB
:100F00005F4F23964430510511F7D6CFFD01E20F14
:100F1000F31F22A5FC01308120952323EFCF809180
:100F2000FC01807F682B6093FC0181E0DF91CF9111
:100F300008958091FC018F70F0E16F9FB001112442
:100F4000F1CF8091FD01807F682B6093FD01EDCF93
:100F50008091FD018F7090E1699FB0011124F4CF61
:100F60005F926F927F928F929F92AF92BF92CF9239
:100F7000DF92EF92FF920F931F93CF93DF937894BA
:100F8000C0910402D0910502209709F40DC1B12C43
:100F9000082F10E0AA24A39455E0852E67E0962E32
:100FA00078E0772EE0EFCE2EDD24DA94F2E05F2EAB
:100FB000A3E06A2EB8E8EB2EB3E1FB2E8DA18F7172
:100FC000883049F4F8948AA5E8A5F9A59081809520
:100FD00089238083789488A1853008F4F5C08FA197
:100FE000823009F4C6C08E859F85892B31F08E89A9
:100FF0009F89800F911F9F8B8E8B2E893F898E85B5
:101000009F852817390708F4A0C01F8A1E8A49A1A6
:101010005AA16BA17CA12B85822F022E000C990B6B
:10102000AA0BBB0B840F951FA61FB71F89A39AA3FA
:10103000ABA3BCA3EA85E20FE8300CF413C1E0E0F7
:10104000EA87F8948DA18F71853009F415C1863037
:1010500008F44EC1873009F4F1C108F42AC288307F
:1010600091F4EBA5FCA58B8518160CF05AC29DA532
:101070008081892B8083A092FB019AA5E8A5F9A520
:101080008081892B808378948A819B81AC81BD810A
:101090000197A109B1098A839B83AC83BD838A81AF
:1010A0009B81AC81BD81892B8A2B8B2B09F0F2C0EF
:1010B0008E819F81A885B9850097A105B10509F4A6
:1010C0003DC12B8521952B878A839B83AC83BD8370
:1010D0001E821F821886198698A22C8D3D8D8A8DBE
:1010E0009B8D2817390708F094C18C899D89F901D7
:1010F0007096BF010E94571A7F876E874A895B8965
:10110000840F951F9B8B8A8BE817F90768F44E852F
:101110005F854F5F5F4F5F874E87A601421B530B72
:10112000840F951F9B8B8A8B8A819B81AC81BD81AB
:101130002F5F3F4FA90170E060E0481759076A0729
:101140007B0708F0D3C03D8F2C8F8091FB01482F87
:1011500050E02E853F856E897F89261B370B42170D
:10116000530728F08E859F852E893F89821B8093A7
:10117000FB010990D881C02D209709F01FCF8091E5
:101180000F02882389F0BB2079F0E0910D02F091E5
:101190000E02908180910C028095892380831092A9
:1011A000FE018091FD018EBDDF91CF911F910F91C6
:1011B000FF90EF90DF90CF90BF90AF909F908F9077
:1011C0007F906F905F900895843051F1833089F65D
:1011D0008E899F89800F911F9F8B8E8B2E893F89CF
:1011E0008E859F852817390770F01F8A1E8A8EA169
:1011F0008E3F09F4CFC06DA166FB662760F96A25B2
:101200000E94F100A8A28091FB012E853F854E89A6
:101210005F89241B350B8217130608F4A8CFA2CFD1
:101220008FA1823009F4A5CF8EA18E3F09F47BC037
:101230006DA166FB662760F90E94F100888D998D8B
:101240009F878E878A8D9B8D892B11F588A280912F
:10125000FB012E853F858217130608F488CF8E8503
:101260009F8585CFE7FFECCEE85FEA87F8948DA1F4
:101270008F71853009F0EBCE8091FD01807FEE0FFC
:10128000FF0BE95FFE4F9081892B8093FD0148C0E1
:1012900098A2DDCF88A1873009F41FCF08F057C08E
:1012A000853009F052CF8C859D859F878E878A89EE
:1012B0009B8928893989820F931F893C910508F001
:1012C00070C09B8B8A8B4A815B816C817D812A8D6A
:1012D0003B8DC9010196B0E0A0E084179507A607F1
:1012E000B70708F432CF232B09F42FCF78A22DCFE4
:1012F000833009F4D4C0843009F0C5CE8091FC015C
:101300008F70EE0FFF0BE95FFE4F20813181229538
:101310003295307F3227207F3227822B8093FC0149
:10132000BB24B394B0CEEA85EE0FFF0BE95FFE4F0E
:101330006081CE010E944D07B82E80CF1D8E1C8E7D
:101340008DA187FD72C0FF86EE86A8A2FECE8A30F0
:1013500008F0FBCE2C8D3D8D8A8D9B8D82179307D7
:1013600050F14A815B816C817D81C901B0E0A0E0D0
:1013700084179507A607B70708F498A22115310529
:1013800021F0215031093D8F2C8F8C899D89F901E5
:10139000709622C060E0CE010E944D07B82EA8A230
:1013A00032CF885C91099B8B8A8B8E859F850196B5
:1013B0009F878E8788CF4E8D5F8DB901681B790B13
:1013C0004617570708F086C0241B350B3D8F2C8F1E
:1013D000F90170968C899D89BF010E94571A7F87F9
:1013E0006E874A895B89840F951F9B8B8A8BE817D0
:1013F000F90708F0AACE4E855F854F5F5F4F5F8784
:101400004E87A601421B530B840F951F9B8B8A8B23
:101410009CCE2C853D853F872E87288939893B8B3B
:101420002A8B9D8F8C8F88A290CE888D998D9F87D7
:101430008E8768A241E050E081E08BCEEE0FFF0B7B
:10144000E95FFE4F90818CA9892780FF08C0E8A53D
:10145000F9A52AA5308190FF60C0232B208381FF4E
:1014600008C0EBA5FCA52DA5308191FF52C0232B10
:10147000208382FF08C0EEA5FFA528A9308192FF36
:1014800044C0232B208383FF08C0E9A9FAA98BA9B4
:10149000208193FF36C0822B80839CABF4CD80915A
:1014A000FC01807FEE0FFF0BE95FFE4F9081892BDF
:1014B00035CF8091FD018F70EE0FFF0BE95FFE4F7E
:1014C0002081318122953295307F3227207F32274B
:1014D000822BDBCE88A29D8F8C8F8C859D859F87EC
:1014E0008E871B8A1A8A8FA1813009F02ECE5FA2C7
:1014F0008DA187FF2ACE888D998D9F878E8768A2C0
:1015000024CE809582238083C8CF209523232083F7
:10151000BACF209523232083ACCF2095232320838B
:101520009ECF8DA5908180958923A4CDCF92DF9207
:10153000EF92FF920F931F93CF93DF93EC016A0119
:101540007901AB01770F660B770B01960E943F0381
:10155000A601DD0C660B770BCE01865B9F4F0E94C8
:101560003F03A701FF0C660B770BCE018D569F4FF3
:101570000E943F03A801110F660B770BCE01845226
:101580009F4FDF91CF911F910F91FF90EF90DF90D0
:10159000CF900C943F039F92AF92BF92CF92DF9275
:1015A000EF92FF920F931F93CF93DF9300D0CDB7AD
:1015B000DEB78C01FC01EC5BFF4F8081833009F0CA
:1015C0006BC069834A83CE0101965C016801F12CEE
:1015D000E12CF50191905F01892D90E0FC01E15231
:1015E000FF4FE491F0E0EE0FFF1FEB52FF4F25910C
:1015F0003491F60131A720A7FC01EF53FF4FE4918E
:10160000D701AA0FBB1FAE0DBF1DA00FB11F9A9629
:10161000EC9361E00E943D0160E0892D0E94F100A1
:10162000F3E0CF0ED11CEA94EF2809F086C0FF2426
:10163000F394F801F38685A1807E886085A3F0A2EB
:1016400050E040E068EB7BE0C8010E943B058091E0
:101650000B0281111CC08FB7F894109280009AE1A0
:101660009093810020E43CE930938700209386002A
:1016700024E630E0309389002093880020E931E0AF
:1016800030938B0020938A008FBFF0920B028091E1
:101690006F00846080936F00F80162AD73AD48EC19
:1016A00050E0C8010E943B05F80185A18F71A9F1A6
:1016B00026A937A940AD51ADA0E2B3E00E9454186D
:1016C0006C39F3EE7F07F6E18F079105D4F52CE333
:1016D00030E040E050E00E948D1A922F832FE92ED7
:1016E000F82E29EAE21621E6F20620F088EAE82E32
:1016F00081E6F82EF801A4ADB5AD97010E949618C9
:1017000026AD37AD50E040E00E948D1AA90140950A
:101710005095B701C8010E943B05C8010F900F907A
:10172000DF91CF911F910F91FF90EF90DF90CF90BD
:10173000BF90AF909F900C941203EE24E394F12C91
:1017400048CF98EA81E6CBCFFC0101900020E9F771
:101750003197AF01481B590BBC0180E192E00C941A
:10176000C5018F929F92AF92BF920F931F93CF9319
:10177000DF93CDB7DEB7A1970FB6F894DEBF0FBEEB
:10178000CDBF19A2423008F44AE08E010F5D1F4F11
:10179000842E912CB12CA12CA50194010E946B1ACE
:1017A000E62FB901CA01EA30F4F4E05DD801EE9306
:1017B0008D01232B242B252B79F790E080E01097C7
:1017C00019F0CD010E94A40BA1960FB6F894DEBFCC
:1017D0000FBECDBFDF91CF911F910F91BF90AF9002
:1017E0009F908F900895E95CE1CFBC0190E080E08C
:1017F0004AE00C94B10B0C94A40BCF93DF930E949E
:10180000A40BEC0189E291E00E94A40B8C0F9D1FB8
:10181000DF91CF9108954F925F926F927F928F9256
:101820009F92AF92BF92CF92DF92EF92FF920F936F
:101830001F93CF936B017C01742EAC019B010E941E
:10184000221A882399F08CE291E0CF911F910F9199
:10185000FF90EF90DF90CF90BF90AF909F908F90D0
:101860007F906F905F904F900C94A40B46015701AE
:10187000E894B7F82FEF3FEF4FE75FE7C501B401FA
:101880000E94221A81110DC02FEF3FEF4FE75FE753
:10189000C501B4010E942D1718161CF480E391E0D5
:1018A000D4CF2FEF3FEF4FE75FE4C701B6010E94AF
:1018B000B31918161CF484E391E0C7CF2FEF3FEF64
:1018C0004FE75FECC701B6010E942D1787FDF3CFEC
:1018D00020E030E0A901C701B6010E942D1710E0F9
:1018E00000E087FF0AC06DE280E192E00E94A5025D
:1018F0008C01F7FAF094F7F8F094C0E060E070E043
:1019000080E09FE37C1641F020E030E040E251E4CB
:101910000E941219CF5FF6CFA70196010E94A61868
:101920002B013C010E9484194B015C014AE00E949A
:10193000B10B7C01E00EF11ECC23A9F1C501B4016D
:101940000E9432179B01AC01C301B2010E94A5188D
:101950004B015C016EE280E192E00E94A502E80E7C
:10196000F91EC15000F120E030E040E251E4C50131
:10197000B4010E9493172B013C010E9484194B0172
:10198000CB010E94F50BE80EF91EB40190E080E057
:101990000E9432179B01AC01C301B2010E94A5183D
:1019A0004B015C01DECFC701CF911F910F91FF90DA
:1019B000EF90DF90CF90BF90AF909F908F907F90EF
:1019C0006F905F904F900895FB01DC018D919C9189
:1019D000009761F0608171816115710539F0448172
:1019E00055810E94AC1C21E0892B09F020E0822F58
:1019F0000895FC0180819181009711F00C9480156D
:101A000060E070E0CB010895AF92BF92CF92DF9279
:101A1000EF92FF920F931F93CF93DF93DC01CD9052
:101A2000DC901197C114D10439F01496CD91DC915A
:101A30008C017601209761F4DF91CF911F910F9176
:101A4000FF90EF90DF90CF90BF90AF900895750119
:101A50005701BFEFAB1ABB0AF7018081082E000CBB
:101A6000990B0E940C17892B91F72197CC0DDD1D46
:101A70008881082E000C990B0E940C17892B29F0E5
:101A8000CE15DF0510F02197F3CFAE014F5F5F4F0A
:101A90004E195F09D80115965C934E931497CE1496
:101AA000DF0420F4B701C6010E949C1CD801ED910F
:101AB000FC91119714968D919C91E80FF91F10825B
:101AC000BBCF0F931F93CF93DF93EC018881998154
:101AD000009759F02A813B812617370730F081E0C3
:101AE000DF91CF911F910F9108958B016F5F7F4F11
:101AF0000E94D71B009759F0998388831B830A8320
:101B00002C813D81232B59F7FC011082E8CF80E026
:101B1000E7CFFC0180819181009711F00C944E1B5E
:101B20000895EF92FF920F931F93CF93DF93EC01F1
:101B30007B01198218821B821A821D821C82FB0182
:101B400001900020E9F731978F01061B170BB801B0
:101B50000E94610D28813981811113C02115310541
:101B600019F0C9010E944E1B198218821D821C8225
:101B70001B821A82DF91CF911F910F91FF90EF90FE
:101B800008951D830C83B701C901DF91CF911F9187
:101B90000F91FF90EF900C94A51CEF92FF920F9382
:101BA0001F93CF93DF9300D0CDB7DEB78C016BE2EC
:101BB00071E00E94910D0E94150297FD21C08A30AC
:101BC0009105F1F089831A82F801E480F580FFEF36
:101BD000EF1AFF0AB701C8010E94610D882359F36B
:101BE000F8012081318184819581BE016F5F7F4F33
:101BF000820F931F0E94A51CF801F582E482DBCFBF
:101C0000C8010F900F90DF91CF911F910F91FF901E
:101C1000EF9008951F920F920FB60F9211242F93F9
:101C20003F938F939F93AF93BF93809107029091BF
:101C30000802A0910902B0910A023091FF0123E04D
:101C4000230F2D3758F50196A11DB11D2093FF01DB
:101C50008093070290930802A0930902B0930A02AE
:101C60008091000290910102A0910202B0910302C2
:101C70000196A11DB11D8093000290930102A093D3
:101C80000202B0930302BF91AF919F918F913F9158
:101C90002F910F900FBE0F901F90189526E8230FDD
:101CA0000296A11DB11DD2CF1F920F920FB60F92B7
:101CB00011242F933F934F935F936F937F938F9351
:101CC0009F93AF93BF93EF93FF9380E192E00E94C5
:101CD0008302FF91EF91BF91AF919F918F917F917F
:101CE0006F915F914F913F912F910F900FBE0F9089
:101CF0001F9018951F920F920FB60F9211242F93D9
:101D00008F939F93EF93FF93E0912002F091210234
:101D10008081E0912602F091270282FD1BC0908114
:101D2000809129028F5F8F7320912A02821741F0E0
:101D3000E0912902F0E0E05FFD4F958F809329024A
:101D4000FF91EF919F918F912F910F900FBE0F9068
:101D50001F9018958081F4CF1F920F920FB60F92AB
:101D600011248F939F93EF93FF938091FE0191E055
:101D7000980F9093FE0181110CC08091FC018EBDE3
:101D8000FF91EF919F918F910F900FBE0F901F9039
:101D90001895E0910D02F0910E02808190910C0255
:101DA000892B80831092FE01EBCF1F920F920FB60A
:101DB0000F9211242F933F934F935F936F937F93D1
:101DC0008F939F93AF93BF93CF93EF93FF9389E14B
:101DD0008093FB01C09100018C2F0E94B00780E02E
:101DE00090E0892B19F08C2F0E940000F89420912C
:101DF000FB01213009F040C0809184009091850062
:101E000020918A0030918B00821B930B893E23E046
:101E1000920710F0805C93468738914030F18091B2
:101E20008400909185000A9681342CE9920710F085
:101E300080549C4990938B0080938A007894809181
:101E4000FB0180930001FF91EF91CF91BF91AF9182
:101E50009F918F917F916F915F914F913F912F91C2
:101E60000F900FBE0F901F90189580918A0090914F
:101E70008B0080579E4FD8CF80918A0090918B0025
:101E8000B0E0A0E0B595A7959795879548EC249F7D
:101E900090011124820F931F81322EE4920710F0DB
:101EA00080529E44880F991FC5CF8F929F92AF9208
:101EB000BF92CF92DF92EF92FF920F931F93CF9337
:101EC000DF93E0E1F2E01382128288EE93E0A0E07B
:101ED000B0E084839583A683B7838BE191E09183FF
:101EE000808385EC90E09587848784EC90E09787E9
:101EF000868780EC90E0918B808B81EC90E0938BD7
:101F0000828B82EC90E0958B848B86EC90E0978BB3
:101F1000868B118E128E138E148EC7EFD2E081E065
:101F2000888388EF92E00E94A50081E493E00E94FC
:101F3000A5008AE893E00E94A50083ED93E00E944B
:101F4000A500EDEAF2E0C12CD12C80ECE82E81EC6A
:101F5000F82EC086D186E286F386812C912C94ECF3
:101F6000A92E91ECB92E84869586A686B78680E048
:101F700090E0A6E1B2E4808B918BA28BB38B00E062
:101F800010E022E432E4048B158B268B378B40E083
:101F900050E06CEC71E4408F518F628F738F848EB0
:101FA000958EA68EB78E80A391A3A2A3B3A304A3FC
:101FB00015A326A337A340A751A762A773A700E0E4
:101FC00010E02CEB31E404A715A726A737A780ABB8
:101FD00091ABA2ABB3AB40E050E060E472E444AB41
:101FE00055AB66AB77ABC0AED1AEE2AEF3AE04AFED
:101FF00015AF26AF37AF8093ED029093EE02A0931A
:10200000EF02B093F0024093F1025093F20260931A
:10201000F3027093F402D093F602C093F502DF91BD
:10202000CF911F910F91FF90EF90DF90CF90BF90D5
:10203000AF909F908F900895CF93DF93CDB7DEB789
:10204000C654D1090FB6F894DEBF0FBECDBF789449
:1020500084B5826084BD84B5816084BD85B58260AD
:1020600085BD85B5816085BD80916E00816080935E
:102070006E001092810080918100826080938100C7
:1020800080918100816080938100809180008160D7
:10209000809380008091B10084608093B100809132
:1020A000B00081608093B00080917A00846080935A
:1020B0007A0080917A00826080937A0080917A0021
:1020C000816080937A0080917A00806880937A00A2
:1020D0001092C100E0912002F091210282E0808301
:1020E000E0911C02F0911D021082E0911E02F0911D
:1020F0001F0280E1808310922802E0912402F09177
:10210000250286E08083E0912202F0912302808103
:1021100080618083E0912202F091230280818860B7
:102120008083E0912202F091230280818068808385
:10213000E0912202F091230280818F7D808364E60A
:1021400070E080E090E00E94930188E391E00E94BB
:10215000FD0B87E491E00E94FB0B61E088E00E94A8
:102160003D0162E081E10E943D0162E08AE00E945F
:102170003D0162E089E00E943D0162E08BE00E9447
:102180003D014DE050E06CE070E088EF92E00E948D
:10219000CB0A46E050E063E070E081E493E00E9407
:1021A000CB0A45E050E062E070E08AE893E00E94EC
:1021B000CB0A47E050E064E070E083ED93E00E94DA
:1021C000CB0A81E08093F70261E088E00E94F10091
:1021D00080E0282E80E0382E80E192E00E946302A9
:1021E000181619060CF04BC0CE0149960E94CD0D71
:1021F000CE0149960E94040DE98CFA8CE114F10499
:1022000071F0F70181917F01882349F0082E000CBD
:10221000990B0E94941CF70131978083F2CF6BE4F5
:1022200071E0CE0101960E94910DBE016F5F7F4F5C
:10223000CE0149960E94E40CF82ECE0101960E9430
:10224000890DFF20A1F1E091F502F091F602808165
:10225000882309F182E591E00E94FD0BE091F502EF
:10226000F091F602108260E088E00E94F10087E4BD
:1022700091E00E94FB0BCE0149960E94890D21142A
:10228000310409F4A9CF0E946F02882309F4A4CF76
:102290000E940000A1CF8BE491E00E94FD0BE09131
:1022A000F502F091F60281E0808361E0DDCF6AE51E
:1022B00071E0CE0101960E94910DBE016F5F7F4FCC
:1022C000CE0149960E94E40CF82ECE0101960E94A0
:1022D000890DFF20E1F084E691E00E94FD0BE09083
:1022E000F502F090F602C70101960E941203C701A1
:1022F000865B9F4F0E941203C7018D569F4F0E941D
:102300001203C70184529F4F0E941203B0CF60E7AF
:1023100071E0CE0101960E94910DBE016F5F7F4F6B
:10232000CE0149960E94E40CF82ECE0101960E943F
:10233000890DFF2099F085E791E00E94FD0B10E0E8
:1023400000E030E020E050E040E070E060E08091AC
:10235000F5029091F6020E94960A89CF6CE771E02F
:10236000CE0101960E94910DBE016F5F7F4FCE019D
:1023700049960E94E40CF82ECE0101960E94890D28
:10238000FF2009F4EAC280E891E00E94FD0B88E892
:1023900091E00E94FB0B80E192E00E946302892B96
:1023A00039F46AE070E080E090E00E949301F3CF9E
:1023B000CE010D960E94CD0D82E991E00E94FB0BAB
:1023C00080E192E00E946302892B39F46AE070E0B8
:1023D00080E090E00E949301F3CFCE0107960E9427
:1023E000CD0D8CE991E00E94FB0B80E192E00E9410
:1023F0006302892B39F46AE070E080E090E00E948B
:102400009301F3CFCE0101960E94CD0DCE010D9622
:102410000E94040DCE0107960E94040DCE01019684
:102420000E94040D8D859E85812C912C540100976E
:1024300021F00E947C154B015C018F819885C12C95
:10244000D12C7601009721F00E947C156B017C0154
:1024500089819A81412C512C3201009721F00E94F0
:102460007C152B013C0186EA91E00E94FB0B42E0C7
:10247000C501B4010E940B0C83EB91E00E94FB0BA1
:1024800042E0C701B6010E940B0C83EB91E00E9471
:10249000FB0B42E0C301B2010E940B0C89E291E008
:1024A0000E94A40B20E030E040E850E4C501B401F4
:1024B0000E94A5186F8F78A389A39AA320E030E02B
:1024C00040E850E4C701B6010E94A5186BA37CA3A5
:1024D0008DA39EA320E030E040E850E4C501B401A4
:1024E0000E94A6184B015C0120E030E040E850E477
:1024F000C701B6010E94A6186FA378A789A79AA75B
:102500002F8D38A149A15AA16091B5027091B602F0
:102510008091B7029091B8020E94A5186B017C01CE
:102520002BA13CA14DA15EA16091B9027091BA02AC
:102530008091BB029091BC020E94A5186BA77CA75A
:102540008DA79EA7A30192016091BD027091BE026A
:102550008091BF029091C0020E94A5186FA778AB2E
:1025600089AB9AABA50194016091C5027091C60236
:102570008091C7029091C8020E94A5186BAB7CABFA
:102580008DAB9EAB2BA13CA14DA15EA16091C90278
:102590007091CA028091CB029091CC020E94A51842
:1025A0006BA37CA38DA39EA3A30192016091CD0296
:1025B0007091CE028091CF029091D0020E94A51816
:1025C0006FAB78AF89AF9AAFA50194016091D50246
:1025D0007091D6028091D7029091D8020E94A518DE
:1025E0004B015C012FA138A549A55AA56091D902DC
:1025F0007091DA028091DB029091DC020E94A518B2
:102600006BAF7CAF8DAF9EAFA30192016091DD02F5
:102610007091DE028091DF029091E0020E94A51885
:1026200023966CAF7DAF8EAF9FAF23972F8D38A1D0
:1026300049A15AA16091E5027091E6028091E702FA
:102640009091E8020E94A5186F8F78A389A39AA39E
:102650002FA138A549A55AA56091E9027091EA0217
:102660008091EB029091EC020E94A5186FA378A7CD
:1026700089A79AA7A30192016091ED027091EE02E1
:102680008091EF029091F0020E94A51827966CAFFE
:102690007DAF8EAF9FAF2797A7019601C701B60107
:1026A0000E9493176B017C012BA53CA54DA55EA54F
:1026B000CA01B9010E9493179B01AC01C701B60181
:1026C0000E94A6186B017C012FA538A949A95AA917
:1026D000CA01B9010E9493179B01AC01C701B60161
:1026E0000E94A6180E94E2196BA77CA78DA79EA73F
:1026F0002BA93CA94DA95EA9CA01B9010E94931753
:102700006B017C012BA13CA14DA15EA1CA01B901C5
:102710000E9493179B01AC01C701B6010E94A61845
:102720006B017C012FA938AD49AD5AADCA01B90181
:102730000E9493179B01AC01C701B6010E94A61825
:102740000E94E2196B017C01A5019401C501B4014D
:102750000E9493174B015C012BAD3CAD4DAD5EADBE
:10276000CA01B9010E9493179B01AC01C501B401D4
:102770000E94A6184B015C0123962CAD3DAD4EADD9
:102780005FAD2397CA01B9010E9493179B01AC0169
:10279000C501B4010E94A6180E94E2194B015C0118
:1027A0002F8D38A149A15AA1CA01B9010E949317DE
:1027B0002B013C012FA138A549A55AA5CA01B90191
:1027C0000E9493179B01AC01C301B2010E94A6189D
:1027D0002B013C0127962CAD3DAD4EAD5FAD27974B
:1027E000CA01B9010E9493179B01AC01C301B20158
:1027F0000E94A6180E94E2192B013C01A701960134
:102800006091D1027091D2028091D3029091D40252
:102810000E94A5186B017C01A50194016091E10261
:102820007091E2028091E3029091E4020E94A51867
:102830004B015C01A30192016091F1027091F202DF
:102840008091F3029091F4020E94A5182B013C01A3
:102850002BA53CA54DA55EA56091C1027091C20259
:102860008091C3029091C4020E94A5182CE739ED13
:1028700040EA5BE30E9412190E94B8190E94841971
:102880007093AE026093AD022CE739ED40EA5BE352
:10289000C701B6010E9412190E94B8190E9484193A
:1028A0007093B0026093AF022CE739ED40EA5BE32E
:1028B000C501B4010E9412190E94B8190E9484191E
:1028C0007093B2026093B1022CE739ED40EA5BE30A
:1028D000C301B2010E9412190E94B8190E94841902
:1028E0007093B4026093B30287EB91E00E94FB0BFC
:1028F0008091AD029091AE020E94F50B83EB91E0C6
:102900000E94FB0B8091AF029091B0020E94F50BE8
:1029100083EB91E00E94FB0B8091B1029091B20297
:102920000E94F50B83EB91E00E94FB0B8091B302B8
:102930009091B4020E94F50B89E291E00E94A40BF1
:10294000CE0101960E94890DCE0107960E94890D45
:10295000CE010D960E94890D8ACC65EC71E0CE0106
:1029600001960E94910DBE016F5F7F4FCE01499687
:102970000E94E40CF82ECE0101960E94890DFF20E2
:1029800009F475CC89EC91E00E94FD0B82ED91E099
:102990000E94FB0B80E192E00E946302892B39F4D4
:1029A0006AE070E080E090E00E949301F3CFCE01F6
:1029B00043960E94CD0D8CED91E00E94FB0B80E1CF
:1029C00092E00E946302892B39F46AE070E080E0B3
:1029D00090E00E949301F3CFCE010D960E94CD0DA1
:1029E00086EE91E00E94FB0B80E192E00E94630280
:1029F000892B39F46AE070E080E090E00E94930156
:102A0000F3CFCE0107960E94CD0D80EF91E00E949A
:102A1000FB0B80E192E00E946302892B39F46AE0AB
:102A200070E080E090E00E949301F3CFCE01019628
:102A30000E94CD0DCE0143960E94040DCE010D964D
:102A40000E94040DCE0107960E94040DCE0101964E
:102A50000E94040DCE0143960E94F90C6B01CE0139
:102A60000D960E94F90C6F8F78A389A39AA3CE01CB
:102A700007960E94F90C4B01CE0101960E94F90CB9
:102A80002B0187EB91E00E94FB0BC6010E94F50B26
:102A900083EB91E00E94FB0B8F8D98A10E94F50BB8
:102AA00083EB91E00E94FB0BC4010E94F50B83EBCA
:102AB00091E00E94FB0BC2010E94F50B89E291E0BC
:102AC0000E94A40B820194014F8D58A1B601809100
:102AD000F5029091F6020E94960ACE0101960E949C
:102AE000890DCE0107960E94890DCE010D960E9498
:102AF000890DCE0143962ECF662777270C94BC15FF
:102B00001F93FC0199278827BC01E894119110328A
:102B1000E9F3193010F01E30C8F31B3251F01D32AA
:102B200049F4689406C00E94A715610F711D811DAC
:102B3000911D119110531A30B0F33EF49095809589
:102B4000709561957F4F8F4F9F4F1F910895592F1B
:102B5000482F372F262F660F771F881F991F660F64
:102B6000771F881F991F620F731F841F951F660FA1
:102B7000771F881F991F0895B0E0A0E0E2ECF5E10F
:102B80000C9465185C017B016115710519F0DB017E
:102B90008D939C9385010F5F1F4FF501D0818D2F81
:102BA00090E00E940C176C01892BB9F5DD32B9F564
:102BB0000F5F1F4FD5011196DC91C1E05801F1E084
:102BC000AF1AB10843E050E060E770E0C5010E9431
:102BD0001517892B69F5680182E0C80ED11C45E004
:102BE00050E06BE670E0C6010E941517892B21F4B6
:102BF000680197E0C90ED11CE114F10419F0D70166
:102C0000CD92DC9260E070E080E89FEFC111FFC0E0
:102C100060E070E080E89FE7FAC05801BBCFDB328C
:102C200029F485010E5F1F4FF501D181C0E0C6CFA9
:102C300043E050E068E670E0C5010E941517892B5B
:102C4000E9F0F80110E000E020E030E0A9015F01C8
:102C5000B0ED8B2E8D0E89E08815C8F19C2E6894FE
:102C600091F88C2F8870C2FF16C0811102C00F5FCF
:102C70001F4F3196D501DC91C92DE9CFE114F10444
:102C800029F00E5F1F4FF7011183008360E070E0B1
:102C900080EC9FE7BCC0882311F001501109A5E02A
:102CA000B0E00E9454189B01AC01220F331F441F57
:102CB000551F280D311D411D511D283999E939072E
:102CC000490799E15907A8F2C6609C2ED2CFAEEF12
:102CD0008A1206C0C3FD3CC09C2E689493F8C9CFED
:102CE000DF7DD534A9F580818D3239F4C061DF01F3
:102CF0001296818162E070E006C0DF018B32C1F381
:102D0000119661E070E080535D01A61AB70A8A301F
:102D1000F8F4E0E8CE16ECE0DE065CF4B601660FEF
:102D2000771F660F771FC60ED71ECC0CDD1CC80E92
:102D3000D11C5D01FFEFAF1ABF0A8C9180538A301E
:102D4000A8F1C4FF03C0D194C194D1080C0D1D1D7E
:102D5000C1FF09C0E114F10431F081E0A81AB10803
:102D6000D701AD92BC92CA01B9010E943217C3705B
:102D7000C33009F490584B015C0120E030E0A90118
:102D80000E942D17882309F440C0CFE9D0E017FF37
:102D900005C0119501951109C7E8D0E06E01B8E1B1
:102DA000CB1AD10880E2E82EF12C0FC0D501B1CFAB
:102DB000FE0125913591459154910E191F09C501C8
:102DC000B4010E9493174B015C01D501C4010E159B
:102DD0001F0574F72497F594E794CC16DD06A9F740
:102DE0008A2F880F8B2F881F8F3F49F020E030E01B
:102DF000A901C501B4010E942D17811106C082E20C
:102E000090E090931D0480931C04C501B401CDB7DC
:102E1000DEB7ECE00C94811891110C94001880320C
:102E200019F089508550C8F70895FB01DC01415025
:102E3000504088F08D9181341CF08B350CF4805E0D
:102E4000659161341CF06B350CF4605E861B61117A
:102E500071F3990B0895881BFCCF0E946F1708F43B
:102E600081E00895E89409C097FB3EF49095809521
:102E7000709561957F4F8F4F9F4F9923A9F0F92F40
:102E800096E9BB279395F695879577956795B795BE
:102E9000F111F8CFFAF4BB0F11F460FF1BC06F5FA4
:102EA0007F4F8F4F9F4F16C0882311F096E911C0B6
:102EB000772321F09EE8872F762F05C0662371F0D7
:102EC00096E8862F70E060E02AF09A95660F771FEB
:102ED000881FDAF7880F9695879597F90895990FC7
:102EE0000008550FAA0BE0E8FEEF16161706E807D4
:102EF000F907C0F012161306E407F50798F0621BF5
:102F0000730B840B950B39F40A2661F0232B242BC9
:102F1000252B21F408950A2609F4A140A6958FEFE8
:102F2000811D811D08950E94A6170C941A180E94F5
:102F30000C1838F00E94131820F0952311F00C940F
:102F400003180C94091811240C944E180E942B1885
:102F500070F3959FC1F3950F50E0551F629FF001EC
:102F6000729FBB27F00DB11D639FAA27F00DB11D05
:102F7000AA1F649F6627B00DA11D661F829F22278E
:102F8000B00DA11D621F739FB00DA11D621F839F15
:102F9000A00D611D221F749F3327A00D611D231FEB
:102FA000849F600D211D822F762F6A2F11249F5739
:102FB00050409AF0F1F088234AF0EE0FFF1FBB1F3C
:102FC000661F771F881F91505040A9F79E3F5105FB
:102FD00080F00C9403180C944E185F3FE4F3983E75
:102FE000D4F3869577956795B795F795E7959F5FA5
:102FF000C1F7FE2B880F911D9695879597F9089537
:1030000099278827089597F99F6780E870E060E026
:1030100008959FEF80EC089500240A941616170671
:1030200018060906089500240A94121613061406B9
:1030300005060895092E0394000C11F4882352F01C
:10304000BB0F40F4BF2B11F460FF04C06F5F7F4FD4
:103050008F4F9F4F089557FD9058440F551F59F0BB
:103060005F3F71F04795880F97FB991F61F09F3F75
:1030700079F087950895121613061406551FF2CF9E
:103080004695F1DF08C0161617061806991FF1CFEE
:1030900086957105610508940895E894BB27662715
:1030A0007727CB0197F908950E949618A59F900D58
:1030B000B49F900DA49F800D911D112408952F920F
:1030C0003F924F925F926F927F928F929F92AF92B8
:1030D000BF92CF92DF92EF92FF920F931F93CF9305
:1030E000DF93CDB7DEB7CA1BDB0B0FB6F894DEBF9C
:1030F0000FBECDBF09942A88398848885F846E84C2
:103100007D848C849B84AA84B984C884DF80EE800B
:10311000FD800C811B81AA81B981CE0FD11D0FB614
:10312000F894DEBF0FBECDBFED010895A29FB001A0
:10313000B39FC001A39F700D811D1124911DB29FEB
:10314000700D811D1124911D08955058BB27AA2789
:103150000E94BD180C941A180E940C1838F00E9496
:10316000131820F039F49F3F19F426F40C94091831
:103170000EF4E095E7FB0C940318E92F0E942B183E
:1031800058F3BA17620773078407950720F079F49C
:10319000A6F50C944D180EF4E0950B2EBA2FA02D29
:1031A0000B01B90190010C01CA01A0011124FF27F4
:1031B000591B99F0593F50F4503E68F11A16F040EF
:1031C000A22F232F342F4427585FF3CF46953795EE
:1031D0002795A795F0405395C9F77EF41F16BA0BB3
:1031E000620B730B840BBAF09150A1F0FF0FBB1F61
:1031F000661F771F881FC2F70EC0BA0F621F731FAA
:10320000841F48F4879577956795B795F7959E3F06
:1032100008F0B0CF9395880F08F09927EE0F979597
:10322000879508950E9426190C941A180E94131865
:1032300058F00E940C1840F029F45F3F29F00C94DC
:10324000031851110C944E180C9409180E942B1855
:1032500068F39923B1F3552391F3951B550BBB27C5
:10326000AA2762177307840738F09F5F5F4F220F0A
:10327000331F441FAA1FA9F335D00E2E3AF0E0E801
:1032800032D091505040E695001CCAF72BD0FE2F4B
:1032900029D0660F771F881FBB1F261737074807DF
:1032A000AB07B0E809F0BB0B802DBF01FF27935897
:1032B0005F4F3AF09E3F510578F00C9403180C9440
:1032C0004E185F3FE4F3983ED4F386957795679563
:1032D000B795F7959F5FC9F7880F911D96958795CC
:1032E00097F90895E1E0660F771F881FBB1F6217EB
:1032F00073078407BA0720F0621B730B840BBA0BA9
:10330000EE1F88F7E09508950E94331888F09F57C4
:1033100098F0B92F9927B751B0F0E1F0660F771FF9
:10332000881F991F1AF0BA95C9F714C0B13091F0EF
:103330000E944D18B1E008950C944D18672F782F16
:103340008827B85F39F0B93FCCF3869577956795B4
:10335000B395D9F73EF490958095709561957F4F20
:103360008F4F9F4F08950E946F1708F48FEF0895B5
:103370000E943318E8F09E37E8F09639B8F49E388A
:1033800048F4672F782F8827985FF9CF869577952F
:10339000679593959539D0F3B62FB1706B0F711D6A
:1033A000811D20F487957795679593950C94271A3E
:1033B0000C94421A0C944E1819F416F40C94091833
:1033C0000C94421A0E943318B8F39923C9F3B6F348
:1033D0009F57550B87FF0E94501A0024A0E640EA31
:1033E000900180585695979528F4805C660F771F5A
:1033F000881F20F026173707480730F4621B730B2D
:10340000840B202931294A2BA6951794079420254F
:1034100031254A2758F7660F771F881F20F0261797
:103420003707480730F4620B730B840B200D311DF6
:10343000411DA09581F7B901842F9158880F969569
:10344000879508950E946F17880B990B089588231C
:1034500071F4772321F09850872B762F07C06623CD
:1034600011F499270DC09051862B70E060E02AF08E
:103470009A95660F771F881FDAF7880F96958795BC
:1034800097F908959F3F31F0915020F487957795F3
:103490006795B795880F911D9695879597F908952B
:1034A00091505040660F771F881FD2F70895AA1BCE
:1034B000BB1B51E107C0AA1FBB1FA617B70710F01F
:1034C000A61BB70B881F991F5A95A9F78095909551
:1034D000BC01CD010895A1E21A2EAA1BBB1BFD0160
:1034E0000DC0AA1FBB1FEE1FFF1FA217B307E407E3
:1034F000F50720F0A21BB30BE40BF50B661F771F3B
:10350000881F991F1A9469F760957095809590951A
:103510009B01AC01BD01CF010895052E97FB1EF460
:1035200000940E94A41A57FD07D00E946B1A07FC52
:1035300003D04EF40C94A41A5095409530952195E3
:103540003F4F4F4F5F4F08959095809570956195CF
:103550007F4F8F4F9F4F0895EE0FFF1F0590F491FF
:10356000E02D09940F931F93CF93DF938230910541
:1035700010F482E090E0E0912004F091210430E02A
:1035800020E0B0E0A0E0309799F42115310509F46E
:103590004AC0281B390B24303105D8F58A819B811C
:1035A0006115710589F1FB0193838283FE0111C0CE
:1035B000408151810281138148175907E0F0481773
:1035C000590799F4109761F012960C93129713967D
:1035D0001C933296CF01DF91CF911F910F910895E7
:1035E0000093200410932104F4CF2115310551F0EC
:1035F0004217530738F0A901DB019A01BD01DF0131
:10360000F801C1CFEF01F9CF9093210480932004FA
:10361000CDCFFE01E20FF31F819391932250310928
:1036200039832883D7CF20911E0430911F04232B88
:1036300041F4209103013091040130931F04209341
:103640001E0420910101309102012115310541F440
:103650002DB73EB74091050150910601241B350B53
:10366000E0911E04F0911F04E217F307A0F42E1B53
:103670003F0B2817390778F0AC014E5F5F4F2417D6
:10368000350748F04E0F5F1F50931F0440931E04F0
:10369000819391939FCFF0E0E0E09CCFCF93DF93B5
:1036A0000097E9F0FC01329713821282A091200466
:1036B000B0912104ED0130E020E01097A1F42081C9
:1036C0003181820F931F20911E0430911F0428170F
:1036D000390709F061C0F0931F04E0931E04DF91E5
:1036E000CF910895EA01CE17DF07E8F54A815B81A3
:1036F0009E0141155105B1F7E901FB83EA83499128
:103700005991C40FD51FEC17FD0761F48081918199
:103710000296840F951FE9019983888382819381A2
:103720009B838A83F0E0E0E012968D919C91139741
:103730000097B9F52D913C911197CD010296820F1A
:10374000931F20911E0430911F042817390739F662
:10375000309751F51092210410922004B0931F0469
:10376000A0931E04BCCFD383C28340815181840FB8
:10377000951FC817D90761F44E5F5F4F8881998103
:10378000480F591F518340838A819B819383828391
:103790002115310509F0B0CFF0932104E093200406
:1037A0009ECFFD01DC01C0CF13821282D7CFB0E0E3
:1037B000A0E0EDEDFBE10C9461188C01009751F451
:1037C000CB010E94B21A8C01C801CDB7DEB7E0E18F
:1037D0000C947D18FC01E60FF71F9C012250310963
:1037E000E217F30708F49DC0D901CD91DC91119740
:1037F000C617D70798F0C530D10530F3CE0104972E
:103800008617970708F3C61BD70B2297C193D1934E
:103810006D937C93CF010E944E1BD6CF5B01AC1AF7
:10382000BD0A4C018C0E9D1EA0912004B091210474
:10383000512C412CF12CE12C109731F580911E0474
:1038400090911F048815990509F05CC0461657062B
:1038500008F058C08091010190910201009741F455
:103860008DB79EB74091050150910601841B950BC1
:10387000E817F90708F055C0F0931F04E0931E0401
:10388000F90171836083A0CF8D919C91119712965D
:103890006C90129713967C901397A815B90559F55B
:1038A0006C0142E0C40ED11CCA14DB0420F1AC014F
:1038B0004A195B09DA011296159780F062827382C9
:1038C00051834083D9016D937C93E114F10471F02D
:1038D000D7011396FC93EE93129776CF22968C0F16
:1038E0009D1FF90191838083F301EFCFF0932104B1
:1038F000E093200469CF4816590608F42C017D0195
:10390000D3019ACFCB010E94B21A7C01009749F0F3
:10391000AE01B8010E949C1CC8010E944E1B870189
:1039200053CF10E000E050CF9111089581568A5195
:1039300008F4805285580895FB01DC0102C0019013
:103940000D9241505040D8F70895FB01DC010190E1
:103950000D920020E1F70895FB01DC014150504039
:1039600030F08D910190801919F40020B9F7881B6F
:10397000990B0895F894FFCF010000220480000302
:10398000000200060004000C00080009000100000D
:10399000000000A502C501F201F202630201025516
:1039A000020D0A006E616E00696E66006F76660039
:1039B0004341424C4520434F4E534F4C453A003E05
:1039C0003E3E00454E41424C450044495341424C25
:1039D000450043414C4942524154450043414C4902
:1039E00042524154494F4E00484F4D4500484F4DBB
:1039F000494E47004A4F47004A4F4747494E470004
:103A00005820434F4F52443A3E005920434F4F52A3
:103A1000443A3E005A20434F4F52443A3E004A4FE8
:103A20004747494E4720544F3A2000207C200052FF
:103A30004157204D4F564520544F3A200052415790
:103A400000524157204D4F444500412053544550AA
:103A5000533A3E00422053544550533A3E004320CF
:103A600053544550533A3E00442053544550533A22
:023A70003E0016
:107E0000112484B714BE81FFF0D085E080938100F7
:107E100082E08093C00088E18093C10086E0809377
:107E2000C20080E18093C4008EE0C9D0259A86E02C
:107E300020E33CEF91E0309385002093840096BBD3
:107E4000B09BFECF1D9AA8958150A9F7CC24DD24C4
:107E500088248394B5E0AB2EA1E19A2EF3E0BF2EE7
:107E6000A2D0813461F49FD0082FAFD0023811F036
:107E7000013811F484E001C083E08DD089C08234E0
:107E800011F484E103C0853419F485E0A6D080C0E4
:107E9000853579F488D0E82EFF2485D0082F10E0AE
:107EA000102F00270E291F29000F111F8ED06801E7
:107EB0006FC0863521F484E090D080E0DECF843638
:107EC00009F040C070D06FD0082F6DD080E0C81688
:107ED00080E7D80618F4F601B7BEE895C0E0D1E017
:107EE00062D089930C17E1F7F0E0CF16F0E7DF06D8
:107EF00018F0F601B7BEE89568D007B600FCFDCFD4
:107F0000A601A0E0B1E02C9130E011968C91119780
:107F100090E0982F8827822B932B1296FA010C0160
:107F200087BEE89511244E5F5F4FF1E0A038BF0790
:107F300051F7F601A7BEE89507B600FCFDCF97BE46
:107F4000E89526C08437B1F42ED02DD0F82E2BD052
:107F50003CD0F601EF2C8F010F5F1F4F84911BD097
:107F6000EA94F801C1F70894C11CD11CFA94CF0C13
:107F7000D11C0EC0853739F428D08EE10CD085E9AC
:107F80000AD08FE07ACF813511F488E018D01DD067
:107F900080E101D065CF982F8091C00085FFFCCF94
:107FA0009093C60008958091C00087FFFCCF809118
:107FB000C00084FD01C0A8958091C6000895E0E648
:107FC000F0E098E1908380830895EDDF803219F02E
:107FD00088E0F5DFFFCF84E1DECF1F93182FE3DFCA
:107FE0001150E9F7F2DF1F91089580E0E8DFEE27F6
:047FF000FF270994CA
:027FFE00040479
:00000001FF
