:100000000C9453000C947B000C947B000C947B00AC
:100010000C947B000C947B000C947B000C947B0074
:100020000C947B000C947B000C947B000C947B0064
:100030000C947B000C947B000C947B000C947B0054
:100040000C9478040C947B000C94E8040C94C20487
:100050000C947B000C947B000C947B000C947B0034
:100060000C947B000C947B004E414E494E495459F0
:10007000494E46CDCCCC3D0AD7233C17B7D1387773
:10008000CC2B329595E6241FB14F0A000020410089
:1000900000C84200401C4620BCBE4CCA1B0E5AAED3
:1000A000C59D74001A0511241FBECFEFD8E0DEBF36
:1000B000CDBF22E0A8E9B1E001C01D92A434B2078F
:1000C000E1F711E0A0E0B1E0E2E7FAE102C005905B
:1000D0000D92A839B107D9F710E0C3E5D0E004C00C
:1000E0002197FE010E94290BC235D107C9F70E9452
:1000F00047050C94370D0C9400003FB7F89480919D
:10010000990190919A01A0919B01B0919C0126B513
:10011000A89B05C02F3F19F00196A11DB11D3FBF3F
:10012000BA2FA92F982F8827BC01CD01620F711D0E
:10013000811D911D42E0660F771F881F991F4A9508
:10014000D1F708958F929F92AF92BF92CF92DF9294
:10015000EF92FF924B015C010E947D006B017C01DC
:100160000E947D006C197D098E099F09683E7340CD
:1001700081059105A8F321E0821A9108A108B10830
:1001800088EEC80E83E0D81EE11CF11C8114910496
:10019000A104B10429F7FF90EF90DF90CF90BF90BA
:1001A000AF909F908F900895AF92BF92CF92DF92C1
:1001B000EF92FF920F931F93CF93DF936C017B011C
:1001C0008B01040F151FEB015E01AE18BF08C017AD
:1001D000D10759F06991D601ED91FC910190F08120
:1001E000E02DC6010995892B79F7C501DF91CF91E3
:1001F0001F910F91FF90EF90DF90CF90BF90AF9045
:100200000895FC01538D448D252F30E0842F90E01C
:10021000821B930B541710F0CF9608950197089501
:10022000FC01918D828D981761F0A28DAE0FBF2FCA
:10023000B11D5D968C91928D9F5F9F73928F90E020
:1002400008958FEF9FEF08952FB7F89480919D0147
:1002500090919E01A0919F01B091A0012FBF80932A
:10026000A9019093AA01A093AB01B093AC0181EADC
:1002700091E00E94100197FF26C02FB7F89480915B
:100280009D0190919E01A0919F01B091A0012FBF6F
:100290004091A9015091AA016091AB017091AC010C
:1002A000841B950BA60BB70B4091A5015091A6019D
:1002B0006091A7017091A80184179507A607B70759
:1002C000B0F28FEF9FEF0895FC01918D828D98170A
:1002D00031F0828DE80FF11D858D90E008958FEF4C
:1002E0009FEF0895FC01918D228D892F90E0805C15
:1002F0009F4F821B91098F739927089581EA91E09E
:100300000E94720121E0892B09F420E0822F0895D8
:1003100080E090E0892B29F00E947E0181110C94ED
:1003200000000895FC01A48DA80FB92FB11DA35A98
:10033000BF4F2C91848D90E001968F739927848F05
:10034000A689B7892C93A089B1898C918370806428
:100350008C93938D848D981306C00288F389E02DC9
:1003600080818F7D80830895EF92FF920F931F937A
:10037000CF93DF93EC0181E0888F9B8D8C8D981358
:100380001AC0E889F989808185FF15C09FB7F89464
:10039000EE89FF896083E889F989808183708064B0
:1003A00080839FBF81E090E0DF91CF911F910F91FB
:1003B000FF90EF900895F62E0B8D10E00F5F1F4F0A
:1003C0000F731127E02E8C8D8E110CC00FB607FC19
:1003D000FACFE889F989808185FFF5CFCE010E94A7
:1003E0009201F1CFEB8DEC0FFD2FF11DE35AFF4F82
:1003F000F0829FB7F8940B8FEA89FB898081806235
:10040000CFCFCF93DF93EC01888D8823B9F0AA89F1
:10041000BB89E889F9898C9185FD03C0808186FDBF
:100420000DC00FB607FCF7CF8C9185FFF2CF80810E
:1004300085FFEDCFCE010E949201E9CFDF91CF91F0
:100440000895FC0101900020E9F73197AF01481BA6
:10045000590BBC0181EA91E00C94D4008F929F92D9
:10046000AF92BF920F931F93CF93DF93CDB7DEB7B9
:10047000A1970FB6F894DEBF0FBECDBF19A24230D0
:1004800008F44AE08E010F5D1F4F842E912CB12C91
:10049000A12CA50194010E94070BE62FB901CA0106
:1004A000EA30F4F4E05DD801EE938D01232B242B88
:1004B000252B79F790E080E0109719F0CD010E948C
:1004C0002102A1960FB6F894DEBF0FBECDBFDF911B
:1004D000CF911F910F91BF90AF909F908F900895F3
:1004E000E95CE1CFCF93DF930E942102EC0188E128
:1004F00091E00E9421028C0F9D1FDF91CF91089502
:10050000FB01DC018D919C91009761F0608171810C
:100510006115710539F0448155810E94290D21E052
:10052000892B09F020E0822F08954F925F926F92FD
:100530007F928F929F92AF92BF92CF92DF92EF9273
:10054000FF920F931F93CF936B017C01742EAC012C
:100550009B010E94020B882399F08BE191E0CF91DF
:100560001F910F91FF90EF90DF90CF90BF90AF90D1
:100570009F908F907F906F905F904F900C9421028E
:1005800046015701E894B7F82FEF3FEF4FE75FE7D9
:10059000C501B4010E94020B81110DC02FEF3FEF86
:1005A0004FE75FE7C501B4010E94770818161CF4F5
:1005B0008FE191E0D4CF2FEF3FEF4FE75FE4C7012A
:1005C000B6010E94FD0A18161CF483E291E0C7CF21
:1005D0002FEF3FEF4FE75FECC701B6010E947708AE
:1005E00087FDF3CF20E030E0A901C701B6010E94EA
:1005F000770810E000E087FF0AC06DE281EA91E031
:100600000E94B4018C01F7FAF094F7F8F094C0E07E
:1006100060E070E080E09FE37C1641F020E030E095
:1006200040E251E40E945C0ACF5FF6CFA701960139
:100630000E94F0092B013C010E94CE0A4B015C0193
:100640004AE00E942E027C01E00EF11ECC23C1F193
:10065000C501B4010E947C089B01AC01C301B20139
:100660000E94EF094B015C016EE281EA91E00E9479
:10067000B401E80EF91EC15018F120E030E040E26C
:1006800051E4C501B4010E94DD082B013C010E9428
:10069000CE0A4B01B12CA12C4AE0C501B4010E9445
:1006A0002E02E80EF91EC501B4010E947C089B01D0
:1006B000AC01C301B2010E94EF094B015C01DBCF29
:1006C000C701CF911F910F91FF90EF90DF90CF90D6
:1006D000BF90AF909F908F907F906F905F904F9062
:1006E0000895FC0180819181009711F00C94CB0B4F
:1006F0000895AF92BF92CF92DF92EF92FF920F9345
:100700001F93CF93DF93DC01CD90DC901197C11440
:10071000D10439F01496CD91DC918C0176012097AB
:1007200061F4DF91CF911F910F91FF90EF90DF90D7
:10073000CF90BF90AF90089575015701BFEFAB1AEE
:10074000BB0AF7018081082E000C990B0E94560805
:10075000892B91F72197CC0DDD1D8881082E000C87
:10076000990B0E945608892B29F0CE15DF0510F051
:100770002197F3CFAE014F5F5F4F4E195F09D8014C
:1007800015965C934E931497CE14DF0420F4B701B2
:10079000C6010E94190DD801ED91FC911197149694
:1007A0008D919C91E80FF91F1082BBCF0F931F937F
:1007B000CF93DF93EC0188819981009759F02A81CA
:1007C0003B812617370730F081E0DF91CF911F91F1
:1007D0000F9108958B016F5F7F4F0E94540C00971B
:1007E00059F0998388831B830A832C813D81232BB5
:1007F00059F7FC011082E8CF80E0E7CFEF92FF923B
:100800000F931F93CF93DF93EC017B01FB010190CA
:100810000020E9F731978F01061B170BB8010E94E2
:10082000D60328813981811113C02115310519F0B2
:10083000C9010E94CB0B198218821D821C821B8267
:100840001A82DF91CF911F910F91FF90EF90089541
:100850001D830C83B701C901DF91CF911F910F91C7
:10086000FF90EF900C94220DEF92FF920F931F9345
:10087000CF93DF9300D0CDB7DEB78C01FC0111829E
:10088000108213821282158214826AE171E00E9442
:10089000FE030E94240197FD21C08A309105F1F0EA
:1008A00089831A82F801E480F580FFEFEF1AFF0ACE
:1008B000B701C8010E94D603882359F3F8012081AB
:1008C000318184819581BE016F5F7F4F820F931FBD
:1008D0000E94220DF801F582E482DBCFC8010F905F
:1008E0000F90DF91CF911F910F91FF90EF9008959E
:1008F0001F920F920FB60F9211242F933F938F9355
:100900009F93AF93BF9380919D0190919E01A09181
:100910009F01B091A0013091980123E0230F2D3762
:1009200058F50196A11DB11D2093980180939D015A
:1009300090939E01A0939F01B093A0018091990193
:1009400090919A01A0919B01B0919C010196A11DEB
:10095000B11D8093990190939A01A0939B01B0934C
:100960009C01BF91AF919F918F913F912F910F90DB
:100970000FBE0F901F90189526E8230F0296A11D19
:10098000B11DD2CF1F920F920FB60F9211242F9349
:100990003F934F935F936F937F938F939F93AF9307
:1009A000BF93EF93FF9381EA91E00E949201FF9140
:1009B000EF91BF91AF919F918F917F916F915F91D7
:1009C0004F913F912F910F900FBE0F901F90189550
:1009D0001F920F920FB60F9211242F938F939F9314
:1009E000EF93FF93E091B101F091B2018081E0912A
:1009F000B701F091B80182FD1BC090818091BA01CE
:100A00008F5F8F732091BB01821741F0E091BA0193
:100A1000F0E0EF55FE4F958F8093BA01FF91EF9173
:100A20009F918F912F910F900FBE0F901F9018954F
:100A30008081F4CFE1EAF1E01382128288EE93E044
:100A4000A0E0B0E084839583A683B7838AE091E039
:100A50009183808385EC90E09587848784EC90E097
:100A60009787868780EC90E0918B808B81EC90E07B
:100A7000938B828B82EC90E0958B848B86EC90E05C
:100A8000978B868B118E128E138E148E0895CF93B2
:100A9000DF93CDB7DEB768970FB6F894DEBF0FBE11
:100AA000CDBF789484B5826084BD84B5816084BDF7
:100AB00085B5826085BD85B5816085BD80916E00FC
:100AC000816080936E00109281008091810082602D
:100AD000809381008091810081608093810080916A
:100AE00080008160809380008091B1008460809359
:100AF000B1008091B00081608093B00080917A0055
:100B0000846080937A0080917A00826080937A007A
:100B100080917A00816080937A0080917A00806869
:100B200080937A001092C100E091B101F091B2017E
:100B300082E08083E091AD01F091AE011082E091FE
:100B4000AF01F091B00180E180831092B901E09192
:100B5000B501F091B60186E08083E091B301F09198
:100B6000B401808180618083E091B301F091B40190
:100B7000808188608083E091B301F091B40180812D
:100B800080688083E091B301F091B40180818F7D12
:100B9000808364E670E080E090E00E94A20087E23B
:100BA00091E00E94720286E391E00E94210280E0BF
:100BB000282E80E0382E81EA91E00E9472011816FA
:100BC00019060CF05DC0CE0143960E943404CE019C
:100BD00043960E9479030B891C890115110571F058
:100BE000F80181918F01882349F0082E000C990BA0
:100BF0000E94110DF80131978083F2CF1A82198279
:100C00001C821B821E821D826AE371E0CE01019666
:100C10000E94FE03BE016F5F7F4FCE0143960E948C
:100C20008002182FCE0101960E94710384E491E0A6
:100C300011111CC01A8219821C821B821E821D8205
:100C400060E571E0CE0101960E94FE03BE016F5F78
:100C50007F4FCE0143960E948002182FCE0101964D
:100C60000E9471031123C1F085E591E00E94720298
:100C700086E391E00E942102CE0143960E94710317
:100C80002114310409F497CF0E947E01882309F4CE
:100C900092CF0E9400008FCF1A8219821C821B8281
:100CA0001E821D826CE571E0CE0101960E94FE035A
:100CB000BE016F5F7F4FCE0143960E948002182FC6
:100CC000CE0101960E947103112391F280E691E01A
:100CD0000E94720288E691E00E94210281EA91E07E
:100CE0000E947201892B39F46AE070E080E090E0A4
:100CF0000E94A200F3CFCE010D960E94340482E739
:100D000091E00E94210281EA91E00E947201892B08
:100D100039F46AE070E080E090E00E94A200F3CF36
:100D2000CE0107960E9434048CE791E00E942102D4
:100D300081EA91E00E947201892B39F46AE070E047
:100D400080E090E00E94A200F3CFCE0101960E94C5
:100D50003404CE010D960E947903CE0107960E94BD
:100D60007903CE0101960E9479038D859E85C12C61
:100D7000D12C7601009721F00E9402076B017C01C3
:100D80008F819885412C512C3201009721F00E94CF
:100D900002072B013C0189819A81812C912C5401FD
:100DA000009721F00E9402074B015C0186E891E068
:100DB0000E94210242E0C701B6010E94950283E928
:100DC00091E00E94210242E0C301B2010E9495021B
:100DD00083E991E00E94210242E0C501B4010E9432
:100DE000950288E191E00E942102CE0101960E94C5
:100DF0007103CE0107960E947103CE010D960E94E9
:100E0000710336CF662777270C940607B0E0A0E081
:100E1000ECE0F7E00C94AF095C017B016115710512
:100E200019F0DB018D939C9385010F5F1F4FF50136
:100E3000D0818D2F90E00E9456086C01892BB9F566
:100E4000DD32B9F50F5F1F4FD5011196DC91C1E07E
:100E50005801F1E0AF1AB10843E050E060E770E0FC
:100E6000C5010E945F08892B69F5680182E0C80E00
:100E7000D11C45E050E06BE670E0C6010E945F08BF
:100E8000892B21F4680197E0C90ED11CE114F1040B
:100E900019F0D701CD92DC9260E070E080E89FEF1E
:100EA000C111FFC060E070E080E89FE7FAC0580120
:100EB000BBCFDB3229F485010E5F1F4FF501D181D5
:100EC000C0E0C6CF43E050E068E670E0C5010E9494
:100ED0005F08892BE9F0F80110E000E020E030E045
:100EE000A9015F01B0ED8B2E8D0E89E08815C8F148
:100EF0009C2E689491F88C2F8870C2FF16C08111C7
:100F000002C00F5F1F4F3196D501DC91C92DE9CF8B
:100F1000E114F10429F00E5F1F4FF70111830083E4
:100F200060E070E080EC9FE7BCC0882311F00150C6
:100F30001109A5E0B0E00E949E099B01AC01220FBF
:100F4000331F441F551F280D311D411D511D2839C8
:100F500099E93907490799E15907A8F2C6609C2E1B
:100F6000D2CFAEEF8A1206C0C3FD3CC09C2E68945F
:100F700093F8C9CFDF7DD534A9F580818D3239F45E
:100F8000C061DF011296818162E070E006C0DF017E
:100F90008B32C1F3119661E070E080535D01A61AB7
:100FA000B70A8A30F8F4E0E8CE16ECE0DE065CF42E
:100FB000B601660F771F660F771FC60ED71ECC0CC3
:100FC000DD1CC80ED11C5D01FFEFAF1ABF0A8C916A
:100FD00080538A30A8F1C4FF03C0D194C194D108D2
:100FE0000C0D1D1DC1FF09C0E114F10431F081E0B9
:100FF000A81AB108D701AD92BC92CA01B9010E94EA
:101000007C08C370C33009F490584B015C0120E0A8
:1010100030E0A9010E947708882309F440C0CFE995
:10102000D0E017FF05C0119501951109C7E8D0E080
:101030006E01B8E1CB1AD10880E2E82EF12C0FC086
:10104000D501B1CFFE0125913591459154910E19ED
:101050001F09C501B4010E94DD084B015C01D501E7
:10106000C4010E151F0574F72497F594E794CC1668
:10107000DD06A9F78A2F880F8B2F881F8F3F49F035
:1010800020E030E0A901C501B4010E947708811178
:1010900006C082E290E090933F0280933E02C50139
:1010A000B401CDB7DEB7ECE00C94CB0991110C94F0
:1010B0004A09803219F089508550C8F70895FB011C
:1010C000DC014150504088F08D9181341CF08B350B
:1010D0000CF4805E659161341CF06B350CF4605E3D
:1010E000861B611171F3990B0895881BFCCF0E9438
:1010F000B90808F481E00895E89409C097FB3EF42C
:1011000090958095709561957F4F8F4F9F4F992354
:10111000A9F0F92F96E9BB279395F69587957795D2
:101120006795B795F111F8CFFAF4BB0F11F460FF92
:101130001BC06F5F7F4F8F4F9F4F16C0882311F0EA
:1011400096E911C0772321F09EE8872F762F05C0FE
:10115000662371F096E8862F70E060E02AF09A9599
:10116000660F771F881FDAF7880F9695879597F98E
:101170000895990F0008550FAA0BE0E8FEEF161628
:101180001706E807F907C0F012161306E407F5077B
:1011900098F0621B730B840B950B39F40A2661F0EF
:1011A000232B242B252B21F408950A2609F4A14092
:1011B000A6958FEF811D811D08950E94F0080C9463
:1011C00064090E94560938F00E945D0920F09523B9
:1011D00011F00C944D090C94530911240C949809A6
:1011E0000E94750970F3959FC1F3950F50E0551F4C
:1011F000629FF001729FBB27F00DB11D639FAA276C
:10120000F00DB11DAA1F649F6627B00DA11D661FBA
:10121000829F2227B00DA11D621F739FB00DA11DDB
:10122000621F839FA00D611D221F749F3327A00D95
:10123000611D231F849F600D211D822F762F6A2F31
:1012400011249F5750409AF0F1F088234AF0EE0F96
:10125000FF1FBB1F661F771F881F91505040A9F7C3
:101260009E3F510580F00C944D090C9498095F3F06
:10127000E4F3983ED4F3869577956795B795F795FF
:10128000E7959F5FC1F7FE2B880F911D9695879577
:1012900097F9089599278827089597F99F6780E817
:1012A00070E060E008959FEF80EC089500240A94B8
:1012B0001616170618060906089500240A94121631
:1012C0001306140605060895092E0394000C11F464
:1012D000882352F0BB0F40F4BF2B11F460FF04C011
:1012E0006F5F7F4F8F4F9F4F089557FD9058440F6A
:1012F000551F59F05F3F71F04795880F97FB991F75
:1013000061F09F3F79F08795089512161306140631
:10131000551FF2CF4695F1DF08C0161617061806BE
:10132000991FF1CF86957105610508940895E89499
:10133000BB2766277727CB0197F908950E94E0091C
:10134000A59F900DB49F900DA49F800D911D112419
:1013500008952F923F924F925F926F927F928F9259
:101360009F92AF92BF92CF92DF92EF92FF920F9334
:101370001F93CF93DF93CDB7DEB7CA1BDB0B0FB63E
:10138000F894DEBF0FBECDBF09942A8839884888FB
:101390005F846E847D848C849B84AA84B984C88491
:1013A000DF80EE80FD800C811B81AA81B981CE0F88
:1013B000D11D0FB6F894DEBF0FBECDBFED0108956D
:1013C000A29FB001B39FC001A39F700D811D112486
:1013D000911DB29F700D811D1124911D08955058CB
:1013E000BB27AA270E94070A0C9464090E94560989
:1013F00038F00E945D0920F039F49F3F19F426F47B
:101400000C9453090EF4E095E7FB0C944D09E92F79
:101410000E94750958F3BA17620773078407950786
:1014200020F079F4A6F50C9497090EF4E0950B2EB4
:10143000BA2FA02D0B01B90190010C01CA01A00126
:101440001124FF27591B99F0593F50F4503E68F181
:101450001A16F040A22F232F342F4427585FF3CFC2
:10146000469537952795A795F0405395C9F77EF493
:101470001F16BA0B620B730B840BBAF09150A1F0DC
:10148000FF0FBB1F661F771F881FC2F70EC0BA0F62
:10149000621F731F841F48F4879577956795B795EA
:1014A000F7959E3F08F0B0CF9395880F08F09927E5
:1014B000EE0F9795879508950E94700A0C94640921
:1014C0000E945D0958F00E94560940F029F45F3FE0
:1014D00029F00C944D0951110C9498090C9453095E
:1014E0000E94750968F39923B1F3552391F3951B75
:1014F000550BBB27AA2762177307840738F09F5F35
:101500005F4F220F331F441FAA1FA9F335D00E2EA1
:101510003AF0E0E832D091505040E695001CCAF70E
:101520002BD0FE2F29D0660F771F881FBB1F2617D1
:1015300037074807AB07B0E809F0BB0B802DBF01A8
:10154000FF2793585F4F3AF09E3F510578F00C9477
:101550004D090C9498095F3FE4F3983ED4F38695C7
:1015600077956795B795F7959F5FC9F7880F911D98
:101570009695879597F90895E1E0660F771F881F84
:10158000BB1F621773078407BA0720F0621B730B37
:10159000840BBA0BEE1F88F7E09508950E947D0931
:1015A00088F09F5798F0B92F9927B751B0F0E1F024
:1015B000660F771F881F991F1AF0BA95C9F714C0D4
:1015C000B13091F00E949709B1E008950C94970909
:1015D000672F782F8827B85F39F0B93FCCF386950D
:1015E00077956795B395D9F73EF49095809570956A
:1015F00061957F4F8F4F9F4F08950E94B90808F45F
:101600008FEF08950E94B908880B990B0895A1E205
:101610001A2EAA1BBB1BFD010DC0AA1FBB1FEE1F6C
:10162000FF1FA217B307E407F50720F0A21BB30BB7
:10163000E40BF50B661F771F881F991F1A9469F733
:1016400060957095809590959B01AC01BD01CF018F
:101650000895EE0FFF1F0590F491E02D09940F936C
:101660001F93CF93DF938230910510F482E090E0D6
:10167000E0914202F091430230E020E0B0E0A0E0CF
:10168000309799F42115310509F44AC0281B390B0C
:1016900024303105D8F58A819B816115710589F166
:1016A000FB0193838283FE0111C04081518102813D
:1016B000138148175907E0F04817590799F4109714
:1016C00061F012960C93129713961C933296CF01E9
:1016D000DF91CF911F910F910895009342021093D3
:1016E0004302F4CF2115310551F04217530738F06A
:1016F000A901DB019A01BD01DF01F801C1CFEF01B2
:10170000F9CF9093430280934202CDCFFE01E20FC6
:10171000F31F819391932250310939832883D7CFC6
:101720002091400230914102232B41F4209102018B
:101730003091030130934102209340022091000137
:10174000309101012115310541F42DB73EB740918B
:10175000040150910501241B350BE0914002F091EA
:101760004102E217F307A0F42E1B3F0B281739079D
:1017700078F0AC014E5F5F4F2417350748F04E0FED
:101780005F1F5093410240934002819391939FCFFA
:10179000F0E0E0E09CCFCF93DF930097E9F0FC010D
:1017A000329713821282A0914202B0914302ED015E
:1017B00030E020E01097A1F420813181820F931F47
:1017C00020914002309141022817390709F061C089
:1017D000F0934102E0934002DF91CF910895EA0136
:1017E000CE17DF07E8F54A815B819E01411551055F
:1017F000B1F7E901FB83EA8349915991C40FD51FE1
:10180000EC17FD0761F4808191810296840F951F8A
:10181000E90199838883828193819B838A83F0E0A5
:10182000E0E012968D919C9113970097B9F52D9158
:101830003C911197CD010296820F931F2091400297
:10184000309141022817390739F6309751F5109237
:10185000430210924202B0934102A0934002BCCFD7
:10186000D383C28340815181840F951FC817D90744
:1018700061F44E5F5F4F88819981480F591F5183F2
:1018800040838A819B81938382832115310509F0EE
:10189000B0CFF0934302E09342029ECFFD01DC0102
:1018A000C0CF13821282D7CFB0E0A0E0EAE5FCE01F
:1018B0000C94AB098C01009751F4CB010E942F0BC3
:1018C0008C01C801CDB7DEB7E0E10C94C709FC017B
:1018D000E60FF71F9C0122503109E217F30708F4C5
:1018E0009DC0D901CD91DC911197C617D70798F00B
:1018F000C530D10530F3CE0104978617970708F35A
:10190000C61BD70B2297C193D1936D937C93CF01C4
:101910000E94CB0BD6CF5B01AC1ABD0A4C018C0EDA
:101920009D1EA0914202B0914302512C412CF12CFA
:10193000E12C109731F58091400290914102881579
:10194000990509F05CC04616570608F058C080910A
:10195000000190910101009741F48DB79EB740912D
:10196000040150910501841B950BE817F90708F055
:1019700055C0F0934102E0934002F9017183608306
:10198000A0CF8D919C91119712966C9012971396FF
:101990007C901397A815B90559F56C0142E0C40E67
:1019A000D11CCA14DB0420F1AC014A195B09DA012D
:1019B0001296159780F06282738251834083D90119
:1019C0006D937C93E114F10471F0D7011396FC93AD
:1019D000EE93129776CF22968C0F9D1FF90191837B
:1019E0008083F301EFCFF0934302E093420269CF8B
:1019F0004816590608F42C017D01D3019ACFCB017A
:101A00000E942F0B7C01009749F0AE01B8010E94A3
:101A1000190DC8010E94CB0B870153CF10E000E0E5
:101A200050CF9111089581568A5108F480528558FB
:101A30000895FB01DC0102C001900D92415050401D
:101A4000D8F70895FB01DC0101900D920020E1F729
:101A50000895FB01DC014150504030F08D91019020
:101A6000801919F40020B9F7881B990B0895F89490
:021A7000FFCFA6
:101A720000004402800000000000B401D400010113
:101A820001027201100164010D0A006E616E0069AB
:101A92006E66006F7666004341424C4520434F4ECE
:101AA200534F4C453A003E3E3E0043414C49425260
:101AB2004154450043414C4942524154494F4E0022
:101AC200484F4D4500484F4D494E47004A4F470049
:101AD2004A4F4747494E47005820434F4F52443AD6
:101AE2003E005920434F4F52443A3E005A20434F42
:101AF2004F52443A3E004A4F4747494E4720544FBF
:081B02003A2000207C200000C5
:00000001FF
