:020000040000FA
:100000000C9476000C949E000C949E000C949E0020
:100010000C949E000C949E000C949E000C949E00E8
:100020000C949E000C949E000C949E000C949E00D8
:100030000C94600C0C949E000C949E000C949E00FA
:100040000C94950B0C94370C0C94050C0C94DF0B52
:100050000C949E000C949E000C949E000C949E00A8
:100060000C949E000C949E00416363656C53746510
:100070007070657220546573742067657374617263
:10008000746574005269636874756E67206765777C
:1000900065636873656C742E00000000080002013F
:1000A0000000030407000000000000000000000042
:1000B00000250028002B0000000000240027002A53
:1000C0000004040404040404040202020202020301
:1000D000030303030301020408102040800102040B
:1000E00008102001020408102000E00C11241FBE9B
:1000F000CFEFD8E0DEBFCDBF11E0A0E0B1E0E8E98E
:10010000FDE102C005900D92AA32B107D9F723E0B4
:10011000AAE2B1E001C01D92A130B207E1F710E000
:10012000C6E7D0E004C02197FE010E94C40EC53787
:10013000D107C9F70E941C0D0C94CA0E0C94000044
:10014000CF93DF93FC0190913F0195AB40E85CE0D9
:1001500060E070E046AB57AB60AF71AFEF01CC5BD6
:10016000DF4F83E088831282138214821582128605
:10017000838720E23EE437872687268537853587C3
:100180002487118A108A11A212A213A214A210A20B
:10019000138E128E85A12FEF26A3807C8F7785A3E7
:1001A00011821082A0913D01B0913E012DE331E01A
:1001B000109729F09D010D90BC91A02DF9CFD90188
:1001C000ED93FC9381E0890F80933F01963008F016
:1001D0001882DF91CF91089590E0FC01EB52FF4F20
:1001E00024918F539F4FFC018491882399F090E0D4
:1001F000880F991FFC01E954FF4FA591B491FC01B0
:10020000E355FF4F859194918FB7F894EC91E22BD1
:10021000EC938FBF089590E0FC01E756FF4F2491C7
:10022000FC01EB52FF4F3491FC01EF53FF4FE4917F
:10023000EE23C9F0222339F0233001F1A8F4213054
:1002400019F1223029F1F0E0EE0FFF1FE355FF4FC7
:10025000A591B4918FB7F894EC91611126C03095B7
:100260003E233C938FBF08952730A9F02830C9F072
:10027000243049F7809180008F7D03C080918000F9
:100280008F7780938000DFCF84B58F7784BDDBCFFD
:1002900084B58F7DFBCF8091B0008F778093B000C5
:1002A000D2CF8091B0008F7DF9CF3E2BDACF3FB710
:1002B000F8948091390190913A01A0913B01B0915D
:1002C0003C0126B5A89B05C02F3F19F00196A11D42
:1002D000B11D3FBFBA2FA92F982F8827BC01CD0190
:1002E000620F711D811D911D42E0660F771F881FEF
:1002F000991F4A95D1F70895AF92BF92CF92DF929E
:10030000EF92FF920F931F93CF93DF936C017B01CA
:100310008B01040F151FEB015E01AE18BF08C0175B
:10032000D10759F06991D601ED91FC910190F081CE
:10033000E02DC6010995892B79F7C501DF91CF9191
:100340001F910F91FF90EF90DF90CF90BF90AF90F3
:100350000895FC01538D448D252F30E0842F90E0CB
:10036000821B930B541710F0CF96089501970895B0
:10037000FC01918D828D981761F0A28DAE0FBF2F79
:10038000B11D5D968C91928D9F5F9F73928F90E0CF
:1003900008958FEF9FEF0895FC01918D828D98173E
:1003A00031F0828DE80FF11D858D90E008958FEF7B
:1003B0009FEF0895FC01918D228D892F90E0805C44
:1003C0009F4F821B91098F739927089580E491E0D4
:1003D0000E94DA0121E0892B09F420E0822F0895A0
:1003E00080E090E0892B29F00E94E60181110C94B5
:1003F00000000895FC01A48DA80FB92FB11DA35AC8
:10040000BF4F2C91848D90E001968F739927848F34
:10041000A689B7892C93A089B1898C918370806457
:100420008C93938D848D981306C00288F389E02DF8
:1004300080818F7D80830895EF92FF920F931F93A9
:10044000CF93DF93EC0181E0888F9B8D8C8D981387
:100450001AC0E889F989808185FF15C09FB7F89493
:10046000EE89FF896083E889F989808183708064DF
:1004700080839FBF81E090E0DF91CF911F910F912A
:10048000FF90EF900895F62E0B8D10E00F5F1F4F39
:100490000F731127E02E8C8D8E110CC00FB607FC48
:1004A000FACFE889F989808185FFF5CFCE010E94D6
:1004B000FA01F1CFEB8DEC0FFD2FF11DE35AFF4F49
:1004C000F0829FB7F8940B8FEA89FB898081806264
:1004D000CFCF0F931F93CF93DF938C01D0E0C0E079
:1004E000F801EC0FFD1F6491662341F080E491E078
:1004F0000E941C02892B11F02196F2CF42E050E0BD
:1005000067E271E080E491E00E947C018C0F9D1F06
:10051000DF91CF911F910F910895CF93DF93EC015D
:10052000888D8823B9F0AA89BB89E889F9898C91DB
:1005300085FD03C0808186FD0DC00FB607FCF7CF97
:100540008C9185FFF2CF808185FFEDCFCE010E9497
:10055000FA01E9CFDF91CF9108958F929F92AF92E8
:10056000BF92CF92DF92EF92FF92FC0185A18F7133
:1005700009F47BC080916F008B7F80936F00809126
:100580002C018F5F80932C017894C280D380E4800B
:10059000F58086819781A085B185C80ED91EEA1E97
:1005A000FB1E80912C01882319F0815080932C012F
:1005B00080912C01811105C080916F00846080932F
:1005C0006F001C141D041E041F04D4F5E05CFF4FD3
:1005D00080809180A280B380B7FE08C0B094A094C0
:1005E00090948094811C911CA11CB11C8FEF881ADF
:1005F000980AA80AB80A84E1C8168EEAD80687E4E1
:10060000E80681E0F80634F5A4E6B0E0A70196011B
:100610000E94970EA50194010E94690E69017A015A
:100620008FEFC81AD80AE80AF80A8FEFC816D10463
:10063000E104F10429F024F0C12CD12C7601CA94F4
:100640008C2DFF90EF90DF90CF90BF90AF909F9058
:100650008F900895C501B40124E630E040E050E0F9
:100660000E94690EC701B601D7CF80E0EACFFC0136
:1006700090916F009B7F90936F0090912C019F5FF2
:1006800090932C01789481E090A1953008F480E05B
:1006900090912C01992319F0915090932C019091F5
:1006A0002C01911105C090916F00946090936F00A0
:1006B00008958F929F92AF92BF92CF92DF92EF9266
:1006C000FF920F931F93CF93DF93EC016A017B019D
:1006D0008DA18F7109F407C1F89489A19AA1ABA1EA
:1006E000BCA18E010B5B1F4FF80180839183A28315
:1006F000B383789431972081F80160817181828180
:100700009381233009F082C09B01AC018DA18F71D0
:1007100009F4E9C0C21AD30AE40AF50AFE01E05C52
:10072000FF4FC082D182E282F3828A8D9B8D892B1A
:1007300021F488A1893009F051C146015701F7FE23
:1007400007C08824992454018C189D08AE08BF085E
:10075000CE010E943703882309F409C18B8518163E
:100760000CF05AC01C141D041E041F040CF459C0C4
:1007700080916F008B7F80936F0080912C018F5F41
:1007800080932C01789449A15AA16BA17CA1F80116
:1007900080819181A281B381481B590B6A0B7B0B2D
:1007A00014161506160617060CF0D2C049A15AA158
:1007B0006BA17CA18A019B01081B190B2A0B3B0B27
:1007C000D901C801880E991EAA1EBB1E8C8D9D8D55
:1007D00028A1293009F0C5C02A8D3B8D821B930BBF
:1007E0006E8D7F8D0E94550E620F731FCB01B0E09E
:1007F000A0E08A839B83AC83BD838A819B81AC818B
:10080000BD81880D991DAA1DBB1D59C030E050E067
:1008100040E00E94690E7ACF882309F4A9CFF7FE41
:10082000A7CF80916F008B7F80936F0080912C0108
:100830008F5F80932C01789449A15AA16BA17CA170
:10084000F80180819181A281B381481B590B6A0B09
:100850007B0B14161506160617060CF051C049A19D
:100860005AA16BA17CA18A019B01081B190B2A0BC1
:100870003B0BD901C801881A990AAA0ABB0A8C8DB8
:100880009D8D28A1293009F044C02A8D3B8D821B03
:10089000930B6E8D7F8D0E94550E620F731FCB01DF
:1008A000B0E0A0E088169906AA06BB0664F48A8325
:1008B0009B83AC83BD8388199909AA09BB098E83E0
:1008C0009F83A887B98780912C01882319F08150D4
:1008D00080932C0180912C01811105C080916F00C3
:1008E000846080936F00DF91CF911F910F91FF90F3
:1008F000EF90DF90CF90BF90AF909F908F90089532
:1009000049A15AA16BA17CA1841B950BA60BB70B27
:10091000B2CFAC0170E060E0481559056A057B056F
:100920000CF455C00196B0E0A0E08A839B83AC83B1
:10093000BD838A819B81AC81BD8188199909AA09EF
:10094000BB098E839F83A887B98788E088A3BBCF24
:1009500049A15AA16BA17CA1841B950BA60BB70BD7
:1009600031CFBC016F5F7F4F88E088A33FCFC114B8
:10097000D104E104F10409F4B6CF8B85082E000CF4
:10098000990B97FF03C09195819591091C141D0443
:100990001E041F040CF0819590916F009B7F909333
:1009A0006F0090912C019F5F90932C0178941F8A87
:1009B0001E8A24E130E03F872E871B8A1A8A9DA178
:1009C00097FF0AC094E098A38B871D8E1C8E8A82A5
:1009D0009B82AC82BD8277CF97E0F5CF8B85082EC6
:1009E000000C990B97FF03C09195819591091C14F8
:1009F0001D041E041F040CF0819590916F009B7FD5
:100A000090936F0090912C019F5F90932C017894AC
:100A1000F80140815181628173814C0D5D1D6E1D15
:100A20007F1D09A11AA12BA13CA14A015B01801ADB
:100A3000910AA20AB30A9501840110161106120642
:100A4000130624F509A11AA12BA13CA1401B510BAF
:100A5000620B730B8B874A835B836C837D8381E09E
:100A6000CD28CE28CF2809F471CF88A1853008F091
:100A70002ACF1F8A1E8A84E190E09F878E871B8A77
:100A80001A8A8DA187FF0FC084E060CF09A11AA147
:100A90002BA13CA148015901841A950AA60AB70A5C
:100AA000B501A401D7CF85E051CF2F923F924F924D
:100AB0005F926F927F928F929F92AF92BF92CF92EE
:100AC000DF92EF92FF920F931F93CF93DF93CDB7F7
:100AD000DEB72E970FB6F894DEBF0FBECDBF9A8358
:100AE0008983FC0195A19F7109F4EEC11A0157FF9A
:100AF00004C022243324241A350A57FF03C0F1E02E
:100B00002F1A310881E828168EE3380620F030E8E5
:100B1000232E3EE3332E8A014B01E981FA81FE87C1
:100B2000ED8780916F008B7F80936F0080912C0107
:100B30008F5F80932C017894672B09F097C187A170
:100B4000882309F472C124E1A22EB12C10922C0149
:100B500080916F00846080936F00950150E040E0C9
:100B600060E876E988E990E00E94690E69017A01FF
:100B700088EC482E512C612C712CCA01B901A301BB
:100B800092010E94690E2D833E834F8358876987A7
:100B90007A878B879C87D1015096A70196010E9486
:100BA000970EA30192010E94690E293EFDEF3F07B7
:100BB00041055105ECF060E47DE586EC90E0A7018D
:100BC00096010E94690E190180E1281A310821312D
:100BD000310510F4312C212CD1015096A70196013A
:100BE0000E94970E28EC30E040E050E00E94690E31
:100BF000390117FD06C0ED85FE85B7AEA6AE35AE50
:100C000024AE80916F008B7F80936F0080912C01C8
:100C10008F5F80932C017894ED85FE85828D938D76
:100C2000820D931D892B09F4C8C0CF010E943703A0
:100C3000882309F4C2C0ED85FE85848995898615CF
:100C4000970509F4BAC0F5E0FB8341E050E05A8310
:100C50004983ED85FE85F0A1FC83ED85FE85C2808C
:100C6000D380E480F580FB81F150FB83FF2339F0D2
:100C700010922C0180916F00846080936F00ED854D
:100C8000FE85048D158D9801205F3F4FD3010E9492
:100C9000880E2489358950E040E00E94690E2901C0
:100CA000F0E14F1A51082131310510F4512C412C3B
:100CB000ED85FE8582AD93ADA816B90629F1241401
:100CC000350408F0F7C09201AAE0B0E00E94880E57
:100CD0000115110509F0E6C06B5F7F4F8F4F9F4FE5
:100CE0002AE030E040E050E00E94690EC90129830B
:100CF0009A8349815A811416150624F081E090E008
:100D00009A83898399E09C83ED85FE85068117810E
:100D100020853185C20169817A810E94550ECB01FF
:100D2000B0E0A0E0B701A601401B510B620B730BB2
:100D3000481759076A077B0708F0BFC0C201B0E037
:100D4000A0E00C191D092E093F09080F191F2A1FC1
:100D50003B1FF8E0FC834B81442359F040916F0026
:100D60004B7F40936F0040912C014F5F40932C01CB
:100D70007894ED85FE854281538164817581C41626
:100D8000D506E606F70619F0FB81F11162CF4C811A
:100D9000ED85FE8540A3558E448E49815A81578F3B
:100DA000468F0097A105B10541F082839383A48308
:100DB000B58306831783208731874D815E81ED855A
:100DC000FE855587448789859A85918B808B758AA6
:100DD000648A338E228E10922C0180916F00846081
:100DE00080936F00892811F4B12CA12CED85FE852C
:100DF000B3AEA2AE828D938D2E960FB6F894DEBF61
:100E00000FBECDBFDF91CF911F910F91FF90EF905B
:100E1000DF90CF90BF90AF909F908F907F906F901A
:100E20005F904F903F902F9008958D859E850E94F2
:100E300037038823B9F0ED85FE85828D938D892B4C
:100E400019F081E087A37FCE82E0ED85FE8587A340
:100E500085A187FF78CE808D918D9787868783E0E7
:100E600080A371CE82E0ED85FE85ECCFED85FE8519
:100E700085A187FF09C087A1823031F4808D918DD3
:100E80009787868784E080A35401F9EA8F16F1E6FC
:100E90009F0620F098EAA92E91E6B92EED85FE85F1
:100EA00017A254CE980150E040E00E94690ECA019A
:100EB000B90112CFE7E0EC8327CF00E010E0980102
:100EC00080E090E0DC0147CF90E080E095CF0F9389
:100ED0001F93CF93DF938C01FC0185A18F71C9F122
:100EE00026A937A940AD51ADA0E2B3E00E94970E0C
:100EF0006C39F3EE7F07F6E18F0791053CF52CE3A3
:100F000030E040E050E00E94690E922F832FC92FFD
:100F1000D82FC93A21E6D20710F0C8EAD1E6F80185
:100F2000A4ADB5AD9E010E94880E26AD37AD50E050
:100F300040E00E94690EA90140955095BE01C8018C
:100F4000DF91CF911F910F910C94550598EA81E69E
:100F5000DECF90E080E0DF91CF911F910F91089557
:100F6000FC0162AD73AD48EC50E00C945505CF9395
:100F7000DF93DC0195969C9195979F71953009F4CC
:100F80004AC030F49330A9F19430E9F180E038C0E0
:100F9000963009F447C09730C9F7ED0150E040E0C2
:100FA00070E088A599A59A01220F331FFB01042E3A
:100FB00002C0F595E7950A94E2F7240F351FE0FF8C
:100FC0000FC0FD01E20FF31F22A5FC013081232B8E
:100FD00020834F5F5F4F23964430510511F7D6CFE2
:100FE000FD01E20FF31F22A5FC0130812095232390
:100FF000EFCF80913101807F682B6093310181E0D8
:10100000DF91CF910895809131018F70F0E16F9F52
:10101000B0011124F1CF80913201807F682B609361
:101020003201EDCF809132018F7090E1699FB00164
:101030001124F4CF5F926F927F928F929F92AF9222
:10104000BF92CF92DF92EF92FF920F931F93CF93B5
:10105000DF937894C0913D01D0913E01209709F42F
:101060000DC1B12C082F10E0AA24A39455E0852EC1
:1010700067E0962E78E0772EE0EFCE2EDD24DA942E
:10108000F2E05F2EA3E06A2EB8E8EB2EB3E1FB2E70
:101090008DA18F71883049F4F8948AA5E8A5F9A547
:1010A0009081809589238083789488A1853008F485
:1010B000F5C08FA1823009F4C6C08E859F85892B2B
:1010C00031F08E899F89800F911F9F8B8E8B2E8987
:1010D0003F898E859F852817390708F4A0C01F8A8D
:1010E0001E8A49A15AA16BA17CA12B85822F022EB9
:1010F000000C990BAA0BBB0B840F951FA61FB71FE3
:1011000089A39AA3ABA3BCA3EA85E20FE8300CF451
:1011100013C1E0E0EA87F8948DA18F71853009F45E
:1011200015C1863008F44EC1873009F4F1C108F4C6
:101130002AC2883091F4EBA5FCA58B8518160CF01B
:101140005AC29DA58081892B8083A0922D019AA5EA
:10115000E8A5F9A58081892B808378948A819B8179
:10116000AC81BD810197A109B1098A839B83AC83BE
:10117000BD838A819B81AC81BD81892B8A2B8B2B7E
:1011800009F0F2C08E819F81A885B9850097A105DD
:10119000B10509F43DC12B8521952B878A839B835B
:1011A000AC83BD831E821F821886198698A22C8D5F
:1011B0003D8D8A8D9B8D2817390708F094C18C8945
:1011C0009D89F9017096BF010E94550E7F876E8739
:1011D0004A895B89840F951F9B8B8A8BE817F907D7
:1011E00068F44E855F854F5F5F4F5F874E87A6012E
:1011F000421B530B840F951F9B8B8A8B8A819B818B
:10120000AC81BD812F5F3F4FA90170E060E04817BE
:1012100059076A077B0708F0D3C03D8F2C8F809158
:101220002D01482F50E02E853F856E897F89261B32
:10123000370B4217530728F08E859F852E893F89EB
:10124000821B80932D010990D881C02D209709F031
:101250001FCF80912B01882389F0BB2079F0E0918A
:101260002F01F0913001908180912E01809589238A
:10127000808310923301809132018EBDDF91CF9136
:101280001F910F91FF90EF90DF90CF90BF90AF90A4
:101290009F908F907F906F905F900895843051F170
:1012A000833089F68E899F89800F911F9F8B8E8B4B
:1012B0002E893F898E859F852817390770F01F8AF0
:1012C0001E8A8EA18E3F09F4CFC06DA166FB6627F2
:1012D00060F96A250E940B01A8A280912D012E853C
:1012E0003F854E895F89241B350B8217130608F44E
:1012F000A8CFA2CF8FA1823009F4A5CF8EA18E3FB7
:1013000009F47BC06DA166FB662760F90E940B01A2
:10131000888D998D9F878E878A8D9B8D892B11F55E
:1013200088A280912D012E853F858217130608F42F
:1013300088CF8E859F8585CFE7FFECCEE85FEA8773
:10134000F8948DA18F71853009F0EBCE8091320138
:10135000807FEE0FFF0BEB5FFE4F9081892B809318
:10136000320148C098A2DDCF88A1873009F41FCF91
:1013700008F057C0853009F052CF8C859D859F8736
:101380008E878A899B8928893989820F931F893C96
:10139000910508F070C09B8B8A8B4A815B816C81C0
:1013A0007D812A8D3B8DC9010196B0E0A0E08417B4
:1013B0009507A607B70708F432CF232B09F42FCFE0
:1013C00078A22DCF833009F4D4C0843009F0C5CE83
:1013D000809131018F70EE0FFF0BEB5FFE4F20818C
:1013E000318122953295307F3227207F3227822B20
:1013F00080933101BB24B394B0CEEA85EE0FFF0B8E
:10140000EB5FFE4F6081CE010E94B707B82E80CF00
:101410001D8E1C8E8DA187FD72C0FF86EE86A8A250
:10142000FECE8A3008F0FBCE2C8D3D8D8A8D9B8DB3
:101430008217930750F14A815B816C817D81C901DC
:10144000B0E0A0E084179507A607B70708F498A2B4
:101450002115310521F0215031093D8F2C8F8C89C8
:101460009D89F901709622C060E0CE010E94B70705
:10147000B82EA8A232CF885C91099B8B8A8B8E856F
:101480009F8501969F878E8788CF4E8D5F8DB9018E
:10149000681B790B4617570708F086C0241B350BCD
:1014A0003D8F2C8FF90170968C899D89BF010E9418
:1014B000550E7F876E874A895B89840F951F9B8BAA
:1014C0008A8BE817F90708F0AACE4E855F854F5F33
:1014D0005F4F5F874E87A601421B530B840F951FFA
:1014E0009B8B8A8B9CCE2C853D853F872E872889B8
:1014F00039893B8B2A8B9D8F8C8F88A290CE888DCB
:10150000998D9F878E8768A241E050E081E08BCE65
:10151000EE0FFF0BEB5FFE4F90818CA9892780FFB8
:1015200008C0E8A5F9A52AA5308190FF60C0232B4B
:10153000208381FF08C0EBA5FCA52DA5308191FF7C
:1015400052C0232B208382FF08C0EEA5FFA528A947
:10155000308192FF44C0232B208383FF08C0E9A978
:10156000FAA98BA9208193FF36C0822B80839CAB84
:10157000F4CD80913101807FEE0FFF0BEB5FFE4FCA
:101580009081892B35CF809132018F70EE0FFF0B48
:10159000EB5FFE4F2081318122953295307F3227DB
:1015A000207F3227822BDBCE88A29D8F8C8F8C856B
:1015B0009D859F878E871B8A1A8A8FA1813009F0AB
:1015C0002ECE5FA28DA187FF2ACE888D998D9F8711
:1015D0008E8768A224CE809582238083C8CF2095F1
:1015E00023232083BACF209523232083ACCF2095BB
:1015F000232320839ECF8DA5908180958923A4CD20
:101600009F92AF92BF92CF92DF92EF92FF920F9391
:101610001F93CF93DF9300D0CDB7DEB7FC01EC5B17
:10162000FF4F2081233009F07EC08C0169834A83FB
:10163000CE0101965C016801F12CE12CF50191903D
:101640005F01892D90E0FC01EF53FF4FE491F0E042
:10165000EE0FFF1FE355FF4F25913491F60131A79F
:1016600020A7FC01EB52FF4FE491D701AA0FBB1F4B
:10167000AE0DBF1DA00FB11F9A96EC930E94EC0017
:1016800060E0892D0E940B01F3E0CF0ED11CEA949B
:10169000EF2809F044C0FF24F394F801F38685A1F4
:1016A000807E886085A3F0A250E040E068EB7BE09C
:1016B000C8010E94550580912A0181111CC08FB775
:1016C000F894109280009AE19093810020E43CE924
:1016D000309387002093860024E630E03093890021
:1016E0002093880020E931E030938B0020938A001A
:1016F0008FBFF0922A0180916F00846080936F0009
:1017000081E00F900F90DF91CF911F910F91FF908B
:10171000EF90DF90CF90BF90AF909F900895EE2410
:10172000E394F12C8BCF80E0ECCF1F920F920FB699
:101730000F9211242F933F938F939F93AF93BF9357
:101740008091350190913601A0913701B091380117
:101750003091340123E0230F2D3758F50196A11D58
:10176000B11D209334018093350190933601A093ED
:101770003701B09338018091390190913A01A091DD
:101780003B01B0913C010196A11DB11D809339012F
:1017900090933A01A0933B01B0933C01BF91AF916C
:1017A0009F918F913F912F910F900FBE0F901F909F
:1017B000189526E8230F0296A11DB11DD2CF1F92C6
:1017C0000F920FB60F9211242F933F934F935F9375
:1017D0006F937F938F939F93AF93BF93EF93FF93F9
:1017E00080E491E00E94FA01FF91EF91BF91AF91E7
:1017F0009F918F917F916F915F914F913F912F9129
:101800000F900FBE0F901F9018951F920F920FB65A
:101810000F9211242F938F939F93EF93FF93E09157
:101820005001F09151018081E0915601F0915701F2
:1018300082FD1BC09081809159018F5F8F73209131
:101840005A01821741F0E0915901F0E0E05CFE4F4F
:10185000958F80935901FF91EF919F918F912F91D7
:101860000F900FBE0F901F9018958081F4CF1F929C
:101870000F920FB60F9211248F939F93EF93FF93C4
:101880008091330191E0980F9093330181110CC046
:10189000809131018EBDFF91EF919F918F910F90BB
:1018A0000FBE0F901F901895E0912F01F09130011D
:1018B000808190912E01892B808310923301EBCF90
:1018C0001F920F920FB60F9211242F933F934F93B5
:1018D0005F936F937F938F939F93AF93BF93CF93B8
:1018E000EF93FF9389E180932D01C09100018C2F2C
:1018F0000E941A0880E090E0892B19F08C2F0E943A
:101900000000F89420912D01213009F040C0809111
:1019100084009091850020918A0030918B00821B79
:10192000930B893E23E0920710F0805C9346873842
:10193000914030F180918400909185000A96813425
:101940002CE9920710F080549C4990938B0080936F
:101950008A00789480912D0180930001FF91EF918E
:10196000CF91BF91AF919F918F917F916F915F9137
:101970004F913F912F910F900FBE0F901F90189590
:1019800080918A0090918B0080579E4FD8CF809194
:101990008A0090918B00B0E0A0E0B595A79597954F
:1019A000879548EC249F90011124820F931F813268
:1019B0002EE4920710F080529E44880F991FC5CFE5
:1019C000E0E4F1E01382128288EE93E0A0E0B0E060
:1019D00084839583A683B78389E191E09183808393
:1019E00085EC90E09587848784EC90E097878687E4
:1019F00080EC90E0918B808B81EC90E0938B828BDC
:101A000082EC90E0958B848B86EC90E0978B868BB4
:101A1000118E128E138E148E88EB92E00E94A0001D
:101A20008FE692E00E94A00086E292E00E94A00071
:101A30008DED91E00C94A000789484B5826084BD13
:101A400084B5816084BD85B5826085BD85B58160C2
:101A500085BD80916E00816080936E001092810040
:101A600080918100826080938100809181008160FB
:101A700080938100809180008160809380008091BC
:101A8000B10084608093B1008091B0008160809348
:101A9000B00080917A00846080937A0080917A000F
:101AA000826080937A0080917A00816080937A00CE
:101AB00080917A00806880937A001092C100E09152
:101AC0005001F091510182E08083E0914C01F0914E
:101AD0004D011082E0914E01F0914F0180E1808331
:101AE00010925801E0915401F091550186E08083F5
:101AF000E0915201F0915301808180618083E091F7
:101B00005201F0915301808188608083E0915201FD
:101B1000F0915301808180688083E0915201F091BF
:101B2000530180818F7D808388E00E94EC0060E01B
:101B300088E00E940B0145E062E088EB92E00E94A1
:101B4000000B88EB92E00E94B00788EB92E00E94C5
:101B5000670746E063E08FE692E00E94000B8FE6A5
:101B600092E00E94B0078FE692E00E94670747E08C
:101B700064E086E292E00E94000B86E292E00E941E
:101B8000B00786E292E00E9467074DE06CE08DEDC1
:101B900091E00E94000B8DED91E00E94B0078DED69
:101BA00091E00E94670788E690E00E946902C0E029
:101BB000D0E088EB92E00E94AD0281116BC08FE60D
:101BC00092E00E94AD02811165C086E292E00E941F
:101BD000AD0281115FC08DED91E00E94AD028111D7
:101BE00059C00E9457014B015C0180EDC82E87E06F
:101BF000D82EE12CF12C0E945701681979098A0925
:101C00009B09683E734081059105A8F321E0C21A43
:101C1000D108E108F10888EE880E83E0981EA11C27
:101C2000B11CC114D104E104F10429F784E890E067
:101C30000E946902C0900101D0900201E09003016E
:101C4000F0900401F094E094D094C094C11CD11C95
:101C5000E11CF11CC0920101D0920201E09203014B
:101C6000F0920401B701A60188EB92E00E945903AB
:101C7000B701A6018FE692E00E945903B701A601C1
:101C800086E292E00E945903B701A6018DED91E032
:101C90000E945903209709F48CCF0E94E601882303
:101CA00009F487CF0E94000084CFAA1BBB1B51E11F
:101CB00007C0AA1FBB1FA617B70710F0A61BB70BBC
:101CC000881F991F5A95A9F780959095BC01CD0161
:101CD0000895052E97FB1EF400940E94800E57FD78
:101CE00007D00E94A20E07FC03D04EF40C94800E85
:101CF00050954095309521953F4F4F4F5F4F089538
:101D000090958095709561957F4F8F4F9F4F089567
:101D1000A29FB001B39FC001A39F700D811D11242C
:101D2000911DB29F700D811D1124911D08950E9477
:101D3000880EA59F900DB49F900DA49F800D911DBE
:101D400011240895A1E21A2EAA1BBB1BFD010DC090
:101D5000AA1FBB1FEE1FFF1FA217B307E407F5075B
:101D600020F0A21BB30BE40BF50B661F771F881F37
:101D7000991F1A9469F760957095809590959B01CD
:101D8000AC01BD01CF010895EE0FFF1F0590F49146
:101D9000E02D0994F894FFCF0112FDFFFF0300022C
:101DA00000060004000C000800090001000000000B
:101DB000001C027C01A9018D02DA01B801CC010DE1
:021DC0000A0017
:107E0000112484B714BE81FFF0D085E080938100F7
:107E100082E08093C00088E18093C10086E0809377
:107E2000C20080E18093C4008EE0C9D0259A86E02C
:107E300020E33CEF91E0309385002093840096BBD3
:107E4000B09BFECF1D9AA8958150A9F7CC24DD24C4
:107E500088248394B5E0AB2EA1E19A2EF3E0BF2EE7
:107E6000A2D0813461F49FD0082FAFD0023811F036
:107E7000013811F484E001C083E08DD089C08234E0
:107E800011F484E103C0853419F485E0A6D080C0E4
:107E9000853579F488D0E82EFF2485D0082F10E0AE
:107EA000102F00270E291F29000F111F8ED06801E7
:107EB0006FC0863521F484E090D080E0DECF843638
:107EC00009F040C070D06FD0082F6DD080E0C81688
:107ED00080E7D80618F4F601B7BEE895C0E0D1E017
:107EE00062D089930C17E1F7F0E0CF16F0E7DF06D8
:107EF00018F0F601B7BEE89568D007B600FCFDCFD4
:107F0000A601A0E0B1E02C9130E011968C91119780
:107F100090E0982F8827822B932B1296FA010C0160
:107F200087BEE89511244E5F5F4FF1E0A038BF0790
:107F300051F7F601A7BEE89507B600FCFDCF97BE46
:107F4000E89526C08437B1F42ED02DD0F82E2BD052
:107F50003CD0F601EF2C8F010F5F1F4F84911BD097
:107F6000EA94F801C1F70894C11CD11CFA94CF0C13
:107F7000D11C0EC0853739F428D08EE10CD085E9AC
:107F80000AD08FE07ACF813511F488E018D01DD067
:107F900080E101D065CF982F8091C00085FFFCCF94
:107FA0009093C60008958091C00087FFFCCF809118
:107FB000C00084FD01C0A8958091C6000895E0E648
:107FC000F0E098E1908380830895EDDF803219F02E
:107FD00088E0F5DFFFCF84E1DECF1F93182FE3DFCA
:107FE0001150E9F7F2DF1F91089580E0E8DFEE27F6
:047FF000FF270994CA
:027FFE00040479
:00000001FF
