:020000040000FA
:100000000C94B0000C94D8000C94D8000C94D80038
:100010000C94D8000C94D8000C94D8000C94D80000
:100020000C94D8000C94D8000C94D8000C94D800F0
:100030000C94150D0C94D8000C94D8000C94D80096
:100040000C944A0C0C94EC0C0C94BA0C0C94940C7C
:100050000C94D8000C94D8000C94D8000C94D800C0
:100060000C94D8000C94D800416363656C5374659C
:100070007070657220546573742067657374617263
:10008000746574005455524E210053544F502E0045
:1000900043414C49342052454C454153454400436B
:1000A000414C493420505245535345440043414C40
:1000B00049332052454C45415345440043414C4946
:1000C0003320505245535345440043414C4932205C
:1000D00052454C45415345440043414C4932205020
:1000E0005245535345440043414C49312052454CFD
:1000F00045415345440043414C49312050524553FA
:100100005345440000000000240027002A0000009E
:100110000000250028002B0000000000230026001E
:10012000290004040404040404040202020202027A
:1001300003030303030301020408102040800102AB
:10014000040810200102040810200000000800022A
:100150000100000304070000000000000000950DEE
:1001600011241FBECFEFD8E0DEBFCDBF11E0A0E06D
:10017000B1E0E4EBF1E202C005900D92AE33B107BD
:10018000D9F723E0AEE3B1E001C01D92A531B2077B
:10019000E1F710E0C0EBD0E004C02197FE010E941F
:1001A000D210CF3AD107C9F70E94D10D0C94D810C4
:1001B0000C940000CF93DF93FC019091530195AB19
:1001C00040E85CE060E070E046AB57AB60AF71AF19
:1001D000EF01CC5BDF4F83E08883128213821482AD
:1001E00015821286838720E23EE43787268726859C
:1001F000378535872487118A108A11A212A213A28B
:1002000014A210A2138E128E85A12FEF26A3807C3C
:100210008F7785A311821082A0915101B091520174
:1002200021E531E0109729F09D010D90BC91A02DA2
:10023000F9CFD901ED93FC9381E0890F80935301AD
:10024000963008F01882DF91CF910895833081F0C5
:1002500028F4813099F08230A9F008958730A9F010
:100260008830C9F08430B1F4809180008F7D03C064
:10027000809180008F7780938000089584B58F7778
:1002800084BD089584B58F7DFBCF8091B0008F77BA
:100290008093B00008958091B0008F7DF9CFCF9307
:1002A000DF93282F30E0F901E65BFE4F8491F901DE
:1002B000EA5CFE4FD491F901EE5DFE4FC491CC2370
:1002C000A1F081110E942601EC2FF0E0EE0FFF1F3C
:1002D000E85EFE4FA591B491EC91ED2381E090E0B2
:1002E00009F480E0DF91CF91089580E090E0FACFAB
:1002F0001F93CF93DF93282F30E0F901E65BFE4F89
:100300008491F901EA5CFE4FD491F901EE5DFE4F54
:10031000C491CC23A9F0162F81110E942601EC2F45
:10032000F0E0EE0FFF1FE25FFE4FA591B4918FB793
:10033000F894EC91111108C0D095DE23DC938FBFA7
:10034000DF91CF911F910895DE2BF8CFCF93DF93EC
:1003500090E0FC01EA5CFE4F24918E5D9E4FFC0113
:1003600084918823D1F090E0880F991FFC01EC5F05
:10037000FE4FA591B491FC01E25FFE4FC591D4916F
:10038000623071F49FB7F8943C91822F809583235B
:100390008C93E8812E2B28839FBFDF91CF91089506
:1003A0008FB7F894EC912E2B2C938FBFF6CFAF9292
:1003B000BF92CF92DF92EF92FF920F931F93CF9352
:1003C000DF936C017B018B01040F151FEB015E01B4
:1003D000AE18BF08C017D10759F06991D601ED9149
:1003E000FC910190F081E02DC6010995892B79F7E8
:1003F000C501DF91CF911F910F91FF90EF90DF909A
:10040000CF90BF90AF900895FC01538D448D252F60
:1004100030E0842F90E0821B930B541710F0CF969E
:10042000089501970895FC01918D828D981761F0D0
:10043000A28DAE0FBF2FB11D5D968C91928D9F5FE7
:100440009F73928F90E008958FEF9FEF0895FC01C6
:10045000918D828D981731F0828DE80FF11D858D79
:1004600090E008958FEF9FEF0895FC01918D228D0C
:10047000892F90E0805C9F4F821B91098F73992791
:10048000089584E591E00E94350221E0892B09F46A
:1004900020E0822F089580E090E0892B29F00E94CF
:1004A000410281110C9400000895FC01A48DA80F55
:1004B000B92FB11DA35ABF4F2C91848D90E00196A6
:1004C0008F739927848FA689B7892C93A089B189C6
:1004D0008C91837080648C93938D848D981306C067
:1004E0000288F389E02D80818F7D80830895EF92CB
:1004F000FF920F931F93CF93DF93EC0181E0888FDE
:100500009B8D8C8D98131AC0E889F989808185FFAD
:1005100015C09FB7F894EE89FF896083E889F9894F
:1005200080818370806480839FBF81E090E0DF9151
:10053000CF911F910F91FF90EF900895F62E0B8DA4
:1005400010E00F5F1F4F0F731127E02E8C8D8E115F
:100550000CC00FB607FCFACFE889F989808185FFC6
:10056000F5CFCE010E945502F1CFEB8DEC0FFD2FA0
:10057000F11DE35AFF4FF0829FB7F8940B8FEA8981
:10058000FB8980818062CFCF0F931F93CF93DF933E
:100590008C01D0E0C0E0F801EC0FFD1F64916623F0
:1005A00041F084E591E00E947702892B11F02196B9
:1005B000F2CF42E050E06BE371E084E591E00E940D
:1005C000D7018C0F9D1FDF91CF911F910F9108953F
:1005D000CF93DF93EC01888D8823B9F0AA89BB897A
:1005E000E889F9898C9185FD03C0808186FD0DC065
:1005F0000FB607FCF7CF8C9185FFF2CF808185FF86
:10060000EDCFCE010E945502E9CFDF91CF91089541
:100610008F929F92AF92BF92CF92DF92EF92FF9212
:10062000FC0185A18F7109F47BC080916F008B7FE5
:1006300080936F00809140018F5F80934001789498
:10064000C280D380E480F58086819781A085B185C2
:10065000C80ED91EEA1EFB1E80914001882319F0A6
:1006600081508093400180914001811105C08091AB
:100670006F00846080936F001C141D041E041F040F
:10068000D4F5E05CFF4F80809180A280B380B7FEFC
:1006900008C0B094A09490948094811C911CA11CDB
:1006A000B11C8FEF881A980AA80AB80A84E1C81604
:1006B0008EEAD80687E4E80681E0F80634F5A4E679
:1006C000B0E0A70196010E94A510A50194010E9427
:1006D000771069017A018FEFC81AD80AE80AF80A78
:1006E0008FEFC816D104E104F10429F024F0C12CE5
:1006F000D12C7601CA948C2DFF90EF90DF90CF9093
:10070000BF90AF909F908F900895C501B40124E6EB
:1007100030E040E050E00E947710C701B601D7CF2B
:1007200080E0EACFFC0190916F009B7F90936F0077
:10073000909140019F5F90934001789481E090A157
:10074000953008F480E090914001992319F0915080
:100750009093400190914001911105C090916F00DC
:10076000946090936F0008958F929F92AF92BF9282
:10077000CF92DF92EF92FF920F931F93CF93DF936D
:10078000EC016A017B018DA18F7109F407C1F89416
:1007900089A19AA1ABA1BCA18E010B5B1F4FF801EF
:1007A00080839183A283B383789431972081F80169
:1007B0006081718182819381233009F082C09B0125
:1007C000AC018DA18F7109F4E9C0C21AD30AE40A01
:1007D000F50AFE01E05CFF4FC082D182E282F38223
:1007E0008A8D9B8D892B21F488A1893009F051C114
:1007F00046015701F7FE07C08824992454018C183C
:100800009D08AE08BF08CE010E949203882309F418
:1008100009C18B8518160CF05AC01C141D041E0447
:100820001F040CF459C080916F008B7F80936F0080
:10083000809140018F5F80934001789449A15AA133
:100840006BA17CA1F80180819181A281B381481BB9
:10085000590B6A0B7B0B14161506160617060CF0BF
:10086000D2C049A15AA16BA17CA18A019B01081B9E
:10087000190B2A0B3B0BD901C801880E991EAA1E21
:10088000BB1E8C8D9D8D28A1293009F0C5C02A8DF5
:100890003B8D821B930B6E8D7F8D0E946310620FC8
:1008A000731FCB01B0E0A0E08A839B83AC83BD8340
:1008B0008A819B81AC81BD81880D991DAA1DBB1DBC
:1008C00059C030E050E040E00E9477107ACF882392
:1008D00009F4A9CFF7FEA7CF80916F008B7F80939B
:1008E0006F00809140018F5F80934001789449A10F
:1008F0005AA16BA17CA1F80180819181A281B38171
:10090000481B590B6A0B7B0B1416150616061706A7
:100910000CF051C049A15AA16BA17CA18A019B0195
:10092000081B190B2A0B3B0BD901C801881A990A1D
:10093000AA0ABB0A8C8D9D8D28A1293009F044C0DC
:100940002A8D3B8D821B930B6E8D7F8D0E946310D1
:10095000620F731FCB01B0E0A0E088169906AA06CB
:10096000BB0664F48A839B83AC83BD838819990991
:10097000AA09BB098E839F83A887B987809140010C
:10098000882319F0815080934001809140018111AA
:1009900005C080916F00846080936F00DF91CF91DC
:1009A0001F910F91FF90EF90DF90CF90BF90AF908D
:1009B0009F908F90089549A15AA16BA17CA1841B9F
:1009C000950BA60BB70BB2CFAC0170E060E04815F9
:1009D00059056A057B050CF455C00196B0E0A0E00E
:1009E0008A839B83AC83BD838A819B81AC81BD81DB
:1009F00088199909AA09BB098E839F83A887B9879B
:100A000088E088A3BBCF49A15AA16BA17CA1841B1C
:100A1000950BA60BB70B31CFBC016F5F7F4F88E002
:100A200088A33FCFC114D104E104F10409F4B6CF87
:100A30008B85082E000C990B97FF03C0919581952B
:100A400091091C141D041E041F040CF08195909143
:100A50006F009B7F90936F00909140019F5F9093F8
:100A6000400178941F8A1E8A24E130E03F872E8758
:100A70001B8A1A8A9DA197FF0AC094E098A38B87CE
:100A80001D8E1C8E8A829B82AC82BD8277CF97E0BE
:100A9000F5CF8B85082E000C990B97FF03C091951D
:100AA000819591091C141D041E041F040CF08195EE
:100AB00090916F009B7F90936F00909140019F5F9A
:100AC000909340017894F801408151816281738153
:100AD0004C0D5D1D6E1D7F1D09A11AA12BA13CA10E
:100AE0004A015B01801A910AA20AB30A95018401A6
:100AF000101611061206130624F509A11AA12BA13E
:100B00003CA1401B510B620B730B8B874A835B83A9
:100B10006C837D8381E0CD28CE28CF2809F471CF66
:100B200088A1853008F02ACF1F8A1E8A84E190E0D0
:100B30009F878E871B8A1A8A8DA187FF0FC084E04A
:100B400060CF09A11AA12BA13CA148015901841A27
:100B5000950AA60AB70AB501A401D7CF85E051CFFF
:100B60002F923F924F925F926F927F928F929F92BD
:100B7000AF92BF92CF92DF92EF92FF920F931F93AB
:100B8000CF93DF93CDB7DEB72E970FB6F894DEBFC5
:100B90000FBECDBF9A838983FC0195A19F7109F493
:100BA000EEC11A0157FF04C022243324241A350A47
:100BB00057FF03C0F1E02F1A310881E828168EE3B1
:100BC000380620F030E8232E3EE3332E8A014B0115
:100BD000E981FA81FE87ED8780916F008B7F80939A
:100BE0006F00809140018F5F809340017894672B64
:100BF00009F097C187A1882309F472C124E1A22ECC
:100C0000B12C1092400180916F00846080936F003E
:100C1000950150E040E060E876E988E990E00E94C4
:100C2000771069017A0188EC482E512C612C712CC7
:100C3000CA01B901A30192010E9477102D833E835E
:100C40004F83588769877A878B879C87D101509615
:100C5000A70196010E94A510A30192010E9477109E
:100C6000293EFDEF3F0741055105ECF060E47DE5CD
:100C700086EC90E0A70196010E947710190180E1AF
:100C8000281A31082131310510F4312C212CD101E1
:100C90005096A70196010E94A51028EC30E040E094
:100CA00050E00E947710390117FD06C0ED85FE85E2
:100CB000B7AEA6AE35AE24AE80916F008B7F809329
:100CC0006F00809140018F5F809340017894ED85A3
:100CD000FE85828D938D820D931D892B09F4C8C0EA
:100CE000CF010E949203882309F4C2C0ED85FE85DE
:100CF000848995898615970509F4BAC0F5E0FB83C8
:100D000041E050E05A834983ED85FE85F0A1FC83E4
:100D1000ED85FE85C280D380E480F580FB81F150B3
:100D2000FB83FF2339F01092400180916F008460B3
:100D300080936F00ED85FE85048D158D9801205FF1
:100D40003F4FD3010E9496102489358950E040E03E
:100D50000E9477102901F0E14F1A51082131310525
:100D600010F4512C412CED85FE8582AD93ADA81673
:100D7000B90629F12414350408F0F7C09201AAE05D
:100D8000B0E00E9496100115110509F0E6C06B5FF6
:100D90007F4F8F4F9F4F2AE030E040E050E00E94AD
:100DA0007710C90129839A8349815A81141615063F
:100DB00024F081E090E09A83898399E09C83ED851B
:100DC000FE850681178120853185C20169817A817E
:100DD0000E946310CB01B0E0A0E0B701A601401B68
:100DE000510B620B730B481759076A077B0708F012
:100DF000BFC0C201B0E0A0E00C191D092E093F09D7
:100E0000080F191F2A1F3B1FF8E0FC834B81442366
:100E100059F040916F004B7F40936F00409140012B
:100E20004F5F409340017894ED85FE854281538168
:100E300064817581C416D506E606F70619F0FB81B4
:100E4000F11162CF4C81ED85FE8540A3558E448E15
:100E500049815A81578F468F0097A105B10541F00E
:100E600082839383A483B583068317832087318786
:100E70004D815E81ED85FE855587448789859A85FC
:100E8000918B808B758A648A338E228E10924001FA
:100E900080916F00846080936F00892811F4B12CD9
:100EA000A12CED85FE85B3AEA2AE828D938D2E96DC
:100EB0000FB6F894DEBF0FBECDBFDF91CF911F916B
:100EC0000F91FF90EF90DF90CF90BF90AF909F90E9
:100ED0008F907F906F905F904F903F902F900895EC
:100EE0008D859E850E9492038823B9F0ED85FE854D
:100EF000828D938D892B19F081E087A37FCE82E0CC
:100F0000ED85FE8587A385A187FF78CE808D918DA5
:100F10009787868783E080A371CE82E0ED85FE858A
:100F2000ECCFED85FE8585A187FF09C087A18230C2
:100F300031F4808D918D9787868784E080A354015A
:100F4000F9EA8F16F1E69F0620F098EAA92E91E6BD
:100F5000B92EED85FE8517A254CE980150E040E0F1
:100F60000E947710CA01B90112CFE7E0EC8327CFC6
:100F700000E010E0980180E090E0DC0147CF90E0D5
:100F800080E095CF0F931F93CF93DF938C01FC01EB
:100F900085A18F71C9F126A937A940AD51ADA0E255
:100FA000B3E00E94A5106C39F3EE7F07F6E18F07DE
:100FB00091053CF52CE330E040E050E00E947710D2
:100FC000922F832FC92FD82FC93A21E6D20710F0CC
:100FD000C8EAD1E6F801A4ADB5AD9E010E94961015
:100FE00026AD37AD50E040E00E947710A901409552
:100FF0005095BE01C801DF91CF911F910F910C94C4
:10100000B00598EA81E6DECF90E080E0DF91CF91F5
:101010001F910F910895FC0162AD73AD48EC50E053
:101020000C94B005CF93DF93DC0195969C91959736
:101030009F71953009F44AC030F49330A9F194308F
:10104000E9F180E038C0963009F447C09730C9F71D
:10105000ED0150E040E070E088A599A59A01220FCB
:10106000331FFB01042E02C0F595E7950A94E2F7C1
:10107000240F351FE0FF0FC0FD01E20FF31F22A573
:10108000FC013081232B20834F5F5F4F2396443038
:10109000510511F7D6CFFD01E20FF31F22A5FC0188
:1010A000308120952323EFCF80914501807F682BED
:1010B0006093450181E0DF91CF91089580914501D2
:1010C0008F70F0E16F9FB0011124F1CF8091460144
:1010D000807F682B60934601EDCF809146018F7031
:1010E00090E1699FB0011124F4CF2F923F924F926B
:1010F0005F926F927F928F929F92AF92BF92CF92A8
:10110000DF92EF92FF920F931F93CF93DF93789428
:10111000C0915101D0915201209709F40DC1B12C19
:10112000082F10E0AA24A39465E0862E77E0972E7E
:10113000E8E07E2EF0EFCF2EDD24DA94A2E05A2EE6
:10114000B3E06B2E88E8E82E83E1F82E8DA18F7135
:10115000883049F4F8948AA5E8A5F9A5908180958E
:1011600089238083789488A1853008F4F8C08FA102
:10117000823009F4C6C08E859F85892B31F08E8917
:101180009F89800F911F9F8B8E8B2E893F898E8523
:101190009F852817390708F4A0C01F8A1E8A49A115
:1011A0005AA16BA17CA12B85822F022E000C990BDA
:1011B000AA0BBB0B840F951FA61FB71F89A39AA369
:1011C000ABA3BCA3EA85E20FE8300CF453C1E0E026
:1011D000EA87F8948DA18F71853009F455C1863066
:1011E00008F48EC1873009F43EC208F477C2883013
:1011F00091F4EBA5FCA58B8518160CF0B0C29DA54B
:101200008081892B8083A09241019AA5E8A5F9A548
:101210008081892B808378948A819B81AC81BD8178
:101220000197A109B1098A839B83AC83BD838A811D
:101230009B81AC81BD81892B8A2B8B2B09F032C11C
:101240008E819F81A885B9850097A105B10509F414
:1012500086C12B8521952B878A839B83AC83BD8395
:101260001E821F821886198698A22C8D3D8D8A8D2C
:101270009B8D2817390708F0E1C18C899D89F901F8
:101280007096BF010E9463107F876E874A895B89D1
:10129000840F951F9B8B8A8BE817F90768F44E859E
:1012A0005F854F5F5F4F5F874E87A601421B530BE1
:1012B000840F951F9B8B8A8B8A819B81AC81BD811A
:1012C0002F5F3F4FA90170E060E0481759076A0798
:1012D0007B0708F013C13D8F2C8F80914101482F6F
:1012E00050E02E853F856E897F89261B370B42177C
:1012F000530728F08E859F852E893F89821B809316
:1013000041010990D881C02D209709F01FCF80910D
:101310003F01882389F0BB2079F0E0914301F091EF
:1013200044019081809142018095892380831092AD
:101330004701809146018EBDDF91CF911F910F91A2
:10134000FF90EF90DF90CF90BF90AF909F908F90E5
:101350007F906F905F904F903F902F9008958430D2
:1013600009F446C0833069F68E899F89800F911FEA
:101370009F8B8E8B2E893F898E859F8528173907F5
:1013800050F11F8A1E8A2EA12E3F09F414C130E0AD
:10139000F901E65BFE4F8491F901EA5CFE4F44904F
:1013A000F901EE5DFE4F24902220A1F03DA08111B5
:1013B000C3C1E22DF0E0EE0FFF1FE25FFE4FA591EB
:1013C000B4918FB7F89436FE9DC19C914094492208
:1013D0004C928FBFA8A2809141012E853F854E89F6
:1013E0005F89241B350B8217130608F488CF82CF40
:1013F0008FA1823009F485CF2EA12E3F09F49BC026
:1014000030E0F901E65BFE4F8491F901EA5CFE4FA2
:101410004490F901EE5DFE4F24902220B9F03DA0EA
:1014200036FA332430F881116AC1E22DF0E0EE0F74
:10143000FF1FE25FFE4FA591B4918FB7F894332060
:1014400009F4C0C0EC914E2A4C928FBF888D998DC3
:101450009F878E878A8D9B8D892B11F588A280911D
:1014600041012E853F858217130608F448CF8E85EB
:101470009F8545CFE7FFACCEE85FEA87F8948DA162
:101480008F71853009F0ABCE80914601807FEE0FE1
:10149000FF0BE75EFE4F9081892B8093460148C089
:1014A00098A2DDCF88A1873009F4DFCE08F060C0B4
:1014B000853009F012CF8C859D859F878E878A891C
:1014C0009B8928893989820F931F893C910508F0EF
:1014D0007DC09B8B8A8B4A815B816C817D812A8D4B
:1014E0003B8DC9010196B0E0A0E084179507A607DF
:1014F000B70708F4F2CE232B09F4EFCE78A2EDCE95
:10150000833009F4E1C0843009F085CE8091450133
:101510008F70EE0FFF0BE75EFE4F20813181229529
:101520003295307F3227207F3227822B80934501EE
:10153000BB24B39470CEEA85EE0FFF0BE75EFE4F3F
:101540006081CE010E941208B82E888D998D9F87E8
:101550008E878A8D9B8D892B09F480CFA1CF1D8E1C
:101560001C8E8DA187FD76C0FF86EE86A8A2B5CE23
:101570008A3008F0B2CE2C8D3D8D8A8D9B8D8217DE
:10158000930770F14A815B816C817D81C901B0E074
:10159000A0E084179507A607B70708F498A22115BD
:1015A000310521F0215031093D8F2C8F8C899D8987
:1015B000F901709626C060E0CE010E941208B82E94
:1015C000A8A209CF9C91409449223ECF885C910902
:1015D0009B8B8A8B8E859F8501969F878E877BCF7D
:1015E0004E8D5F8DB901681B790B4617570708F0C0
:1015F0008CC0241B350B3D8F2C8FF90170968C8984
:101600009D89BF010E9463107F876E874A895B892D
:10161000840F951F9B8B8A8BE817F90708F05DCE26
:101620004E855F854F5F5F4F5F874E87A601421BE8
:10163000530B840F951F9B8B8A8B4FCE2C853D853A
:101640003F872E87288939893B8B2A8B9D8F8C8FEA
:1016500088A243CE888D998D9F878E8768A241E0AE
:1016600050E081E03ECEEE0FFF0BE75EFE4F908133
:101670008CA9892780FF08C0E8A5F9A52AA5308193
:1016800090FF69C0232B208381FF08C0EBA5FCA538
:101690002DA5308191FF5BC0232B208382FF08C0E2
:1016A000EEA5FFA528A9308192FF4DC0232B2083F2
:1016B00083FF08C0E9A9FAA98BA9208193FF3FC045
:1016C000822B80839CABA7CD80914501807FEE0F5C
:1016D000FF0BE75EFE4F9081892B28CF809146015A
:1016E0008F70EE0FFF0BE75EFE4F20813181229558
:1016F0003295307F3227207F3227822BCECE0E9438
:10170000260193CEEC914E2A63CE88A29D8F8C8FBA
:101710008C859D859F878E871B8A1A8A8FA1813031
:1017200009F0DBCD5FA28DA187FFD7CD888D998D84
:101730009F878E8768A2D1CD0E9426013ACE8095E0
:1017400082238083BFCF209523232083B1CF209590
:1017500023232083A3CF20952323208395CF8DA5FA
:101760009081809589234ECD9F92AF92BF92CF9268
:10177000DF92EF92FF920F931F93CF93DF9300D0EE
:10178000CDB7DEB7FC01EC5BFF4F2081233009F0C1
:101790007FC08C0169834A83CE0101965C01680198
:1017A000F12CE12CF50191905F01892D90E0FC0175
:1017B000EE5DFE4FE491F0E0EE0FFF1FE25FFE4FA3
:1017C00025913491F60131A720A7FC01EA5CFE4F78
:1017D000E491D701AA0FBB1FAE0DBF1DA00FB11F13
:1017E0009A96EC9361E00E94A60160E0892D0E9428
:1017F0007801F3E0CF0ED11CEA94EF2809F044C041
:10180000FF24F394F801F38685A1807E886085A388
:10181000F0A250E040E068EB7BE0C8010E94B00518
:1018200080913E0181111CC08FB7F8941092800006
:101830009AE19093810020E43CE930938700209363
:10184000860024E630E0309389002093880020E968
:1018500031E030938B0020938A008FBFF0923E01DD
:1018600080916F00846080936F0081E00F900F90F3
:10187000DF91CF911F910F91FF90EF90DF90CF906C
:10188000BF90AF909F900895EE24E394F12C8ACFFF
:1018900080E0ECCF1F920F920FB60F9211242F937E
:1018A0003F938F939F93AF93BF9380914D019091FE
:1018B0004E01A0914F01B091500130914C0123E0B5
:1018C000230F2D3758F50196A11DB11D20934C0112
:1018D00080934D0190934E01A0934F01B09350011E
:1018E0008091480190914901A0914A01B0914B012A
:1018F0000196A11DB11D8093480190934901A093C9
:101900004A01B0934B01BF91AF919F918F913F914D
:101910002F910F900FBE0F901F90189526E8230F60
:101920000296A11DB11DD2CF1F920F920FB60F923A
:1019300011242F933F934F935F936F937F938F93D4
:101940009F93AF93BF93EF93FF9384E591E00E9441
:101950005502FF91EF91BF91AF919F918F917F9130
:101960006F915F914F913F912F910F900FBE0F900C
:101970001F9018951F920F920FB60F9211242F935C
:101980008F939F93EF93FF93E0916401F091650132
:101990008081E0916A01F0916B0182FD1BC0908112
:1019A00080916D018F5F8F7320916E01821741F0DE
:1019B000E0916D01F0E0EC5AFE4F958F80936D0140
:1019C000FF91EF919F918F912F910F900FBE0F90EC
:1019D0001F9018958081F4CF1F920F920FB60F922F
:1019E00011248F939F93EF93FF938091470191E090
:1019F000980F9093470181110CC0809145018EBDD5
:101A0000FF91EF919F918F910F900FBE0F901F90BC
:101A10001895E0914301F091440180819091420139
:101A2000892B808310924701EBCF1F920F920FB644
:101A30000F9211242F933F934F935F936F937F9354
:101A40008F939F93AF93BF93CF93EF93FF9389E1CE
:101A500080934101C09100018C2F0E94750880E0A5
:101A600090E0892B19F08C2F0E940000F8942091AF
:101A70004101213009F040C080918400909185009F
:101A800020918A0030918B00821B930B893E23E0CA
:101A9000920710F0805C93468738914030F1809136
:101AA0008400909185000A9681342CE9920710F009
:101AB00080549C4990938B0080938A007894809105
:101AC000410180930001FF91EF91CF91BF91AF91C0
:101AD0009F918F917F916F915F914F913F912F9146
:101AE0000F900FBE0F901F90189580918A009091D3
:101AF0008B0080579E4FD8CF80918A0090918B00A9
:101B0000B0E0A0E0B595A7959795879548EC249F00
:101B100090011124820F931F81322EE4920710F05E
:101B200080529E44880F991FC5CFE4E5F1E01382EF
:101B3000128288EE93E0A0E0B0E084839583A683D0
:101B4000B7838DE291E09183808385EC90E0958767
:101B5000848784EC90E09787868780EC90E0918B77
:101B6000808B81EC90E0938B828B82EC90E0958B64
:101B7000848B86EC90E0978B868B118E128E138E61
:101B8000148E8CEC92E00E94DA0083E892E00E94CE
:101B9000DA008AE392E00E94DA0081EF91E00C948F
:101BA000DA00789484B5826084BD84B5816084BD98
:101BB00085B5826085BD85B5816085BD80916E00EB
:101BC000816080936E00109281008091810082601C
:101BD0008093810080918100816080938100809159
:101BE00080008160809380008091B1008460809348
:101BF000B1008091B00081608093B00080917A0044
:101C0000846080937A0080917A00826080937A0069
:101C100080917A00816080937A0080917A00806858
:101C200080937A001092C100E0916401F091650107
:101C300082E08083E0916001F09161011082E09187
:101C40006201F091630180E1808310926C01E09168
:101C50006801F091690186E08083E0916601F0916E
:101C60006701808180618083E0916601F091670166
:101C7000808188608083E0916601F09167018081B6
:101C800080688083E0916601F091670180818F7D9B
:101C9000808362E089E00E94A60162E08AE00E94FF
:101CA000A60162E08BE00E94A60162E081E10E9451
:101CB000A60161E088E00E94A60160E088E00E9441
:101CC000780145E062E08CEC92E00E94B40B8CEC71
:101CD00092E00E940B088CEC92E00E94C20746E062
:101CE00063E083E892E00E94B40B83E892E00E94F4
:101CF0000B0883E892E00E94C20747E064E08AE3B1
:101D000092E00E94B40B8AE392E00E940B088AE3FF
:101D100092E00E94C2074DE06CE081EF91E00E94EA
:101D2000B40B81EF91E00E940B0881EF91E00E94DB
:101D3000C20788E690E00E94C402C0E0D0E0882498
:101D40008A94982C54018FB7F894C0904D01D0908C
:101D50004E01E0904F01F09050018FBF89E00E944A
:101D60004F01892B09F05AC08091150190911601FD
:101D7000A0911701B09118018F3F9F4FAF4FBF4FF8
:101D800009F04CC0C0921501D0921601E0921701E3
:101D9000F092180186EF90E00E94C4028AE00E944F
:101DA0004F01892B71F48091110190911201A09142
:101DB0001301B09114018F3F9F4FAF4FBF4F09F4F4
:101DC0005AC08AE00E944F01019709F060C08091DB
:101DD000110190911201A0911301B09114018F3F54
:101DE0004FEF9407A407B40709F451C0A701960167
:101DF000281B390B4A0B5B0BDA01C9010A97A105B5
:101E0000B1050CF444C08092110190921201A0928D
:101E10001301B09214018AEC90E037C089E00E946F
:101E20004F01019709F0BACF8091150190911601E9
:101E3000A0911701B09118018F3F3FEF9307A307BF
:101E4000B30709F4ABCFA7019601281B390B4A0B46
:101E50005B0BDA01C9010A97A105B1050CF49ECF0D
:101E60008092150190921601A0921701B09218016C
:101E700087EE90E091CFC0921101D0921201E092D2
:101E80001301F092140189ED90E00E94C4028BE0EE
:101E90000E944F01892B69F480910D0190910E01F0
:101EA000A0910F01B09110018F3F9F4FAF4FBF4FD7
:101EB00051F18BE00E944F01019789F580910D014E
:101EC00090910E01A0910F01B09110018F3F4FEF43
:101ED0009407A407B40719F1A7019601281B390B31
:101EE0004A0B5B0BDA01C9010A97A105B105BCF0E9
:101EF00080920D0190920E01A0920F01B0921001FC
:101F00008DEA90E00AC0C0920D01D0920E01E092DD
:101F10000F01F09210018CEB90E00E94C40281E16D
:101F20000E944F01892B69F48091090190910A0167
:101F3000A0910B01B0910C018F3F9F4FAF4FBF4F4E
:101F400051F181E10E944F01019789F580910901CA
:101F500090910A01A0910B01B0910C018F3F4FEFBE
:101F60009407A407B40719F1A7019601281B390BA0
:101F70004A0B5B0BDA01C9010A97A105B105BCF058
:101F80008092090190920A01A0920B01B0920C017B
:101F900080E990E00AC0C0920901D0920A01E09263
:101FA0000B01F0920C018FE990E00E94C4028CECCE
:101FB00092E00E9408034090050150900601609055
:101FC000070170900801882389F03FEF43165306FC
:101FD0006306730681F5209709F4B5CE0E9441028D
:101FE000882309F4B0CE0E940000ADCE83E892E0D1
:101FF0000E9408038111E9CF8AE392E00E9408035E
:102000008111E3CF81EF91E00E9408038111DDCFC0
:102010004FEF441654066406740669F4C092050135
:10202000D0920601E0920701F09208018AE890E060
:102030000E94C402D0CFC418D508E608F70850EDB6
:10204000C51657E0D506E104F1042CF28092050193
:1020500090920601A0920701B092080184E890E0F6
:102060000E94C402C0900101D0900201E0900301DF
:10207000F0900401F094E094D094C094C11CD11C61
:10208000E11CF11CC0920101D0920201E092030117
:10209000F0920401B701A6018CEC92E00E94B40317
:1020A000B701A60183E892E00E94B403B701A6013C
:1020B0008AE392E00E94B403B701A60181EF91E0A8
:1020C0000E94B40388CFAA1BBB1B51E107C0AA1F03
:1020D000BB1FA617B70710F0A61BB70B881F991FC9
:1020E0005A95A9F780959095BC01CD010895052ECC
:1020F00097FB1EF400940E948E1057FD07D00E949B
:10210000B01007FC03D04EF40C948E1050954095FF
:10211000309521953F4F4F4F5F4F08959095809593
:10212000709561957F4F8F4F9F4F0895A29FB0018B
:10213000B39FC001A39F700D811D1124911DB29FFB
:10214000700D811D1124911D08950E949610A59F68
:10215000900DB49F900DA49F800D911D11240895A2
:10216000A1E21A2EAA1BBB1BFD010DC0AA1FBB1F9B
:10217000EE1FFF1FA217B307E407F50720F0A21B0D
:10218000B30BE40BF50B661F771F881F991F1A947A
:1021900069F760957095809590959B01AC01BD01A4
:1021A000CF010895EE0FFF1F0590F491E02D0994E3
:1021B000F894FFCF0112FDFFFFFFFFFFFFFFFFFFBE
:1021C000FFFFFFFFFFFFFFFFFFFFFFFFFF03000217
:1021D00000060004000C00080009000100000000D7
:1021E000007702D7010402E8023502130227020D2C
:0221F0000A00E3
:107E0000112484B714BE81FFF0D085E080938100F7
:107E100082E08093C00088E18093C10086E0809377
:107E2000C20080E18093C4008EE0C9D0259A86E02C
:107E300020E33CEF91E0309385002093840096BBD3
:107E4000B09BFECF1D9AA8958150A9F7CC24DD24C4
:107E500088248394B5E0AB2EA1E19A2EF3E0BF2EE7
:107E6000A2D0813461F49FD0082FAFD0023811F036
:107E7000013811F484E001C083E08DD089C08234E0
:107E800011F484E103C0853419F485E0A6D080C0E4
:107E9000853579F488D0E82EFF2485D0082F10E0AE
:107EA000102F00270E291F29000F111F8ED06801E7
:107EB0006FC0863521F484E090D080E0DECF843638
:107EC00009F040C070D06FD0082F6DD080E0C81688
:107ED00080E7D80618F4F601B7BEE895C0E0D1E017
:107EE00062D089930C17E1F7F0E0CF16F0E7DF06D8
:107EF00018F0F601B7BEE89568D007B600FCFDCFD4
:107F0000A601A0E0B1E02C9130E011968C91119780
:107F100090E0982F8827822B932B1296FA010C0160
:107F200087BEE89511244E5F5F4FF1E0A038BF0790
:107F300051F7F601A7BEE89507B600FCFDCF97BE46
:107F4000E89526C08437B1F42ED02DD0F82E2BD052
:107F50003CD0F601EF2C8F010F5F1F4F84911BD097
:107F6000EA94F801C1F70894C11CD11CFA94CF0C13
:107F7000D11C0EC0853739F428D08EE10CD085E9AC
:107F80000AD08FE07ACF813511F488E018D01DD067
:107F900080E101D065CF982F8091C00085FFFCCF94
:107FA0009093C60008958091C00087FFFCCF809118
:107FB000C00084FD01C0A8958091C6000895E0E648
:107FC000F0E098E1908380830895EDDF803219F02E
:107FD00088E0F5DFFFCF84E1DECF1F93182FE3DFCA
:107FE0001150E9F7F2DF1F91089580E0E8DFEE27F6
:047FF000FF270994CA
:027FFE00040479
:00000001FF
